{"contracts/final.sol":{"SmartContract":{"abi":[{"inputs":[{"internalType":"address","name":"_verifierAddress","type":"address"}],"stateMutability":"nonpayable","type":"constructor"},{"anonymous":false,"inputs":[{"indexed":true,"internalType":"address","name":"beneficiary","type":"address"},{"indexed":false,"internalType":"uint256","name":"amount","type":"uint256"}],"name":"BeneficiaryAdded","type":"event"},{"anonymous":false,"inputs":[{"indexed":true,"internalType":"address","name":"owner","type":"address"},{"indexed":false,"internalType":"uint32","name":"inactivityPeriod","type":"uint32"}],"name":"ContractDeployed","type":"event"},{"anonymous":false,"inputs":[{"indexed":true,"internalType":"address","name":"sender","type":"address"},{"indexed":false,"internalType":"uint256","name":"amount","type":"uint256"}],"name":"FundsDeposited","type":"event"},{"anonymous":false,"inputs":[{"indexed":true,"internalType":"address","name":"beneficiary","type":"address"},{"indexed":false,"internalType":"uint256","name":"amount","type":"uint256"}],"name":"FundsReleased","type":"event"},{"anonymous":false,"inputs":[{"indexed":false,"internalType":"uint256","name":"hashValue","type":"uint256"}],"name":"HashComputed","type":"event"},{"anonymous":false,"inputs":[{"indexed":true,"internalType":"address","name":"owner","type":"address"}],"name":"HeartbeatReceived","type":"event"},{"anonymous":false,"inputs":[{"indexed":false,"internalType":"bool","name":"valid","type":"bool"}],"name":"InactivityVerified","type":"event"},{"anonymous":false,"inputs":[{"indexed":false,"internalType":"bool","name":"valid","type":"bool"}],"name":"ProofVerified","type":"event"},{"inputs":[{"internalType":"address","name":"_beneficiary","type":"address"},{"internalType":"uint256","name":"_amount","type":"uint256"}],"name":"addBeneficiary","outputs":[],"stateMutability":"nonpayable","type":"function"},{"inputs":[{"internalType":"address","name":"","type":"address"}],"name":"beneficiaries","outputs":[{"internalType":"uint256","name":"","type":"uint256"}],"stateMutability":"view","type":"function"},{"inputs":[{"internalType":"uint256","name":"","type":"uint256"}],"name":"beneficiaryList","outputs":[{"internalType":"address","name":"","type":"address"}],"stateMutability":"view","type":"function"},{"inputs":[{"internalType":"uint256","name":"lastActive","type":"uint256"},{"internalType":"uint256","name":"ownerAsUint","type":"uint256"}],"name":"computePoseidonHash","outputs":[{"internalType":"uint256","name":"","type":"uint256"}],"stateMutability":"pure","type":"function"},{"inputs":[],"name":"depositFunds","outputs":[],"stateMutability":"payable","type":"function"},{"inputs":[],"name":"getLastActive","outputs":[{"internalType":"uint32","name":"","type":"uint32"}],"stateMutability":"view","type":"function"},{"inputs":[],"name":"getOwnerAddress","outputs":[{"internalType":"address","name":"","type":"address"}],"stateMutability":"view","type":"function"},{"inputs":[],"name":"heartbeat","outputs":[],"stateMutability":"nonpayable","type":"function"},{"inputs":[{"internalType":"uint256[2]","name":"a","type":"uint256[2]"},{"internalType":"uint256[2][2]","name":"b","type":"uint256[2][2]"},{"internalType":"uint256[2]","name":"c","type":"uint256[2]"},{"internalType":"uint256[2]","name":"input","type":"uint256[2]"}],"name":"heartbeatWithProof","outputs":[],"stateMutability":"nonpayable","type":"function"},{"inputs":[],"name":"inactivityPeriod","outputs":[{"internalType":"uint32","name":"","type":"uint32"}],"stateMutability":"view","type":"function"},{"inputs":[{"internalType":"uint32","name":"_inactivityPeriod","type":"uint32"}],"name":"initialize","outputs":[],"stateMutability":"nonpayable","type":"function"},{"inputs":[],"name":"owner","outputs":[{"internalType":"address","name":"","type":"address"}],"stateMutability":"view","type":"function"},{"inputs":[{"internalType":"address","name":"_groth16VerifierAddress","type":"address"}],"name":"setGroth16Verifier","outputs":[],"stateMutability":"nonpayable","type":"function"},{"inputs":[],"name":"triggerSwitch","outputs":[],"stateMutability":"nonpayable","type":"function"},{"inputs":[{"internalType":"uint256[2]","name":"a","type":"uint256[2]"},{"internalType":"uint256[2][2]","name":"b","type":"uint256[2][2]"},{"internalType":"uint256[2]","name":"c","type":"uint256[2]"},{"internalType":"uint256[3]","name":"input","type":"uint256[3]"}],"name":"triggerWithProof","outputs":[],"stateMutability":"nonpayable","type":"function"},{"inputs":[],"name":"verifier","outputs":[{"internalType":"contract Verifier","name":"","type":"address"}],"stateMutability":"view","type":"function"},{"inputs":[],"name":"verifier2","outputs":[{"internalType":"contract Groth16Verifier","name":"","type":"address"}],"stateMutability":"view","type":"function"},{"inputs":[],"name":"verifyInactivity","outputs":[{"internalType":"bool","name":"","type":"bool"}],"stateMutability":"view","type":"function"}],"evm":{"bytecode":{"linkReferences":{},"object":"60806040523480156200001157600080fd5b5060405162003516380380620035168339818101604052810190620000379190620000e8565b806000806101000a81548173ffffffffffffffffffffffffffffffffffffffff021916908373ffffffffffffffffffffffffffffffffffffffff160217905550506200011a565b600080fd5b600073ffffffffffffffffffffffffffffffffffffffff82169050919050565b6000620000b08262000083565b9050919050565b620000c281620000a3565b8114620000ce57600080fd5b50565b600081519050620000e281620000b7565b92915050565b6000602082840312156200010157620001006200007e565b5b60006200011184828501620000d1565b91505092915050565b6133ec806200012a6000396000f3fe6080604052600436106101095760003560e01c80638d8965bd11610095578063d362bd2b11610064578063d362bd2b14610357578063e2c41dbc14610382578063f169c0f51461038c578063f312186a146103b5578063fa492ca9146103cc57610109565b80638d8965bd1461029d5780638da5cb5b146102c657806396074e70146102f15780639e761bbb1461031a57610109565b8063399f6e24116100dc578063399f6e24146101cc5780633b6f865e146101f55780633defb9621461021e578063522d0d701461023557806352b7bc4c1461026057610109565b8063015677391461010e5780630c4f65bd1461014b5780632b7ac3f3146101765780633626157c146101a1575b600080fd5b34801561011a57600080fd5b5061013560048036038101906101309190611e49565b6103f7565b6040516101429190611e8f565b60405180910390f35b34801561015757600080fd5b5061016061040f565b60405161016d9190611eb9565b60405180910390f35b34801561018257600080fd5b5061018b610439565b6040516101989190611f33565b60405180910390f35b3480156101ad57600080fd5b506101b661045d565b6040516101c39190611f69565b60405180910390f35b3480156101d857600080fd5b506101f360048036038101906101ee9190611e49565b610594565b005b34801561020157600080fd5b5061021c60048036038101906102179190611fcd565b610668565b005b34801561022a57600080fd5b50610233610b7c565b005b34801561024157600080fd5b5061024a610cf2565b6040516102579190612057565b60405180910390f35b34801561026c57600080fd5b506102876004803603810190610282919061209e565b610d18565b6040516102949190611e8f565b60405180910390f35b3480156102a957600080fd5b506102c460048036038101906102bf919061211a565b610d79565b005b3480156102d257600080fd5b506102db610fd6565b6040516102e89190611eb9565b60405180910390f35b3480156102fd57600080fd5b5061031860048036038101906103139190612147565b610ffc565b005b34801561032657600080fd5b50610341600480360381019061033c9190612187565b61127f565b60405161034e9190611eb9565b60405180910390f35b34801561036357600080fd5b5061036c6112be565b60405161037991906121c3565b60405180910390f35b61038a6112d4565b005b34801561039857600080fd5b506103b360048036038101906103ae9190612200565b6113f7565b005b3480156103c157600080fd5b506103ca6117b7565b005b3480156103d857600080fd5b506103e1611840565b6040516103ee91906121c3565b60405180910390f35b60066020528060005260406000206000915090505481565b6000600260009054906101000a900473ffffffffffffffffffffffffffffffffffffffff16905090565b60008054906101000a900473ffffffffffffffffffffffffffffffffffffffff1681565b6000804290506000600260159054906101000a900463ffffffff16826104839190612298565b905060006105626004546005546003805461049d906122ff565b80601f01602080910402602001604051908101604052809291908181526020018280546104c9906122ff565b80156105165780601f106104eb57610100808354040283529160200191610516565b820191906000526020600020905b8154815290600101906020018083116104f957829003601f168201915b5050505050600260009054906101000a900473ffffffffffffffffffffffffffffffffffffffff1660405160200161054e9190611eb9565b60405160208183030381529060405261193a565b905060008180602001905181019061057a9190612345565b90508263ffffffff168163ffffffff161094505050505090565b600260009054906101000a900473ffffffffffffffffffffffffffffffffffffffff1673ffffffffffffffffffffffffffffffffffffffff163373ffffffffffffffffffffffffffffffffffffffff1614610624576040517f08c379a000000000000000000000000000000000000000000000000000000000815260040161061b906123cf565b60405180910390fd5b80600160006101000a81548173ffffffffffffffffffffffffffffffffffffffff021916908373ffffffffffffffffffffffffffffffffffffffff16021790555050565b600260009054906101000a900473ffffffffffffffffffffffffffffffffffffffff1673ffffffffffffffffffffffffffffffffffffffff163373ffffffffffffffffffffffffffffffffffffffff16146106f8576040517f08c379a00000000000000000000000000000000000000000000000000000000081526004016106ef906123cf565b60405180910390fd5b610700611dc4565b81600060028110610714576107136123ef565b5b60200201358160006002811061072d5761072c6123ef565b5b6020020181815250508160016002811061074a576107496123ef565b5b602002013581600160028110610763576107626123ef565b5b60200201818152505060008060009054906101000a900473ffffffffffffffffffffffffffffffffffffffff1673ffffffffffffffffffffffffffffffffffffffff1663f5c9d69e6040518060400160405280896000600281106107ca576107c96123ef565b5b60200201358152602001896001600281106107e8576107e76123ef565b5b6020020135815250604051806040016040528060405180604001604052808b60006002811061081a576108196123ef565b5b60400201600060028110610831576108306123ef565b5b602002013581526020018b60006002811061084f5761084e6123ef565b5b60400201600160028110610866576108656123ef565b5b6020020135815250815260200160405180604001604052808b600160028110610892576108916123ef565b5b604002016000600281106108a9576108a86123ef565b5b602002013581526020018b6001600281106108c7576108c66123ef565b5b604002016001600281106108de576108dd6123ef565b5b6020020135815250815250604051806040016040528089600060028110610908576109076123ef565b5b6020020135815260200189600160028110610926576109256123ef565b5b6020020135815250866040518563ffffffff1660e01b815260040161094e94939291906125c7565b602060405180830381865afa15801561096b573d6000803e3d6000fd5b505050506040513d601f19601f8201168201806040525081019061098f919061263a565b9050806109d1576040517f08c379a00000000000000000000000000000000000000000000000000000000081526004016109c8906126b3565b60405180910390fd5b7ff4d358772b552280f9395158c37bc77ddcbcdeaf62b20aa01276fb89d7ea19236001604051610a019190611f69565b60405180910390a1600083600160028110610a1f57610a1e6123ef565b5b6020020135905061012c42610a3491906126d3565b8110158015610a50575061012c42610a4c9190612707565b8111155b610a8f576040517f08c379a0000000000000000000000000000000000000000000000000000000008152600401610a8690612787565b60405180910390fd5b610aff60045460055442604051602001610aa991906121c3565b604051602081830303815290604052600260009054906101000a900473ffffffffffffffffffffffffffffffffffffffff16604051602001610aeb9190611eb9565b604051602081830303815290604052611a2f565b60039081610b0d9190612983565b50600260009054906101000a900473ffffffffffffffffffffffffffffffffffffffff1673ffffffffffffffffffffffffffffffffffffffff167f59db9904863f5c0703e74a4df99bfbad4374b3edb69328a2f7bc4df34851109760405160405180910390a250505050505050565b600260009054906101000a900473ffffffffffffffffffffffffffffffffffffffff1673ffffffffffffffffffffffffffffffffffffffff163373ffffffffffffffffffffffffffffffffffffffff1614610c0c576040517f08c379a0000000000000000000000000000000000000000000000000000000008152600401610c03906123cf565b60405180910390fd5b610c7c60045460055442604051602001610c2691906121c3565b604051602081830303815290604052600260009054906101000a900473ffffffffffffffffffffffffffffffffffffffff16604051602001610c689190611eb9565b604051602081830303815290604052611a2f565b60039081610c8a9190612983565b50600260009054906101000a900473ffffffffffffffffffffffffffffffffffffffff1673ffffffffffffffffffffffffffffffffffffffff167f59db9904863f5c0703e74a4df99bfbad4374b3edb69328a2f7bc4df34851109760405160405180910390a2565b600160009054906101000a900473ffffffffffffffffffffffffffffffffffffffff1681565b60007f30644e72e131a029b85045b68181585d2833e84879b9709143e1f593f00000018383604051602001610d4e929190612a76565b6040516020818303038152906040528051906020012060001c610d719190612ad1565b905092915050565b600260149054906101000a900460ff1615610dc9576040517f08c379a0000000000000000000000000000000000000000000000000000000008152600401610dc090612b4e565b60405180910390fd5b33600260006101000a81548173ffffffffffffffffffffffffffffffffffffffff021916908373ffffffffffffffffffffffffffffffffffffffff16021790555080600260156101000a81548163ffffffff021916908363ffffffff160217905550610e6b60206040518060400160405280600d81526020017f656e6372797074696f6e4b657900000000000000000000000000000000000000815250611b24565b610e7490612b9d565b600481905550610eba60206040518060400160405280600581526020017f6e6f6e6365000000000000000000000000000000000000000000000000000000815250611b24565b610ec390612b9d565b600581905550610f3960045460055442604051602001610ee391906121c3565b604051602081830303815290604052600260009054906101000a900473ffffffffffffffffffffffffffffffffffffffff16604051602001610f259190611eb9565b604051602081830303815290604052611a2f565b60039081610f479190612983565b506001600260146101000a81548160ff021916908315150217905550600260009054906101000a900473ffffffffffffffffffffffffffffffffffffffff1673ffffffffffffffffffffffffffffffffffffffff167f620dca0c9d04f7cea9d7f31e571d74acccd54c21dc8ff8855ec1d5a21733c26b82604051610fcb91906121c3565b60405180910390a250565b600260009054906101000a900473ffffffffffffffffffffffffffffffffffffffff1681565b600260009054906101000a900473ffffffffffffffffffffffffffffffffffffffff1673ffffffffffffffffffffffffffffffffffffffff163373ffffffffffffffffffffffffffffffffffffffff161461108c576040517f08c379a0000000000000000000000000000000000000000000000000000000008152600401611083906123cf565b60405180910390fd5b600073ffffffffffffffffffffffffffffffffffffffff168273ffffffffffffffffffffffffffffffffffffffff16036110fb576040517f08c379a00000000000000000000000000000000000000000000000000000000081526004016110f290612c50565b60405180910390fd5b6000811161113e576040517f08c379a000000000000000000000000000000000000000000000000000000000815260040161113590612cbc565b60405180910390fd5b6000600660008473ffffffffffffffffffffffffffffffffffffffff1673ffffffffffffffffffffffffffffffffffffffff16815260200190815260200160002054036111e9576007829080600181540180825580915050600190039060005260206000200160009091909190916101000a81548173ffffffffffffffffffffffffffffffffffffffff021916908373ffffffffffffffffffffffffffffffffffffffff1602179055505b80600660008473ffffffffffffffffffffffffffffffffffffffff1673ffffffffffffffffffffffffffffffffffffffff168152602001908152602001600020819055508173ffffffffffffffffffffffffffffffffffffffff167fe6b83177f11971ba30369bb38b914ffba97d5969a3c857b286fa8fdbb150b3ba826040516112739190611e8f565b60405180910390a25050565b6007818154811061128f57600080fd5b906000526020600020016000915054906101000a900473ffffffffffffffffffffffffffffffffffffffff1681565b600260159054906101000a900463ffffffff1681565b600260009054906101000a900473ffffffffffffffffffffffffffffffffffffffff1673ffffffffffffffffffffffffffffffffffffffff163373ffffffffffffffffffffffffffffffffffffffff1614611364576040517f08c379a000000000000000000000000000000000000000000000000000000000815260040161135b906123cf565b60405180910390fd5b600034116113a7576040517f08c379a000000000000000000000000000000000000000000000000000000000815260040161139e90612d28565b60405180910390fd5b3373ffffffffffffffffffffffffffffffffffffffff167f543ba50a5eec5e6178218e364b1d0f396157b3c8fa278522c2cb7fd99407d474346040516113ed9190611e8f565b60405180910390a2565b60006114d46004546005546003805461140f906122ff565b80601f016020809104026020016040519081016040528092919081815260200182805461143b906122ff565b80156114885780601f1061145d57610100808354040283529160200191611488565b820191906000526020600020905b81548152906001019060200180831161146b57829003601f168201915b5050505050600260009054906101000a900473ffffffffffffffffffffffffffffffffffffffff166040516020016114c09190611eb9565b60405160208183030381529060405261193a565b90506000818060200190518101906114ec9190612345565b90507fb62fa8c43c0f241f4a7b7bf2293ce4714ae0fc84f9584334751599bd528c2a1383600060038110611523576115226123ef565b5b60200201356040516115359190611e8f565b60405180910390a1600260159054906101000a900463ffffffff1663ffffffff168360016003811061156a576115696123ef565b5b6020020135146115af576040517f08c379a00000000000000000000000000000000000000000000000000000000081526004016115a690612d94565b60405180910390fd5b6000600160009054906101000a900473ffffffffffffffffffffffffffffffffffffffff1673ffffffffffffffffffffffffffffffffffffffff166311479fea888888886040518563ffffffff1660e01b81526004016116129493929190612e91565b602060405180830381865afa15801561162f573d6000803e3d6000fd5b505050506040513d601f19601f82011682018060405250810190611653919061263a565b905080611695576040517f08c379a000000000000000000000000000000000000000000000000000000000815260040161168c906126b3565b60405180910390fd5b7ff4d358772b552280f9395158c37bc77ddcbcdeaf62b20aa01276fb89d7ea192360016040516116c59190611f69565b60405180910390a142846002600381106116e2576116e16123ef565b5b60200201351115611728576040517f08c379a000000000000000000000000000000000000000000000000000000000815260040161171f90612f24565b60405180910390fd5b600260159054906101000a900463ffffffff16826117469190612f44565b63ffffffff16846002600381106117605761175f6123ef565b5b602002013510156117a6576040517f08c379a000000000000000000000000000000000000000000000000000000000815260040161179d90612fc8565b60405180910390fd5b6117ae611c13565b50505050505050565b6117bf61045d565b6117fe576040517f08c379a00000000000000000000000000000000000000000000000000000000081526004016117f590613034565b60405180910390fd5b7f76729d52b3ec041633e327fe49b91b757319a9cb241b0f6ce433ff396ee4dee6600160405161182e9190611f69565b60405180910390a161183e611c13565b565b60008061191e60045460055460038054611859906122ff565b80601f0160208091040260200160405190810160405280929190818152602001828054611885906122ff565b80156118d25780601f106118a7576101008083540402835291602001916118d2565b820191906000526020600020905b8154815290600101906020018083116118b557829003601f168201915b5050505050600260009054906101000a900473ffffffffffffffffffffffffffffffffffffffff1660405160200161190a9190611eb9565b60405160208183030381529060405261193a565b9050808060200190518101906119349190612345565b91505090565b606060008073010000000000000000000000000000000000000473ffffffffffffffffffffffffffffffffffffffff168787878760405160200161198194939291906130e8565b60405160208183030381529060405260405161199d9190613177565b600060405180830381855afa9150503d80600081146119d8576040519150601f19603f3d011682016040523d82523d6000602084013e6119dd565b606091505b509150915081611a22576040517f08c379a0000000000000000000000000000000000000000000000000000000008152600401611a19906131da565b60405180910390fd5b8092505050949350505050565b606060008073010000000000000000000000000000000000000373ffffffffffffffffffffffffffffffffffffffff1687878787604051602001611a7694939291906130e8565b604051602081830303815290604052604051611a929190613177565b600060405180830381855afa9150503d8060008114611acd576040519150601f19603f3d011682016040523d82523d6000602084013e611ad2565b606091505b509150915081611b17576040517f08c379a0000000000000000000000000000000000000000000000000000000008152600401611b0e90613246565b60405180910390fd5b8092505050949350505050565b606060008073010000000000000000000000000000000000000173ffffffffffffffffffffffffffffffffffffffff168585604051602001611b67929190613266565b604051602081830303815290604052604051611b839190613177565b600060405180830381855afa9150503d8060008114611bbe576040519150601f19603f3d011682016040523d82523d6000602084013e611bc3565b606091505b509150915081611c08576040517f08c379a0000000000000000000000000000000000000000000000000000000008152600401611bff906132e2565b60405180910390fd5b809250505092915050565b600047905060008111611c5b576040517f08c379a0000000000000000000000000000000000000000000000000000000008152600401611c529061334e565b60405180910390fd5b60005b600780549050811015611dc057600060078281548110611c8157611c806123ef565b5b9060005260206000200160009054906101000a900473ffffffffffffffffffffffffffffffffffffffff1690506000600660008373ffffffffffffffffffffffffffffffffffffffff1673ffffffffffffffffffffffffffffffffffffffff168152602001908152602001600020549050600081118015611d025750808410155b15611dab578173ffffffffffffffffffffffffffffffffffffffff166108fc829081150290604051600060405180830381858888f19350505050158015611d4d573d6000803e3d6000fd5b508173ffffffffffffffffffffffffffffffffffffffff167f221c08a06b07a64803b3787861a3f276212fcccb51c2e6234077a9b8cb13047a82604051611d949190611e8f565b60405180910390a28084611da891906126d3565b93505b50508080611db89061336e565b915050611c5e565b5050565b6040518060400160405280600290602082028036833780820191505090505090565b600080fd5b600073ffffffffffffffffffffffffffffffffffffffff82169050919050565b6000611e1682611deb565b9050919050565b611e2681611e0b565b8114611e3157600080fd5b50565b600081359050611e4381611e1d565b92915050565b600060208284031215611e5f57611e5e611de6565b5b6000611e6d84828501611e34565b91505092915050565b6000819050919050565b611e8981611e76565b82525050565b6000602082019050611ea46000830184611e80565b92915050565b611eb381611e0b565b82525050565b6000602082019050611ece6000830184611eaa565b92915050565b6000819050919050565b6000611ef9611ef4611eef84611deb565b611ed4565b611deb565b9050919050565b6000611f0b82611ede565b9050919050565b6000611f1d82611f00565b9050919050565b611f2d81611f12565b82525050565b6000602082019050611f486000830184611f24565b92915050565b60008115159050919050565b611f6381611f4e565b82525050565b6000602082019050611f7e6000830184611f5a565b92915050565b600080fd5b600081905082602060020282011115611fa557611fa4611f84565b5b92915050565b600081905082604060020282011115611fc757611fc6611f84565b5b92915050565b6000806000806101408587031215611fe857611fe7611de6565b5b6000611ff687828801611f89565b945050604061200787828801611fab565b93505060c061201887828801611f89565b92505061010061202a87828801611f89565b91505092959194509250565b600061204182611f00565b9050919050565b61205181612036565b82525050565b600060208201905061206c6000830184612048565b92915050565b61207b81611e76565b811461208657600080fd5b50565b60008135905061209881612072565b92915050565b600080604083850312156120b5576120b4611de6565b5b60006120c385828601612089565b92505060206120d485828601612089565b9150509250929050565b600063ffffffff82169050919050565b6120f7816120de565b811461210257600080fd5b50565b600081359050612114816120ee565b92915050565b6000602082840312156121305761212f611de6565b5b600061213e84828501612105565b91505092915050565b6000806040838503121561215e5761215d611de6565b5b600061216c85828601611e34565b925050602061217d85828601612089565b9150509250929050565b60006020828403121561219d5761219c611de6565b5b60006121ab84828501612089565b91505092915050565b6121bd816120de565b82525050565b60006020820190506121d860008301846121b4565b92915050565b6000819050826020600302820111156121fa576121f9611f84565b5b92915050565b600080600080610160858703121561221b5761221a611de6565b5b600061222987828801611f89565b945050604061223a87828801611fab565b93505060c061224b87828801611f89565b92505061010061225d878288016121de565b91505092959194509250565b7f4e487b7100000000000000000000000000000000000000000000000000000000600052601160045260246000fd5b60006122a3826120de565b91506122ae836120de565b9250828203905063ffffffff8111156122ca576122c9612269565b5b92915050565b7f4e487b7100000000000000000000000000000000000000000000000000000000600052602260045260246000fd5b6000600282049050600182168061231757607f821691505b60208210810361232a576123296122d0565b5b50919050565b60008151905061233f816120ee565b92915050565b60006020828403121561235b5761235a611de6565b5b600061236984828501612330565b91505092915050565b600082825260208201905092915050565b7f4e6f7420746865206f776e657200000000000000000000000000000000000000600082015250565b60006123b9600d83612372565b91506123c482612383565b602082019050919050565b600060208201905081810360008301526123e8816123ac565b9050919050565b7f4e487b7100000000000000000000000000000000000000000000000000000000600052603260045260246000fd5b600060029050919050565b600081905092915050565b6000819050919050565b61244781611e76565b82525050565b6000612459838361243e565b60208301905092915050565b6000602082019050919050565b61247b8161241e565b6124858184612429565b925061249082612434565b8060005b838110156124c15781516124a8878261244d565b96506124b383612465565b925050600181019050612494565b505050505050565b600060029050919050565b600081905092915050565b6000819050919050565b600081905092915050565b6124fd8161241e565b61250781846124e9565b925061251282612434565b8060005b8381101561254357815161252a878261244d565b965061253583612465565b925050600181019050612516565b505050505050565b600061255783836124f4565b60408301905092915050565b6000602082019050919050565b612579816124c9565b61258381846124d4565b925061258e826124df565b8060005b838110156125bf5781516125a6878261254b565b96506125b183612563565b925050600181019050612592565b505050505050565b6000610140820190506125dd6000830187612472565b6125ea6040830186612570565b6125f760c0830185612472565b612605610100830184612472565b95945050505050565b61261781611f4e565b811461262257600080fd5b50565b6000815190506126348161260e565b92915050565b6000602082840312156126505761264f611de6565b5b600061265e84828501612625565b91505092915050565b7f496e76616c6964205a4b2070726f6f6600000000000000000000000000000000600082015250565b600061269d601083612372565b91506126a882612667565b602082019050919050565b600060208201905081810360008301526126cc81612690565b9050919050565b60006126de82611e76565b91506126e983611e76565b925082820390508181111561270157612700612269565b5b92915050565b600061271282611e76565b915061271d83611e76565b925082820190508082111561273557612734612269565b5b92915050565b7f54696d657374616d70206f7574206f662076616c69642072616e676500000000600082015250565b6000612771601c83612372565b915061277c8261273b565b602082019050919050565b600060208201905081810360008301526127a081612764565b9050919050565b600081519050919050565b7f4e487b7100000000000000000000000000000000000000000000000000000000600052604160045260246000fd5b60008190508160005260206000209050919050565b60006020601f8301049050919050565b600082821b905092915050565b6000600883026128437fffffffffffffffffffffffffffffffffffffffffffffffffffffffffffffffff82612806565b61284d8683612806565b95508019841693508086168417925050509392505050565b600061288061287b61287684611e76565b611ed4565b611e76565b9050919050565b6000819050919050565b61289a83612865565b6128ae6128a682612887565b848454612813565b825550505050565b600090565b6128c36128b6565b6128ce818484612891565b505050565b5b818110156128f2576128e76000826128bb565b6001810190506128d4565b5050565b601f82111561293757612908816127e1565b612911846127f6565b81016020851015612920578190505b61293461292c856127f6565b8301826128d3565b50505b505050565b600082821c905092915050565b600061295a6000198460080261293c565b1980831691505092915050565b60006129738383612949565b9150826002028217905092915050565b61298c826127a7565b67ffffffffffffffff8111156129a5576129a46127b2565b5b6129af82546122ff565b6129ba8282856128f6565b600060209050601f8311600181146129ed57600084156129db578287015190505b6129e58582612967565b865550612a4d565b601f1984166129fb866127e1565b60005b82811015612a23578489015182556001820191506020850194506020810190506129fe565b86831015612a405784890151612a3c601f891682612949565b8355505b6001600288020188555050505b505050505050565b6000819050919050565b612a70612a6b82611e76565b612a55565b82525050565b6000612a828285612a5f565b602082019150612a928284612a5f565b6020820191508190509392505050565b7f4e487b7100000000000000000000000000000000000000000000000000000000600052601260045260246000fd5b6000612adc82611e76565b9150612ae783611e76565b925082612af757612af6612aa2565b5b828206905092915050565b7f416c726561647920696e697469616c697a656400000000000000000000000000600082015250565b6000612b38601383612372565b9150612b4382612b02565b602082019050919050565b60006020820190508181036000830152612b6781612b2b565b9050919050565b6000819050602082019050919050565b6000819050919050565b6000612b948251612b7e565b80915050919050565b6000612ba8826127a7565b82612bb284612b6e565b9050612bbd81612b88565b92506020821015612bfd57612bf87fffffffffffffffffffffffffffffffffffffffffffffffffffffffffffffffff83602003600802612806565b831692505b5050919050565b7f496e76616c696420616464726573730000000000000000000000000000000000600082015250565b6000612c3a600f83612372565b9150612c4582612c04565b602082019050919050565b60006020820190508181036000830152612c6981612c2d565b9050919050565b7f416d6f756e74206d7573742062652067726561746572207468616e2030000000600082015250565b6000612ca6601d83612372565b9150612cb182612c70565b602082019050919050565b60006020820190508181036000830152612cd581612c99565b9050919050565b7f4d7573742073656e642045544800000000000000000000000000000000000000600082015250565b6000612d12600d83612372565b9150612d1d82612cdc565b602082019050919050565b60006020820190508181036000830152612d4181612d05565b9050919050565b7f496e616374697669747920706572696f64206d69736d61746368000000000000600082015250565b6000612d7e601a83612372565b9150612d8982612d48565b602082019050919050565b60006020820190508181036000830152612dad81612d71565b9050919050565b82818337505050565b612dc960408383612db4565b5050565b600060029050919050565b6000819050919050565b612dee60408383612db4565b5050565b6000612dfe8383612de2565b60408301905092915050565b600082905092915050565b6000604082019050919050565b612e2b81612dcd565b612e3581846124d4565b9250612e4082612dd8565b8060005b83811015612e7957612e568284612e0a565b612e608782612df2565b9650612e6b83612e15565b925050600181019050612e44565b505050505050565b612e8d60608383612db4565b5050565b600061016082019050612ea76000830187612dbd565b612eb46040830186612e22565b612ec160c0830185612dbd565b612ecf610100830184612e81565b95945050505050565b7f4675747572652074696d657374616d7000000000000000000000000000000000600082015250565b6000612f0e601083612372565b9150612f1982612ed8565b602082019050919050565b60006020820190508181036000830152612f3d81612f01565b9050919050565b6000612f4f826120de565b9150612f5a836120de565b9250828201905063ffffffff811115612f7657612f75612269565b5b92915050565b7f496e616374697669747920706572696f64206e6f74206d657400000000000000600082015250565b6000612fb2601983612372565b9150612fbd82612f7c565b602082019050919050565b60006020820190508181036000830152612fe181612fa5565b9050919050565b7f4f776e6572206973207374696c6c206163746976650000000000000000000000600082015250565b600061301e601583612372565b915061302982612fe8565b602082019050919050565b6000602082019050818103600083015261304d81613011565b9050919050565b61305d81612b7e565b82525050565b600082825260208201905092915050565b60005b83811015613092578082015181840152602081019050613077565b60008484015250505050565b6000601f19601f8301169050919050565b60006130ba826127a7565b6130c48185613063565b93506130d4818560208601613074565b6130dd8161309e565b840191505092915050565b60006080820190506130fd6000830187613054565b61310a6020830186613054565b818103604083015261311c81856130af565b9050818103606083015261313081846130af565b905095945050505050565b600081905092915050565b6000613151826127a7565b61315b818561313b565b935061316b818560208601613074565b80840191505092915050565b60006131838284613146565b915081905092915050565b7f646563727970743a206661696c65640000000000000000000000000000000000600082015250565b60006131c4600f83612372565b91506131cf8261318e565b602082019050919050565b600060208201905081810360008301526131f3816131b7565b9050919050565b7f656e63727970743a206661696c65640000000000000000000000000000000000600082015250565b6000613230600f83612372565b915061323b826131fa565b602082019050919050565b6000602082019050818103600083015261325f81613223565b9050919050565b600060408201905061327b6000830185611e80565b818103602083015261328d81846130af565b90509392505050565b7f72616e646f6d42797465733a206661696c656400000000000000000000000000600082015250565b60006132cc601383612372565b91506132d782613296565b602082019050919050565b600060208201905081810360008301526132fb816132bf565b9050919050565b7f4e6f2066756e647320617661696c61626c650000000000000000000000000000600082015250565b6000613338601283612372565b915061334382613302565b602082019050919050565b600060208201905081810360008301526133678161332b565b9050919050565b600061337982611e76565b91507fffffffffffffffffffffffffffffffffffffffffffffffffffffffffffffffff82036133ab576133aa612269565b5b60018201905091905056fea2646970667358221220b38677d89a24cc46b458bf96b82475e5578860d5ed4d97604bd9e39d284c9af664736f6c63430008140033","opcodes":"PUSH1 0x80 PUSH1 0x40 MSTORE CALLVALUE DUP1 ISZERO PUSH3 0x11 JUMPI PUSH1 0x0 DUP1 REVERT JUMPDEST POP PUSH1 0x40 MLOAD PUSH3 0x3516 CODESIZE SUB DUP1 PUSH3 0x3516 DUP4 CODECOPY DUP2 DUP2 ADD PUSH1 0x40 MSTORE DUP2 ADD SWAP1 PUSH3 0x37 SWAP2 SWAP1 PUSH3 0xE8 JUMP JUMPDEST DUP1 PUSH1 0x0 DUP1 PUSH2 0x100 EXP DUP2 SLOAD DUP2 PUSH20 0xFFFFFFFFFFFFFFFFFFFFFFFFFFFFFFFFFFFFFFFF MUL NOT AND SWAP1 DUP4 PUSH20 0xFFFFFFFFFFFFFFFFFFFFFFFFFFFFFFFFFFFFFFFF AND MUL OR SWAP1 SSTORE POP POP PUSH3 0x11A JUMP JUMPDEST PUSH1 0x0 DUP1 REVERT JUMPDEST PUSH1 0x0 PUSH20 0xFFFFFFFFFFFFFFFFFFFFFFFFFFFFFFFFFFFFFFFF DUP3 AND SWAP1 POP SWAP2 SWAP1 POP JUMP JUMPDEST PUSH1 0x0 PUSH3 0xB0 DUP3 PUSH3 0x83 JUMP JUMPDEST SWAP1 POP SWAP2 SWAP1 POP JUMP JUMPDEST PUSH3 0xC2 DUP2 PUSH3 0xA3 JUMP JUMPDEST DUP2 EQ PUSH3 0xCE JUMPI PUSH1 0x0 DUP1 REVERT JUMPDEST POP JUMP JUMPDEST PUSH1 0x0 DUP2 MLOAD SWAP1 POP PUSH3 0xE2 DUP2 PUSH3 0xB7 JUMP JUMPDEST SWAP3 SWAP2 POP POP JUMP JUMPDEST PUSH1 0x0 PUSH1 0x20 DUP3 DUP5 SUB SLT ISZERO PUSH3 0x101 JUMPI PUSH3 0x100 PUSH3 0x7E JUMP JUMPDEST JUMPDEST PUSH1 0x0 PUSH3 0x111 DUP5 DUP3 DUP6 ADD PUSH3 0xD1 JUMP JUMPDEST SWAP2 POP POP SWAP3 SWAP2 POP POP JUMP JUMPDEST PUSH2 0x33EC DUP1 PUSH3 0x12A PUSH1 0x0 CODECOPY PUSH1 0x0 RETURN INVALID PUSH1 0x80 PUSH1 0x40 MSTORE PUSH1 0x4 CALLDATASIZE LT PUSH2 0x109 JUMPI PUSH1 0x0 CALLDATALOAD PUSH1 0xE0 SHR DUP1 PUSH4 0x8D8965BD GT PUSH2 0x95 JUMPI DUP1 PUSH4 0xD362BD2B GT PUSH2 0x64 JUMPI DUP1 PUSH4 0xD362BD2B EQ PUSH2 0x357 JUMPI DUP1 PUSH4 0xE2C41DBC EQ PUSH2 0x382 JUMPI DUP1 PUSH4 0xF169C0F5 EQ PUSH2 0x38C JUMPI DUP1 PUSH4 0xF312186A EQ PUSH2 0x3B5 JUMPI DUP1 PUSH4 0xFA492CA9 EQ PUSH2 0x3CC JUMPI PUSH2 0x109 JUMP JUMPDEST DUP1 PUSH4 0x8D8965BD EQ PUSH2 0x29D JUMPI DUP1 PUSH4 0x8DA5CB5B EQ PUSH2 0x2C6 JUMPI DUP1 PUSH4 0x96074E70 EQ PUSH2 0x2F1 JUMPI DUP1 PUSH4 0x9E761BBB EQ PUSH2 0x31A JUMPI PUSH2 0x109 JUMP JUMPDEST DUP1 PUSH4 0x399F6E24 GT PUSH2 0xDC JUMPI DUP1 PUSH4 0x399F6E24 EQ PUSH2 0x1CC JUMPI DUP1 PUSH4 0x3B6F865E EQ PUSH2 0x1F5 JUMPI DUP1 PUSH4 0x3DEFB962 EQ PUSH2 0x21E JUMPI DUP1 PUSH4 0x522D0D70 EQ PUSH2 0x235 JUMPI DUP1 PUSH4 0x52B7BC4C EQ PUSH2 0x260 JUMPI PUSH2 0x109 JUMP JUMPDEST DUP1 PUSH4 0x1567739 EQ PUSH2 0x10E JUMPI DUP1 PUSH4 0xC4F65BD EQ PUSH2 0x14B JUMPI DUP1 PUSH4 0x2B7AC3F3 EQ PUSH2 0x176 JUMPI DUP1 PUSH4 0x3626157C EQ PUSH2 0x1A1 JUMPI JUMPDEST PUSH1 0x0 DUP1 REVERT JUMPDEST CALLVALUE DUP1 ISZERO PUSH2 0x11A JUMPI PUSH1 0x0 DUP1 REVERT JUMPDEST POP PUSH2 0x135 PUSH1 0x4 DUP1 CALLDATASIZE SUB DUP2 ADD SWAP1 PUSH2 0x130 SWAP2 SWAP1 PUSH2 0x1E49 JUMP JUMPDEST PUSH2 0x3F7 JUMP JUMPDEST PUSH1 0x40 MLOAD PUSH2 0x142 SWAP2 SWAP1 PUSH2 0x1E8F JUMP JUMPDEST PUSH1 0x40 MLOAD DUP1 SWAP2 SUB SWAP1 RETURN JUMPDEST CALLVALUE DUP1 ISZERO PUSH2 0x157 JUMPI PUSH1 0x0 DUP1 REVERT JUMPDEST POP PUSH2 0x160 PUSH2 0x40F JUMP JUMPDEST PUSH1 0x40 MLOAD PUSH2 0x16D SWAP2 SWAP1 PUSH2 0x1EB9 JUMP JUMPDEST PUSH1 0x40 MLOAD DUP1 SWAP2 SUB SWAP1 RETURN JUMPDEST CALLVALUE DUP1 ISZERO PUSH2 0x182 JUMPI PUSH1 0x0 DUP1 REVERT JUMPDEST POP PUSH2 0x18B PUSH2 0x439 JUMP JUMPDEST PUSH1 0x40 MLOAD PUSH2 0x198 SWAP2 SWAP1 PUSH2 0x1F33 JUMP JUMPDEST PUSH1 0x40 MLOAD DUP1 SWAP2 SUB SWAP1 RETURN JUMPDEST CALLVALUE DUP1 ISZERO PUSH2 0x1AD JUMPI PUSH1 0x0 DUP1 REVERT JUMPDEST POP PUSH2 0x1B6 PUSH2 0x45D JUMP JUMPDEST PUSH1 0x40 MLOAD PUSH2 0x1C3 SWAP2 SWAP1 PUSH2 0x1F69 JUMP JUMPDEST PUSH1 0x40 MLOAD DUP1 SWAP2 SUB SWAP1 RETURN JUMPDEST CALLVALUE DUP1 ISZERO PUSH2 0x1D8 JUMPI PUSH1 0x0 DUP1 REVERT JUMPDEST POP PUSH2 0x1F3 PUSH1 0x4 DUP1 CALLDATASIZE SUB DUP2 ADD SWAP1 PUSH2 0x1EE SWAP2 SWAP1 PUSH2 0x1E49 JUMP JUMPDEST PUSH2 0x594 JUMP JUMPDEST STOP JUMPDEST CALLVALUE DUP1 ISZERO PUSH2 0x201 JUMPI PUSH1 0x0 DUP1 REVERT JUMPDEST POP PUSH2 0x21C PUSH1 0x4 DUP1 CALLDATASIZE SUB DUP2 ADD SWAP1 PUSH2 0x217 SWAP2 SWAP1 PUSH2 0x1FCD JUMP JUMPDEST PUSH2 0x668 JUMP JUMPDEST STOP JUMPDEST CALLVALUE DUP1 ISZERO PUSH2 0x22A JUMPI PUSH1 0x0 DUP1 REVERT JUMPDEST POP PUSH2 0x233 PUSH2 0xB7C JUMP JUMPDEST STOP JUMPDEST CALLVALUE DUP1 ISZERO PUSH2 0x241 JUMPI PUSH1 0x0 DUP1 REVERT JUMPDEST POP PUSH2 0x24A PUSH2 0xCF2 JUMP JUMPDEST PUSH1 0x40 MLOAD PUSH2 0x257 SWAP2 SWAP1 PUSH2 0x2057 JUMP JUMPDEST PUSH1 0x40 MLOAD DUP1 SWAP2 SUB SWAP1 RETURN JUMPDEST CALLVALUE DUP1 ISZERO PUSH2 0x26C JUMPI PUSH1 0x0 DUP1 REVERT JUMPDEST POP PUSH2 0x287 PUSH1 0x4 DUP1 CALLDATASIZE SUB DUP2 ADD SWAP1 PUSH2 0x282 SWAP2 SWAP1 PUSH2 0x209E JUMP JUMPDEST PUSH2 0xD18 JUMP JUMPDEST PUSH1 0x40 MLOAD PUSH2 0x294 SWAP2 SWAP1 PUSH2 0x1E8F JUMP JUMPDEST PUSH1 0x40 MLOAD DUP1 SWAP2 SUB SWAP1 RETURN JUMPDEST CALLVALUE DUP1 ISZERO PUSH2 0x2A9 JUMPI PUSH1 0x0 DUP1 REVERT JUMPDEST POP PUSH2 0x2C4 PUSH1 0x4 DUP1 CALLDATASIZE SUB DUP2 ADD SWAP1 PUSH2 0x2BF SWAP2 SWAP1 PUSH2 0x211A JUMP JUMPDEST PUSH2 0xD79 JUMP JUMPDEST STOP JUMPDEST CALLVALUE DUP1 ISZERO PUSH2 0x2D2 JUMPI PUSH1 0x0 DUP1 REVERT JUMPDEST POP PUSH2 0x2DB PUSH2 0xFD6 JUMP JUMPDEST PUSH1 0x40 MLOAD PUSH2 0x2E8 SWAP2 SWAP1 PUSH2 0x1EB9 JUMP JUMPDEST PUSH1 0x40 MLOAD DUP1 SWAP2 SUB SWAP1 RETURN JUMPDEST CALLVALUE DUP1 ISZERO PUSH2 0x2FD JUMPI PUSH1 0x0 DUP1 REVERT JUMPDEST POP PUSH2 0x318 PUSH1 0x4 DUP1 CALLDATASIZE SUB DUP2 ADD SWAP1 PUSH2 0x313 SWAP2 SWAP1 PUSH2 0x2147 JUMP JUMPDEST PUSH2 0xFFC JUMP JUMPDEST STOP JUMPDEST CALLVALUE DUP1 ISZERO PUSH2 0x326 JUMPI PUSH1 0x0 DUP1 REVERT JUMPDEST POP PUSH2 0x341 PUSH1 0x4 DUP1 CALLDATASIZE SUB DUP2 ADD SWAP1 PUSH2 0x33C SWAP2 SWAP1 PUSH2 0x2187 JUMP JUMPDEST PUSH2 0x127F JUMP JUMPDEST PUSH1 0x40 MLOAD PUSH2 0x34E SWAP2 SWAP1 PUSH2 0x1EB9 JUMP JUMPDEST PUSH1 0x40 MLOAD DUP1 SWAP2 SUB SWAP1 RETURN JUMPDEST CALLVALUE DUP1 ISZERO PUSH2 0x363 JUMPI PUSH1 0x0 DUP1 REVERT JUMPDEST POP PUSH2 0x36C PUSH2 0x12BE JUMP JUMPDEST PUSH1 0x40 MLOAD PUSH2 0x379 SWAP2 SWAP1 PUSH2 0x21C3 JUMP JUMPDEST PUSH1 0x40 MLOAD DUP1 SWAP2 SUB SWAP1 RETURN JUMPDEST PUSH2 0x38A PUSH2 0x12D4 JUMP JUMPDEST STOP JUMPDEST CALLVALUE DUP1 ISZERO PUSH2 0x398 JUMPI PUSH1 0x0 DUP1 REVERT JUMPDEST POP PUSH2 0x3B3 PUSH1 0x4 DUP1 CALLDATASIZE SUB DUP2 ADD SWAP1 PUSH2 0x3AE SWAP2 SWAP1 PUSH2 0x2200 JUMP JUMPDEST PUSH2 0x13F7 JUMP JUMPDEST STOP JUMPDEST CALLVALUE DUP1 ISZERO PUSH2 0x3C1 JUMPI PUSH1 0x0 DUP1 REVERT JUMPDEST POP PUSH2 0x3CA PUSH2 0x17B7 JUMP JUMPDEST STOP JUMPDEST CALLVALUE DUP1 ISZERO PUSH2 0x3D8 JUMPI PUSH1 0x0 DUP1 REVERT JUMPDEST POP PUSH2 0x3E1 PUSH2 0x1840 JUMP JUMPDEST PUSH1 0x40 MLOAD PUSH2 0x3EE SWAP2 SWAP1 PUSH2 0x21C3 JUMP JUMPDEST PUSH1 0x40 MLOAD DUP1 SWAP2 SUB SWAP1 RETURN JUMPDEST PUSH1 0x6 PUSH1 0x20 MSTORE DUP1 PUSH1 0x0 MSTORE PUSH1 0x40 PUSH1 0x0 KECCAK256 PUSH1 0x0 SWAP2 POP SWAP1 POP SLOAD DUP2 JUMP JUMPDEST PUSH1 0x0 PUSH1 0x2 PUSH1 0x0 SWAP1 SLOAD SWAP1 PUSH2 0x100 EXP SWAP1 DIV PUSH20 0xFFFFFFFFFFFFFFFFFFFFFFFFFFFFFFFFFFFFFFFF AND SWAP1 POP SWAP1 JUMP JUMPDEST PUSH1 0x0 DUP1 SLOAD SWAP1 PUSH2 0x100 EXP SWAP1 DIV PUSH20 0xFFFFFFFFFFFFFFFFFFFFFFFFFFFFFFFFFFFFFFFF AND DUP2 JUMP JUMPDEST PUSH1 0x0 DUP1 TIMESTAMP SWAP1 POP PUSH1 0x0 PUSH1 0x2 PUSH1 0x15 SWAP1 SLOAD SWAP1 PUSH2 0x100 EXP SWAP1 DIV PUSH4 0xFFFFFFFF AND DUP3 PUSH2 0x483 SWAP2 SWAP1 PUSH2 0x2298 JUMP JUMPDEST SWAP1 POP PUSH1 0x0 PUSH2 0x562 PUSH1 0x4 SLOAD PUSH1 0x5 SLOAD PUSH1 0x3 DUP1 SLOAD PUSH2 0x49D SWAP1 PUSH2 0x22FF JUMP JUMPDEST DUP1 PUSH1 0x1F ADD PUSH1 0x20 DUP1 SWAP2 DIV MUL PUSH1 0x20 ADD PUSH1 0x40 MLOAD SWAP1 DUP2 ADD PUSH1 0x40 MSTORE DUP1 SWAP3 SWAP2 SWAP1 DUP2 DUP2 MSTORE PUSH1 0x20 ADD DUP3 DUP1 SLOAD PUSH2 0x4C9 SWAP1 PUSH2 0x22FF JUMP JUMPDEST DUP1 ISZERO PUSH2 0x516 JUMPI DUP1 PUSH1 0x1F LT PUSH2 0x4EB JUMPI PUSH2 0x100 DUP1 DUP4 SLOAD DIV MUL DUP4 MSTORE SWAP2 PUSH1 0x20 ADD SWAP2 PUSH2 0x516 JUMP JUMPDEST DUP3 ADD SWAP2 SWAP1 PUSH1 0x0 MSTORE PUSH1 0x20 PUSH1 0x0 KECCAK256 SWAP1 JUMPDEST DUP2 SLOAD DUP2 MSTORE SWAP1 PUSH1 0x1 ADD SWAP1 PUSH1 0x20 ADD DUP1 DUP4 GT PUSH2 0x4F9 JUMPI DUP3 SWAP1 SUB PUSH1 0x1F AND DUP3 ADD SWAP2 JUMPDEST POP POP POP POP POP PUSH1 0x2 PUSH1 0x0 SWAP1 SLOAD SWAP1 PUSH2 0x100 EXP SWAP1 DIV PUSH20 0xFFFFFFFFFFFFFFFFFFFFFFFFFFFFFFFFFFFFFFFF AND PUSH1 0x40 MLOAD PUSH1 0x20 ADD PUSH2 0x54E SWAP2 SWAP1 PUSH2 0x1EB9 JUMP JUMPDEST PUSH1 0x40 MLOAD PUSH1 0x20 DUP2 DUP4 SUB SUB DUP2 MSTORE SWAP1 PUSH1 0x40 MSTORE PUSH2 0x193A JUMP JUMPDEST SWAP1 POP PUSH1 0x0 DUP2 DUP1 PUSH1 0x20 ADD SWAP1 MLOAD DUP2 ADD SWAP1 PUSH2 0x57A SWAP2 SWAP1 PUSH2 0x2345 JUMP JUMPDEST SWAP1 POP DUP3 PUSH4 0xFFFFFFFF AND DUP2 PUSH4 0xFFFFFFFF AND LT SWAP5 POP POP POP POP POP SWAP1 JUMP JUMPDEST PUSH1 0x2 PUSH1 0x0 SWAP1 SLOAD SWAP1 PUSH2 0x100 EXP SWAP1 DIV PUSH20 0xFFFFFFFFFFFFFFFFFFFFFFFFFFFFFFFFFFFFFFFF AND PUSH20 0xFFFFFFFFFFFFFFFFFFFFFFFFFFFFFFFFFFFFFFFF AND CALLER PUSH20 0xFFFFFFFFFFFFFFFFFFFFFFFFFFFFFFFFFFFFFFFF AND EQ PUSH2 0x624 JUMPI PUSH1 0x40 MLOAD PUSH32 0x8C379A000000000000000000000000000000000000000000000000000000000 DUP2 MSTORE PUSH1 0x4 ADD PUSH2 0x61B SWAP1 PUSH2 0x23CF JUMP JUMPDEST PUSH1 0x40 MLOAD DUP1 SWAP2 SUB SWAP1 REVERT JUMPDEST DUP1 PUSH1 0x1 PUSH1 0x0 PUSH2 0x100 EXP DUP2 SLOAD DUP2 PUSH20 0xFFFFFFFFFFFFFFFFFFFFFFFFFFFFFFFFFFFFFFFF MUL NOT AND SWAP1 DUP4 PUSH20 0xFFFFFFFFFFFFFFFFFFFFFFFFFFFFFFFFFFFFFFFF AND MUL OR SWAP1 SSTORE POP POP JUMP JUMPDEST PUSH1 0x2 PUSH1 0x0 SWAP1 SLOAD SWAP1 PUSH2 0x100 EXP SWAP1 DIV PUSH20 0xFFFFFFFFFFFFFFFFFFFFFFFFFFFFFFFFFFFFFFFF AND PUSH20 0xFFFFFFFFFFFFFFFFFFFFFFFFFFFFFFFFFFFFFFFF AND CALLER PUSH20 0xFFFFFFFFFFFFFFFFFFFFFFFFFFFFFFFFFFFFFFFF AND EQ PUSH2 0x6F8 JUMPI PUSH1 0x40 MLOAD PUSH32 0x8C379A000000000000000000000000000000000000000000000000000000000 DUP2 MSTORE PUSH1 0x4 ADD PUSH2 0x6EF SWAP1 PUSH2 0x23CF JUMP JUMPDEST PUSH1 0x40 MLOAD DUP1 SWAP2 SUB SWAP1 REVERT JUMPDEST PUSH2 0x700 PUSH2 0x1DC4 JUMP JUMPDEST DUP2 PUSH1 0x0 PUSH1 0x2 DUP2 LT PUSH2 0x714 JUMPI PUSH2 0x713 PUSH2 0x23EF JUMP JUMPDEST JUMPDEST PUSH1 0x20 MUL ADD CALLDATALOAD DUP2 PUSH1 0x0 PUSH1 0x2 DUP2 LT PUSH2 0x72D JUMPI PUSH2 0x72C PUSH2 0x23EF JUMP JUMPDEST JUMPDEST PUSH1 0x20 MUL ADD DUP2 DUP2 MSTORE POP POP DUP2 PUSH1 0x1 PUSH1 0x2 DUP2 LT PUSH2 0x74A JUMPI PUSH2 0x749 PUSH2 0x23EF JUMP JUMPDEST JUMPDEST PUSH1 0x20 MUL ADD CALLDATALOAD DUP2 PUSH1 0x1 PUSH1 0x2 DUP2 LT PUSH2 0x763 JUMPI PUSH2 0x762 PUSH2 0x23EF JUMP JUMPDEST JUMPDEST PUSH1 0x20 MUL ADD DUP2 DUP2 MSTORE POP POP PUSH1 0x0 DUP1 PUSH1 0x0 SWAP1 SLOAD SWAP1 PUSH2 0x100 EXP SWAP1 DIV PUSH20 0xFFFFFFFFFFFFFFFFFFFFFFFFFFFFFFFFFFFFFFFF AND PUSH20 0xFFFFFFFFFFFFFFFFFFFFFFFFFFFFFFFFFFFFFFFF AND PUSH4 0xF5C9D69E PUSH1 0x40 MLOAD DUP1 PUSH1 0x40 ADD PUSH1 0x40 MSTORE DUP1 DUP10 PUSH1 0x0 PUSH1 0x2 DUP2 LT PUSH2 0x7CA JUMPI PUSH2 0x7C9 PUSH2 0x23EF JUMP JUMPDEST JUMPDEST PUSH1 0x20 MUL ADD CALLDATALOAD DUP2 MSTORE PUSH1 0x20 ADD DUP10 PUSH1 0x1 PUSH1 0x2 DUP2 LT PUSH2 0x7E8 JUMPI PUSH2 0x7E7 PUSH2 0x23EF JUMP JUMPDEST JUMPDEST PUSH1 0x20 MUL ADD CALLDATALOAD DUP2 MSTORE POP PUSH1 0x40 MLOAD DUP1 PUSH1 0x40 ADD PUSH1 0x40 MSTORE DUP1 PUSH1 0x40 MLOAD DUP1 PUSH1 0x40 ADD PUSH1 0x40 MSTORE DUP1 DUP12 PUSH1 0x0 PUSH1 0x2 DUP2 LT PUSH2 0x81A JUMPI PUSH2 0x819 PUSH2 0x23EF JUMP JUMPDEST JUMPDEST PUSH1 0x40 MUL ADD PUSH1 0x0 PUSH1 0x2 DUP2 LT PUSH2 0x831 JUMPI PUSH2 0x830 PUSH2 0x23EF JUMP JUMPDEST JUMPDEST PUSH1 0x20 MUL ADD CALLDATALOAD DUP2 MSTORE PUSH1 0x20 ADD DUP12 PUSH1 0x0 PUSH1 0x2 DUP2 LT PUSH2 0x84F JUMPI PUSH2 0x84E PUSH2 0x23EF JUMP JUMPDEST JUMPDEST PUSH1 0x40 MUL ADD PUSH1 0x1 PUSH1 0x2 DUP2 LT PUSH2 0x866 JUMPI PUSH2 0x865 PUSH2 0x23EF JUMP JUMPDEST JUMPDEST PUSH1 0x20 MUL ADD CALLDATALOAD DUP2 MSTORE POP DUP2 MSTORE PUSH1 0x20 ADD PUSH1 0x40 MLOAD DUP1 PUSH1 0x40 ADD PUSH1 0x40 MSTORE DUP1 DUP12 PUSH1 0x1 PUSH1 0x2 DUP2 LT PUSH2 0x892 JUMPI PUSH2 0x891 PUSH2 0x23EF JUMP JUMPDEST JUMPDEST PUSH1 0x40 MUL ADD PUSH1 0x0 PUSH1 0x2 DUP2 LT PUSH2 0x8A9 JUMPI PUSH2 0x8A8 PUSH2 0x23EF JUMP JUMPDEST JUMPDEST PUSH1 0x20 MUL ADD CALLDATALOAD DUP2 MSTORE PUSH1 0x20 ADD DUP12 PUSH1 0x1 PUSH1 0x2 DUP2 LT PUSH2 0x8C7 JUMPI PUSH2 0x8C6 PUSH2 0x23EF JUMP JUMPDEST JUMPDEST PUSH1 0x40 MUL ADD PUSH1 0x1 PUSH1 0x2 DUP2 LT PUSH2 0x8DE JUMPI PUSH2 0x8DD PUSH2 0x23EF JUMP JUMPDEST JUMPDEST PUSH1 0x20 MUL ADD CALLDATALOAD DUP2 MSTORE POP DUP2 MSTORE POP PUSH1 0x40 MLOAD DUP1 PUSH1 0x40 ADD PUSH1 0x40 MSTORE DUP1 DUP10 PUSH1 0x0 PUSH1 0x2 DUP2 LT PUSH2 0x908 JUMPI PUSH2 0x907 PUSH2 0x23EF JUMP JUMPDEST JUMPDEST PUSH1 0x20 MUL ADD CALLDATALOAD DUP2 MSTORE PUSH1 0x20 ADD DUP10 PUSH1 0x1 PUSH1 0x2 DUP2 LT PUSH2 0x926 JUMPI PUSH2 0x925 PUSH2 0x23EF JUMP JUMPDEST JUMPDEST PUSH1 0x20 MUL ADD CALLDATALOAD DUP2 MSTORE POP DUP7 PUSH1 0x40 MLOAD DUP6 PUSH4 0xFFFFFFFF AND PUSH1 0xE0 SHL DUP2 MSTORE PUSH1 0x4 ADD PUSH2 0x94E SWAP5 SWAP4 SWAP3 SWAP2 SWAP1 PUSH2 0x25C7 JUMP JUMPDEST PUSH1 0x20 PUSH1 0x40 MLOAD DUP1 DUP4 SUB DUP2 DUP7 GAS STATICCALL ISZERO DUP1 ISZERO PUSH2 0x96B JUMPI RETURNDATASIZE PUSH1 0x0 DUP1 RETURNDATACOPY RETURNDATASIZE PUSH1 0x0 REVERT JUMPDEST POP POP POP POP PUSH1 0x40 MLOAD RETURNDATASIZE PUSH1 0x1F NOT PUSH1 0x1F DUP3 ADD AND DUP3 ADD DUP1 PUSH1 0x40 MSTORE POP DUP2 ADD SWAP1 PUSH2 0x98F SWAP2 SWAP1 PUSH2 0x263A JUMP JUMPDEST SWAP1 POP DUP1 PUSH2 0x9D1 JUMPI PUSH1 0x40 MLOAD PUSH32 0x8C379A000000000000000000000000000000000000000000000000000000000 DUP2 MSTORE PUSH1 0x4 ADD PUSH2 0x9C8 SWAP1 PUSH2 0x26B3 JUMP JUMPDEST PUSH1 0x40 MLOAD DUP1 SWAP2 SUB SWAP1 REVERT JUMPDEST PUSH32 0xF4D358772B552280F9395158C37BC77DDCBCDEAF62B20AA01276FB89D7EA1923 PUSH1 0x1 PUSH1 0x40 MLOAD PUSH2 0xA01 SWAP2 SWAP1 PUSH2 0x1F69 JUMP JUMPDEST PUSH1 0x40 MLOAD DUP1 SWAP2 SUB SWAP1 LOG1 PUSH1 0x0 DUP4 PUSH1 0x1 PUSH1 0x2 DUP2 LT PUSH2 0xA1F JUMPI PUSH2 0xA1E PUSH2 0x23EF JUMP JUMPDEST JUMPDEST PUSH1 0x20 MUL ADD CALLDATALOAD SWAP1 POP PUSH2 0x12C TIMESTAMP PUSH2 0xA34 SWAP2 SWAP1 PUSH2 0x26D3 JUMP JUMPDEST DUP2 LT ISZERO DUP1 ISZERO PUSH2 0xA50 JUMPI POP PUSH2 0x12C TIMESTAMP PUSH2 0xA4C SWAP2 SWAP1 PUSH2 0x2707 JUMP JUMPDEST DUP2 GT ISZERO JUMPDEST PUSH2 0xA8F JUMPI PUSH1 0x40 MLOAD PUSH32 0x8C379A000000000000000000000000000000000000000000000000000000000 DUP2 MSTORE PUSH1 0x4 ADD PUSH2 0xA86 SWAP1 PUSH2 0x2787 JUMP JUMPDEST PUSH1 0x40 MLOAD DUP1 SWAP2 SUB SWAP1 REVERT JUMPDEST PUSH2 0xAFF PUSH1 0x4 SLOAD PUSH1 0x5 SLOAD TIMESTAMP PUSH1 0x40 MLOAD PUSH1 0x20 ADD PUSH2 0xAA9 SWAP2 SWAP1 PUSH2 0x21C3 JUMP JUMPDEST PUSH1 0x40 MLOAD PUSH1 0x20 DUP2 DUP4 SUB SUB DUP2 MSTORE SWAP1 PUSH1 0x40 MSTORE PUSH1 0x2 PUSH1 0x0 SWAP1 SLOAD SWAP1 PUSH2 0x100 EXP SWAP1 DIV PUSH20 0xFFFFFFFFFFFFFFFFFFFFFFFFFFFFFFFFFFFFFFFF AND PUSH1 0x40 MLOAD PUSH1 0x20 ADD PUSH2 0xAEB SWAP2 SWAP1 PUSH2 0x1EB9 JUMP JUMPDEST PUSH1 0x40 MLOAD PUSH1 0x20 DUP2 DUP4 SUB SUB DUP2 MSTORE SWAP1 PUSH1 0x40 MSTORE PUSH2 0x1A2F JUMP JUMPDEST PUSH1 0x3 SWAP1 DUP2 PUSH2 0xB0D SWAP2 SWAP1 PUSH2 0x2983 JUMP JUMPDEST POP PUSH1 0x2 PUSH1 0x0 SWAP1 SLOAD SWAP1 PUSH2 0x100 EXP SWAP1 DIV PUSH20 0xFFFFFFFFFFFFFFFFFFFFFFFFFFFFFFFFFFFFFFFF AND PUSH20 0xFFFFFFFFFFFFFFFFFFFFFFFFFFFFFFFFFFFFFFFF AND PUSH32 0x59DB9904863F5C0703E74A4DF99BFBAD4374B3EDB69328A2F7BC4DF348511097 PUSH1 0x40 MLOAD PUSH1 0x40 MLOAD DUP1 SWAP2 SUB SWAP1 LOG2 POP POP POP POP POP POP POP JUMP JUMPDEST PUSH1 0x2 PUSH1 0x0 SWAP1 SLOAD SWAP1 PUSH2 0x100 EXP SWAP1 DIV PUSH20 0xFFFFFFFFFFFFFFFFFFFFFFFFFFFFFFFFFFFFFFFF AND PUSH20 0xFFFFFFFFFFFFFFFFFFFFFFFFFFFFFFFFFFFFFFFF AND CALLER PUSH20 0xFFFFFFFFFFFFFFFFFFFFFFFFFFFFFFFFFFFFFFFF AND EQ PUSH2 0xC0C JUMPI PUSH1 0x40 MLOAD PUSH32 0x8C379A000000000000000000000000000000000000000000000000000000000 DUP2 MSTORE PUSH1 0x4 ADD PUSH2 0xC03 SWAP1 PUSH2 0x23CF JUMP JUMPDEST PUSH1 0x40 MLOAD DUP1 SWAP2 SUB SWAP1 REVERT JUMPDEST PUSH2 0xC7C PUSH1 0x4 SLOAD PUSH1 0x5 SLOAD TIMESTAMP PUSH1 0x40 MLOAD PUSH1 0x20 ADD PUSH2 0xC26 SWAP2 SWAP1 PUSH2 0x21C3 JUMP JUMPDEST PUSH1 0x40 MLOAD PUSH1 0x20 DUP2 DUP4 SUB SUB DUP2 MSTORE SWAP1 PUSH1 0x40 MSTORE PUSH1 0x2 PUSH1 0x0 SWAP1 SLOAD SWAP1 PUSH2 0x100 EXP SWAP1 DIV PUSH20 0xFFFFFFFFFFFFFFFFFFFFFFFFFFFFFFFFFFFFFFFF AND PUSH1 0x40 MLOAD PUSH1 0x20 ADD PUSH2 0xC68 SWAP2 SWAP1 PUSH2 0x1EB9 JUMP JUMPDEST PUSH1 0x40 MLOAD PUSH1 0x20 DUP2 DUP4 SUB SUB DUP2 MSTORE SWAP1 PUSH1 0x40 MSTORE PUSH2 0x1A2F JUMP JUMPDEST PUSH1 0x3 SWAP1 DUP2 PUSH2 0xC8A SWAP2 SWAP1 PUSH2 0x2983 JUMP JUMPDEST POP PUSH1 0x2 PUSH1 0x0 SWAP1 SLOAD SWAP1 PUSH2 0x100 EXP SWAP1 DIV PUSH20 0xFFFFFFFFFFFFFFFFFFFFFFFFFFFFFFFFFFFFFFFF AND PUSH20 0xFFFFFFFFFFFFFFFFFFFFFFFFFFFFFFFFFFFFFFFF AND PUSH32 0x59DB9904863F5C0703E74A4DF99BFBAD4374B3EDB69328A2F7BC4DF348511097 PUSH1 0x40 MLOAD PUSH1 0x40 MLOAD DUP1 SWAP2 SUB SWAP1 LOG2 JUMP JUMPDEST PUSH1 0x1 PUSH1 0x0 SWAP1 SLOAD SWAP1 PUSH2 0x100 EXP SWAP1 DIV PUSH20 0xFFFFFFFFFFFFFFFFFFFFFFFFFFFFFFFFFFFFFFFF AND DUP2 JUMP JUMPDEST PUSH1 0x0 PUSH32 0x30644E72E131A029B85045B68181585D2833E84879B9709143E1F593F0000001 DUP4 DUP4 PUSH1 0x40 MLOAD PUSH1 0x20 ADD PUSH2 0xD4E SWAP3 SWAP2 SWAP1 PUSH2 0x2A76 JUMP JUMPDEST PUSH1 0x40 MLOAD PUSH1 0x20 DUP2 DUP4 SUB SUB DUP2 MSTORE SWAP1 PUSH1 0x40 MSTORE DUP1 MLOAD SWAP1 PUSH1 0x20 ADD KECCAK256 PUSH1 0x0 SHR PUSH2 0xD71 SWAP2 SWAP1 PUSH2 0x2AD1 JUMP JUMPDEST SWAP1 POP SWAP3 SWAP2 POP POP JUMP JUMPDEST PUSH1 0x2 PUSH1 0x14 SWAP1 SLOAD SWAP1 PUSH2 0x100 EXP SWAP1 DIV PUSH1 0xFF AND ISZERO PUSH2 0xDC9 JUMPI PUSH1 0x40 MLOAD PUSH32 0x8C379A000000000000000000000000000000000000000000000000000000000 DUP2 MSTORE PUSH1 0x4 ADD PUSH2 0xDC0 SWAP1 PUSH2 0x2B4E JUMP JUMPDEST PUSH1 0x40 MLOAD DUP1 SWAP2 SUB SWAP1 REVERT JUMPDEST CALLER PUSH1 0x2 PUSH1 0x0 PUSH2 0x100 EXP DUP2 SLOAD DUP2 PUSH20 0xFFFFFFFFFFFFFFFFFFFFFFFFFFFFFFFFFFFFFFFF MUL NOT AND SWAP1 DUP4 PUSH20 0xFFFFFFFFFFFFFFFFFFFFFFFFFFFFFFFFFFFFFFFF AND MUL OR SWAP1 SSTORE POP DUP1 PUSH1 0x2 PUSH1 0x15 PUSH2 0x100 EXP DUP2 SLOAD DUP2 PUSH4 0xFFFFFFFF MUL NOT AND SWAP1 DUP4 PUSH4 0xFFFFFFFF AND MUL OR SWAP1 SSTORE POP PUSH2 0xE6B PUSH1 0x20 PUSH1 0x40 MLOAD DUP1 PUSH1 0x40 ADD PUSH1 0x40 MSTORE DUP1 PUSH1 0xD DUP2 MSTORE PUSH1 0x20 ADD PUSH32 0x656E6372797074696F6E4B657900000000000000000000000000000000000000 DUP2 MSTORE POP PUSH2 0x1B24 JUMP JUMPDEST PUSH2 0xE74 SWAP1 PUSH2 0x2B9D JUMP JUMPDEST PUSH1 0x4 DUP2 SWAP1 SSTORE POP PUSH2 0xEBA PUSH1 0x20 PUSH1 0x40 MLOAD DUP1 PUSH1 0x40 ADD PUSH1 0x40 MSTORE DUP1 PUSH1 0x5 DUP2 MSTORE PUSH1 0x20 ADD PUSH32 0x6E6F6E6365000000000000000000000000000000000000000000000000000000 DUP2 MSTORE POP PUSH2 0x1B24 JUMP JUMPDEST PUSH2 0xEC3 SWAP1 PUSH2 0x2B9D JUMP JUMPDEST PUSH1 0x5 DUP2 SWAP1 SSTORE POP PUSH2 0xF39 PUSH1 0x4 SLOAD PUSH1 0x5 SLOAD TIMESTAMP PUSH1 0x40 MLOAD PUSH1 0x20 ADD PUSH2 0xEE3 SWAP2 SWAP1 PUSH2 0x21C3 JUMP JUMPDEST PUSH1 0x40 MLOAD PUSH1 0x20 DUP2 DUP4 SUB SUB DUP2 MSTORE SWAP1 PUSH1 0x40 MSTORE PUSH1 0x2 PUSH1 0x0 SWAP1 SLOAD SWAP1 PUSH2 0x100 EXP SWAP1 DIV PUSH20 0xFFFFFFFFFFFFFFFFFFFFFFFFFFFFFFFFFFFFFFFF AND PUSH1 0x40 MLOAD PUSH1 0x20 ADD PUSH2 0xF25 SWAP2 SWAP1 PUSH2 0x1EB9 JUMP JUMPDEST PUSH1 0x40 MLOAD PUSH1 0x20 DUP2 DUP4 SUB SUB DUP2 MSTORE SWAP1 PUSH1 0x40 MSTORE PUSH2 0x1A2F JUMP JUMPDEST PUSH1 0x3 SWAP1 DUP2 PUSH2 0xF47 SWAP2 SWAP1 PUSH2 0x2983 JUMP JUMPDEST POP PUSH1 0x1 PUSH1 0x2 PUSH1 0x14 PUSH2 0x100 EXP DUP2 SLOAD DUP2 PUSH1 0xFF MUL NOT AND SWAP1 DUP4 ISZERO ISZERO MUL OR SWAP1 SSTORE POP PUSH1 0x2 PUSH1 0x0 SWAP1 SLOAD SWAP1 PUSH2 0x100 EXP SWAP1 DIV PUSH20 0xFFFFFFFFFFFFFFFFFFFFFFFFFFFFFFFFFFFFFFFF AND PUSH20 0xFFFFFFFFFFFFFFFFFFFFFFFFFFFFFFFFFFFFFFFF AND PUSH32 0x620DCA0C9D04F7CEA9D7F31E571D74ACCCD54C21DC8FF8855EC1D5A21733C26B DUP3 PUSH1 0x40 MLOAD PUSH2 0xFCB SWAP2 SWAP1 PUSH2 0x21C3 JUMP JUMPDEST PUSH1 0x40 MLOAD DUP1 SWAP2 SUB SWAP1 LOG2 POP JUMP JUMPDEST PUSH1 0x2 PUSH1 0x0 SWAP1 SLOAD SWAP1 PUSH2 0x100 EXP SWAP1 DIV PUSH20 0xFFFFFFFFFFFFFFFFFFFFFFFFFFFFFFFFFFFFFFFF AND DUP2 JUMP JUMPDEST PUSH1 0x2 PUSH1 0x0 SWAP1 SLOAD SWAP1 PUSH2 0x100 EXP SWAP1 DIV PUSH20 0xFFFFFFFFFFFFFFFFFFFFFFFFFFFFFFFFFFFFFFFF AND PUSH20 0xFFFFFFFFFFFFFFFFFFFFFFFFFFFFFFFFFFFFFFFF AND CALLER PUSH20 0xFFFFFFFFFFFFFFFFFFFFFFFFFFFFFFFFFFFFFFFF AND EQ PUSH2 0x108C JUMPI PUSH1 0x40 MLOAD PUSH32 0x8C379A000000000000000000000000000000000000000000000000000000000 DUP2 MSTORE PUSH1 0x4 ADD PUSH2 0x1083 SWAP1 PUSH2 0x23CF JUMP JUMPDEST PUSH1 0x40 MLOAD DUP1 SWAP2 SUB SWAP1 REVERT JUMPDEST PUSH1 0x0 PUSH20 0xFFFFFFFFFFFFFFFFFFFFFFFFFFFFFFFFFFFFFFFF AND DUP3 PUSH20 0xFFFFFFFFFFFFFFFFFFFFFFFFFFFFFFFFFFFFFFFF AND SUB PUSH2 0x10FB JUMPI PUSH1 0x40 MLOAD PUSH32 0x8C379A000000000000000000000000000000000000000000000000000000000 DUP2 MSTORE PUSH1 0x4 ADD PUSH2 0x10F2 SWAP1 PUSH2 0x2C50 JUMP JUMPDEST PUSH1 0x40 MLOAD DUP1 SWAP2 SUB SWAP1 REVERT JUMPDEST PUSH1 0x0 DUP2 GT PUSH2 0x113E JUMPI PUSH1 0x40 MLOAD PUSH32 0x8C379A000000000000000000000000000000000000000000000000000000000 DUP2 MSTORE PUSH1 0x4 ADD PUSH2 0x1135 SWAP1 PUSH2 0x2CBC JUMP JUMPDEST PUSH1 0x40 MLOAD DUP1 SWAP2 SUB SWAP1 REVERT JUMPDEST PUSH1 0x0 PUSH1 0x6 PUSH1 0x0 DUP5 PUSH20 0xFFFFFFFFFFFFFFFFFFFFFFFFFFFFFFFFFFFFFFFF AND PUSH20 0xFFFFFFFFFFFFFFFFFFFFFFFFFFFFFFFFFFFFFFFF AND DUP2 MSTORE PUSH1 0x20 ADD SWAP1 DUP2 MSTORE PUSH1 0x20 ADD PUSH1 0x0 KECCAK256 SLOAD SUB PUSH2 0x11E9 JUMPI PUSH1 0x7 DUP3 SWAP1 DUP1 PUSH1 0x1 DUP2 SLOAD ADD DUP1 DUP3 SSTORE DUP1 SWAP2 POP POP PUSH1 0x1 SWAP1 SUB SWAP1 PUSH1 0x0 MSTORE PUSH1 0x20 PUSH1 0x0 KECCAK256 ADD PUSH1 0x0 SWAP1 SWAP2 SWAP1 SWAP2 SWAP1 SWAP2 PUSH2 0x100 EXP DUP2 SLOAD DUP2 PUSH20 0xFFFFFFFFFFFFFFFFFFFFFFFFFFFFFFFFFFFFFFFF MUL NOT AND SWAP1 DUP4 PUSH20 0xFFFFFFFFFFFFFFFFFFFFFFFFFFFFFFFFFFFFFFFF AND MUL OR SWAP1 SSTORE POP JUMPDEST DUP1 PUSH1 0x6 PUSH1 0x0 DUP5 PUSH20 0xFFFFFFFFFFFFFFFFFFFFFFFFFFFFFFFFFFFFFFFF AND PUSH20 0xFFFFFFFFFFFFFFFFFFFFFFFFFFFFFFFFFFFFFFFF AND DUP2 MSTORE PUSH1 0x20 ADD SWAP1 DUP2 MSTORE PUSH1 0x20 ADD PUSH1 0x0 KECCAK256 DUP2 SWAP1 SSTORE POP DUP2 PUSH20 0xFFFFFFFFFFFFFFFFFFFFFFFFFFFFFFFFFFFFFFFF AND PUSH32 0xE6B83177F11971BA30369BB38B914FFBA97D5969A3C857B286FA8FDBB150B3BA DUP3 PUSH1 0x40 MLOAD PUSH2 0x1273 SWAP2 SWAP1 PUSH2 0x1E8F JUMP JUMPDEST PUSH1 0x40 MLOAD DUP1 SWAP2 SUB SWAP1 LOG2 POP POP JUMP JUMPDEST PUSH1 0x7 DUP2 DUP2 SLOAD DUP2 LT PUSH2 0x128F JUMPI PUSH1 0x0 DUP1 REVERT JUMPDEST SWAP1 PUSH1 0x0 MSTORE PUSH1 0x20 PUSH1 0x0 KECCAK256 ADD PUSH1 0x0 SWAP2 POP SLOAD SWAP1 PUSH2 0x100 EXP SWAP1 DIV PUSH20 0xFFFFFFFFFFFFFFFFFFFFFFFFFFFFFFFFFFFFFFFF AND DUP2 JUMP JUMPDEST PUSH1 0x2 PUSH1 0x15 SWAP1 SLOAD SWAP1 PUSH2 0x100 EXP SWAP1 DIV PUSH4 0xFFFFFFFF AND DUP2 JUMP JUMPDEST PUSH1 0x2 PUSH1 0x0 SWAP1 SLOAD SWAP1 PUSH2 0x100 EXP SWAP1 DIV PUSH20 0xFFFFFFFFFFFFFFFFFFFFFFFFFFFFFFFFFFFFFFFF AND PUSH20 0xFFFFFFFFFFFFFFFFFFFFFFFFFFFFFFFFFFFFFFFF AND CALLER PUSH20 0xFFFFFFFFFFFFFFFFFFFFFFFFFFFFFFFFFFFFFFFF AND EQ PUSH2 0x1364 JUMPI PUSH1 0x40 MLOAD PUSH32 0x8C379A000000000000000000000000000000000000000000000000000000000 DUP2 MSTORE PUSH1 0x4 ADD PUSH2 0x135B SWAP1 PUSH2 0x23CF JUMP JUMPDEST PUSH1 0x40 MLOAD DUP1 SWAP2 SUB SWAP1 REVERT JUMPDEST PUSH1 0x0 CALLVALUE GT PUSH2 0x13A7 JUMPI PUSH1 0x40 MLOAD PUSH32 0x8C379A000000000000000000000000000000000000000000000000000000000 DUP2 MSTORE PUSH1 0x4 ADD PUSH2 0x139E SWAP1 PUSH2 0x2D28 JUMP JUMPDEST PUSH1 0x40 MLOAD DUP1 SWAP2 SUB SWAP1 REVERT JUMPDEST CALLER PUSH20 0xFFFFFFFFFFFFFFFFFFFFFFFFFFFFFFFFFFFFFFFF AND PUSH32 0x543BA50A5EEC5E6178218E364B1D0F396157B3C8FA278522C2CB7FD99407D474 CALLVALUE PUSH1 0x40 MLOAD PUSH2 0x13ED SWAP2 SWAP1 PUSH2 0x1E8F JUMP JUMPDEST PUSH1 0x40 MLOAD DUP1 SWAP2 SUB SWAP1 LOG2 JUMP JUMPDEST PUSH1 0x0 PUSH2 0x14D4 PUSH1 0x4 SLOAD PUSH1 0x5 SLOAD PUSH1 0x3 DUP1 SLOAD PUSH2 0x140F SWAP1 PUSH2 0x22FF JUMP JUMPDEST DUP1 PUSH1 0x1F ADD PUSH1 0x20 DUP1 SWAP2 DIV MUL PUSH1 0x20 ADD PUSH1 0x40 MLOAD SWAP1 DUP2 ADD PUSH1 0x40 MSTORE DUP1 SWAP3 SWAP2 SWAP1 DUP2 DUP2 MSTORE PUSH1 0x20 ADD DUP3 DUP1 SLOAD PUSH2 0x143B SWAP1 PUSH2 0x22FF JUMP JUMPDEST DUP1 ISZERO PUSH2 0x1488 JUMPI DUP1 PUSH1 0x1F LT PUSH2 0x145D JUMPI PUSH2 0x100 DUP1 DUP4 SLOAD DIV MUL DUP4 MSTORE SWAP2 PUSH1 0x20 ADD SWAP2 PUSH2 0x1488 JUMP JUMPDEST DUP3 ADD SWAP2 SWAP1 PUSH1 0x0 MSTORE PUSH1 0x20 PUSH1 0x0 KECCAK256 SWAP1 JUMPDEST DUP2 SLOAD DUP2 MSTORE SWAP1 PUSH1 0x1 ADD SWAP1 PUSH1 0x20 ADD DUP1 DUP4 GT PUSH2 0x146B JUMPI DUP3 SWAP1 SUB PUSH1 0x1F AND DUP3 ADD SWAP2 JUMPDEST POP POP POP POP POP PUSH1 0x2 PUSH1 0x0 SWAP1 SLOAD SWAP1 PUSH2 0x100 EXP SWAP1 DIV PUSH20 0xFFFFFFFFFFFFFFFFFFFFFFFFFFFFFFFFFFFFFFFF AND PUSH1 0x40 MLOAD PUSH1 0x20 ADD PUSH2 0x14C0 SWAP2 SWAP1 PUSH2 0x1EB9 JUMP JUMPDEST PUSH1 0x40 MLOAD PUSH1 0x20 DUP2 DUP4 SUB SUB DUP2 MSTORE SWAP1 PUSH1 0x40 MSTORE PUSH2 0x193A JUMP JUMPDEST SWAP1 POP PUSH1 0x0 DUP2 DUP1 PUSH1 0x20 ADD SWAP1 MLOAD DUP2 ADD SWAP1 PUSH2 0x14EC SWAP2 SWAP1 PUSH2 0x2345 JUMP JUMPDEST SWAP1 POP PUSH32 0xB62FA8C43C0F241F4A7B7BF2293CE4714AE0FC84F9584334751599BD528C2A13 DUP4 PUSH1 0x0 PUSH1 0x3 DUP2 LT PUSH2 0x1523 JUMPI PUSH2 0x1522 PUSH2 0x23EF JUMP JUMPDEST JUMPDEST PUSH1 0x20 MUL ADD CALLDATALOAD PUSH1 0x40 MLOAD PUSH2 0x1535 SWAP2 SWAP1 PUSH2 0x1E8F JUMP JUMPDEST PUSH1 0x40 MLOAD DUP1 SWAP2 SUB SWAP1 LOG1 PUSH1 0x2 PUSH1 0x15 SWAP1 SLOAD SWAP1 PUSH2 0x100 EXP SWAP1 DIV PUSH4 0xFFFFFFFF AND PUSH4 0xFFFFFFFF AND DUP4 PUSH1 0x1 PUSH1 0x3 DUP2 LT PUSH2 0x156A JUMPI PUSH2 0x1569 PUSH2 0x23EF JUMP JUMPDEST JUMPDEST PUSH1 0x20 MUL ADD CALLDATALOAD EQ PUSH2 0x15AF JUMPI PUSH1 0x40 MLOAD PUSH32 0x8C379A000000000000000000000000000000000000000000000000000000000 DUP2 MSTORE PUSH1 0x4 ADD PUSH2 0x15A6 SWAP1 PUSH2 0x2D94 JUMP JUMPDEST PUSH1 0x40 MLOAD DUP1 SWAP2 SUB SWAP1 REVERT JUMPDEST PUSH1 0x0 PUSH1 0x1 PUSH1 0x0 SWAP1 SLOAD SWAP1 PUSH2 0x100 EXP SWAP1 DIV PUSH20 0xFFFFFFFFFFFFFFFFFFFFFFFFFFFFFFFFFFFFFFFF AND PUSH20 0xFFFFFFFFFFFFFFFFFFFFFFFFFFFFFFFFFFFFFFFF AND PUSH4 0x11479FEA DUP9 DUP9 DUP9 DUP9 PUSH1 0x40 MLOAD DUP6 PUSH4 0xFFFFFFFF AND PUSH1 0xE0 SHL DUP2 MSTORE PUSH1 0x4 ADD PUSH2 0x1612 SWAP5 SWAP4 SWAP3 SWAP2 SWAP1 PUSH2 0x2E91 JUMP JUMPDEST PUSH1 0x20 PUSH1 0x40 MLOAD DUP1 DUP4 SUB DUP2 DUP7 GAS STATICCALL ISZERO DUP1 ISZERO PUSH2 0x162F JUMPI RETURNDATASIZE PUSH1 0x0 DUP1 RETURNDATACOPY RETURNDATASIZE PUSH1 0x0 REVERT JUMPDEST POP POP POP POP PUSH1 0x40 MLOAD RETURNDATASIZE PUSH1 0x1F NOT PUSH1 0x1F DUP3 ADD AND DUP3 ADD DUP1 PUSH1 0x40 MSTORE POP DUP2 ADD SWAP1 PUSH2 0x1653 SWAP2 SWAP1 PUSH2 0x263A JUMP JUMPDEST SWAP1 POP DUP1 PUSH2 0x1695 JUMPI PUSH1 0x40 MLOAD PUSH32 0x8C379A000000000000000000000000000000000000000000000000000000000 DUP2 MSTORE PUSH1 0x4 ADD PUSH2 0x168C SWAP1 PUSH2 0x26B3 JUMP JUMPDEST PUSH1 0x40 MLOAD DUP1 SWAP2 SUB SWAP1 REVERT JUMPDEST PUSH32 0xF4D358772B552280F9395158C37BC77DDCBCDEAF62B20AA01276FB89D7EA1923 PUSH1 0x1 PUSH1 0x40 MLOAD PUSH2 0x16C5 SWAP2 SWAP1 PUSH2 0x1F69 JUMP JUMPDEST PUSH1 0x40 MLOAD DUP1 SWAP2 SUB SWAP1 LOG1 TIMESTAMP DUP5 PUSH1 0x2 PUSH1 0x3 DUP2 LT PUSH2 0x16E2 JUMPI PUSH2 0x16E1 PUSH2 0x23EF JUMP JUMPDEST JUMPDEST PUSH1 0x20 MUL ADD CALLDATALOAD GT ISZERO PUSH2 0x1728 JUMPI PUSH1 0x40 MLOAD PUSH32 0x8C379A000000000000000000000000000000000000000000000000000000000 DUP2 MSTORE PUSH1 0x4 ADD PUSH2 0x171F SWAP1 PUSH2 0x2F24 JUMP JUMPDEST PUSH1 0x40 MLOAD DUP1 SWAP2 SUB SWAP1 REVERT JUMPDEST PUSH1 0x2 PUSH1 0x15 SWAP1 SLOAD SWAP1 PUSH2 0x100 EXP SWAP1 DIV PUSH4 0xFFFFFFFF AND DUP3 PUSH2 0x1746 SWAP2 SWAP1 PUSH2 0x2F44 JUMP JUMPDEST PUSH4 0xFFFFFFFF AND DUP5 PUSH1 0x2 PUSH1 0x3 DUP2 LT PUSH2 0x1760 JUMPI PUSH2 0x175F PUSH2 0x23EF JUMP JUMPDEST JUMPDEST PUSH1 0x20 MUL ADD CALLDATALOAD LT ISZERO PUSH2 0x17A6 JUMPI PUSH1 0x40 MLOAD PUSH32 0x8C379A000000000000000000000000000000000000000000000000000000000 DUP2 MSTORE PUSH1 0x4 ADD PUSH2 0x179D SWAP1 PUSH2 0x2FC8 JUMP JUMPDEST PUSH1 0x40 MLOAD DUP1 SWAP2 SUB SWAP1 REVERT JUMPDEST PUSH2 0x17AE PUSH2 0x1C13 JUMP JUMPDEST POP POP POP POP POP POP POP JUMP JUMPDEST PUSH2 0x17BF PUSH2 0x45D JUMP JUMPDEST PUSH2 0x17FE JUMPI PUSH1 0x40 MLOAD PUSH32 0x8C379A000000000000000000000000000000000000000000000000000000000 DUP2 MSTORE PUSH1 0x4 ADD PUSH2 0x17F5 SWAP1 PUSH2 0x3034 JUMP JUMPDEST PUSH1 0x40 MLOAD DUP1 SWAP2 SUB SWAP1 REVERT JUMPDEST PUSH32 0x76729D52B3EC041633E327FE49B91B757319A9CB241B0F6CE433FF396EE4DEE6 PUSH1 0x1 PUSH1 0x40 MLOAD PUSH2 0x182E SWAP2 SWAP1 PUSH2 0x1F69 JUMP JUMPDEST PUSH1 0x40 MLOAD DUP1 SWAP2 SUB SWAP1 LOG1 PUSH2 0x183E PUSH2 0x1C13 JUMP JUMPDEST JUMP JUMPDEST PUSH1 0x0 DUP1 PUSH2 0x191E PUSH1 0x4 SLOAD PUSH1 0x5 SLOAD PUSH1 0x3 DUP1 SLOAD PUSH2 0x1859 SWAP1 PUSH2 0x22FF JUMP JUMPDEST DUP1 PUSH1 0x1F ADD PUSH1 0x20 DUP1 SWAP2 DIV MUL PUSH1 0x20 ADD PUSH1 0x40 MLOAD SWAP1 DUP2 ADD PUSH1 0x40 MSTORE DUP1 SWAP3 SWAP2 SWAP1 DUP2 DUP2 MSTORE PUSH1 0x20 ADD DUP3 DUP1 SLOAD PUSH2 0x1885 SWAP1 PUSH2 0x22FF JUMP JUMPDEST DUP1 ISZERO PUSH2 0x18D2 JUMPI DUP1 PUSH1 0x1F LT PUSH2 0x18A7 JUMPI PUSH2 0x100 DUP1 DUP4 SLOAD DIV MUL DUP4 MSTORE SWAP2 PUSH1 0x20 ADD SWAP2 PUSH2 0x18D2 JUMP JUMPDEST DUP3 ADD SWAP2 SWAP1 PUSH1 0x0 MSTORE PUSH1 0x20 PUSH1 0x0 KECCAK256 SWAP1 JUMPDEST DUP2 SLOAD DUP2 MSTORE SWAP1 PUSH1 0x1 ADD SWAP1 PUSH1 0x20 ADD DUP1 DUP4 GT PUSH2 0x18B5 JUMPI DUP3 SWAP1 SUB PUSH1 0x1F AND DUP3 ADD SWAP2 JUMPDEST POP POP POP POP POP PUSH1 0x2 PUSH1 0x0 SWAP1 SLOAD SWAP1 PUSH2 0x100 EXP SWAP1 DIV PUSH20 0xFFFFFFFFFFFFFFFFFFFFFFFFFFFFFFFFFFFFFFFF AND PUSH1 0x40 MLOAD PUSH1 0x20 ADD PUSH2 0x190A SWAP2 SWAP1 PUSH2 0x1EB9 JUMP JUMPDEST PUSH1 0x40 MLOAD PUSH1 0x20 DUP2 DUP4 SUB SUB DUP2 MSTORE SWAP1 PUSH1 0x40 MSTORE PUSH2 0x193A JUMP JUMPDEST SWAP1 POP DUP1 DUP1 PUSH1 0x20 ADD SWAP1 MLOAD DUP2 ADD SWAP1 PUSH2 0x1934 SWAP2 SWAP1 PUSH2 0x2345 JUMP JUMPDEST SWAP2 POP POP SWAP1 JUMP JUMPDEST PUSH1 0x60 PUSH1 0x0 DUP1 PUSH20 0x100000000000000000000000000000000000004 PUSH20 0xFFFFFFFFFFFFFFFFFFFFFFFFFFFFFFFFFFFFFFFF AND DUP8 DUP8 DUP8 DUP8 PUSH1 0x40 MLOAD PUSH1 0x20 ADD PUSH2 0x1981 SWAP5 SWAP4 SWAP3 SWAP2 SWAP1 PUSH2 0x30E8 JUMP JUMPDEST PUSH1 0x40 MLOAD PUSH1 0x20 DUP2 DUP4 SUB SUB DUP2 MSTORE SWAP1 PUSH1 0x40 MSTORE PUSH1 0x40 MLOAD PUSH2 0x199D SWAP2 SWAP1 PUSH2 0x3177 JUMP JUMPDEST PUSH1 0x0 PUSH1 0x40 MLOAD DUP1 DUP4 SUB DUP2 DUP6 GAS STATICCALL SWAP2 POP POP RETURNDATASIZE DUP1 PUSH1 0x0 DUP2 EQ PUSH2 0x19D8 JUMPI PUSH1 0x40 MLOAD SWAP2 POP PUSH1 0x1F NOT PUSH1 0x3F RETURNDATASIZE ADD AND DUP3 ADD PUSH1 0x40 MSTORE RETURNDATASIZE DUP3 MSTORE RETURNDATASIZE PUSH1 0x0 PUSH1 0x20 DUP5 ADD RETURNDATACOPY PUSH2 0x19DD JUMP JUMPDEST PUSH1 0x60 SWAP2 POP JUMPDEST POP SWAP2 POP SWAP2 POP DUP2 PUSH2 0x1A22 JUMPI PUSH1 0x40 MLOAD PUSH32 0x8C379A000000000000000000000000000000000000000000000000000000000 DUP2 MSTORE PUSH1 0x4 ADD PUSH2 0x1A19 SWAP1 PUSH2 0x31DA JUMP JUMPDEST PUSH1 0x40 MLOAD DUP1 SWAP2 SUB SWAP1 REVERT JUMPDEST DUP1 SWAP3 POP POP POP SWAP5 SWAP4 POP POP POP POP JUMP JUMPDEST PUSH1 0x60 PUSH1 0x0 DUP1 PUSH20 0x100000000000000000000000000000000000003 PUSH20 0xFFFFFFFFFFFFFFFFFFFFFFFFFFFFFFFFFFFFFFFF AND DUP8 DUP8 DUP8 DUP8 PUSH1 0x40 MLOAD PUSH1 0x20 ADD PUSH2 0x1A76 SWAP5 SWAP4 SWAP3 SWAP2 SWAP1 PUSH2 0x30E8 JUMP JUMPDEST PUSH1 0x40 MLOAD PUSH1 0x20 DUP2 DUP4 SUB SUB DUP2 MSTORE SWAP1 PUSH1 0x40 MSTORE PUSH1 0x40 MLOAD PUSH2 0x1A92 SWAP2 SWAP1 PUSH2 0x3177 JUMP JUMPDEST PUSH1 0x0 PUSH1 0x40 MLOAD DUP1 DUP4 SUB DUP2 DUP6 GAS STATICCALL SWAP2 POP POP RETURNDATASIZE DUP1 PUSH1 0x0 DUP2 EQ PUSH2 0x1ACD JUMPI PUSH1 0x40 MLOAD SWAP2 POP PUSH1 0x1F NOT PUSH1 0x3F RETURNDATASIZE ADD AND DUP3 ADD PUSH1 0x40 MSTORE RETURNDATASIZE DUP3 MSTORE RETURNDATASIZE PUSH1 0x0 PUSH1 0x20 DUP5 ADD RETURNDATACOPY PUSH2 0x1AD2 JUMP JUMPDEST PUSH1 0x60 SWAP2 POP JUMPDEST POP SWAP2 POP SWAP2 POP DUP2 PUSH2 0x1B17 JUMPI PUSH1 0x40 MLOAD PUSH32 0x8C379A000000000000000000000000000000000000000000000000000000000 DUP2 MSTORE PUSH1 0x4 ADD PUSH2 0x1B0E SWAP1 PUSH2 0x3246 JUMP JUMPDEST PUSH1 0x40 MLOAD DUP1 SWAP2 SUB SWAP1 REVERT JUMPDEST DUP1 SWAP3 POP POP POP SWAP5 SWAP4 POP POP POP POP JUMP JUMPDEST PUSH1 0x60 PUSH1 0x0 DUP1 PUSH20 0x100000000000000000000000000000000000001 PUSH20 0xFFFFFFFFFFFFFFFFFFFFFFFFFFFFFFFFFFFFFFFF AND DUP6 DUP6 PUSH1 0x40 MLOAD PUSH1 0x20 ADD PUSH2 0x1B67 SWAP3 SWAP2 SWAP1 PUSH2 0x3266 JUMP JUMPDEST PUSH1 0x40 MLOAD PUSH1 0x20 DUP2 DUP4 SUB SUB DUP2 MSTORE SWAP1 PUSH1 0x40 MSTORE PUSH1 0x40 MLOAD PUSH2 0x1B83 SWAP2 SWAP1 PUSH2 0x3177 JUMP JUMPDEST PUSH1 0x0 PUSH1 0x40 MLOAD DUP1 DUP4 SUB DUP2 DUP6 GAS STATICCALL SWAP2 POP POP RETURNDATASIZE DUP1 PUSH1 0x0 DUP2 EQ PUSH2 0x1BBE JUMPI PUSH1 0x40 MLOAD SWAP2 POP PUSH1 0x1F NOT PUSH1 0x3F RETURNDATASIZE ADD AND DUP3 ADD PUSH1 0x40 MSTORE RETURNDATASIZE DUP3 MSTORE RETURNDATASIZE PUSH1 0x0 PUSH1 0x20 DUP5 ADD RETURNDATACOPY PUSH2 0x1BC3 JUMP JUMPDEST PUSH1 0x60 SWAP2 POP JUMPDEST POP SWAP2 POP SWAP2 POP DUP2 PUSH2 0x1C08 JUMPI PUSH1 0x40 MLOAD PUSH32 0x8C379A000000000000000000000000000000000000000000000000000000000 DUP2 MSTORE PUSH1 0x4 ADD PUSH2 0x1BFF SWAP1 PUSH2 0x32E2 JUMP JUMPDEST PUSH1 0x40 MLOAD DUP1 SWAP2 SUB SWAP1 REVERT JUMPDEST DUP1 SWAP3 POP POP POP SWAP3 SWAP2 POP POP JUMP JUMPDEST PUSH1 0x0 SELFBALANCE SWAP1 POP PUSH1 0x0 DUP2 GT PUSH2 0x1C5B JUMPI PUSH1 0x40 MLOAD PUSH32 0x8C379A000000000000000000000000000000000000000000000000000000000 DUP2 MSTORE PUSH1 0x4 ADD PUSH2 0x1C52 SWAP1 PUSH2 0x334E JUMP JUMPDEST PUSH1 0x40 MLOAD DUP1 SWAP2 SUB SWAP1 REVERT JUMPDEST PUSH1 0x0 JUMPDEST PUSH1 0x7 DUP1 SLOAD SWAP1 POP DUP2 LT ISZERO PUSH2 0x1DC0 JUMPI PUSH1 0x0 PUSH1 0x7 DUP3 DUP2 SLOAD DUP2 LT PUSH2 0x1C81 JUMPI PUSH2 0x1C80 PUSH2 0x23EF JUMP JUMPDEST JUMPDEST SWAP1 PUSH1 0x0 MSTORE PUSH1 0x20 PUSH1 0x0 KECCAK256 ADD PUSH1 0x0 SWAP1 SLOAD SWAP1 PUSH2 0x100 EXP SWAP1 DIV PUSH20 0xFFFFFFFFFFFFFFFFFFFFFFFFFFFFFFFFFFFFFFFF AND SWAP1 POP PUSH1 0x0 PUSH1 0x6 PUSH1 0x0 DUP4 PUSH20 0xFFFFFFFFFFFFFFFFFFFFFFFFFFFFFFFFFFFFFFFF AND PUSH20 0xFFFFFFFFFFFFFFFFFFFFFFFFFFFFFFFFFFFFFFFF AND DUP2 MSTORE PUSH1 0x20 ADD SWAP1 DUP2 MSTORE PUSH1 0x20 ADD PUSH1 0x0 KECCAK256 SLOAD SWAP1 POP PUSH1 0x0 DUP2 GT DUP1 ISZERO PUSH2 0x1D02 JUMPI POP DUP1 DUP5 LT ISZERO JUMPDEST ISZERO PUSH2 0x1DAB JUMPI DUP2 PUSH20 0xFFFFFFFFFFFFFFFFFFFFFFFFFFFFFFFFFFFFFFFF AND PUSH2 0x8FC DUP3 SWAP1 DUP2 ISZERO MUL SWAP1 PUSH1 0x40 MLOAD PUSH1 0x0 PUSH1 0x40 MLOAD DUP1 DUP4 SUB DUP2 DUP6 DUP9 DUP9 CALL SWAP4 POP POP POP POP ISZERO DUP1 ISZERO PUSH2 0x1D4D JUMPI RETURNDATASIZE PUSH1 0x0 DUP1 RETURNDATACOPY RETURNDATASIZE PUSH1 0x0 REVERT JUMPDEST POP DUP2 PUSH20 0xFFFFFFFFFFFFFFFFFFFFFFFFFFFFFFFFFFFFFFFF AND PUSH32 0x221C08A06B07A64803B3787861A3F276212FCCCB51C2E6234077A9B8CB13047A DUP3 PUSH1 0x40 MLOAD PUSH2 0x1D94 SWAP2 SWAP1 PUSH2 0x1E8F JUMP JUMPDEST PUSH1 0x40 MLOAD DUP1 SWAP2 SUB SWAP1 LOG2 DUP1 DUP5 PUSH2 0x1DA8 SWAP2 SWAP1 PUSH2 0x26D3 JUMP JUMPDEST SWAP4 POP JUMPDEST POP POP DUP1 DUP1 PUSH2 0x1DB8 SWAP1 PUSH2 0x336E JUMP JUMPDEST SWAP2 POP POP PUSH2 0x1C5E JUMP JUMPDEST POP POP JUMP JUMPDEST PUSH1 0x40 MLOAD DUP1 PUSH1 0x40 ADD PUSH1 0x40 MSTORE DUP1 PUSH1 0x2 SWAP1 PUSH1 0x20 DUP3 MUL DUP1 CALLDATASIZE DUP4 CALLDATACOPY DUP1 DUP3 ADD SWAP2 POP POP SWAP1 POP POP SWAP1 JUMP JUMPDEST PUSH1 0x0 DUP1 REVERT JUMPDEST PUSH1 0x0 PUSH20 0xFFFFFFFFFFFFFFFFFFFFFFFFFFFFFFFFFFFFFFFF DUP3 AND SWAP1 POP SWAP2 SWAP1 POP JUMP JUMPDEST PUSH1 0x0 PUSH2 0x1E16 DUP3 PUSH2 0x1DEB JUMP JUMPDEST SWAP1 POP SWAP2 SWAP1 POP JUMP JUMPDEST PUSH2 0x1E26 DUP2 PUSH2 0x1E0B JUMP JUMPDEST DUP2 EQ PUSH2 0x1E31 JUMPI PUSH1 0x0 DUP1 REVERT JUMPDEST POP JUMP JUMPDEST PUSH1 0x0 DUP2 CALLDATALOAD SWAP1 POP PUSH2 0x1E43 DUP2 PUSH2 0x1E1D JUMP JUMPDEST SWAP3 SWAP2 POP POP JUMP JUMPDEST PUSH1 0x0 PUSH1 0x20 DUP3 DUP5 SUB SLT ISZERO PUSH2 0x1E5F JUMPI PUSH2 0x1E5E PUSH2 0x1DE6 JUMP JUMPDEST JUMPDEST PUSH1 0x0 PUSH2 0x1E6D DUP5 DUP3 DUP6 ADD PUSH2 0x1E34 JUMP JUMPDEST SWAP2 POP POP SWAP3 SWAP2 POP POP JUMP JUMPDEST PUSH1 0x0 DUP2 SWAP1 POP SWAP2 SWAP1 POP JUMP JUMPDEST PUSH2 0x1E89 DUP2 PUSH2 0x1E76 JUMP JUMPDEST DUP3 MSTORE POP POP JUMP JUMPDEST PUSH1 0x0 PUSH1 0x20 DUP3 ADD SWAP1 POP PUSH2 0x1EA4 PUSH1 0x0 DUP4 ADD DUP5 PUSH2 0x1E80 JUMP JUMPDEST SWAP3 SWAP2 POP POP JUMP JUMPDEST PUSH2 0x1EB3 DUP2 PUSH2 0x1E0B JUMP JUMPDEST DUP3 MSTORE POP POP JUMP JUMPDEST PUSH1 0x0 PUSH1 0x20 DUP3 ADD SWAP1 POP PUSH2 0x1ECE PUSH1 0x0 DUP4 ADD DUP5 PUSH2 0x1EAA JUMP JUMPDEST SWAP3 SWAP2 POP POP JUMP JUMPDEST PUSH1 0x0 DUP2 SWAP1 POP SWAP2 SWAP1 POP JUMP JUMPDEST PUSH1 0x0 PUSH2 0x1EF9 PUSH2 0x1EF4 PUSH2 0x1EEF DUP5 PUSH2 0x1DEB JUMP JUMPDEST PUSH2 0x1ED4 JUMP JUMPDEST PUSH2 0x1DEB JUMP JUMPDEST SWAP1 POP SWAP2 SWAP1 POP JUMP JUMPDEST PUSH1 0x0 PUSH2 0x1F0B DUP3 PUSH2 0x1EDE JUMP JUMPDEST SWAP1 POP SWAP2 SWAP1 POP JUMP JUMPDEST PUSH1 0x0 PUSH2 0x1F1D DUP3 PUSH2 0x1F00 JUMP JUMPDEST SWAP1 POP SWAP2 SWAP1 POP JUMP JUMPDEST PUSH2 0x1F2D DUP2 PUSH2 0x1F12 JUMP JUMPDEST DUP3 MSTORE POP POP JUMP JUMPDEST PUSH1 0x0 PUSH1 0x20 DUP3 ADD SWAP1 POP PUSH2 0x1F48 PUSH1 0x0 DUP4 ADD DUP5 PUSH2 0x1F24 JUMP JUMPDEST SWAP3 SWAP2 POP POP JUMP JUMPDEST PUSH1 0x0 DUP2 ISZERO ISZERO SWAP1 POP SWAP2 SWAP1 POP JUMP JUMPDEST PUSH2 0x1F63 DUP2 PUSH2 0x1F4E JUMP JUMPDEST DUP3 MSTORE POP POP JUMP JUMPDEST PUSH1 0x0 PUSH1 0x20 DUP3 ADD SWAP1 POP PUSH2 0x1F7E PUSH1 0x0 DUP4 ADD DUP5 PUSH2 0x1F5A JUMP JUMPDEST SWAP3 SWAP2 POP POP JUMP JUMPDEST PUSH1 0x0 DUP1 REVERT JUMPDEST PUSH1 0x0 DUP2 SWAP1 POP DUP3 PUSH1 0x20 PUSH1 0x2 MUL DUP3 ADD GT ISZERO PUSH2 0x1FA5 JUMPI PUSH2 0x1FA4 PUSH2 0x1F84 JUMP JUMPDEST JUMPDEST SWAP3 SWAP2 POP POP JUMP JUMPDEST PUSH1 0x0 DUP2 SWAP1 POP DUP3 PUSH1 0x40 PUSH1 0x2 MUL DUP3 ADD GT ISZERO PUSH2 0x1FC7 JUMPI PUSH2 0x1FC6 PUSH2 0x1F84 JUMP JUMPDEST JUMPDEST SWAP3 SWAP2 POP POP JUMP JUMPDEST PUSH1 0x0 DUP1 PUSH1 0x0 DUP1 PUSH2 0x140 DUP6 DUP8 SUB SLT ISZERO PUSH2 0x1FE8 JUMPI PUSH2 0x1FE7 PUSH2 0x1DE6 JUMP JUMPDEST JUMPDEST PUSH1 0x0 PUSH2 0x1FF6 DUP8 DUP3 DUP9 ADD PUSH2 0x1F89 JUMP JUMPDEST SWAP5 POP POP PUSH1 0x40 PUSH2 0x2007 DUP8 DUP3 DUP9 ADD PUSH2 0x1FAB JUMP JUMPDEST SWAP4 POP POP PUSH1 0xC0 PUSH2 0x2018 DUP8 DUP3 DUP9 ADD PUSH2 0x1F89 JUMP JUMPDEST SWAP3 POP POP PUSH2 0x100 PUSH2 0x202A DUP8 DUP3 DUP9 ADD PUSH2 0x1F89 JUMP JUMPDEST SWAP2 POP POP SWAP3 SWAP6 SWAP2 SWAP5 POP SWAP3 POP JUMP JUMPDEST PUSH1 0x0 PUSH2 0x2041 DUP3 PUSH2 0x1F00 JUMP JUMPDEST SWAP1 POP SWAP2 SWAP1 POP JUMP JUMPDEST PUSH2 0x2051 DUP2 PUSH2 0x2036 JUMP JUMPDEST DUP3 MSTORE POP POP JUMP JUMPDEST PUSH1 0x0 PUSH1 0x20 DUP3 ADD SWAP1 POP PUSH2 0x206C PUSH1 0x0 DUP4 ADD DUP5 PUSH2 0x2048 JUMP JUMPDEST SWAP3 SWAP2 POP POP JUMP JUMPDEST PUSH2 0x207B DUP2 PUSH2 0x1E76 JUMP JUMPDEST DUP2 EQ PUSH2 0x2086 JUMPI PUSH1 0x0 DUP1 REVERT JUMPDEST POP JUMP JUMPDEST PUSH1 0x0 DUP2 CALLDATALOAD SWAP1 POP PUSH2 0x2098 DUP2 PUSH2 0x2072 JUMP JUMPDEST SWAP3 SWAP2 POP POP JUMP JUMPDEST PUSH1 0x0 DUP1 PUSH1 0x40 DUP4 DUP6 SUB SLT ISZERO PUSH2 0x20B5 JUMPI PUSH2 0x20B4 PUSH2 0x1DE6 JUMP JUMPDEST JUMPDEST PUSH1 0x0 PUSH2 0x20C3 DUP6 DUP3 DUP7 ADD PUSH2 0x2089 JUMP JUMPDEST SWAP3 POP POP PUSH1 0x20 PUSH2 0x20D4 DUP6 DUP3 DUP7 ADD PUSH2 0x2089 JUMP JUMPDEST SWAP2 POP POP SWAP3 POP SWAP3 SWAP1 POP JUMP JUMPDEST PUSH1 0x0 PUSH4 0xFFFFFFFF DUP3 AND SWAP1 POP SWAP2 SWAP1 POP JUMP JUMPDEST PUSH2 0x20F7 DUP2 PUSH2 0x20DE JUMP JUMPDEST DUP2 EQ PUSH2 0x2102 JUMPI PUSH1 0x0 DUP1 REVERT JUMPDEST POP JUMP JUMPDEST PUSH1 0x0 DUP2 CALLDATALOAD SWAP1 POP PUSH2 0x2114 DUP2 PUSH2 0x20EE JUMP JUMPDEST SWAP3 SWAP2 POP POP JUMP JUMPDEST PUSH1 0x0 PUSH1 0x20 DUP3 DUP5 SUB SLT ISZERO PUSH2 0x2130 JUMPI PUSH2 0x212F PUSH2 0x1DE6 JUMP JUMPDEST JUMPDEST PUSH1 0x0 PUSH2 0x213E DUP5 DUP3 DUP6 ADD PUSH2 0x2105 JUMP JUMPDEST SWAP2 POP POP SWAP3 SWAP2 POP POP JUMP JUMPDEST PUSH1 0x0 DUP1 PUSH1 0x40 DUP4 DUP6 SUB SLT ISZERO PUSH2 0x215E JUMPI PUSH2 0x215D PUSH2 0x1DE6 JUMP JUMPDEST JUMPDEST PUSH1 0x0 PUSH2 0x216C DUP6 DUP3 DUP7 ADD PUSH2 0x1E34 JUMP JUMPDEST SWAP3 POP POP PUSH1 0x20 PUSH2 0x217D DUP6 DUP3 DUP7 ADD PUSH2 0x2089 JUMP JUMPDEST SWAP2 POP POP SWAP3 POP SWAP3 SWAP1 POP JUMP JUMPDEST PUSH1 0x0 PUSH1 0x20 DUP3 DUP5 SUB SLT ISZERO PUSH2 0x219D JUMPI PUSH2 0x219C PUSH2 0x1DE6 JUMP JUMPDEST JUMPDEST PUSH1 0x0 PUSH2 0x21AB DUP5 DUP3 DUP6 ADD PUSH2 0x2089 JUMP JUMPDEST SWAP2 POP POP SWAP3 SWAP2 POP POP JUMP JUMPDEST PUSH2 0x21BD DUP2 PUSH2 0x20DE JUMP JUMPDEST DUP3 MSTORE POP POP JUMP JUMPDEST PUSH1 0x0 PUSH1 0x20 DUP3 ADD SWAP1 POP PUSH2 0x21D8 PUSH1 0x0 DUP4 ADD DUP5 PUSH2 0x21B4 JUMP JUMPDEST SWAP3 SWAP2 POP POP JUMP JUMPDEST PUSH1 0x0 DUP2 SWAP1 POP DUP3 PUSH1 0x20 PUSH1 0x3 MUL DUP3 ADD GT ISZERO PUSH2 0x21FA JUMPI PUSH2 0x21F9 PUSH2 0x1F84 JUMP JUMPDEST JUMPDEST SWAP3 SWAP2 POP POP JUMP JUMPDEST PUSH1 0x0 DUP1 PUSH1 0x0 DUP1 PUSH2 0x160 DUP6 DUP8 SUB SLT ISZERO PUSH2 0x221B JUMPI PUSH2 0x221A PUSH2 0x1DE6 JUMP JUMPDEST JUMPDEST PUSH1 0x0 PUSH2 0x2229 DUP8 DUP3 DUP9 ADD PUSH2 0x1F89 JUMP JUMPDEST SWAP5 POP POP PUSH1 0x40 PUSH2 0x223A DUP8 DUP3 DUP9 ADD PUSH2 0x1FAB JUMP JUMPDEST SWAP4 POP POP PUSH1 0xC0 PUSH2 0x224B DUP8 DUP3 DUP9 ADD PUSH2 0x1F89 JUMP JUMPDEST SWAP3 POP POP PUSH2 0x100 PUSH2 0x225D DUP8 DUP3 DUP9 ADD PUSH2 0x21DE JUMP JUMPDEST SWAP2 POP POP SWAP3 SWAP6 SWAP2 SWAP5 POP SWAP3 POP JUMP JUMPDEST PUSH32 0x4E487B7100000000000000000000000000000000000000000000000000000000 PUSH1 0x0 MSTORE PUSH1 0x11 PUSH1 0x4 MSTORE PUSH1 0x24 PUSH1 0x0 REVERT JUMPDEST PUSH1 0x0 PUSH2 0x22A3 DUP3 PUSH2 0x20DE JUMP JUMPDEST SWAP2 POP PUSH2 0x22AE DUP4 PUSH2 0x20DE JUMP JUMPDEST SWAP3 POP DUP3 DUP3 SUB SWAP1 POP PUSH4 0xFFFFFFFF DUP2 GT ISZERO PUSH2 0x22CA JUMPI PUSH2 0x22C9 PUSH2 0x2269 JUMP JUMPDEST JUMPDEST SWAP3 SWAP2 POP POP JUMP JUMPDEST PUSH32 0x4E487B7100000000000000000000000000000000000000000000000000000000 PUSH1 0x0 MSTORE PUSH1 0x22 PUSH1 0x4 MSTORE PUSH1 0x24 PUSH1 0x0 REVERT JUMPDEST PUSH1 0x0 PUSH1 0x2 DUP3 DIV SWAP1 POP PUSH1 0x1 DUP3 AND DUP1 PUSH2 0x2317 JUMPI PUSH1 0x7F DUP3 AND SWAP2 POP JUMPDEST PUSH1 0x20 DUP3 LT DUP2 SUB PUSH2 0x232A JUMPI PUSH2 0x2329 PUSH2 0x22D0 JUMP JUMPDEST JUMPDEST POP SWAP2 SWAP1 POP JUMP JUMPDEST PUSH1 0x0 DUP2 MLOAD SWAP1 POP PUSH2 0x233F DUP2 PUSH2 0x20EE JUMP JUMPDEST SWAP3 SWAP2 POP POP JUMP JUMPDEST PUSH1 0x0 PUSH1 0x20 DUP3 DUP5 SUB SLT ISZERO PUSH2 0x235B JUMPI PUSH2 0x235A PUSH2 0x1DE6 JUMP JUMPDEST JUMPDEST PUSH1 0x0 PUSH2 0x2369 DUP5 DUP3 DUP6 ADD PUSH2 0x2330 JUMP JUMPDEST SWAP2 POP POP SWAP3 SWAP2 POP POP JUMP JUMPDEST PUSH1 0x0 DUP3 DUP3 MSTORE PUSH1 0x20 DUP3 ADD SWAP1 POP SWAP3 SWAP2 POP POP JUMP JUMPDEST PUSH32 0x4E6F7420746865206F776E657200000000000000000000000000000000000000 PUSH1 0x0 DUP3 ADD MSTORE POP JUMP JUMPDEST PUSH1 0x0 PUSH2 0x23B9 PUSH1 0xD DUP4 PUSH2 0x2372 JUMP JUMPDEST SWAP2 POP PUSH2 0x23C4 DUP3 PUSH2 0x2383 JUMP JUMPDEST PUSH1 0x20 DUP3 ADD SWAP1 POP SWAP2 SWAP1 POP JUMP JUMPDEST PUSH1 0x0 PUSH1 0x20 DUP3 ADD SWAP1 POP DUP2 DUP2 SUB PUSH1 0x0 DUP4 ADD MSTORE PUSH2 0x23E8 DUP2 PUSH2 0x23AC JUMP JUMPDEST SWAP1 POP SWAP2 SWAP1 POP JUMP JUMPDEST PUSH32 0x4E487B7100000000000000000000000000000000000000000000000000000000 PUSH1 0x0 MSTORE PUSH1 0x32 PUSH1 0x4 MSTORE PUSH1 0x24 PUSH1 0x0 REVERT JUMPDEST PUSH1 0x0 PUSH1 0x2 SWAP1 POP SWAP2 SWAP1 POP JUMP JUMPDEST PUSH1 0x0 DUP2 SWAP1 POP SWAP3 SWAP2 POP POP JUMP JUMPDEST PUSH1 0x0 DUP2 SWAP1 POP SWAP2 SWAP1 POP JUMP JUMPDEST PUSH2 0x2447 DUP2 PUSH2 0x1E76 JUMP JUMPDEST DUP3 MSTORE POP POP JUMP JUMPDEST PUSH1 0x0 PUSH2 0x2459 DUP4 DUP4 PUSH2 0x243E JUMP JUMPDEST PUSH1 0x20 DUP4 ADD SWAP1 POP SWAP3 SWAP2 POP POP JUMP JUMPDEST PUSH1 0x0 PUSH1 0x20 DUP3 ADD SWAP1 POP SWAP2 SWAP1 POP JUMP JUMPDEST PUSH2 0x247B DUP2 PUSH2 0x241E JUMP JUMPDEST PUSH2 0x2485 DUP2 DUP5 PUSH2 0x2429 JUMP JUMPDEST SWAP3 POP PUSH2 0x2490 DUP3 PUSH2 0x2434 JUMP JUMPDEST DUP1 PUSH1 0x0 JUMPDEST DUP4 DUP2 LT ISZERO PUSH2 0x24C1 JUMPI DUP2 MLOAD PUSH2 0x24A8 DUP8 DUP3 PUSH2 0x244D JUMP JUMPDEST SWAP7 POP PUSH2 0x24B3 DUP4 PUSH2 0x2465 JUMP JUMPDEST SWAP3 POP POP PUSH1 0x1 DUP2 ADD SWAP1 POP PUSH2 0x2494 JUMP JUMPDEST POP POP POP POP POP POP JUMP JUMPDEST PUSH1 0x0 PUSH1 0x2 SWAP1 POP SWAP2 SWAP1 POP JUMP JUMPDEST PUSH1 0x0 DUP2 SWAP1 POP SWAP3 SWAP2 POP POP JUMP JUMPDEST PUSH1 0x0 DUP2 SWAP1 POP SWAP2 SWAP1 POP JUMP JUMPDEST PUSH1 0x0 DUP2 SWAP1 POP SWAP3 SWAP2 POP POP JUMP JUMPDEST PUSH2 0x24FD DUP2 PUSH2 0x241E JUMP JUMPDEST PUSH2 0x2507 DUP2 DUP5 PUSH2 0x24E9 JUMP JUMPDEST SWAP3 POP PUSH2 0x2512 DUP3 PUSH2 0x2434 JUMP JUMPDEST DUP1 PUSH1 0x0 JUMPDEST DUP4 DUP2 LT ISZERO PUSH2 0x2543 JUMPI DUP2 MLOAD PUSH2 0x252A DUP8 DUP3 PUSH2 0x244D JUMP JUMPDEST SWAP7 POP PUSH2 0x2535 DUP4 PUSH2 0x2465 JUMP JUMPDEST SWAP3 POP POP PUSH1 0x1 DUP2 ADD SWAP1 POP PUSH2 0x2516 JUMP JUMPDEST POP POP POP POP POP POP JUMP JUMPDEST PUSH1 0x0 PUSH2 0x2557 DUP4 DUP4 PUSH2 0x24F4 JUMP JUMPDEST PUSH1 0x40 DUP4 ADD SWAP1 POP SWAP3 SWAP2 POP POP JUMP JUMPDEST PUSH1 0x0 PUSH1 0x20 DUP3 ADD SWAP1 POP SWAP2 SWAP1 POP JUMP JUMPDEST PUSH2 0x2579 DUP2 PUSH2 0x24C9 JUMP JUMPDEST PUSH2 0x2583 DUP2 DUP5 PUSH2 0x24D4 JUMP JUMPDEST SWAP3 POP PUSH2 0x258E DUP3 PUSH2 0x24DF JUMP JUMPDEST DUP1 PUSH1 0x0 JUMPDEST DUP4 DUP2 LT ISZERO PUSH2 0x25BF JUMPI DUP2 MLOAD PUSH2 0x25A6 DUP8 DUP3 PUSH2 0x254B JUMP JUMPDEST SWAP7 POP PUSH2 0x25B1 DUP4 PUSH2 0x2563 JUMP JUMPDEST SWAP3 POP POP PUSH1 0x1 DUP2 ADD SWAP1 POP PUSH2 0x2592 JUMP JUMPDEST POP POP POP POP POP POP JUMP JUMPDEST PUSH1 0x0 PUSH2 0x140 DUP3 ADD SWAP1 POP PUSH2 0x25DD PUSH1 0x0 DUP4 ADD DUP8 PUSH2 0x2472 JUMP JUMPDEST PUSH2 0x25EA PUSH1 0x40 DUP4 ADD DUP7 PUSH2 0x2570 JUMP JUMPDEST PUSH2 0x25F7 PUSH1 0xC0 DUP4 ADD DUP6 PUSH2 0x2472 JUMP JUMPDEST PUSH2 0x2605 PUSH2 0x100 DUP4 ADD DUP5 PUSH2 0x2472 JUMP JUMPDEST SWAP6 SWAP5 POP POP POP POP POP JUMP JUMPDEST PUSH2 0x2617 DUP2 PUSH2 0x1F4E JUMP JUMPDEST DUP2 EQ PUSH2 0x2622 JUMPI PUSH1 0x0 DUP1 REVERT JUMPDEST POP JUMP JUMPDEST PUSH1 0x0 DUP2 MLOAD SWAP1 POP PUSH2 0x2634 DUP2 PUSH2 0x260E JUMP JUMPDEST SWAP3 SWAP2 POP POP JUMP JUMPDEST PUSH1 0x0 PUSH1 0x20 DUP3 DUP5 SUB SLT ISZERO PUSH2 0x2650 JUMPI PUSH2 0x264F PUSH2 0x1DE6 JUMP JUMPDEST JUMPDEST PUSH1 0x0 PUSH2 0x265E DUP5 DUP3 DUP6 ADD PUSH2 0x2625 JUMP JUMPDEST SWAP2 POP POP SWAP3 SWAP2 POP POP JUMP JUMPDEST PUSH32 0x496E76616C6964205A4B2070726F6F6600000000000000000000000000000000 PUSH1 0x0 DUP3 ADD MSTORE POP JUMP JUMPDEST PUSH1 0x0 PUSH2 0x269D PUSH1 0x10 DUP4 PUSH2 0x2372 JUMP JUMPDEST SWAP2 POP PUSH2 0x26A8 DUP3 PUSH2 0x2667 JUMP JUMPDEST PUSH1 0x20 DUP3 ADD SWAP1 POP SWAP2 SWAP1 POP JUMP JUMPDEST PUSH1 0x0 PUSH1 0x20 DUP3 ADD SWAP1 POP DUP2 DUP2 SUB PUSH1 0x0 DUP4 ADD MSTORE PUSH2 0x26CC DUP2 PUSH2 0x2690 JUMP JUMPDEST SWAP1 POP SWAP2 SWAP1 POP JUMP JUMPDEST PUSH1 0x0 PUSH2 0x26DE DUP3 PUSH2 0x1E76 JUMP JUMPDEST SWAP2 POP PUSH2 0x26E9 DUP4 PUSH2 0x1E76 JUMP JUMPDEST SWAP3 POP DUP3 DUP3 SUB SWAP1 POP DUP2 DUP2 GT ISZERO PUSH2 0x2701 JUMPI PUSH2 0x2700 PUSH2 0x2269 JUMP JUMPDEST JUMPDEST SWAP3 SWAP2 POP POP JUMP JUMPDEST PUSH1 0x0 PUSH2 0x2712 DUP3 PUSH2 0x1E76 JUMP JUMPDEST SWAP2 POP PUSH2 0x271D DUP4 PUSH2 0x1E76 JUMP JUMPDEST SWAP3 POP DUP3 DUP3 ADD SWAP1 POP DUP1 DUP3 GT ISZERO PUSH2 0x2735 JUMPI PUSH2 0x2734 PUSH2 0x2269 JUMP JUMPDEST JUMPDEST SWAP3 SWAP2 POP POP JUMP JUMPDEST PUSH32 0x54696D657374616D70206F7574206F662076616C69642072616E676500000000 PUSH1 0x0 DUP3 ADD MSTORE POP JUMP JUMPDEST PUSH1 0x0 PUSH2 0x2771 PUSH1 0x1C DUP4 PUSH2 0x2372 JUMP JUMPDEST SWAP2 POP PUSH2 0x277C DUP3 PUSH2 0x273B JUMP JUMPDEST PUSH1 0x20 DUP3 ADD SWAP1 POP SWAP2 SWAP1 POP JUMP JUMPDEST PUSH1 0x0 PUSH1 0x20 DUP3 ADD SWAP1 POP DUP2 DUP2 SUB PUSH1 0x0 DUP4 ADD MSTORE PUSH2 0x27A0 DUP2 PUSH2 0x2764 JUMP JUMPDEST SWAP1 POP SWAP2 SWAP1 POP JUMP JUMPDEST PUSH1 0x0 DUP2 MLOAD SWAP1 POP SWAP2 SWAP1 POP JUMP JUMPDEST PUSH32 0x4E487B7100000000000000000000000000000000000000000000000000000000 PUSH1 0x0 MSTORE PUSH1 0x41 PUSH1 0x4 MSTORE PUSH1 0x24 PUSH1 0x0 REVERT JUMPDEST PUSH1 0x0 DUP2 SWAP1 POP DUP2 PUSH1 0x0 MSTORE PUSH1 0x20 PUSH1 0x0 KECCAK256 SWAP1 POP SWAP2 SWAP1 POP JUMP JUMPDEST PUSH1 0x0 PUSH1 0x20 PUSH1 0x1F DUP4 ADD DIV SWAP1 POP SWAP2 SWAP1 POP JUMP JUMPDEST PUSH1 0x0 DUP3 DUP3 SHL SWAP1 POP SWAP3 SWAP2 POP POP JUMP JUMPDEST PUSH1 0x0 PUSH1 0x8 DUP4 MUL PUSH2 0x2843 PUSH32 0xFFFFFFFFFFFFFFFFFFFFFFFFFFFFFFFFFFFFFFFFFFFFFFFFFFFFFFFFFFFFFFFF DUP3 PUSH2 0x2806 JUMP JUMPDEST PUSH2 0x284D DUP7 DUP4 PUSH2 0x2806 JUMP JUMPDEST SWAP6 POP DUP1 NOT DUP5 AND SWAP4 POP DUP1 DUP7 AND DUP5 OR SWAP3 POP POP POP SWAP4 SWAP3 POP POP POP JUMP JUMPDEST PUSH1 0x0 PUSH2 0x2880 PUSH2 0x287B PUSH2 0x2876 DUP5 PUSH2 0x1E76 JUMP JUMPDEST PUSH2 0x1ED4 JUMP JUMPDEST PUSH2 0x1E76 JUMP JUMPDEST SWAP1 POP SWAP2 SWAP1 POP JUMP JUMPDEST PUSH1 0x0 DUP2 SWAP1 POP SWAP2 SWAP1 POP JUMP JUMPDEST PUSH2 0x289A DUP4 PUSH2 0x2865 JUMP JUMPDEST PUSH2 0x28AE PUSH2 0x28A6 DUP3 PUSH2 0x2887 JUMP JUMPDEST DUP5 DUP5 SLOAD PUSH2 0x2813 JUMP JUMPDEST DUP3 SSTORE POP POP POP POP JUMP JUMPDEST PUSH1 0x0 SWAP1 JUMP JUMPDEST PUSH2 0x28C3 PUSH2 0x28B6 JUMP JUMPDEST PUSH2 0x28CE DUP2 DUP5 DUP5 PUSH2 0x2891 JUMP JUMPDEST POP POP POP JUMP JUMPDEST JUMPDEST DUP2 DUP2 LT ISZERO PUSH2 0x28F2 JUMPI PUSH2 0x28E7 PUSH1 0x0 DUP3 PUSH2 0x28BB JUMP JUMPDEST PUSH1 0x1 DUP2 ADD SWAP1 POP PUSH2 0x28D4 JUMP JUMPDEST POP POP JUMP JUMPDEST PUSH1 0x1F DUP3 GT ISZERO PUSH2 0x2937 JUMPI PUSH2 0x2908 DUP2 PUSH2 0x27E1 JUMP JUMPDEST PUSH2 0x2911 DUP5 PUSH2 0x27F6 JUMP JUMPDEST DUP2 ADD PUSH1 0x20 DUP6 LT ISZERO PUSH2 0x2920 JUMPI DUP2 SWAP1 POP JUMPDEST PUSH2 0x2934 PUSH2 0x292C DUP6 PUSH2 0x27F6 JUMP JUMPDEST DUP4 ADD DUP3 PUSH2 0x28D3 JUMP JUMPDEST POP POP JUMPDEST POP POP POP JUMP JUMPDEST PUSH1 0x0 DUP3 DUP3 SHR SWAP1 POP SWAP3 SWAP2 POP POP JUMP JUMPDEST PUSH1 0x0 PUSH2 0x295A PUSH1 0x0 NOT DUP5 PUSH1 0x8 MUL PUSH2 0x293C JUMP JUMPDEST NOT DUP1 DUP4 AND SWAP2 POP POP SWAP3 SWAP2 POP POP JUMP JUMPDEST PUSH1 0x0 PUSH2 0x2973 DUP4 DUP4 PUSH2 0x2949 JUMP JUMPDEST SWAP2 POP DUP3 PUSH1 0x2 MUL DUP3 OR SWAP1 POP SWAP3 SWAP2 POP POP JUMP JUMPDEST PUSH2 0x298C DUP3 PUSH2 0x27A7 JUMP JUMPDEST PUSH8 0xFFFFFFFFFFFFFFFF DUP2 GT ISZERO PUSH2 0x29A5 JUMPI PUSH2 0x29A4 PUSH2 0x27B2 JUMP JUMPDEST JUMPDEST PUSH2 0x29AF DUP3 SLOAD PUSH2 0x22FF JUMP JUMPDEST PUSH2 0x29BA DUP3 DUP3 DUP6 PUSH2 0x28F6 JUMP JUMPDEST PUSH1 0x0 PUSH1 0x20 SWAP1 POP PUSH1 0x1F DUP4 GT PUSH1 0x1 DUP2 EQ PUSH2 0x29ED JUMPI PUSH1 0x0 DUP5 ISZERO PUSH2 0x29DB JUMPI DUP3 DUP8 ADD MLOAD SWAP1 POP JUMPDEST PUSH2 0x29E5 DUP6 DUP3 PUSH2 0x2967 JUMP JUMPDEST DUP7 SSTORE POP PUSH2 0x2A4D JUMP JUMPDEST PUSH1 0x1F NOT DUP5 AND PUSH2 0x29FB DUP7 PUSH2 0x27E1 JUMP JUMPDEST PUSH1 0x0 JUMPDEST DUP3 DUP2 LT ISZERO PUSH2 0x2A23 JUMPI DUP5 DUP10 ADD MLOAD DUP3 SSTORE PUSH1 0x1 DUP3 ADD SWAP2 POP PUSH1 0x20 DUP6 ADD SWAP5 POP PUSH1 0x20 DUP2 ADD SWAP1 POP PUSH2 0x29FE JUMP JUMPDEST DUP7 DUP4 LT ISZERO PUSH2 0x2A40 JUMPI DUP5 DUP10 ADD MLOAD PUSH2 0x2A3C PUSH1 0x1F DUP10 AND DUP3 PUSH2 0x2949 JUMP JUMPDEST DUP4 SSTORE POP JUMPDEST PUSH1 0x1 PUSH1 0x2 DUP9 MUL ADD DUP9 SSTORE POP POP POP JUMPDEST POP POP POP POP POP POP JUMP JUMPDEST PUSH1 0x0 DUP2 SWAP1 POP SWAP2 SWAP1 POP JUMP JUMPDEST PUSH2 0x2A70 PUSH2 0x2A6B DUP3 PUSH2 0x1E76 JUMP JUMPDEST PUSH2 0x2A55 JUMP JUMPDEST DUP3 MSTORE POP POP JUMP JUMPDEST PUSH1 0x0 PUSH2 0x2A82 DUP3 DUP6 PUSH2 0x2A5F JUMP JUMPDEST PUSH1 0x20 DUP3 ADD SWAP2 POP PUSH2 0x2A92 DUP3 DUP5 PUSH2 0x2A5F JUMP JUMPDEST PUSH1 0x20 DUP3 ADD SWAP2 POP DUP2 SWAP1 POP SWAP4 SWAP3 POP POP POP JUMP JUMPDEST PUSH32 0x4E487B7100000000000000000000000000000000000000000000000000000000 PUSH1 0x0 MSTORE PUSH1 0x12 PUSH1 0x4 MSTORE PUSH1 0x24 PUSH1 0x0 REVERT JUMPDEST PUSH1 0x0 PUSH2 0x2ADC DUP3 PUSH2 0x1E76 JUMP JUMPDEST SWAP2 POP PUSH2 0x2AE7 DUP4 PUSH2 0x1E76 JUMP JUMPDEST SWAP3 POP DUP3 PUSH2 0x2AF7 JUMPI PUSH2 0x2AF6 PUSH2 0x2AA2 JUMP JUMPDEST JUMPDEST DUP3 DUP3 MOD SWAP1 POP SWAP3 SWAP2 POP POP JUMP JUMPDEST PUSH32 0x416C726561647920696E697469616C697A656400000000000000000000000000 PUSH1 0x0 DUP3 ADD MSTORE POP JUMP JUMPDEST PUSH1 0x0 PUSH2 0x2B38 PUSH1 0x13 DUP4 PUSH2 0x2372 JUMP JUMPDEST SWAP2 POP PUSH2 0x2B43 DUP3 PUSH2 0x2B02 JUMP JUMPDEST PUSH1 0x20 DUP3 ADD SWAP1 POP SWAP2 SWAP1 POP JUMP JUMPDEST PUSH1 0x0 PUSH1 0x20 DUP3 ADD SWAP1 POP DUP2 DUP2 SUB PUSH1 0x0 DUP4 ADD MSTORE PUSH2 0x2B67 DUP2 PUSH2 0x2B2B JUMP JUMPDEST SWAP1 POP SWAP2 SWAP1 POP JUMP JUMPDEST PUSH1 0x0 DUP2 SWAP1 POP PUSH1 0x20 DUP3 ADD SWAP1 POP SWAP2 SWAP1 POP JUMP JUMPDEST PUSH1 0x0 DUP2 SWAP1 POP SWAP2 SWAP1 POP JUMP JUMPDEST PUSH1 0x0 PUSH2 0x2B94 DUP3 MLOAD PUSH2 0x2B7E JUMP JUMPDEST DUP1 SWAP2 POP POP SWAP2 SWAP1 POP JUMP JUMPDEST PUSH1 0x0 PUSH2 0x2BA8 DUP3 PUSH2 0x27A7 JUMP JUMPDEST DUP3 PUSH2 0x2BB2 DUP5 PUSH2 0x2B6E JUMP JUMPDEST SWAP1 POP PUSH2 0x2BBD DUP2 PUSH2 0x2B88 JUMP JUMPDEST SWAP3 POP PUSH1 0x20 DUP3 LT ISZERO PUSH2 0x2BFD JUMPI PUSH2 0x2BF8 PUSH32 0xFFFFFFFFFFFFFFFFFFFFFFFFFFFFFFFFFFFFFFFFFFFFFFFFFFFFFFFFFFFFFFFF DUP4 PUSH1 0x20 SUB PUSH1 0x8 MUL PUSH2 0x2806 JUMP JUMPDEST DUP4 AND SWAP3 POP JUMPDEST POP POP SWAP2 SWAP1 POP JUMP JUMPDEST PUSH32 0x496E76616C696420616464726573730000000000000000000000000000000000 PUSH1 0x0 DUP3 ADD MSTORE POP JUMP JUMPDEST PUSH1 0x0 PUSH2 0x2C3A PUSH1 0xF DUP4 PUSH2 0x2372 JUMP JUMPDEST SWAP2 POP PUSH2 0x2C45 DUP3 PUSH2 0x2C04 JUMP JUMPDEST PUSH1 0x20 DUP3 ADD SWAP1 POP SWAP2 SWAP1 POP JUMP JUMPDEST PUSH1 0x0 PUSH1 0x20 DUP3 ADD SWAP1 POP DUP2 DUP2 SUB PUSH1 0x0 DUP4 ADD MSTORE PUSH2 0x2C69 DUP2 PUSH2 0x2C2D JUMP JUMPDEST SWAP1 POP SWAP2 SWAP1 POP JUMP JUMPDEST PUSH32 0x416D6F756E74206D7573742062652067726561746572207468616E2030000000 PUSH1 0x0 DUP3 ADD MSTORE POP JUMP JUMPDEST PUSH1 0x0 PUSH2 0x2CA6 PUSH1 0x1D DUP4 PUSH2 0x2372 JUMP JUMPDEST SWAP2 POP PUSH2 0x2CB1 DUP3 PUSH2 0x2C70 JUMP JUMPDEST PUSH1 0x20 DUP3 ADD SWAP1 POP SWAP2 SWAP1 POP JUMP JUMPDEST PUSH1 0x0 PUSH1 0x20 DUP3 ADD SWAP1 POP DUP2 DUP2 SUB PUSH1 0x0 DUP4 ADD MSTORE PUSH2 0x2CD5 DUP2 PUSH2 0x2C99 JUMP JUMPDEST SWAP1 POP SWAP2 SWAP1 POP JUMP JUMPDEST PUSH32 0x4D7573742073656E642045544800000000000000000000000000000000000000 PUSH1 0x0 DUP3 ADD MSTORE POP JUMP JUMPDEST PUSH1 0x0 PUSH2 0x2D12 PUSH1 0xD DUP4 PUSH2 0x2372 JUMP JUMPDEST SWAP2 POP PUSH2 0x2D1D DUP3 PUSH2 0x2CDC JUMP JUMPDEST PUSH1 0x20 DUP3 ADD SWAP1 POP SWAP2 SWAP1 POP JUMP JUMPDEST PUSH1 0x0 PUSH1 0x20 DUP3 ADD SWAP1 POP DUP2 DUP2 SUB PUSH1 0x0 DUP4 ADD MSTORE PUSH2 0x2D41 DUP2 PUSH2 0x2D05 JUMP JUMPDEST SWAP1 POP SWAP2 SWAP1 POP JUMP JUMPDEST PUSH32 0x496E616374697669747920706572696F64206D69736D61746368000000000000 PUSH1 0x0 DUP3 ADD MSTORE POP JUMP JUMPDEST PUSH1 0x0 PUSH2 0x2D7E PUSH1 0x1A DUP4 PUSH2 0x2372 JUMP JUMPDEST SWAP2 POP PUSH2 0x2D89 DUP3 PUSH2 0x2D48 JUMP JUMPDEST PUSH1 0x20 DUP3 ADD SWAP1 POP SWAP2 SWAP1 POP JUMP JUMPDEST PUSH1 0x0 PUSH1 0x20 DUP3 ADD SWAP1 POP DUP2 DUP2 SUB PUSH1 0x0 DUP4 ADD MSTORE PUSH2 0x2DAD DUP2 PUSH2 0x2D71 JUMP JUMPDEST SWAP1 POP SWAP2 SWAP1 POP JUMP JUMPDEST DUP3 DUP2 DUP4 CALLDATACOPY POP POP POP JUMP JUMPDEST PUSH2 0x2DC9 PUSH1 0x40 DUP4 DUP4 PUSH2 0x2DB4 JUMP JUMPDEST POP POP JUMP JUMPDEST PUSH1 0x0 PUSH1 0x2 SWAP1 POP SWAP2 SWAP1 POP JUMP JUMPDEST PUSH1 0x0 DUP2 SWAP1 POP SWAP2 SWAP1 POP JUMP JUMPDEST PUSH2 0x2DEE PUSH1 0x40 DUP4 DUP4 PUSH2 0x2DB4 JUMP JUMPDEST POP POP JUMP JUMPDEST PUSH1 0x0 PUSH2 0x2DFE DUP4 DUP4 PUSH2 0x2DE2 JUMP JUMPDEST PUSH1 0x40 DUP4 ADD SWAP1 POP SWAP3 SWAP2 POP POP JUMP JUMPDEST PUSH1 0x0 DUP3 SWAP1 POP SWAP3 SWAP2 POP POP JUMP JUMPDEST PUSH1 0x0 PUSH1 0x40 DUP3 ADD SWAP1 POP SWAP2 SWAP1 POP JUMP JUMPDEST PUSH2 0x2E2B DUP2 PUSH2 0x2DCD JUMP JUMPDEST PUSH2 0x2E35 DUP2 DUP5 PUSH2 0x24D4 JUMP JUMPDEST SWAP3 POP PUSH2 0x2E40 DUP3 PUSH2 0x2DD8 JUMP JUMPDEST DUP1 PUSH1 0x0 JUMPDEST DUP4 DUP2 LT ISZERO PUSH2 0x2E79 JUMPI PUSH2 0x2E56 DUP3 DUP5 PUSH2 0x2E0A JUMP JUMPDEST PUSH2 0x2E60 DUP8 DUP3 PUSH2 0x2DF2 JUMP JUMPDEST SWAP7 POP PUSH2 0x2E6B DUP4 PUSH2 0x2E15 JUMP JUMPDEST SWAP3 POP POP PUSH1 0x1 DUP2 ADD SWAP1 POP PUSH2 0x2E44 JUMP JUMPDEST POP POP POP POP POP POP JUMP JUMPDEST PUSH2 0x2E8D PUSH1 0x60 DUP4 DUP4 PUSH2 0x2DB4 JUMP JUMPDEST POP POP JUMP JUMPDEST PUSH1 0x0 PUSH2 0x160 DUP3 ADD SWAP1 POP PUSH2 0x2EA7 PUSH1 0x0 DUP4 ADD DUP8 PUSH2 0x2DBD JUMP JUMPDEST PUSH2 0x2EB4 PUSH1 0x40 DUP4 ADD DUP7 PUSH2 0x2E22 JUMP JUMPDEST PUSH2 0x2EC1 PUSH1 0xC0 DUP4 ADD DUP6 PUSH2 0x2DBD JUMP JUMPDEST PUSH2 0x2ECF PUSH2 0x100 DUP4 ADD DUP5 PUSH2 0x2E81 JUMP JUMPDEST SWAP6 SWAP5 POP POP POP POP POP JUMP JUMPDEST PUSH32 0x4675747572652074696D657374616D7000000000000000000000000000000000 PUSH1 0x0 DUP3 ADD MSTORE POP JUMP JUMPDEST PUSH1 0x0 PUSH2 0x2F0E PUSH1 0x10 DUP4 PUSH2 0x2372 JUMP JUMPDEST SWAP2 POP PUSH2 0x2F19 DUP3 PUSH2 0x2ED8 JUMP JUMPDEST PUSH1 0x20 DUP3 ADD SWAP1 POP SWAP2 SWAP1 POP JUMP JUMPDEST PUSH1 0x0 PUSH1 0x20 DUP3 ADD SWAP1 POP DUP2 DUP2 SUB PUSH1 0x0 DUP4 ADD MSTORE PUSH2 0x2F3D DUP2 PUSH2 0x2F01 JUMP JUMPDEST SWAP1 POP SWAP2 SWAP1 POP JUMP JUMPDEST PUSH1 0x0 PUSH2 0x2F4F DUP3 PUSH2 0x20DE JUMP JUMPDEST SWAP2 POP PUSH2 0x2F5A DUP4 PUSH2 0x20DE JUMP JUMPDEST SWAP3 POP DUP3 DUP3 ADD SWAP1 POP PUSH4 0xFFFFFFFF DUP2 GT ISZERO PUSH2 0x2F76 JUMPI PUSH2 0x2F75 PUSH2 0x2269 JUMP JUMPDEST JUMPDEST SWAP3 SWAP2 POP POP JUMP JUMPDEST PUSH32 0x496E616374697669747920706572696F64206E6F74206D657400000000000000 PUSH1 0x0 DUP3 ADD MSTORE POP JUMP JUMPDEST PUSH1 0x0 PUSH2 0x2FB2 PUSH1 0x19 DUP4 PUSH2 0x2372 JUMP JUMPDEST SWAP2 POP PUSH2 0x2FBD DUP3 PUSH2 0x2F7C JUMP JUMPDEST PUSH1 0x20 DUP3 ADD SWAP1 POP SWAP2 SWAP1 POP JUMP JUMPDEST PUSH1 0x0 PUSH1 0x20 DUP3 ADD SWAP1 POP DUP2 DUP2 SUB PUSH1 0x0 DUP4 ADD MSTORE PUSH2 0x2FE1 DUP2 PUSH2 0x2FA5 JUMP JUMPDEST SWAP1 POP SWAP2 SWAP1 POP JUMP JUMPDEST PUSH32 0x4F776E6572206973207374696C6C206163746976650000000000000000000000 PUSH1 0x0 DUP3 ADD MSTORE POP JUMP JUMPDEST PUSH1 0x0 PUSH2 0x301E PUSH1 0x15 DUP4 PUSH2 0x2372 JUMP JUMPDEST SWAP2 POP PUSH2 0x3029 DUP3 PUSH2 0x2FE8 JUMP JUMPDEST PUSH1 0x20 DUP3 ADD SWAP1 POP SWAP2 SWAP1 POP JUMP JUMPDEST PUSH1 0x0 PUSH1 0x20 DUP3 ADD SWAP1 POP DUP2 DUP2 SUB PUSH1 0x0 DUP4 ADD MSTORE PUSH2 0x304D DUP2 PUSH2 0x3011 JUMP JUMPDEST SWAP1 POP SWAP2 SWAP1 POP JUMP JUMPDEST PUSH2 0x305D DUP2 PUSH2 0x2B7E JUMP JUMPDEST DUP3 MSTORE POP POP JUMP JUMPDEST PUSH1 0x0 DUP3 DUP3 MSTORE PUSH1 0x20 DUP3 ADD SWAP1 POP SWAP3 SWAP2 POP POP JUMP JUMPDEST PUSH1 0x0 JUMPDEST DUP4 DUP2 LT ISZERO PUSH2 0x3092 JUMPI DUP1 DUP3 ADD MLOAD DUP2 DUP5 ADD MSTORE PUSH1 0x20 DUP2 ADD SWAP1 POP PUSH2 0x3077 JUMP JUMPDEST PUSH1 0x0 DUP5 DUP5 ADD MSTORE POP POP POP POP JUMP JUMPDEST PUSH1 0x0 PUSH1 0x1F NOT PUSH1 0x1F DUP4 ADD AND SWAP1 POP SWAP2 SWAP1 POP JUMP JUMPDEST PUSH1 0x0 PUSH2 0x30BA DUP3 PUSH2 0x27A7 JUMP JUMPDEST PUSH2 0x30C4 DUP2 DUP6 PUSH2 0x3063 JUMP JUMPDEST SWAP4 POP PUSH2 0x30D4 DUP2 DUP6 PUSH1 0x20 DUP7 ADD PUSH2 0x3074 JUMP JUMPDEST PUSH2 0x30DD DUP2 PUSH2 0x309E JUMP JUMPDEST DUP5 ADD SWAP2 POP POP SWAP3 SWAP2 POP POP JUMP JUMPDEST PUSH1 0x0 PUSH1 0x80 DUP3 ADD SWAP1 POP PUSH2 0x30FD PUSH1 0x0 DUP4 ADD DUP8 PUSH2 0x3054 JUMP JUMPDEST PUSH2 0x310A PUSH1 0x20 DUP4 ADD DUP7 PUSH2 0x3054 JUMP JUMPDEST DUP2 DUP2 SUB PUSH1 0x40 DUP4 ADD MSTORE PUSH2 0x311C DUP2 DUP6 PUSH2 0x30AF JUMP JUMPDEST SWAP1 POP DUP2 DUP2 SUB PUSH1 0x60 DUP4 ADD MSTORE PUSH2 0x3130 DUP2 DUP5 PUSH2 0x30AF JUMP JUMPDEST SWAP1 POP SWAP6 SWAP5 POP POP POP POP POP JUMP JUMPDEST PUSH1 0x0 DUP2 SWAP1 POP SWAP3 SWAP2 POP POP JUMP JUMPDEST PUSH1 0x0 PUSH2 0x3151 DUP3 PUSH2 0x27A7 JUMP JUMPDEST PUSH2 0x315B DUP2 DUP6 PUSH2 0x313B JUMP JUMPDEST SWAP4 POP PUSH2 0x316B DUP2 DUP6 PUSH1 0x20 DUP7 ADD PUSH2 0x3074 JUMP JUMPDEST DUP1 DUP5 ADD SWAP2 POP POP SWAP3 SWAP2 POP POP JUMP JUMPDEST PUSH1 0x0 PUSH2 0x3183 DUP3 DUP5 PUSH2 0x3146 JUMP JUMPDEST SWAP2 POP DUP2 SWAP1 POP SWAP3 SWAP2 POP POP JUMP JUMPDEST PUSH32 0x646563727970743A206661696C65640000000000000000000000000000000000 PUSH1 0x0 DUP3 ADD MSTORE POP JUMP JUMPDEST PUSH1 0x0 PUSH2 0x31C4 PUSH1 0xF DUP4 PUSH2 0x2372 JUMP JUMPDEST SWAP2 POP PUSH2 0x31CF DUP3 PUSH2 0x318E JUMP JUMPDEST PUSH1 0x20 DUP3 ADD SWAP1 POP SWAP2 SWAP1 POP JUMP JUMPDEST PUSH1 0x0 PUSH1 0x20 DUP3 ADD SWAP1 POP DUP2 DUP2 SUB PUSH1 0x0 DUP4 ADD MSTORE PUSH2 0x31F3 DUP2 PUSH2 0x31B7 JUMP JUMPDEST SWAP1 POP SWAP2 SWAP1 POP JUMP JUMPDEST PUSH32 0x656E63727970743A206661696C65640000000000000000000000000000000000 PUSH1 0x0 DUP3 ADD MSTORE POP JUMP JUMPDEST PUSH1 0x0 PUSH2 0x3230 PUSH1 0xF DUP4 PUSH2 0x2372 JUMP JUMPDEST SWAP2 POP PUSH2 0x323B DUP3 PUSH2 0x31FA JUMP JUMPDEST PUSH1 0x20 DUP3 ADD SWAP1 POP SWAP2 SWAP1 POP JUMP JUMPDEST PUSH1 0x0 PUSH1 0x20 DUP3 ADD SWAP1 POP DUP2 DUP2 SUB PUSH1 0x0 DUP4 ADD MSTORE PUSH2 0x325F DUP2 PUSH2 0x3223 JUMP JUMPDEST SWAP1 POP SWAP2 SWAP1 POP JUMP JUMPDEST PUSH1 0x0 PUSH1 0x40 DUP3 ADD SWAP1 POP PUSH2 0x327B PUSH1 0x0 DUP4 ADD DUP6 PUSH2 0x1E80 JUMP JUMPDEST DUP2 DUP2 SUB PUSH1 0x20 DUP4 ADD MSTORE PUSH2 0x328D DUP2 DUP5 PUSH2 0x30AF JUMP JUMPDEST SWAP1 POP SWAP4 SWAP3 POP POP POP JUMP JUMPDEST PUSH32 0x72616E646F6D42797465733A206661696C656400000000000000000000000000 PUSH1 0x0 DUP3 ADD MSTORE POP JUMP JUMPDEST PUSH1 0x0 PUSH2 0x32CC PUSH1 0x13 DUP4 PUSH2 0x2372 JUMP JUMPDEST SWAP2 POP PUSH2 0x32D7 DUP3 PUSH2 0x3296 JUMP JUMPDEST PUSH1 0x20 DUP3 ADD SWAP1 POP SWAP2 SWAP1 POP JUMP JUMPDEST PUSH1 0x0 PUSH1 0x20 DUP3 ADD SWAP1 POP DUP2 DUP2 SUB PUSH1 0x0 DUP4 ADD MSTORE PUSH2 0x32FB DUP2 PUSH2 0x32BF JUMP JUMPDEST SWAP1 POP SWAP2 SWAP1 POP JUMP JUMPDEST PUSH32 0x4E6F2066756E647320617661696C61626C650000000000000000000000000000 PUSH1 0x0 DUP3 ADD MSTORE POP JUMP JUMPDEST PUSH1 0x0 PUSH2 0x3338 PUSH1 0x12 DUP4 PUSH2 0x2372 JUMP JUMPDEST SWAP2 POP PUSH2 0x3343 DUP3 PUSH2 0x3302 JUMP JUMPDEST PUSH1 0x20 DUP3 ADD SWAP1 POP SWAP2 SWAP1 POP JUMP JUMPDEST PUSH1 0x0 PUSH1 0x20 DUP3 ADD SWAP1 POP DUP2 DUP2 SUB PUSH1 0x0 DUP4 ADD MSTORE PUSH2 0x3367 DUP2 PUSH2 0x332B JUMP JUMPDEST SWAP1 POP SWAP2 SWAP1 POP JUMP JUMPDEST PUSH1 0x0 PUSH2 0x3379 DUP3 PUSH2 0x1E76 JUMP JUMPDEST SWAP2 POP PUSH32 0xFFFFFFFFFFFFFFFFFFFFFFFFFFFFFFFFFFFFFFFFFFFFFFFFFFFFFFFFFFFFFFFF DUP3 SUB PUSH2 0x33AB JUMPI PUSH2 0x33AA PUSH2 0x2269 JUMP JUMPDEST JUMPDEST PUSH1 0x1 DUP3 ADD SWAP1 POP SWAP2 SWAP1 POP JUMP INVALID LOG2 PUSH5 0x6970667358 0x22 SLT KECCAK256 0xB3 DUP7 PUSH24 0xD89A24CC46B458BF96B82475E5578860D5ED4D97604BD9E3 SWAP14 0x28 0x4C SWAP11 0xF6 PUSH5 0x736F6C6343 STOP ADDMOD EQ STOP CALLER "},"methodIdentifiers":{"addBeneficiary(address,uint256)":"96074e70","beneficiaries(address)":"01567739","beneficiaryList(uint256)":"9e761bbb","computePoseidonHash(uint256,uint256)":"52b7bc4c","depositFunds()":"e2c41dbc","getLastActive()":"fa492ca9","getOwnerAddress()":"0c4f65bd","heartbeat()":"3defb962","heartbeatWithProof(uint256[2],uint256[2][2],uint256[2],uint256[2])":"3b6f865e","inactivityPeriod()":"d362bd2b","initialize(uint32)":"8d8965bd","owner()":"8da5cb5b","setGroth16Verifier(address)":"399f6e24","triggerSwitch()":"f312186a","triggerWithProof(uint256[2],uint256[2][2],uint256[2],uint256[3])":"f169c0f5","verifier()":"2b7ac3f3","verifier2()":"522d0d70","verifyInactivity()":"3626157c"}}}}}