{"contracts/oasiszk.sol":{"SmartContract2":{"abi":[{"inputs":[{"internalType":"address","name":"_verifierAddress","type":"address"}],"stateMutability":"nonpayable","type":"constructor"},{"anonymous":false,"inputs":[{"indexed":true,"internalType":"address","name":"beneficiary","type":"address"},{"indexed":false,"internalType":"uint256","name":"amount","type":"uint256"}],"name":"BeneficiaryAdded","type":"event"},{"anonymous":false,"inputs":[{"indexed":true,"internalType":"address","name":"owner","type":"address"},{"indexed":false,"internalType":"uint32","name":"inactivityPeriod","type":"uint32"}],"name":"ContractDeployed","type":"event"},{"anonymous":false,"inputs":[{"indexed":true,"internalType":"address","name":"sender","type":"address"},{"indexed":false,"internalType":"uint256","name":"amount","type":"uint256"}],"name":"FundsDeposited","type":"event"},{"anonymous":false,"inputs":[{"indexed":true,"internalType":"address","name":"beneficiary","type":"address"},{"indexed":false,"internalType":"uint256","name":"amount","type":"uint256"}],"name":"FundsReleased","type":"event"},{"anonymous":false,"inputs":[{"indexed":false,"internalType":"uint256","name":"hashValue","type":"uint256"}],"name":"HashComputed","type":"event"},{"anonymous":false,"inputs":[{"indexed":true,"internalType":"address","name":"owner","type":"address"}],"name":"HeartbeatReceived","type":"event"},{"anonymous":false,"inputs":[{"indexed":false,"internalType":"bool","name":"valid","type":"bool"}],"name":"InactivityVerified","type":"event"},{"anonymous":false,"inputs":[{"indexed":false,"internalType":"bool","name":"valid","type":"bool"}],"name":"ProofVerified","type":"event"},{"inputs":[{"internalType":"address","name":"_beneficiary","type":"address"},{"internalType":"uint256","name":"_amount","type":"uint256"}],"name":"addBeneficiary","outputs":[],"stateMutability":"nonpayable","type":"function"},{"inputs":[{"internalType":"address","name":"","type":"address"}],"name":"beneficiaries","outputs":[{"internalType":"uint256","name":"","type":"uint256"}],"stateMutability":"view","type":"function"},{"inputs":[{"internalType":"uint256","name":"","type":"uint256"}],"name":"beneficiaryList","outputs":[{"internalType":"address","name":"","type":"address"}],"stateMutability":"view","type":"function"},{"inputs":[{"internalType":"uint256","name":"lastActive","type":"uint256"},{"internalType":"uint256","name":"ownerAsUint","type":"uint256"}],"name":"computePoseidonHash","outputs":[{"internalType":"uint256","name":"","type":"uint256"}],"stateMutability":"pure","type":"function"},{"inputs":[],"name":"depositFunds","outputs":[],"stateMutability":"payable","type":"function"},{"inputs":[],"name":"getLastActive","outputs":[{"internalType":"uint32","name":"","type":"uint32"}],"stateMutability":"view","type":"function"},{"inputs":[],"name":"getOwnerAddress","outputs":[{"internalType":"address","name":"","type":"address"}],"stateMutability":"view","type":"function"},{"inputs":[],"name":"heartbeat","outputs":[],"stateMutability":"nonpayable","type":"function"},{"inputs":[],"name":"inactivityPeriod","outputs":[{"internalType":"uint32","name":"","type":"uint32"}],"stateMutability":"view","type":"function"},{"inputs":[{"internalType":"uint32","name":"_inactivityPeriod","type":"uint32"}],"name":"initialize","outputs":[],"stateMutability":"nonpayable","type":"function"},{"inputs":[],"name":"owner","outputs":[{"internalType":"address","name":"","type":"address"}],"stateMutability":"view","type":"function"},{"inputs":[],"name":"triggerSwitch","outputs":[],"stateMutability":"nonpayable","type":"function"},{"inputs":[{"internalType":"uint256[2]","name":"a","type":"uint256[2]"},{"internalType":"uint256[2][2]","name":"b","type":"uint256[2][2]"},{"internalType":"uint256[2]","name":"c","type":"uint256[2]"},{"internalType":"uint256[3]","name":"input","type":"uint256[3]"}],"name":"triggerWithProof","outputs":[],"stateMutability":"nonpayable","type":"function"},{"inputs":[],"name":"verifier","outputs":[{"internalType":"contract Groth16Verifier","name":"","type":"address"}],"stateMutability":"view","type":"function"},{"inputs":[],"name":"verifyInactivity","outputs":[{"internalType":"bool","name":"","type":"bool"}],"stateMutability":"view","type":"function"}],"evm":{"bytecode":{"linkReferences":{},"object":"60806040523480156200001157600080fd5b5060405162002b1c38038062002b1c8339818101604052810190620000379190620000e8565b806000806101000a81548173ffffffffffffffffffffffffffffffffffffffff021916908373ffffffffffffffffffffffffffffffffffffffff160217905550506200011a565b600080fd5b600073ffffffffffffffffffffffffffffffffffffffff82169050919050565b6000620000b08262000083565b9050919050565b620000c281620000a3565b8114620000ce57600080fd5b50565b600081519050620000e281620000b7565b92915050565b6000602082840312156200010157620001006200007e565b5b60006200011184828501620000d1565b91505092915050565b6129f2806200012a6000396000f3fe6080604052600436106100e85760003560e01c80638da5cb5b1161008a578063e2c41dbc11610059578063e2c41dbc146102e4578063f169c0f5146102ee578063f312186a14610317578063fa492ca91461032e576100e8565b80638da5cb5b1461022857806396074e70146102535780639e761bbb1461027c578063d362bd2b146102b9576100e8565b80633626157c116100c65780633626157c146101805780633defb962146101ab57806352b7bc4c146101c25780638d8965bd146101ff576100e8565b806301567739146100ed5780630c4f65bd1461012a5780632b7ac3f314610155575b600080fd5b3480156100f957600080fd5b50610114600480360381019061010f9190611779565b610359565b60405161012191906117bf565b60405180910390f35b34801561013657600080fd5b5061013f610371565b60405161014c91906117e9565b60405180910390f35b34801561016157600080fd5b5061016a61039b565b6040516101779190611863565b60405180910390f35b34801561018c57600080fd5b506101956103bf565b6040516101a29190611899565b60405180910390f35b3480156101b757600080fd5b506101c06104f6565b005b3480156101ce57600080fd5b506101e960048036038101906101e491906118e0565b61066c565b6040516101f691906117bf565b60405180910390f35b34801561020b57600080fd5b506102266004803603810190610221919061195c565b6106cd565b005b34801561023457600080fd5b5061023d610929565b60405161024a91906117e9565b60405180910390f35b34801561025f57600080fd5b5061027a60048036038101906102759190611989565b61094f565b005b34801561028857600080fd5b506102a3600480360381019061029e91906119c9565b610bd2565b6040516102b091906117e9565b60405180910390f35b3480156102c557600080fd5b506102ce610c11565b6040516102db9190611a05565b60405180910390f35b6102ec610c27565b005b3480156102fa57600080fd5b5061031560048036038101906103109190611a8b565b610d4a565b005b34801561032357600080fd5b5061032c611109565b005b34801561033a57600080fd5b50610343611192565b6040516103509190611a05565b60405180910390f35b60056020528060005260406000206000915090505481565b6000600160009054906101000a900473ffffffffffffffffffffffffffffffffffffffff16905090565b60008054906101000a900473ffffffffffffffffffffffffffffffffffffffff1681565b6000804290506000600160159054906101000a900463ffffffff16826103e59190611b23565b905060006104c4600354600454600280546103ff90611b8a565b80601f016020809104026020016040519081016040528092919081815260200182805461042b90611b8a565b80156104785780601f1061044d57610100808354040283529160200191610478565b820191906000526020600020905b81548152906001019060200180831161045b57829003601f168201915b5050505050600160009054906101000a900473ffffffffffffffffffffffffffffffffffffffff166040516020016104b091906117e9565b60405160208183030381529060405261128c565b90506000818060200190518101906104dc9190611bd0565b90508263ffffffff168163ffffffff161094505050505090565b600160009054906101000a900473ffffffffffffffffffffffffffffffffffffffff1673ffffffffffffffffffffffffffffffffffffffff163373ffffffffffffffffffffffffffffffffffffffff1614610586576040517f08c379a000000000000000000000000000000000000000000000000000000000815260040161057d90611c5a565b60405180910390fd5b6105f6600354600454426040516020016105a09190611a05565b604051602081830303815290604052600160009054906101000a900473ffffffffffffffffffffffffffffffffffffffff166040516020016105e291906117e9565b604051602081830303815290604052611381565b600290816106049190611e56565b50600160009054906101000a900473ffffffffffffffffffffffffffffffffffffffff1673ffffffffffffffffffffffffffffffffffffffff167f59db9904863f5c0703e74a4df99bfbad4374b3edb69328a2f7bc4df34851109760405160405180910390a2565b60007f30644e72e131a029b85045b68181585d2833e84879b9709143e1f593f000000183836040516020016106a2929190611f49565b6040516020818303038152906040528051906020012060001c6106c59190611fa4565b905092915050565b600160149054906101000a900460ff161561071d576040517f08c379a000000000000000000000000000000000000000000000000000000000815260040161071490612021565b60405180910390fd5b33600160006101000a81548173ffffffffffffffffffffffffffffffffffffffff021916908373ffffffffffffffffffffffffffffffffffffffff16021790555080600160156101000a81548163ffffffff021916908363ffffffff1602179055506107bf60206040518060400160405280600d81526020017f656e6372797074696f6e4b657900000000000000000000000000000000000000815250611476565b6107c890612070565b60038190555061080e60206040518060400160405280600581526020017f6e6f6e6365000000000000000000000000000000000000000000000000000000815250611476565b61081790612070565b60048190555061088d600354600454426040516020016108379190611a05565b604051602081830303815290604052600160009054906101000a900473ffffffffffffffffffffffffffffffffffffffff1660405160200161087991906117e9565b604051602081830303815290604052611381565b6002908161089b9190611e56565b5060018060146101000a81548160ff021916908315150217905550600160009054906101000a900473ffffffffffffffffffffffffffffffffffffffff1673ffffffffffffffffffffffffffffffffffffffff167f620dca0c9d04f7cea9d7f31e571d74acccd54c21dc8ff8855ec1d5a21733c26b8260405161091e9190611a05565b60405180910390a250565b600160009054906101000a900473ffffffffffffffffffffffffffffffffffffffff1681565b600160009054906101000a900473ffffffffffffffffffffffffffffffffffffffff1673ffffffffffffffffffffffffffffffffffffffff163373ffffffffffffffffffffffffffffffffffffffff16146109df576040517f08c379a00000000000000000000000000000000000000000000000000000000081526004016109d690611c5a565b60405180910390fd5b600073ffffffffffffffffffffffffffffffffffffffff168273ffffffffffffffffffffffffffffffffffffffff1603610a4e576040517f08c379a0000000000000000000000000000000000000000000000000000000008152600401610a4590612123565b60405180910390fd5b60008111610a91576040517f08c379a0000000000000000000000000000000000000000000000000000000008152600401610a889061218f565b60405180910390fd5b6000600560008473ffffffffffffffffffffffffffffffffffffffff1673ffffffffffffffffffffffffffffffffffffffff1681526020019081526020016000205403610b3c576006829080600181540180825580915050600190039060005260206000200160009091909190916101000a81548173ffffffffffffffffffffffffffffffffffffffff021916908373ffffffffffffffffffffffffffffffffffffffff1602179055505b80600560008473ffffffffffffffffffffffffffffffffffffffff1673ffffffffffffffffffffffffffffffffffffffff168152602001908152602001600020819055508173ffffffffffffffffffffffffffffffffffffffff167fe6b83177f11971ba30369bb38b914ffba97d5969a3c857b286fa8fdbb150b3ba82604051610bc691906117bf565b60405180910390a25050565b60068181548110610be257600080fd5b906000526020600020016000915054906101000a900473ffffffffffffffffffffffffffffffffffffffff1681565b600160159054906101000a900463ffffffff1681565b600160009054906101000a900473ffffffffffffffffffffffffffffffffffffffff1673ffffffffffffffffffffffffffffffffffffffff163373ffffffffffffffffffffffffffffffffffffffff1614610cb7576040517f08c379a0000000000000000000000000000000000000000000000000000000008152600401610cae90611c5a565b60405180910390fd5b60003411610cfa576040517f08c379a0000000000000000000000000000000000000000000000000000000008152600401610cf1906121fb565b60405180910390fd5b3373ffffffffffffffffffffffffffffffffffffffff167f543ba50a5eec5e6178218e364b1d0f396157b3c8fa278522c2cb7fd99407d47434604051610d4091906117bf565b60405180910390a2565b6000610e2760035460045460028054610d6290611b8a565b80601f0160208091040260200160405190810160405280929190818152602001828054610d8e90611b8a565b8015610ddb5780601f10610db057610100808354040283529160200191610ddb565b820191906000526020600020905b815481529060010190602001808311610dbe57829003601f168201915b5050505050600160009054906101000a900473ffffffffffffffffffffffffffffffffffffffff16604051602001610e1391906117e9565b60405160208183030381529060405261128c565b9050600081806020019051810190610e3f9190611bd0565b90507fb62fa8c43c0f241f4a7b7bf2293ce4714ae0fc84f9584334751599bd528c2a1383600060038110610e7657610e7561221b565b5b6020020135604051610e8891906117bf565b60405180910390a1600160159054906101000a900463ffffffff1663ffffffff1683600160038110610ebd57610ebc61221b565b5b602002013514610f02576040517f08c379a0000000000000000000000000000000000000000000000000000000008152600401610ef990612296565b60405180910390fd5b60008060009054906101000a900473ffffffffffffffffffffffffffffffffffffffff1673ffffffffffffffffffffffffffffffffffffffff166311479fea888888886040518563ffffffff1660e01b8152600401610f64949392919061239e565b602060405180830381865afa158015610f81573d6000803e3d6000fd5b505050506040513d601f19601f82011682018060405250810190610fa59190612411565b905080610fe7576040517f08c379a0000000000000000000000000000000000000000000000000000000008152600401610fde9061248a565b60405180910390fd5b7ff4d358772b552280f9395158c37bc77ddcbcdeaf62b20aa01276fb89d7ea192360016040516110179190611899565b60405180910390a142846002600381106110345761103361221b565b5b6020020135111561107a576040517f08c379a0000000000000000000000000000000000000000000000000000000008152600401611071906124f6565b60405180910390fd5b600160159054906101000a900463ffffffff16826110989190612516565b63ffffffff16846002600381106110b2576110b161221b565b5b602002013510156110f8576040517f08c379a00000000000000000000000000000000000000000000000000000000081526004016110ef9061259a565b60405180910390fd5b611100611565565b50505050505050565b6111116103bf565b611150576040517f08c379a000000000000000000000000000000000000000000000000000000000815260040161114790612606565b60405180910390fd5b7f76729d52b3ec041633e327fe49b91b757319a9cb241b0f6ce433ff396ee4dee660016040516111809190611899565b60405180910390a1611190611565565b565b600080611270600354600454600280546111ab90611b8a565b80601f01602080910402602001604051908101604052809291908181526020018280546111d790611b8a565b80156112245780601f106111f957610100808354040283529160200191611224565b820191906000526020600020905b81548152906001019060200180831161120757829003601f168201915b5050505050600160009054906101000a900473ffffffffffffffffffffffffffffffffffffffff1660405160200161125c91906117e9565b60405160208183030381529060405261128c565b9050808060200190518101906112869190611bd0565b91505090565b606060008073010000000000000000000000000000000000000473ffffffffffffffffffffffffffffffffffffffff16878787876040516020016112d394939291906126ba565b6040516020818303038152906040526040516112ef9190612749565b600060405180830381855afa9150503d806000811461132a576040519150601f19603f3d011682016040523d82523d6000602084013e61132f565b606091505b509150915081611374576040517f08c379a000000000000000000000000000000000000000000000000000000000815260040161136b906127ac565b60405180910390fd5b8092505050949350505050565b606060008073010000000000000000000000000000000000000373ffffffffffffffffffffffffffffffffffffffff16878787876040516020016113c894939291906126ba565b6040516020818303038152906040526040516113e49190612749565b600060405180830381855afa9150503d806000811461141f576040519150601f19603f3d011682016040523d82523d6000602084013e611424565b606091505b509150915081611469576040517f08c379a000000000000000000000000000000000000000000000000000000000815260040161146090612818565b60405180910390fd5b8092505050949350505050565b606060008073010000000000000000000000000000000000000173ffffffffffffffffffffffffffffffffffffffff1685856040516020016114b9929190612838565b6040516020818303038152906040526040516114d59190612749565b600060405180830381855afa9150503d8060008114611510576040519150601f19603f3d011682016040523d82523d6000602084013e611515565b606091505b50915091508161155a576040517f08c379a0000000000000000000000000000000000000000000000000000000008152600401611551906128b4565b60405180910390fd5b809250505092915050565b6000479050600081116115ad576040517f08c379a00000000000000000000000000000000000000000000000000000000081526004016115a490612920565b60405180910390fd5b60005b600680549050811015611712576000600682815481106115d3576115d261221b565b5b9060005260206000200160009054906101000a900473ffffffffffffffffffffffffffffffffffffffff1690506000600560008373ffffffffffffffffffffffffffffffffffffffff1673ffffffffffffffffffffffffffffffffffffffff1681526020019081526020016000205490506000811180156116545750808410155b156116fd578173ffffffffffffffffffffffffffffffffffffffff166108fc829081150290604051600060405180830381858888f1935050505015801561169f573d6000803e3d6000fd5b508173ffffffffffffffffffffffffffffffffffffffff167f221c08a06b07a64803b3787861a3f276212fcccb51c2e6234077a9b8cb13047a826040516116e691906117bf565b60405180910390a280846116fa9190612940565b93505b5050808061170a90612974565b9150506115b0565b5050565b600080fd5b600073ffffffffffffffffffffffffffffffffffffffff82169050919050565b60006117468261171b565b9050919050565b6117568161173b565b811461176157600080fd5b50565b6000813590506117738161174d565b92915050565b60006020828403121561178f5761178e611716565b5b600061179d84828501611764565b91505092915050565b6000819050919050565b6117b9816117a6565b82525050565b60006020820190506117d460008301846117b0565b92915050565b6117e38161173b565b82525050565b60006020820190506117fe60008301846117da565b92915050565b6000819050919050565b600061182961182461181f8461171b565b611804565b61171b565b9050919050565b600061183b8261180e565b9050919050565b600061184d82611830565b9050919050565b61185d81611842565b82525050565b60006020820190506118786000830184611854565b92915050565b60008115159050919050565b6118938161187e565b82525050565b60006020820190506118ae600083018461188a565b92915050565b6118bd816117a6565b81146118c857600080fd5b50565b6000813590506118da816118b4565b92915050565b600080604083850312156118f7576118f6611716565b5b6000611905858286016118cb565b9250506020611916858286016118cb565b9150509250929050565b600063ffffffff82169050919050565b61193981611920565b811461194457600080fd5b50565b60008135905061195681611930565b92915050565b60006020828403121561197257611971611716565b5b600061198084828501611947565b91505092915050565b600080604083850312156119a05761199f611716565b5b60006119ae85828601611764565b92505060206119bf858286016118cb565b9150509250929050565b6000602082840312156119df576119de611716565b5b60006119ed848285016118cb565b91505092915050565b6119ff81611920565b82525050565b6000602082019050611a1a60008301846119f6565b92915050565b600080fd5b600081905082602060020282011115611a4157611a40611a20565b5b92915050565b600081905082604060020282011115611a6357611a62611a20565b5b92915050565b600081905082602060030282011115611a8557611a84611a20565b5b92915050565b6000806000806101608587031215611aa657611aa5611716565b5b6000611ab487828801611a25565b9450506040611ac587828801611a47565b93505060c0611ad687828801611a25565b925050610100611ae887828801611a69565b91505092959194509250565b7f4e487b7100000000000000000000000000000000000000000000000000000000600052601160045260246000fd5b6000611b2e82611920565b9150611b3983611920565b9250828203905063ffffffff811115611b5557611b54611af4565b5b92915050565b7f4e487b7100000000000000000000000000000000000000000000000000000000600052602260045260246000fd5b60006002820490506001821680611ba257607f821691505b602082108103611bb557611bb4611b5b565b5b50919050565b600081519050611bca81611930565b92915050565b600060208284031215611be657611be5611716565b5b6000611bf484828501611bbb565b91505092915050565b600082825260208201905092915050565b7f4e6f7420746865206f776e657200000000000000000000000000000000000000600082015250565b6000611c44600d83611bfd565b9150611c4f82611c0e565b602082019050919050565b60006020820190508181036000830152611c7381611c37565b9050919050565b600081519050919050565b7f4e487b7100000000000000000000000000000000000000000000000000000000600052604160045260246000fd5b60008190508160005260206000209050919050565b60006020601f8301049050919050565b600082821b905092915050565b600060088302611d167fffffffffffffffffffffffffffffffffffffffffffffffffffffffffffffffff82611cd9565b611d208683611cd9565b95508019841693508086168417925050509392505050565b6000611d53611d4e611d49846117a6565b611804565b6117a6565b9050919050565b6000819050919050565b611d6d83611d38565b611d81611d7982611d5a565b848454611ce6565b825550505050565b600090565b611d96611d89565b611da1818484611d64565b505050565b5b81811015611dc557611dba600082611d8e565b600181019050611da7565b5050565b601f821115611e0a57611ddb81611cb4565b611de484611cc9565b81016020851015611df3578190505b611e07611dff85611cc9565b830182611da6565b50505b505050565b600082821c905092915050565b6000611e2d60001984600802611e0f565b1980831691505092915050565b6000611e468383611e1c565b9150826002028217905092915050565b611e5f82611c7a565b67ffffffffffffffff811115611e7857611e77611c85565b5b611e828254611b8a565b611e8d828285611dc9565b600060209050601f831160018114611ec05760008415611eae578287015190505b611eb88582611e3a565b865550611f20565b601f198416611ece86611cb4565b60005b82811015611ef657848901518255600182019150602085019450602081019050611ed1565b86831015611f135784890151611f0f601f891682611e1c565b8355505b6001600288020188555050505b505050505050565b6000819050919050565b611f43611f3e826117a6565b611f28565b82525050565b6000611f558285611f32565b602082019150611f658284611f32565b6020820191508190509392505050565b7f4e487b7100000000000000000000000000000000000000000000000000000000600052601260045260246000fd5b6000611faf826117a6565b9150611fba836117a6565b925082611fca57611fc9611f75565b5b828206905092915050565b7f416c726561647920696e697469616c697a656400000000000000000000000000600082015250565b600061200b601383611bfd565b915061201682611fd5565b602082019050919050565b6000602082019050818103600083015261203a81611ffe565b9050919050565b6000819050602082019050919050565b6000819050919050565b60006120678251612051565b80915050919050565b600061207b82611c7a565b8261208584612041565b90506120908161205b565b925060208210156120d0576120cb7fffffffffffffffffffffffffffffffffffffffffffffffffffffffffffffffff83602003600802611cd9565b831692505b5050919050565b7f496e76616c696420616464726573730000000000000000000000000000000000600082015250565b600061210d600f83611bfd565b9150612118826120d7565b602082019050919050565b6000602082019050818103600083015261213c81612100565b9050919050565b7f416d6f756e74206d7573742062652067726561746572207468616e2030000000600082015250565b6000612179601d83611bfd565b915061218482612143565b602082019050919050565b600060208201905081810360008301526121a88161216c565b9050919050565b7f4d7573742073656e642045544800000000000000000000000000000000000000600082015250565b60006121e5600d83611bfd565b91506121f0826121af565b602082019050919050565b60006020820190508181036000830152612214816121d8565b9050919050565b7f4e487b7100000000000000000000000000000000000000000000000000000000600052603260045260246000fd5b7f496e616374697669747920706572696f64206d69736d61746368000000000000600082015250565b6000612280601a83611bfd565b915061228b8261224a565b602082019050919050565b600060208201905081810360008301526122af81612273565b9050919050565b82818337505050565b6122cb604083836122b6565b5050565b600060029050919050565b600081905092915050565b6000819050919050565b6122fb604083836122b6565b5050565b600061230b83836122ef565b60408301905092915050565b600082905092915050565b6000604082019050919050565b612338816122cf565b61234281846122da565b925061234d826122e5565b8060005b83811015612386576123638284612317565b61236d87826122ff565b965061237883612322565b925050600181019050612351565b505050505050565b61239a606083836122b6565b5050565b6000610160820190506123b460008301876122bf565b6123c1604083018661232f565b6123ce60c08301856122bf565b6123dc61010083018461238e565b95945050505050565b6123ee8161187e565b81146123f957600080fd5b50565b60008151905061240b816123e5565b92915050565b60006020828403121561242757612426611716565b5b6000612435848285016123fc565b91505092915050565b7f496e76616c6964205a4b2070726f6f6600000000000000000000000000000000600082015250565b6000612474601083611bfd565b915061247f8261243e565b602082019050919050565b600060208201905081810360008301526124a381612467565b9050919050565b7f4675747572652074696d657374616d7000000000000000000000000000000000600082015250565b60006124e0601083611bfd565b91506124eb826124aa565b602082019050919050565b6000602082019050818103600083015261250f816124d3565b9050919050565b600061252182611920565b915061252c83611920565b9250828201905063ffffffff81111561254857612547611af4565b5b92915050565b7f496e616374697669747920706572696f64206e6f74206d657400000000000000600082015250565b6000612584601983611bfd565b915061258f8261254e565b602082019050919050565b600060208201905081810360008301526125b381612577565b9050919050565b7f4f776e6572206973207374696c6c206163746976650000000000000000000000600082015250565b60006125f0601583611bfd565b91506125fb826125ba565b602082019050919050565b6000602082019050818103600083015261261f816125e3565b9050919050565b61262f81612051565b82525050565b600082825260208201905092915050565b60005b83811015612664578082015181840152602081019050612649565b60008484015250505050565b6000601f19601f8301169050919050565b600061268c82611c7a565b6126968185612635565b93506126a6818560208601612646565b6126af81612670565b840191505092915050565b60006080820190506126cf6000830187612626565b6126dc6020830186612626565b81810360408301526126ee8185612681565b905081810360608301526127028184612681565b905095945050505050565b600081905092915050565b600061272382611c7a565b61272d818561270d565b935061273d818560208601612646565b80840191505092915050565b60006127558284612718565b915081905092915050565b7f646563727970743a206661696c65640000000000000000000000000000000000600082015250565b6000612796600f83611bfd565b91506127a182612760565b602082019050919050565b600060208201905081810360008301526127c581612789565b9050919050565b7f656e63727970743a206661696c65640000000000000000000000000000000000600082015250565b6000612802600f83611bfd565b915061280d826127cc565b602082019050919050565b60006020820190508181036000830152612831816127f5565b9050919050565b600060408201905061284d60008301856117b0565b818103602083015261285f8184612681565b90509392505050565b7f72616e646f6d42797465733a206661696c656400000000000000000000000000600082015250565b600061289e601383611bfd565b91506128a982612868565b602082019050919050565b600060208201905081810360008301526128cd81612891565b9050919050565b7f4e6f2066756e647320617661696c61626c650000000000000000000000000000600082015250565b600061290a601283611bfd565b9150612915826128d4565b602082019050919050565b60006020820190508181036000830152612939816128fd565b9050919050565b600061294b826117a6565b9150612956836117a6565b925082820390508181111561296e5761296d611af4565b5b92915050565b600061297f826117a6565b91507fffffffffffffffffffffffffffffffffffffffffffffffffffffffffffffffff82036129b1576129b0611af4565b5b60018201905091905056fea26469706673582212200366616c2163aedec84f8f54ad59edd789e0b9d0128654aabd171ccde92b0b7564736f6c63430008140033","opcodes":"PUSH1 0x80 PUSH1 0x40 MSTORE CALLVALUE DUP1 ISZERO PUSH3 0x11 JUMPI PUSH1 0x0 DUP1 REVERT JUMPDEST POP PUSH1 0x40 MLOAD PUSH3 0x2B1C CODESIZE SUB DUP1 PUSH3 0x2B1C DUP4 CODECOPY DUP2 DUP2 ADD PUSH1 0x40 MSTORE DUP2 ADD SWAP1 PUSH3 0x37 SWAP2 SWAP1 PUSH3 0xE8 JUMP JUMPDEST DUP1 PUSH1 0x0 DUP1 PUSH2 0x100 EXP DUP2 SLOAD DUP2 PUSH20 0xFFFFFFFFFFFFFFFFFFFFFFFFFFFFFFFFFFFFFFFF MUL NOT AND SWAP1 DUP4 PUSH20 0xFFFFFFFFFFFFFFFFFFFFFFFFFFFFFFFFFFFFFFFF AND MUL OR SWAP1 SSTORE POP POP PUSH3 0x11A JUMP JUMPDEST PUSH1 0x0 DUP1 REVERT JUMPDEST PUSH1 0x0 PUSH20 0xFFFFFFFFFFFFFFFFFFFFFFFFFFFFFFFFFFFFFFFF DUP3 AND SWAP1 POP SWAP2 SWAP1 POP JUMP JUMPDEST PUSH1 0x0 PUSH3 0xB0 DUP3 PUSH3 0x83 JUMP JUMPDEST SWAP1 POP SWAP2 SWAP1 POP JUMP JUMPDEST PUSH3 0xC2 DUP2 PUSH3 0xA3 JUMP JUMPDEST DUP2 EQ PUSH3 0xCE JUMPI PUSH1 0x0 DUP1 REVERT JUMPDEST POP JUMP JUMPDEST PUSH1 0x0 DUP2 MLOAD SWAP1 POP PUSH3 0xE2 DUP2 PUSH3 0xB7 JUMP JUMPDEST SWAP3 SWAP2 POP POP JUMP JUMPDEST PUSH1 0x0 PUSH1 0x20 DUP3 DUP5 SUB SLT ISZERO PUSH3 0x101 JUMPI PUSH3 0x100 PUSH3 0x7E JUMP JUMPDEST JUMPDEST PUSH1 0x0 PUSH3 0x111 DUP5 DUP3 DUP6 ADD PUSH3 0xD1 JUMP JUMPDEST SWAP2 POP POP SWAP3 SWAP2 POP POP JUMP JUMPDEST PUSH2 0x29F2 DUP1 PUSH3 0x12A PUSH1 0x0 CODECOPY PUSH1 0x0 RETURN INVALID PUSH1 0x80 PUSH1 0x40 MSTORE PUSH1 0x4 CALLDATASIZE LT PUSH2 0xE8 JUMPI PUSH1 0x0 CALLDATALOAD PUSH1 0xE0 SHR DUP1 PUSH4 0x8DA5CB5B GT PUSH2 0x8A JUMPI DUP1 PUSH4 0xE2C41DBC GT PUSH2 0x59 JUMPI DUP1 PUSH4 0xE2C41DBC EQ PUSH2 0x2E4 JUMPI DUP1 PUSH4 0xF169C0F5 EQ PUSH2 0x2EE JUMPI DUP1 PUSH4 0xF312186A EQ PUSH2 0x317 JUMPI DUP1 PUSH4 0xFA492CA9 EQ PUSH2 0x32E JUMPI PUSH2 0xE8 JUMP JUMPDEST DUP1 PUSH4 0x8DA5CB5B EQ PUSH2 0x228 JUMPI DUP1 PUSH4 0x96074E70 EQ PUSH2 0x253 JUMPI DUP1 PUSH4 0x9E761BBB EQ PUSH2 0x27C JUMPI DUP1 PUSH4 0xD362BD2B EQ PUSH2 0x2B9 JUMPI PUSH2 0xE8 JUMP JUMPDEST DUP1 PUSH4 0x3626157C GT PUSH2 0xC6 JUMPI DUP1 PUSH4 0x3626157C EQ PUSH2 0x180 JUMPI DUP1 PUSH4 0x3DEFB962 EQ PUSH2 0x1AB JUMPI DUP1 PUSH4 0x52B7BC4C EQ PUSH2 0x1C2 JUMPI DUP1 PUSH4 0x8D8965BD EQ PUSH2 0x1FF JUMPI PUSH2 0xE8 JUMP JUMPDEST DUP1 PUSH4 0x1567739 EQ PUSH2 0xED JUMPI DUP1 PUSH4 0xC4F65BD EQ PUSH2 0x12A JUMPI DUP1 PUSH4 0x2B7AC3F3 EQ PUSH2 0x155 JUMPI JUMPDEST PUSH1 0x0 DUP1 REVERT JUMPDEST CALLVALUE DUP1 ISZERO PUSH2 0xF9 JUMPI PUSH1 0x0 DUP1 REVERT JUMPDEST POP PUSH2 0x114 PUSH1 0x4 DUP1 CALLDATASIZE SUB DUP2 ADD SWAP1 PUSH2 0x10F SWAP2 SWAP1 PUSH2 0x1779 JUMP JUMPDEST PUSH2 0x359 JUMP JUMPDEST PUSH1 0x40 MLOAD PUSH2 0x121 SWAP2 SWAP1 PUSH2 0x17BF JUMP JUMPDEST PUSH1 0x40 MLOAD DUP1 SWAP2 SUB SWAP1 RETURN JUMPDEST CALLVALUE DUP1 ISZERO PUSH2 0x136 JUMPI PUSH1 0x0 DUP1 REVERT JUMPDEST POP PUSH2 0x13F PUSH2 0x371 JUMP JUMPDEST PUSH1 0x40 MLOAD PUSH2 0x14C SWAP2 SWAP1 PUSH2 0x17E9 JUMP JUMPDEST PUSH1 0x40 MLOAD DUP1 SWAP2 SUB SWAP1 RETURN JUMPDEST CALLVALUE DUP1 ISZERO PUSH2 0x161 JUMPI PUSH1 0x0 DUP1 REVERT JUMPDEST POP PUSH2 0x16A PUSH2 0x39B JUMP JUMPDEST PUSH1 0x40 MLOAD PUSH2 0x177 SWAP2 SWAP1 PUSH2 0x1863 JUMP JUMPDEST PUSH1 0x40 MLOAD DUP1 SWAP2 SUB SWAP1 RETURN JUMPDEST CALLVALUE DUP1 ISZERO PUSH2 0x18C JUMPI PUSH1 0x0 DUP1 REVERT JUMPDEST POP PUSH2 0x195 PUSH2 0x3BF JUMP JUMPDEST PUSH1 0x40 MLOAD PUSH2 0x1A2 SWAP2 SWAP1 PUSH2 0x1899 JUMP JUMPDEST PUSH1 0x40 MLOAD DUP1 SWAP2 SUB SWAP1 RETURN JUMPDEST CALLVALUE DUP1 ISZERO PUSH2 0x1B7 JUMPI PUSH1 0x0 DUP1 REVERT JUMPDEST POP PUSH2 0x1C0 PUSH2 0x4F6 JUMP JUMPDEST STOP JUMPDEST CALLVALUE DUP1 ISZERO PUSH2 0x1CE JUMPI PUSH1 0x0 DUP1 REVERT JUMPDEST POP PUSH2 0x1E9 PUSH1 0x4 DUP1 CALLDATASIZE SUB DUP2 ADD SWAP1 PUSH2 0x1E4 SWAP2 SWAP1 PUSH2 0x18E0 JUMP JUMPDEST PUSH2 0x66C JUMP JUMPDEST PUSH1 0x40 MLOAD PUSH2 0x1F6 SWAP2 SWAP1 PUSH2 0x17BF JUMP JUMPDEST PUSH1 0x40 MLOAD DUP1 SWAP2 SUB SWAP1 RETURN JUMPDEST CALLVALUE DUP1 ISZERO PUSH2 0x20B JUMPI PUSH1 0x0 DUP1 REVERT JUMPDEST POP PUSH2 0x226 PUSH1 0x4 DUP1 CALLDATASIZE SUB DUP2 ADD SWAP1 PUSH2 0x221 SWAP2 SWAP1 PUSH2 0x195C JUMP JUMPDEST PUSH2 0x6CD JUMP JUMPDEST STOP JUMPDEST CALLVALUE DUP1 ISZERO PUSH2 0x234 JUMPI PUSH1 0x0 DUP1 REVERT JUMPDEST POP PUSH2 0x23D PUSH2 0x929 JUMP JUMPDEST PUSH1 0x40 MLOAD PUSH2 0x24A SWAP2 SWAP1 PUSH2 0x17E9 JUMP JUMPDEST PUSH1 0x40 MLOAD DUP1 SWAP2 SUB SWAP1 RETURN JUMPDEST CALLVALUE DUP1 ISZERO PUSH2 0x25F JUMPI PUSH1 0x0 DUP1 REVERT JUMPDEST POP PUSH2 0x27A PUSH1 0x4 DUP1 CALLDATASIZE SUB DUP2 ADD SWAP1 PUSH2 0x275 SWAP2 SWAP1 PUSH2 0x1989 JUMP JUMPDEST PUSH2 0x94F JUMP JUMPDEST STOP JUMPDEST CALLVALUE DUP1 ISZERO PUSH2 0x288 JUMPI PUSH1 0x0 DUP1 REVERT JUMPDEST POP PUSH2 0x2A3 PUSH1 0x4 DUP1 CALLDATASIZE SUB DUP2 ADD SWAP1 PUSH2 0x29E SWAP2 SWAP1 PUSH2 0x19C9 JUMP JUMPDEST PUSH2 0xBD2 JUMP JUMPDEST PUSH1 0x40 MLOAD PUSH2 0x2B0 SWAP2 SWAP1 PUSH2 0x17E9 JUMP JUMPDEST PUSH1 0x40 MLOAD DUP1 SWAP2 SUB SWAP1 RETURN JUMPDEST CALLVALUE DUP1 ISZERO PUSH2 0x2C5 JUMPI PUSH1 0x0 DUP1 REVERT JUMPDEST POP PUSH2 0x2CE PUSH2 0xC11 JUMP JUMPDEST PUSH1 0x40 MLOAD PUSH2 0x2DB SWAP2 SWAP1 PUSH2 0x1A05 JUMP JUMPDEST PUSH1 0x40 MLOAD DUP1 SWAP2 SUB SWAP1 RETURN JUMPDEST PUSH2 0x2EC PUSH2 0xC27 JUMP JUMPDEST STOP JUMPDEST CALLVALUE DUP1 ISZERO PUSH2 0x2FA JUMPI PUSH1 0x0 DUP1 REVERT JUMPDEST POP PUSH2 0x315 PUSH1 0x4 DUP1 CALLDATASIZE SUB DUP2 ADD SWAP1 PUSH2 0x310 SWAP2 SWAP1 PUSH2 0x1A8B JUMP JUMPDEST PUSH2 0xD4A JUMP JUMPDEST STOP JUMPDEST CALLVALUE DUP1 ISZERO PUSH2 0x323 JUMPI PUSH1 0x0 DUP1 REVERT JUMPDEST POP PUSH2 0x32C PUSH2 0x1109 JUMP JUMPDEST STOP JUMPDEST CALLVALUE DUP1 ISZERO PUSH2 0x33A JUMPI PUSH1 0x0 DUP1 REVERT JUMPDEST POP PUSH2 0x343 PUSH2 0x1192 JUMP JUMPDEST PUSH1 0x40 MLOAD PUSH2 0x350 SWAP2 SWAP1 PUSH2 0x1A05 JUMP JUMPDEST PUSH1 0x40 MLOAD DUP1 SWAP2 SUB SWAP1 RETURN JUMPDEST PUSH1 0x5 PUSH1 0x20 MSTORE DUP1 PUSH1 0x0 MSTORE PUSH1 0x40 PUSH1 0x0 KECCAK256 PUSH1 0x0 SWAP2 POP SWAP1 POP SLOAD DUP2 JUMP JUMPDEST PUSH1 0x0 PUSH1 0x1 PUSH1 0x0 SWAP1 SLOAD SWAP1 PUSH2 0x100 EXP SWAP1 DIV PUSH20 0xFFFFFFFFFFFFFFFFFFFFFFFFFFFFFFFFFFFFFFFF AND SWAP1 POP SWAP1 JUMP JUMPDEST PUSH1 0x0 DUP1 SLOAD SWAP1 PUSH2 0x100 EXP SWAP1 DIV PUSH20 0xFFFFFFFFFFFFFFFFFFFFFFFFFFFFFFFFFFFFFFFF AND DUP2 JUMP JUMPDEST PUSH1 0x0 DUP1 TIMESTAMP SWAP1 POP PUSH1 0x0 PUSH1 0x1 PUSH1 0x15 SWAP1 SLOAD SWAP1 PUSH2 0x100 EXP SWAP1 DIV PUSH4 0xFFFFFFFF AND DUP3 PUSH2 0x3E5 SWAP2 SWAP1 PUSH2 0x1B23 JUMP JUMPDEST SWAP1 POP PUSH1 0x0 PUSH2 0x4C4 PUSH1 0x3 SLOAD PUSH1 0x4 SLOAD PUSH1 0x2 DUP1 SLOAD PUSH2 0x3FF SWAP1 PUSH2 0x1B8A JUMP JUMPDEST DUP1 PUSH1 0x1F ADD PUSH1 0x20 DUP1 SWAP2 DIV MUL PUSH1 0x20 ADD PUSH1 0x40 MLOAD SWAP1 DUP2 ADD PUSH1 0x40 MSTORE DUP1 SWAP3 SWAP2 SWAP1 DUP2 DUP2 MSTORE PUSH1 0x20 ADD DUP3 DUP1 SLOAD PUSH2 0x42B SWAP1 PUSH2 0x1B8A JUMP JUMPDEST DUP1 ISZERO PUSH2 0x478 JUMPI DUP1 PUSH1 0x1F LT PUSH2 0x44D JUMPI PUSH2 0x100 DUP1 DUP4 SLOAD DIV MUL DUP4 MSTORE SWAP2 PUSH1 0x20 ADD SWAP2 PUSH2 0x478 JUMP JUMPDEST DUP3 ADD SWAP2 SWAP1 PUSH1 0x0 MSTORE PUSH1 0x20 PUSH1 0x0 KECCAK256 SWAP1 JUMPDEST DUP2 SLOAD DUP2 MSTORE SWAP1 PUSH1 0x1 ADD SWAP1 PUSH1 0x20 ADD DUP1 DUP4 GT PUSH2 0x45B JUMPI DUP3 SWAP1 SUB PUSH1 0x1F AND DUP3 ADD SWAP2 JUMPDEST POP POP POP POP POP PUSH1 0x1 PUSH1 0x0 SWAP1 SLOAD SWAP1 PUSH2 0x100 EXP SWAP1 DIV PUSH20 0xFFFFFFFFFFFFFFFFFFFFFFFFFFFFFFFFFFFFFFFF AND PUSH1 0x40 MLOAD PUSH1 0x20 ADD PUSH2 0x4B0 SWAP2 SWAP1 PUSH2 0x17E9 JUMP JUMPDEST PUSH1 0x40 MLOAD PUSH1 0x20 DUP2 DUP4 SUB SUB DUP2 MSTORE SWAP1 PUSH1 0x40 MSTORE PUSH2 0x128C JUMP JUMPDEST SWAP1 POP PUSH1 0x0 DUP2 DUP1 PUSH1 0x20 ADD SWAP1 MLOAD DUP2 ADD SWAP1 PUSH2 0x4DC SWAP2 SWAP1 PUSH2 0x1BD0 JUMP JUMPDEST SWAP1 POP DUP3 PUSH4 0xFFFFFFFF AND DUP2 PUSH4 0xFFFFFFFF AND LT SWAP5 POP POP POP POP POP SWAP1 JUMP JUMPDEST PUSH1 0x1 PUSH1 0x0 SWAP1 SLOAD SWAP1 PUSH2 0x100 EXP SWAP1 DIV PUSH20 0xFFFFFFFFFFFFFFFFFFFFFFFFFFFFFFFFFFFFFFFF AND PUSH20 0xFFFFFFFFFFFFFFFFFFFFFFFFFFFFFFFFFFFFFFFF AND CALLER PUSH20 0xFFFFFFFFFFFFFFFFFFFFFFFFFFFFFFFFFFFFFFFF AND EQ PUSH2 0x586 JUMPI PUSH1 0x40 MLOAD PUSH32 0x8C379A000000000000000000000000000000000000000000000000000000000 DUP2 MSTORE PUSH1 0x4 ADD PUSH2 0x57D SWAP1 PUSH2 0x1C5A JUMP JUMPDEST PUSH1 0x40 MLOAD DUP1 SWAP2 SUB SWAP1 REVERT JUMPDEST PUSH2 0x5F6 PUSH1 0x3 SLOAD PUSH1 0x4 SLOAD TIMESTAMP PUSH1 0x40 MLOAD PUSH1 0x20 ADD PUSH2 0x5A0 SWAP2 SWAP1 PUSH2 0x1A05 JUMP JUMPDEST PUSH1 0x40 MLOAD PUSH1 0x20 DUP2 DUP4 SUB SUB DUP2 MSTORE SWAP1 PUSH1 0x40 MSTORE PUSH1 0x1 PUSH1 0x0 SWAP1 SLOAD SWAP1 PUSH2 0x100 EXP SWAP1 DIV PUSH20 0xFFFFFFFFFFFFFFFFFFFFFFFFFFFFFFFFFFFFFFFF AND PUSH1 0x40 MLOAD PUSH1 0x20 ADD PUSH2 0x5E2 SWAP2 SWAP1 PUSH2 0x17E9 JUMP JUMPDEST PUSH1 0x40 MLOAD PUSH1 0x20 DUP2 DUP4 SUB SUB DUP2 MSTORE SWAP1 PUSH1 0x40 MSTORE PUSH2 0x1381 JUMP JUMPDEST PUSH1 0x2 SWAP1 DUP2 PUSH2 0x604 SWAP2 SWAP1 PUSH2 0x1E56 JUMP JUMPDEST POP PUSH1 0x1 PUSH1 0x0 SWAP1 SLOAD SWAP1 PUSH2 0x100 EXP SWAP1 DIV PUSH20 0xFFFFFFFFFFFFFFFFFFFFFFFFFFFFFFFFFFFFFFFF AND PUSH20 0xFFFFFFFFFFFFFFFFFFFFFFFFFFFFFFFFFFFFFFFF AND PUSH32 0x59DB9904863F5C0703E74A4DF99BFBAD4374B3EDB69328A2F7BC4DF348511097 PUSH1 0x40 MLOAD PUSH1 0x40 MLOAD DUP1 SWAP2 SUB SWAP1 LOG2 JUMP JUMPDEST PUSH1 0x0 PUSH32 0x30644E72E131A029B85045B68181585D2833E84879B9709143E1F593F0000001 DUP4 DUP4 PUSH1 0x40 MLOAD PUSH1 0x20 ADD PUSH2 0x6A2 SWAP3 SWAP2 SWAP1 PUSH2 0x1F49 JUMP JUMPDEST PUSH1 0x40 MLOAD PUSH1 0x20 DUP2 DUP4 SUB SUB DUP2 MSTORE SWAP1 PUSH1 0x40 MSTORE DUP1 MLOAD SWAP1 PUSH1 0x20 ADD KECCAK256 PUSH1 0x0 SHR PUSH2 0x6C5 SWAP2 SWAP1 PUSH2 0x1FA4 JUMP JUMPDEST SWAP1 POP SWAP3 SWAP2 POP POP JUMP JUMPDEST PUSH1 0x1 PUSH1 0x14 SWAP1 SLOAD SWAP1 PUSH2 0x100 EXP SWAP1 DIV PUSH1 0xFF AND ISZERO PUSH2 0x71D JUMPI PUSH1 0x40 MLOAD PUSH32 0x8C379A000000000000000000000000000000000000000000000000000000000 DUP2 MSTORE PUSH1 0x4 ADD PUSH2 0x714 SWAP1 PUSH2 0x2021 JUMP JUMPDEST PUSH1 0x40 MLOAD DUP1 SWAP2 SUB SWAP1 REVERT JUMPDEST CALLER PUSH1 0x1 PUSH1 0x0 PUSH2 0x100 EXP DUP2 SLOAD DUP2 PUSH20 0xFFFFFFFFFFFFFFFFFFFFFFFFFFFFFFFFFFFFFFFF MUL NOT AND SWAP1 DUP4 PUSH20 0xFFFFFFFFFFFFFFFFFFFFFFFFFFFFFFFFFFFFFFFF AND MUL OR SWAP1 SSTORE POP DUP1 PUSH1 0x1 PUSH1 0x15 PUSH2 0x100 EXP DUP2 SLOAD DUP2 PUSH4 0xFFFFFFFF MUL NOT AND SWAP1 DUP4 PUSH4 0xFFFFFFFF AND MUL OR SWAP1 SSTORE POP PUSH2 0x7BF PUSH1 0x20 PUSH1 0x40 MLOAD DUP1 PUSH1 0x40 ADD PUSH1 0x40 MSTORE DUP1 PUSH1 0xD DUP2 MSTORE PUSH1 0x20 ADD PUSH32 0x656E6372797074696F6E4B657900000000000000000000000000000000000000 DUP2 MSTORE POP PUSH2 0x1476 JUMP JUMPDEST PUSH2 0x7C8 SWAP1 PUSH2 0x2070 JUMP JUMPDEST PUSH1 0x3 DUP2 SWAP1 SSTORE POP PUSH2 0x80E PUSH1 0x20 PUSH1 0x40 MLOAD DUP1 PUSH1 0x40 ADD PUSH1 0x40 MSTORE DUP1 PUSH1 0x5 DUP2 MSTORE PUSH1 0x20 ADD PUSH32 0x6E6F6E6365000000000000000000000000000000000000000000000000000000 DUP2 MSTORE POP PUSH2 0x1476 JUMP JUMPDEST PUSH2 0x817 SWAP1 PUSH2 0x2070 JUMP JUMPDEST PUSH1 0x4 DUP2 SWAP1 SSTORE POP PUSH2 0x88D PUSH1 0x3 SLOAD PUSH1 0x4 SLOAD TIMESTAMP PUSH1 0x40 MLOAD PUSH1 0x20 ADD PUSH2 0x837 SWAP2 SWAP1 PUSH2 0x1A05 JUMP JUMPDEST PUSH1 0x40 MLOAD PUSH1 0x20 DUP2 DUP4 SUB SUB DUP2 MSTORE SWAP1 PUSH1 0x40 MSTORE PUSH1 0x1 PUSH1 0x0 SWAP1 SLOAD SWAP1 PUSH2 0x100 EXP SWAP1 DIV PUSH20 0xFFFFFFFFFFFFFFFFFFFFFFFFFFFFFFFFFFFFFFFF AND PUSH1 0x40 MLOAD PUSH1 0x20 ADD PUSH2 0x879 SWAP2 SWAP1 PUSH2 0x17E9 JUMP JUMPDEST PUSH1 0x40 MLOAD PUSH1 0x20 DUP2 DUP4 SUB SUB DUP2 MSTORE SWAP1 PUSH1 0x40 MSTORE PUSH2 0x1381 JUMP JUMPDEST PUSH1 0x2 SWAP1 DUP2 PUSH2 0x89B SWAP2 SWAP1 PUSH2 0x1E56 JUMP JUMPDEST POP PUSH1 0x1 DUP1 PUSH1 0x14 PUSH2 0x100 EXP DUP2 SLOAD DUP2 PUSH1 0xFF MUL NOT AND SWAP1 DUP4 ISZERO ISZERO MUL OR SWAP1 SSTORE POP PUSH1 0x1 PUSH1 0x0 SWAP1 SLOAD SWAP1 PUSH2 0x100 EXP SWAP1 DIV PUSH20 0xFFFFFFFFFFFFFFFFFFFFFFFFFFFFFFFFFFFFFFFF AND PUSH20 0xFFFFFFFFFFFFFFFFFFFFFFFFFFFFFFFFFFFFFFFF AND PUSH32 0x620DCA0C9D04F7CEA9D7F31E571D74ACCCD54C21DC8FF8855EC1D5A21733C26B DUP3 PUSH1 0x40 MLOAD PUSH2 0x91E SWAP2 SWAP1 PUSH2 0x1A05 JUMP JUMPDEST PUSH1 0x40 MLOAD DUP1 SWAP2 SUB SWAP1 LOG2 POP JUMP JUMPDEST PUSH1 0x1 PUSH1 0x0 SWAP1 SLOAD SWAP1 PUSH2 0x100 EXP SWAP1 DIV PUSH20 0xFFFFFFFFFFFFFFFFFFFFFFFFFFFFFFFFFFFFFFFF AND DUP2 JUMP JUMPDEST PUSH1 0x1 PUSH1 0x0 SWAP1 SLOAD SWAP1 PUSH2 0x100 EXP SWAP1 DIV PUSH20 0xFFFFFFFFFFFFFFFFFFFFFFFFFFFFFFFFFFFFFFFF AND PUSH20 0xFFFFFFFFFFFFFFFFFFFFFFFFFFFFFFFFFFFFFFFF AND CALLER PUSH20 0xFFFFFFFFFFFFFFFFFFFFFFFFFFFFFFFFFFFFFFFF AND EQ PUSH2 0x9DF JUMPI PUSH1 0x40 MLOAD PUSH32 0x8C379A000000000000000000000000000000000000000000000000000000000 DUP2 MSTORE PUSH1 0x4 ADD PUSH2 0x9D6 SWAP1 PUSH2 0x1C5A JUMP JUMPDEST PUSH1 0x40 MLOAD DUP1 SWAP2 SUB SWAP1 REVERT JUMPDEST PUSH1 0x0 PUSH20 0xFFFFFFFFFFFFFFFFFFFFFFFFFFFFFFFFFFFFFFFF AND DUP3 PUSH20 0xFFFFFFFFFFFFFFFFFFFFFFFFFFFFFFFFFFFFFFFF AND SUB PUSH2 0xA4E JUMPI PUSH1 0x40 MLOAD PUSH32 0x8C379A000000000000000000000000000000000000000000000000000000000 DUP2 MSTORE PUSH1 0x4 ADD PUSH2 0xA45 SWAP1 PUSH2 0x2123 JUMP JUMPDEST PUSH1 0x40 MLOAD DUP1 SWAP2 SUB SWAP1 REVERT JUMPDEST PUSH1 0x0 DUP2 GT PUSH2 0xA91 JUMPI PUSH1 0x40 MLOAD PUSH32 0x8C379A000000000000000000000000000000000000000000000000000000000 DUP2 MSTORE PUSH1 0x4 ADD PUSH2 0xA88 SWAP1 PUSH2 0x218F JUMP JUMPDEST PUSH1 0x40 MLOAD DUP1 SWAP2 SUB SWAP1 REVERT JUMPDEST PUSH1 0x0 PUSH1 0x5 PUSH1 0x0 DUP5 PUSH20 0xFFFFFFFFFFFFFFFFFFFFFFFFFFFFFFFFFFFFFFFF AND PUSH20 0xFFFFFFFFFFFFFFFFFFFFFFFFFFFFFFFFFFFFFFFF AND DUP2 MSTORE PUSH1 0x20 ADD SWAP1 DUP2 MSTORE PUSH1 0x20 ADD PUSH1 0x0 KECCAK256 SLOAD SUB PUSH2 0xB3C JUMPI PUSH1 0x6 DUP3 SWAP1 DUP1 PUSH1 0x1 DUP2 SLOAD ADD DUP1 DUP3 SSTORE DUP1 SWAP2 POP POP PUSH1 0x1 SWAP1 SUB SWAP1 PUSH1 0x0 MSTORE PUSH1 0x20 PUSH1 0x0 KECCAK256 ADD PUSH1 0x0 SWAP1 SWAP2 SWAP1 SWAP2 SWAP1 SWAP2 PUSH2 0x100 EXP DUP2 SLOAD DUP2 PUSH20 0xFFFFFFFFFFFFFFFFFFFFFFFFFFFFFFFFFFFFFFFF MUL NOT AND SWAP1 DUP4 PUSH20 0xFFFFFFFFFFFFFFFFFFFFFFFFFFFFFFFFFFFFFFFF AND MUL OR SWAP1 SSTORE POP JUMPDEST DUP1 PUSH1 0x5 PUSH1 0x0 DUP5 PUSH20 0xFFFFFFFFFFFFFFFFFFFFFFFFFFFFFFFFFFFFFFFF AND PUSH20 0xFFFFFFFFFFFFFFFFFFFFFFFFFFFFFFFFFFFFFFFF AND DUP2 MSTORE PUSH1 0x20 ADD SWAP1 DUP2 MSTORE PUSH1 0x20 ADD PUSH1 0x0 KECCAK256 DUP2 SWAP1 SSTORE POP DUP2 PUSH20 0xFFFFFFFFFFFFFFFFFFFFFFFFFFFFFFFFFFFFFFFF AND PUSH32 0xE6B83177F11971BA30369BB38B914FFBA97D5969A3C857B286FA8FDBB150B3BA DUP3 PUSH1 0x40 MLOAD PUSH2 0xBC6 SWAP2 SWAP1 PUSH2 0x17BF JUMP JUMPDEST PUSH1 0x40 MLOAD DUP1 SWAP2 SUB SWAP1 LOG2 POP POP JUMP JUMPDEST PUSH1 0x6 DUP2 DUP2 SLOAD DUP2 LT PUSH2 0xBE2 JUMPI PUSH1 0x0 DUP1 REVERT JUMPDEST SWAP1 PUSH1 0x0 MSTORE PUSH1 0x20 PUSH1 0x0 KECCAK256 ADD PUSH1 0x0 SWAP2 POP SLOAD SWAP1 PUSH2 0x100 EXP SWAP1 DIV PUSH20 0xFFFFFFFFFFFFFFFFFFFFFFFFFFFFFFFFFFFFFFFF AND DUP2 JUMP JUMPDEST PUSH1 0x1 PUSH1 0x15 SWAP1 SLOAD SWAP1 PUSH2 0x100 EXP SWAP1 DIV PUSH4 0xFFFFFFFF AND DUP2 JUMP JUMPDEST PUSH1 0x1 PUSH1 0x0 SWAP1 SLOAD SWAP1 PUSH2 0x100 EXP SWAP1 DIV PUSH20 0xFFFFFFFFFFFFFFFFFFFFFFFFFFFFFFFFFFFFFFFF AND PUSH20 0xFFFFFFFFFFFFFFFFFFFFFFFFFFFFFFFFFFFFFFFF AND CALLER PUSH20 0xFFFFFFFFFFFFFFFFFFFFFFFFFFFFFFFFFFFFFFFF AND EQ PUSH2 0xCB7 JUMPI PUSH1 0x40 MLOAD PUSH32 0x8C379A000000000000000000000000000000000000000000000000000000000 DUP2 MSTORE PUSH1 0x4 ADD PUSH2 0xCAE SWAP1 PUSH2 0x1C5A JUMP JUMPDEST PUSH1 0x40 MLOAD DUP1 SWAP2 SUB SWAP1 REVERT JUMPDEST PUSH1 0x0 CALLVALUE GT PUSH2 0xCFA JUMPI PUSH1 0x40 MLOAD PUSH32 0x8C379A000000000000000000000000000000000000000000000000000000000 DUP2 MSTORE PUSH1 0x4 ADD PUSH2 0xCF1 SWAP1 PUSH2 0x21FB JUMP JUMPDEST PUSH1 0x40 MLOAD DUP1 SWAP2 SUB SWAP1 REVERT JUMPDEST CALLER PUSH20 0xFFFFFFFFFFFFFFFFFFFFFFFFFFFFFFFFFFFFFFFF AND PUSH32 0x543BA50A5EEC5E6178218E364B1D0F396157B3C8FA278522C2CB7FD99407D474 CALLVALUE PUSH1 0x40 MLOAD PUSH2 0xD40 SWAP2 SWAP1 PUSH2 0x17BF JUMP JUMPDEST PUSH1 0x40 MLOAD DUP1 SWAP2 SUB SWAP1 LOG2 JUMP JUMPDEST PUSH1 0x0 PUSH2 0xE27 PUSH1 0x3 SLOAD PUSH1 0x4 SLOAD PUSH1 0x2 DUP1 SLOAD PUSH2 0xD62 SWAP1 PUSH2 0x1B8A JUMP JUMPDEST DUP1 PUSH1 0x1F ADD PUSH1 0x20 DUP1 SWAP2 DIV MUL PUSH1 0x20 ADD PUSH1 0x40 MLOAD SWAP1 DUP2 ADD PUSH1 0x40 MSTORE DUP1 SWAP3 SWAP2 SWAP1 DUP2 DUP2 MSTORE PUSH1 0x20 ADD DUP3 DUP1 SLOAD PUSH2 0xD8E SWAP1 PUSH2 0x1B8A JUMP JUMPDEST DUP1 ISZERO PUSH2 0xDDB JUMPI DUP1 PUSH1 0x1F LT PUSH2 0xDB0 JUMPI PUSH2 0x100 DUP1 DUP4 SLOAD DIV MUL DUP4 MSTORE SWAP2 PUSH1 0x20 ADD SWAP2 PUSH2 0xDDB JUMP JUMPDEST DUP3 ADD SWAP2 SWAP1 PUSH1 0x0 MSTORE PUSH1 0x20 PUSH1 0x0 KECCAK256 SWAP1 JUMPDEST DUP2 SLOAD DUP2 MSTORE SWAP1 PUSH1 0x1 ADD SWAP1 PUSH1 0x20 ADD DUP1 DUP4 GT PUSH2 0xDBE JUMPI DUP3 SWAP1 SUB PUSH1 0x1F AND DUP3 ADD SWAP2 JUMPDEST POP POP POP POP POP PUSH1 0x1 PUSH1 0x0 SWAP1 SLOAD SWAP1 PUSH2 0x100 EXP SWAP1 DIV PUSH20 0xFFFFFFFFFFFFFFFFFFFFFFFFFFFFFFFFFFFFFFFF AND PUSH1 0x40 MLOAD PUSH1 0x20 ADD PUSH2 0xE13 SWAP2 SWAP1 PUSH2 0x17E9 JUMP JUMPDEST PUSH1 0x40 MLOAD PUSH1 0x20 DUP2 DUP4 SUB SUB DUP2 MSTORE SWAP1 PUSH1 0x40 MSTORE PUSH2 0x128C JUMP JUMPDEST SWAP1 POP PUSH1 0x0 DUP2 DUP1 PUSH1 0x20 ADD SWAP1 MLOAD DUP2 ADD SWAP1 PUSH2 0xE3F SWAP2 SWAP1 PUSH2 0x1BD0 JUMP JUMPDEST SWAP1 POP PUSH32 0xB62FA8C43C0F241F4A7B7BF2293CE4714AE0FC84F9584334751599BD528C2A13 DUP4 PUSH1 0x0 PUSH1 0x3 DUP2 LT PUSH2 0xE76 JUMPI PUSH2 0xE75 PUSH2 0x221B JUMP JUMPDEST JUMPDEST PUSH1 0x20 MUL ADD CALLDATALOAD PUSH1 0x40 MLOAD PUSH2 0xE88 SWAP2 SWAP1 PUSH2 0x17BF JUMP JUMPDEST PUSH1 0x40 MLOAD DUP1 SWAP2 SUB SWAP1 LOG1 PUSH1 0x1 PUSH1 0x15 SWAP1 SLOAD SWAP1 PUSH2 0x100 EXP SWAP1 DIV PUSH4 0xFFFFFFFF AND PUSH4 0xFFFFFFFF AND DUP4 PUSH1 0x1 PUSH1 0x3 DUP2 LT PUSH2 0xEBD JUMPI PUSH2 0xEBC PUSH2 0x221B JUMP JUMPDEST JUMPDEST PUSH1 0x20 MUL ADD CALLDATALOAD EQ PUSH2 0xF02 JUMPI PUSH1 0x40 MLOAD PUSH32 0x8C379A000000000000000000000000000000000000000000000000000000000 DUP2 MSTORE PUSH1 0x4 ADD PUSH2 0xEF9 SWAP1 PUSH2 0x2296 JUMP JUMPDEST PUSH1 0x40 MLOAD DUP1 SWAP2 SUB SWAP1 REVERT JUMPDEST PUSH1 0x0 DUP1 PUSH1 0x0 SWAP1 SLOAD SWAP1 PUSH2 0x100 EXP SWAP1 DIV PUSH20 0xFFFFFFFFFFFFFFFFFFFFFFFFFFFFFFFFFFFFFFFF AND PUSH20 0xFFFFFFFFFFFFFFFFFFFFFFFFFFFFFFFFFFFFFFFF AND PUSH4 0x11479FEA DUP9 DUP9 DUP9 DUP9 PUSH1 0x40 MLOAD DUP6 PUSH4 0xFFFFFFFF AND PUSH1 0xE0 SHL DUP2 MSTORE PUSH1 0x4 ADD PUSH2 0xF64 SWAP5 SWAP4 SWAP3 SWAP2 SWAP1 PUSH2 0x239E JUMP JUMPDEST PUSH1 0x20 PUSH1 0x40 MLOAD DUP1 DUP4 SUB DUP2 DUP7 GAS STATICCALL ISZERO DUP1 ISZERO PUSH2 0xF81 JUMPI RETURNDATASIZE PUSH1 0x0 DUP1 RETURNDATACOPY RETURNDATASIZE PUSH1 0x0 REVERT JUMPDEST POP POP POP POP PUSH1 0x40 MLOAD RETURNDATASIZE PUSH1 0x1F NOT PUSH1 0x1F DUP3 ADD AND DUP3 ADD DUP1 PUSH1 0x40 MSTORE POP DUP2 ADD SWAP1 PUSH2 0xFA5 SWAP2 SWAP1 PUSH2 0x2411 JUMP JUMPDEST SWAP1 POP DUP1 PUSH2 0xFE7 JUMPI PUSH1 0x40 MLOAD PUSH32 0x8C379A000000000000000000000000000000000000000000000000000000000 DUP2 MSTORE PUSH1 0x4 ADD PUSH2 0xFDE SWAP1 PUSH2 0x248A JUMP JUMPDEST PUSH1 0x40 MLOAD DUP1 SWAP2 SUB SWAP1 REVERT JUMPDEST PUSH32 0xF4D358772B552280F9395158C37BC77DDCBCDEAF62B20AA01276FB89D7EA1923 PUSH1 0x1 PUSH1 0x40 MLOAD PUSH2 0x1017 SWAP2 SWAP1 PUSH2 0x1899 JUMP JUMPDEST PUSH1 0x40 MLOAD DUP1 SWAP2 SUB SWAP1 LOG1 TIMESTAMP DUP5 PUSH1 0x2 PUSH1 0x3 DUP2 LT PUSH2 0x1034 JUMPI PUSH2 0x1033 PUSH2 0x221B JUMP JUMPDEST JUMPDEST PUSH1 0x20 MUL ADD CALLDATALOAD GT ISZERO PUSH2 0x107A JUMPI PUSH1 0x40 MLOAD PUSH32 0x8C379A000000000000000000000000000000000000000000000000000000000 DUP2 MSTORE PUSH1 0x4 ADD PUSH2 0x1071 SWAP1 PUSH2 0x24F6 JUMP JUMPDEST PUSH1 0x40 MLOAD DUP1 SWAP2 SUB SWAP1 REVERT JUMPDEST PUSH1 0x1 PUSH1 0x15 SWAP1 SLOAD SWAP1 PUSH2 0x100 EXP SWAP1 DIV PUSH4 0xFFFFFFFF AND DUP3 PUSH2 0x1098 SWAP2 SWAP1 PUSH2 0x2516 JUMP JUMPDEST PUSH4 0xFFFFFFFF AND DUP5 PUSH1 0x2 PUSH1 0x3 DUP2 LT PUSH2 0x10B2 JUMPI PUSH2 0x10B1 PUSH2 0x221B JUMP JUMPDEST JUMPDEST PUSH1 0x20 MUL ADD CALLDATALOAD LT ISZERO PUSH2 0x10F8 JUMPI PUSH1 0x40 MLOAD PUSH32 0x8C379A000000000000000000000000000000000000000000000000000000000 DUP2 MSTORE PUSH1 0x4 ADD PUSH2 0x10EF SWAP1 PUSH2 0x259A JUMP JUMPDEST PUSH1 0x40 MLOAD DUP1 SWAP2 SUB SWAP1 REVERT JUMPDEST PUSH2 0x1100 PUSH2 0x1565 JUMP JUMPDEST POP POP POP POP POP POP POP JUMP JUMPDEST PUSH2 0x1111 PUSH2 0x3BF JUMP JUMPDEST PUSH2 0x1150 JUMPI PUSH1 0x40 MLOAD PUSH32 0x8C379A000000000000000000000000000000000000000000000000000000000 DUP2 MSTORE PUSH1 0x4 ADD PUSH2 0x1147 SWAP1 PUSH2 0x2606 JUMP JUMPDEST PUSH1 0x40 MLOAD DUP1 SWAP2 SUB SWAP1 REVERT JUMPDEST PUSH32 0x76729D52B3EC041633E327FE49B91B757319A9CB241B0F6CE433FF396EE4DEE6 PUSH1 0x1 PUSH1 0x40 MLOAD PUSH2 0x1180 SWAP2 SWAP1 PUSH2 0x1899 JUMP JUMPDEST PUSH1 0x40 MLOAD DUP1 SWAP2 SUB SWAP1 LOG1 PUSH2 0x1190 PUSH2 0x1565 JUMP JUMPDEST JUMP JUMPDEST PUSH1 0x0 DUP1 PUSH2 0x1270 PUSH1 0x3 SLOAD PUSH1 0x4 SLOAD PUSH1 0x2 DUP1 SLOAD PUSH2 0x11AB SWAP1 PUSH2 0x1B8A JUMP JUMPDEST DUP1 PUSH1 0x1F ADD PUSH1 0x20 DUP1 SWAP2 DIV MUL PUSH1 0x20 ADD PUSH1 0x40 MLOAD SWAP1 DUP2 ADD PUSH1 0x40 MSTORE DUP1 SWAP3 SWAP2 SWAP1 DUP2 DUP2 MSTORE PUSH1 0x20 ADD DUP3 DUP1 SLOAD PUSH2 0x11D7 SWAP1 PUSH2 0x1B8A JUMP JUMPDEST DUP1 ISZERO PUSH2 0x1224 JUMPI DUP1 PUSH1 0x1F LT PUSH2 0x11F9 JUMPI PUSH2 0x100 DUP1 DUP4 SLOAD DIV MUL DUP4 MSTORE SWAP2 PUSH1 0x20 ADD SWAP2 PUSH2 0x1224 JUMP JUMPDEST DUP3 ADD SWAP2 SWAP1 PUSH1 0x0 MSTORE PUSH1 0x20 PUSH1 0x0 KECCAK256 SWAP1 JUMPDEST DUP2 SLOAD DUP2 MSTORE SWAP1 PUSH1 0x1 ADD SWAP1 PUSH1 0x20 ADD DUP1 DUP4 GT PUSH2 0x1207 JUMPI DUP3 SWAP1 SUB PUSH1 0x1F AND DUP3 ADD SWAP2 JUMPDEST POP POP POP POP POP PUSH1 0x1 PUSH1 0x0 SWAP1 SLOAD SWAP1 PUSH2 0x100 EXP SWAP1 DIV PUSH20 0xFFFFFFFFFFFFFFFFFFFFFFFFFFFFFFFFFFFFFFFF AND PUSH1 0x40 MLOAD PUSH1 0x20 ADD PUSH2 0x125C SWAP2 SWAP1 PUSH2 0x17E9 JUMP JUMPDEST PUSH1 0x40 MLOAD PUSH1 0x20 DUP2 DUP4 SUB SUB DUP2 MSTORE SWAP1 PUSH1 0x40 MSTORE PUSH2 0x128C JUMP JUMPDEST SWAP1 POP DUP1 DUP1 PUSH1 0x20 ADD SWAP1 MLOAD DUP2 ADD SWAP1 PUSH2 0x1286 SWAP2 SWAP1 PUSH2 0x1BD0 JUMP JUMPDEST SWAP2 POP POP SWAP1 JUMP JUMPDEST PUSH1 0x60 PUSH1 0x0 DUP1 PUSH20 0x100000000000000000000000000000000000004 PUSH20 0xFFFFFFFFFFFFFFFFFFFFFFFFFFFFFFFFFFFFFFFF AND DUP8 DUP8 DUP8 DUP8 PUSH1 0x40 MLOAD PUSH1 0x20 ADD PUSH2 0x12D3 SWAP5 SWAP4 SWAP3 SWAP2 SWAP1 PUSH2 0x26BA JUMP JUMPDEST PUSH1 0x40 MLOAD PUSH1 0x20 DUP2 DUP4 SUB SUB DUP2 MSTORE SWAP1 PUSH1 0x40 MSTORE PUSH1 0x40 MLOAD PUSH2 0x12EF SWAP2 SWAP1 PUSH2 0x2749 JUMP JUMPDEST PUSH1 0x0 PUSH1 0x40 MLOAD DUP1 DUP4 SUB DUP2 DUP6 GAS STATICCALL SWAP2 POP POP RETURNDATASIZE DUP1 PUSH1 0x0 DUP2 EQ PUSH2 0x132A JUMPI PUSH1 0x40 MLOAD SWAP2 POP PUSH1 0x1F NOT PUSH1 0x3F RETURNDATASIZE ADD AND DUP3 ADD PUSH1 0x40 MSTORE RETURNDATASIZE DUP3 MSTORE RETURNDATASIZE PUSH1 0x0 PUSH1 0x20 DUP5 ADD RETURNDATACOPY PUSH2 0x132F JUMP JUMPDEST PUSH1 0x60 SWAP2 POP JUMPDEST POP SWAP2 POP SWAP2 POP DUP2 PUSH2 0x1374 JUMPI PUSH1 0x40 MLOAD PUSH32 0x8C379A000000000000000000000000000000000000000000000000000000000 DUP2 MSTORE PUSH1 0x4 ADD PUSH2 0x136B SWAP1 PUSH2 0x27AC JUMP JUMPDEST PUSH1 0x40 MLOAD DUP1 SWAP2 SUB SWAP1 REVERT JUMPDEST DUP1 SWAP3 POP POP POP SWAP5 SWAP4 POP POP POP POP JUMP JUMPDEST PUSH1 0x60 PUSH1 0x0 DUP1 PUSH20 0x100000000000000000000000000000000000003 PUSH20 0xFFFFFFFFFFFFFFFFFFFFFFFFFFFFFFFFFFFFFFFF AND DUP8 DUP8 DUP8 DUP8 PUSH1 0x40 MLOAD PUSH1 0x20 ADD PUSH2 0x13C8 SWAP5 SWAP4 SWAP3 SWAP2 SWAP1 PUSH2 0x26BA JUMP JUMPDEST PUSH1 0x40 MLOAD PUSH1 0x20 DUP2 DUP4 SUB SUB DUP2 MSTORE SWAP1 PUSH1 0x40 MSTORE PUSH1 0x40 MLOAD PUSH2 0x13E4 SWAP2 SWAP1 PUSH2 0x2749 JUMP JUMPDEST PUSH1 0x0 PUSH1 0x40 MLOAD DUP1 DUP4 SUB DUP2 DUP6 GAS STATICCALL SWAP2 POP POP RETURNDATASIZE DUP1 PUSH1 0x0 DUP2 EQ PUSH2 0x141F JUMPI PUSH1 0x40 MLOAD SWAP2 POP PUSH1 0x1F NOT PUSH1 0x3F RETURNDATASIZE ADD AND DUP3 ADD PUSH1 0x40 MSTORE RETURNDATASIZE DUP3 MSTORE RETURNDATASIZE PUSH1 0x0 PUSH1 0x20 DUP5 ADD RETURNDATACOPY PUSH2 0x1424 JUMP JUMPDEST PUSH1 0x60 SWAP2 POP JUMPDEST POP SWAP2 POP SWAP2 POP DUP2 PUSH2 0x1469 JUMPI PUSH1 0x40 MLOAD PUSH32 0x8C379A000000000000000000000000000000000000000000000000000000000 DUP2 MSTORE PUSH1 0x4 ADD PUSH2 0x1460 SWAP1 PUSH2 0x2818 JUMP JUMPDEST PUSH1 0x40 MLOAD DUP1 SWAP2 SUB SWAP1 REVERT JUMPDEST DUP1 SWAP3 POP POP POP SWAP5 SWAP4 POP POP POP POP JUMP JUMPDEST PUSH1 0x60 PUSH1 0x0 DUP1 PUSH20 0x100000000000000000000000000000000000001 PUSH20 0xFFFFFFFFFFFFFFFFFFFFFFFFFFFFFFFFFFFFFFFF AND DUP6 DUP6 PUSH1 0x40 MLOAD PUSH1 0x20 ADD PUSH2 0x14B9 SWAP3 SWAP2 SWAP1 PUSH2 0x2838 JUMP JUMPDEST PUSH1 0x40 MLOAD PUSH1 0x20 DUP2 DUP4 SUB SUB DUP2 MSTORE SWAP1 PUSH1 0x40 MSTORE PUSH1 0x40 MLOAD PUSH2 0x14D5 SWAP2 SWAP1 PUSH2 0x2749 JUMP JUMPDEST PUSH1 0x0 PUSH1 0x40 MLOAD DUP1 DUP4 SUB DUP2 DUP6 GAS STATICCALL SWAP2 POP POP RETURNDATASIZE DUP1 PUSH1 0x0 DUP2 EQ PUSH2 0x1510 JUMPI PUSH1 0x40 MLOAD SWAP2 POP PUSH1 0x1F NOT PUSH1 0x3F RETURNDATASIZE ADD AND DUP3 ADD PUSH1 0x40 MSTORE RETURNDATASIZE DUP3 MSTORE RETURNDATASIZE PUSH1 0x0 PUSH1 0x20 DUP5 ADD RETURNDATACOPY PUSH2 0x1515 JUMP JUMPDEST PUSH1 0x60 SWAP2 POP JUMPDEST POP SWAP2 POP SWAP2 POP DUP2 PUSH2 0x155A JUMPI PUSH1 0x40 MLOAD PUSH32 0x8C379A000000000000000000000000000000000000000000000000000000000 DUP2 MSTORE PUSH1 0x4 ADD PUSH2 0x1551 SWAP1 PUSH2 0x28B4 JUMP JUMPDEST PUSH1 0x40 MLOAD DUP1 SWAP2 SUB SWAP1 REVERT JUMPDEST DUP1 SWAP3 POP POP POP SWAP3 SWAP2 POP POP JUMP JUMPDEST PUSH1 0x0 SELFBALANCE SWAP1 POP PUSH1 0x0 DUP2 GT PUSH2 0x15AD JUMPI PUSH1 0x40 MLOAD PUSH32 0x8C379A000000000000000000000000000000000000000000000000000000000 DUP2 MSTORE PUSH1 0x4 ADD PUSH2 0x15A4 SWAP1 PUSH2 0x2920 JUMP JUMPDEST PUSH1 0x40 MLOAD DUP1 SWAP2 SUB SWAP1 REVERT JUMPDEST PUSH1 0x0 JUMPDEST PUSH1 0x6 DUP1 SLOAD SWAP1 POP DUP2 LT ISZERO PUSH2 0x1712 JUMPI PUSH1 0x0 PUSH1 0x6 DUP3 DUP2 SLOAD DUP2 LT PUSH2 0x15D3 JUMPI PUSH2 0x15D2 PUSH2 0x221B JUMP JUMPDEST JUMPDEST SWAP1 PUSH1 0x0 MSTORE PUSH1 0x20 PUSH1 0x0 KECCAK256 ADD PUSH1 0x0 SWAP1 SLOAD SWAP1 PUSH2 0x100 EXP SWAP1 DIV PUSH20 0xFFFFFFFFFFFFFFFFFFFFFFFFFFFFFFFFFFFFFFFF AND SWAP1 POP PUSH1 0x0 PUSH1 0x5 PUSH1 0x0 DUP4 PUSH20 0xFFFFFFFFFFFFFFFFFFFFFFFFFFFFFFFFFFFFFFFF AND PUSH20 0xFFFFFFFFFFFFFFFFFFFFFFFFFFFFFFFFFFFFFFFF AND DUP2 MSTORE PUSH1 0x20 ADD SWAP1 DUP2 MSTORE PUSH1 0x20 ADD PUSH1 0x0 KECCAK256 SLOAD SWAP1 POP PUSH1 0x0 DUP2 GT DUP1 ISZERO PUSH2 0x1654 JUMPI POP DUP1 DUP5 LT ISZERO JUMPDEST ISZERO PUSH2 0x16FD JUMPI DUP2 PUSH20 0xFFFFFFFFFFFFFFFFFFFFFFFFFFFFFFFFFFFFFFFF AND PUSH2 0x8FC DUP3 SWAP1 DUP2 ISZERO MUL SWAP1 PUSH1 0x40 MLOAD PUSH1 0x0 PUSH1 0x40 MLOAD DUP1 DUP4 SUB DUP2 DUP6 DUP9 DUP9 CALL SWAP4 POP POP POP POP ISZERO DUP1 ISZERO PUSH2 0x169F JUMPI RETURNDATASIZE PUSH1 0x0 DUP1 RETURNDATACOPY RETURNDATASIZE PUSH1 0x0 REVERT JUMPDEST POP DUP2 PUSH20 0xFFFFFFFFFFFFFFFFFFFFFFFFFFFFFFFFFFFFFFFF AND PUSH32 0x221C08A06B07A64803B3787861A3F276212FCCCB51C2E6234077A9B8CB13047A DUP3 PUSH1 0x40 MLOAD PUSH2 0x16E6 SWAP2 SWAP1 PUSH2 0x17BF JUMP JUMPDEST PUSH1 0x40 MLOAD DUP1 SWAP2 SUB SWAP1 LOG2 DUP1 DUP5 PUSH2 0x16FA SWAP2 SWAP1 PUSH2 0x2940 JUMP JUMPDEST SWAP4 POP JUMPDEST POP POP DUP1 DUP1 PUSH2 0x170A SWAP1 PUSH2 0x2974 JUMP JUMPDEST SWAP2 POP POP PUSH2 0x15B0 JUMP JUMPDEST POP POP JUMP JUMPDEST PUSH1 0x0 DUP1 REVERT JUMPDEST PUSH1 0x0 PUSH20 0xFFFFFFFFFFFFFFFFFFFFFFFFFFFFFFFFFFFFFFFF DUP3 AND SWAP1 POP SWAP2 SWAP1 POP JUMP JUMPDEST PUSH1 0x0 PUSH2 0x1746 DUP3 PUSH2 0x171B JUMP JUMPDEST SWAP1 POP SWAP2 SWAP1 POP JUMP JUMPDEST PUSH2 0x1756 DUP2 PUSH2 0x173B JUMP JUMPDEST DUP2 EQ PUSH2 0x1761 JUMPI PUSH1 0x0 DUP1 REVERT JUMPDEST POP JUMP JUMPDEST PUSH1 0x0 DUP2 CALLDATALOAD SWAP1 POP PUSH2 0x1773 DUP2 PUSH2 0x174D JUMP JUMPDEST SWAP3 SWAP2 POP POP JUMP JUMPDEST PUSH1 0x0 PUSH1 0x20 DUP3 DUP5 SUB SLT ISZERO PUSH2 0x178F JUMPI PUSH2 0x178E PUSH2 0x1716 JUMP JUMPDEST JUMPDEST PUSH1 0x0 PUSH2 0x179D DUP5 DUP3 DUP6 ADD PUSH2 0x1764 JUMP JUMPDEST SWAP2 POP POP SWAP3 SWAP2 POP POP JUMP JUMPDEST PUSH1 0x0 DUP2 SWAP1 POP SWAP2 SWAP1 POP JUMP JUMPDEST PUSH2 0x17B9 DUP2 PUSH2 0x17A6 JUMP JUMPDEST DUP3 MSTORE POP POP JUMP JUMPDEST PUSH1 0x0 PUSH1 0x20 DUP3 ADD SWAP1 POP PUSH2 0x17D4 PUSH1 0x0 DUP4 ADD DUP5 PUSH2 0x17B0 JUMP JUMPDEST SWAP3 SWAP2 POP POP JUMP JUMPDEST PUSH2 0x17E3 DUP2 PUSH2 0x173B JUMP JUMPDEST DUP3 MSTORE POP POP JUMP JUMPDEST PUSH1 0x0 PUSH1 0x20 DUP3 ADD SWAP1 POP PUSH2 0x17FE PUSH1 0x0 DUP4 ADD DUP5 PUSH2 0x17DA JUMP JUMPDEST SWAP3 SWAP2 POP POP JUMP JUMPDEST PUSH1 0x0 DUP2 SWAP1 POP SWAP2 SWAP1 POP JUMP JUMPDEST PUSH1 0x0 PUSH2 0x1829 PUSH2 0x1824 PUSH2 0x181F DUP5 PUSH2 0x171B JUMP JUMPDEST PUSH2 0x1804 JUMP JUMPDEST PUSH2 0x171B JUMP JUMPDEST SWAP1 POP SWAP2 SWAP1 POP JUMP JUMPDEST PUSH1 0x0 PUSH2 0x183B DUP3 PUSH2 0x180E JUMP JUMPDEST SWAP1 POP SWAP2 SWAP1 POP JUMP JUMPDEST PUSH1 0x0 PUSH2 0x184D DUP3 PUSH2 0x1830 JUMP JUMPDEST SWAP1 POP SWAP2 SWAP1 POP JUMP JUMPDEST PUSH2 0x185D DUP2 PUSH2 0x1842 JUMP JUMPDEST DUP3 MSTORE POP POP JUMP JUMPDEST PUSH1 0x0 PUSH1 0x20 DUP3 ADD SWAP1 POP PUSH2 0x1878 PUSH1 0x0 DUP4 ADD DUP5 PUSH2 0x1854 JUMP JUMPDEST SWAP3 SWAP2 POP POP JUMP JUMPDEST PUSH1 0x0 DUP2 ISZERO ISZERO SWAP1 POP SWAP2 SWAP1 POP JUMP JUMPDEST PUSH2 0x1893 DUP2 PUSH2 0x187E JUMP JUMPDEST DUP3 MSTORE POP POP JUMP JUMPDEST PUSH1 0x0 PUSH1 0x20 DUP3 ADD SWAP1 POP PUSH2 0x18AE PUSH1 0x0 DUP4 ADD DUP5 PUSH2 0x188A JUMP JUMPDEST SWAP3 SWAP2 POP POP JUMP JUMPDEST PUSH2 0x18BD DUP2 PUSH2 0x17A6 JUMP JUMPDEST DUP2 EQ PUSH2 0x18C8 JUMPI PUSH1 0x0 DUP1 REVERT JUMPDEST POP JUMP JUMPDEST PUSH1 0x0 DUP2 CALLDATALOAD SWAP1 POP PUSH2 0x18DA DUP2 PUSH2 0x18B4 JUMP JUMPDEST SWAP3 SWAP2 POP POP JUMP JUMPDEST PUSH1 0x0 DUP1 PUSH1 0x40 DUP4 DUP6 SUB SLT ISZERO PUSH2 0x18F7 JUMPI PUSH2 0x18F6 PUSH2 0x1716 JUMP JUMPDEST JUMPDEST PUSH1 0x0 PUSH2 0x1905 DUP6 DUP3 DUP7 ADD PUSH2 0x18CB JUMP JUMPDEST SWAP3 POP POP PUSH1 0x20 PUSH2 0x1916 DUP6 DUP3 DUP7 ADD PUSH2 0x18CB JUMP JUMPDEST SWAP2 POP POP SWAP3 POP SWAP3 SWAP1 POP JUMP JUMPDEST PUSH1 0x0 PUSH4 0xFFFFFFFF DUP3 AND SWAP1 POP SWAP2 SWAP1 POP JUMP JUMPDEST PUSH2 0x1939 DUP2 PUSH2 0x1920 JUMP JUMPDEST DUP2 EQ PUSH2 0x1944 JUMPI PUSH1 0x0 DUP1 REVERT JUMPDEST POP JUMP JUMPDEST PUSH1 0x0 DUP2 CALLDATALOAD SWAP1 POP PUSH2 0x1956 DUP2 PUSH2 0x1930 JUMP JUMPDEST SWAP3 SWAP2 POP POP JUMP JUMPDEST PUSH1 0x0 PUSH1 0x20 DUP3 DUP5 SUB SLT ISZERO PUSH2 0x1972 JUMPI PUSH2 0x1971 PUSH2 0x1716 JUMP JUMPDEST JUMPDEST PUSH1 0x0 PUSH2 0x1980 DUP5 DUP3 DUP6 ADD PUSH2 0x1947 JUMP JUMPDEST SWAP2 POP POP SWAP3 SWAP2 POP POP JUMP JUMPDEST PUSH1 0x0 DUP1 PUSH1 0x40 DUP4 DUP6 SUB SLT ISZERO PUSH2 0x19A0 JUMPI PUSH2 0x199F PUSH2 0x1716 JUMP JUMPDEST JUMPDEST PUSH1 0x0 PUSH2 0x19AE DUP6 DUP3 DUP7 ADD PUSH2 0x1764 JUMP JUMPDEST SWAP3 POP POP PUSH1 0x20 PUSH2 0x19BF DUP6 DUP3 DUP7 ADD PUSH2 0x18CB JUMP JUMPDEST SWAP2 POP POP SWAP3 POP SWAP3 SWAP1 POP JUMP JUMPDEST PUSH1 0x0 PUSH1 0x20 DUP3 DUP5 SUB SLT ISZERO PUSH2 0x19DF JUMPI PUSH2 0x19DE PUSH2 0x1716 JUMP JUMPDEST JUMPDEST PUSH1 0x0 PUSH2 0x19ED DUP5 DUP3 DUP6 ADD PUSH2 0x18CB JUMP JUMPDEST SWAP2 POP POP SWAP3 SWAP2 POP POP JUMP JUMPDEST PUSH2 0x19FF DUP2 PUSH2 0x1920 JUMP JUMPDEST DUP3 MSTORE POP POP JUMP JUMPDEST PUSH1 0x0 PUSH1 0x20 DUP3 ADD SWAP1 POP PUSH2 0x1A1A PUSH1 0x0 DUP4 ADD DUP5 PUSH2 0x19F6 JUMP JUMPDEST SWAP3 SWAP2 POP POP JUMP JUMPDEST PUSH1 0x0 DUP1 REVERT JUMPDEST PUSH1 0x0 DUP2 SWAP1 POP DUP3 PUSH1 0x20 PUSH1 0x2 MUL DUP3 ADD GT ISZERO PUSH2 0x1A41 JUMPI PUSH2 0x1A40 PUSH2 0x1A20 JUMP JUMPDEST JUMPDEST SWAP3 SWAP2 POP POP JUMP JUMPDEST PUSH1 0x0 DUP2 SWAP1 POP DUP3 PUSH1 0x40 PUSH1 0x2 MUL DUP3 ADD GT ISZERO PUSH2 0x1A63 JUMPI PUSH2 0x1A62 PUSH2 0x1A20 JUMP JUMPDEST JUMPDEST SWAP3 SWAP2 POP POP JUMP JUMPDEST PUSH1 0x0 DUP2 SWAP1 POP DUP3 PUSH1 0x20 PUSH1 0x3 MUL DUP3 ADD GT ISZERO PUSH2 0x1A85 JUMPI PUSH2 0x1A84 PUSH2 0x1A20 JUMP JUMPDEST JUMPDEST SWAP3 SWAP2 POP POP JUMP JUMPDEST PUSH1 0x0 DUP1 PUSH1 0x0 DUP1 PUSH2 0x160 DUP6 DUP8 SUB SLT ISZERO PUSH2 0x1AA6 JUMPI PUSH2 0x1AA5 PUSH2 0x1716 JUMP JUMPDEST JUMPDEST PUSH1 0x0 PUSH2 0x1AB4 DUP8 DUP3 DUP9 ADD PUSH2 0x1A25 JUMP JUMPDEST SWAP5 POP POP PUSH1 0x40 PUSH2 0x1AC5 DUP8 DUP3 DUP9 ADD PUSH2 0x1A47 JUMP JUMPDEST SWAP4 POP POP PUSH1 0xC0 PUSH2 0x1AD6 DUP8 DUP3 DUP9 ADD PUSH2 0x1A25 JUMP JUMPDEST SWAP3 POP POP PUSH2 0x100 PUSH2 0x1AE8 DUP8 DUP3 DUP9 ADD PUSH2 0x1A69 JUMP JUMPDEST SWAP2 POP POP SWAP3 SWAP6 SWAP2 SWAP5 POP SWAP3 POP JUMP JUMPDEST PUSH32 0x4E487B7100000000000000000000000000000000000000000000000000000000 PUSH1 0x0 MSTORE PUSH1 0x11 PUSH1 0x4 MSTORE PUSH1 0x24 PUSH1 0x0 REVERT JUMPDEST PUSH1 0x0 PUSH2 0x1B2E DUP3 PUSH2 0x1920 JUMP JUMPDEST SWAP2 POP PUSH2 0x1B39 DUP4 PUSH2 0x1920 JUMP JUMPDEST SWAP3 POP DUP3 DUP3 SUB SWAP1 POP PUSH4 0xFFFFFFFF DUP2 GT ISZERO PUSH2 0x1B55 JUMPI PUSH2 0x1B54 PUSH2 0x1AF4 JUMP JUMPDEST JUMPDEST SWAP3 SWAP2 POP POP JUMP JUMPDEST PUSH32 0x4E487B7100000000000000000000000000000000000000000000000000000000 PUSH1 0x0 MSTORE PUSH1 0x22 PUSH1 0x4 MSTORE PUSH1 0x24 PUSH1 0x0 REVERT JUMPDEST PUSH1 0x0 PUSH1 0x2 DUP3 DIV SWAP1 POP PUSH1 0x1 DUP3 AND DUP1 PUSH2 0x1BA2 JUMPI PUSH1 0x7F DUP3 AND SWAP2 POP JUMPDEST PUSH1 0x20 DUP3 LT DUP2 SUB PUSH2 0x1BB5 JUMPI PUSH2 0x1BB4 PUSH2 0x1B5B JUMP JUMPDEST JUMPDEST POP SWAP2 SWAP1 POP JUMP JUMPDEST PUSH1 0x0 DUP2 MLOAD SWAP1 POP PUSH2 0x1BCA DUP2 PUSH2 0x1930 JUMP JUMPDEST SWAP3 SWAP2 POP POP JUMP JUMPDEST PUSH1 0x0 PUSH1 0x20 DUP3 DUP5 SUB SLT ISZERO PUSH2 0x1BE6 JUMPI PUSH2 0x1BE5 PUSH2 0x1716 JUMP JUMPDEST JUMPDEST PUSH1 0x0 PUSH2 0x1BF4 DUP5 DUP3 DUP6 ADD PUSH2 0x1BBB JUMP JUMPDEST SWAP2 POP POP SWAP3 SWAP2 POP POP JUMP JUMPDEST PUSH1 0x0 DUP3 DUP3 MSTORE PUSH1 0x20 DUP3 ADD SWAP1 POP SWAP3 SWAP2 POP POP JUMP JUMPDEST PUSH32 0x4E6F7420746865206F776E657200000000000000000000000000000000000000 PUSH1 0x0 DUP3 ADD MSTORE POP JUMP JUMPDEST PUSH1 0x0 PUSH2 0x1C44 PUSH1 0xD DUP4 PUSH2 0x1BFD JUMP JUMPDEST SWAP2 POP PUSH2 0x1C4F DUP3 PUSH2 0x1C0E JUMP JUMPDEST PUSH1 0x20 DUP3 ADD SWAP1 POP SWAP2 SWAP1 POP JUMP JUMPDEST PUSH1 0x0 PUSH1 0x20 DUP3 ADD SWAP1 POP DUP2 DUP2 SUB PUSH1 0x0 DUP4 ADD MSTORE PUSH2 0x1C73 DUP2 PUSH2 0x1C37 JUMP JUMPDEST SWAP1 POP SWAP2 SWAP1 POP JUMP JUMPDEST PUSH1 0x0 DUP2 MLOAD SWAP1 POP SWAP2 SWAP1 POP JUMP JUMPDEST PUSH32 0x4E487B7100000000000000000000000000000000000000000000000000000000 PUSH1 0x0 MSTORE PUSH1 0x41 PUSH1 0x4 MSTORE PUSH1 0x24 PUSH1 0x0 REVERT JUMPDEST PUSH1 0x0 DUP2 SWAP1 POP DUP2 PUSH1 0x0 MSTORE PUSH1 0x20 PUSH1 0x0 KECCAK256 SWAP1 POP SWAP2 SWAP1 POP JUMP JUMPDEST PUSH1 0x0 PUSH1 0x20 PUSH1 0x1F DUP4 ADD DIV SWAP1 POP SWAP2 SWAP1 POP JUMP JUMPDEST PUSH1 0x0 DUP3 DUP3 SHL SWAP1 POP SWAP3 SWAP2 POP POP JUMP JUMPDEST PUSH1 0x0 PUSH1 0x8 DUP4 MUL PUSH2 0x1D16 PUSH32 0xFFFFFFFFFFFFFFFFFFFFFFFFFFFFFFFFFFFFFFFFFFFFFFFFFFFFFFFFFFFFFFFF DUP3 PUSH2 0x1CD9 JUMP JUMPDEST PUSH2 0x1D20 DUP7 DUP4 PUSH2 0x1CD9 JUMP JUMPDEST SWAP6 POP DUP1 NOT DUP5 AND SWAP4 POP DUP1 DUP7 AND DUP5 OR SWAP3 POP POP POP SWAP4 SWAP3 POP POP POP JUMP JUMPDEST PUSH1 0x0 PUSH2 0x1D53 PUSH2 0x1D4E PUSH2 0x1D49 DUP5 PUSH2 0x17A6 JUMP JUMPDEST PUSH2 0x1804 JUMP JUMPDEST PUSH2 0x17A6 JUMP JUMPDEST SWAP1 POP SWAP2 SWAP1 POP JUMP JUMPDEST PUSH1 0x0 DUP2 SWAP1 POP SWAP2 SWAP1 POP JUMP JUMPDEST PUSH2 0x1D6D DUP4 PUSH2 0x1D38 JUMP JUMPDEST PUSH2 0x1D81 PUSH2 0x1D79 DUP3 PUSH2 0x1D5A JUMP JUMPDEST DUP5 DUP5 SLOAD PUSH2 0x1CE6 JUMP JUMPDEST DUP3 SSTORE POP POP POP POP JUMP JUMPDEST PUSH1 0x0 SWAP1 JUMP JUMPDEST PUSH2 0x1D96 PUSH2 0x1D89 JUMP JUMPDEST PUSH2 0x1DA1 DUP2 DUP5 DUP5 PUSH2 0x1D64 JUMP JUMPDEST POP POP POP JUMP JUMPDEST JUMPDEST DUP2 DUP2 LT ISZERO PUSH2 0x1DC5 JUMPI PUSH2 0x1DBA PUSH1 0x0 DUP3 PUSH2 0x1D8E JUMP JUMPDEST PUSH1 0x1 DUP2 ADD SWAP1 POP PUSH2 0x1DA7 JUMP JUMPDEST POP POP JUMP JUMPDEST PUSH1 0x1F DUP3 GT ISZERO PUSH2 0x1E0A JUMPI PUSH2 0x1DDB DUP2 PUSH2 0x1CB4 JUMP JUMPDEST PUSH2 0x1DE4 DUP5 PUSH2 0x1CC9 JUMP JUMPDEST DUP2 ADD PUSH1 0x20 DUP6 LT ISZERO PUSH2 0x1DF3 JUMPI DUP2 SWAP1 POP JUMPDEST PUSH2 0x1E07 PUSH2 0x1DFF DUP6 PUSH2 0x1CC9 JUMP JUMPDEST DUP4 ADD DUP3 PUSH2 0x1DA6 JUMP JUMPDEST POP POP JUMPDEST POP POP POP JUMP JUMPDEST PUSH1 0x0 DUP3 DUP3 SHR SWAP1 POP SWAP3 SWAP2 POP POP JUMP JUMPDEST PUSH1 0x0 PUSH2 0x1E2D PUSH1 0x0 NOT DUP5 PUSH1 0x8 MUL PUSH2 0x1E0F JUMP JUMPDEST NOT DUP1 DUP4 AND SWAP2 POP POP SWAP3 SWAP2 POP POP JUMP JUMPDEST PUSH1 0x0 PUSH2 0x1E46 DUP4 DUP4 PUSH2 0x1E1C JUMP JUMPDEST SWAP2 POP DUP3 PUSH1 0x2 MUL DUP3 OR SWAP1 POP SWAP3 SWAP2 POP POP JUMP JUMPDEST PUSH2 0x1E5F DUP3 PUSH2 0x1C7A JUMP JUMPDEST PUSH8 0xFFFFFFFFFFFFFFFF DUP2 GT ISZERO PUSH2 0x1E78 JUMPI PUSH2 0x1E77 PUSH2 0x1C85 JUMP JUMPDEST JUMPDEST PUSH2 0x1E82 DUP3 SLOAD PUSH2 0x1B8A JUMP JUMPDEST PUSH2 0x1E8D DUP3 DUP3 DUP6 PUSH2 0x1DC9 JUMP JUMPDEST PUSH1 0x0 PUSH1 0x20 SWAP1 POP PUSH1 0x1F DUP4 GT PUSH1 0x1 DUP2 EQ PUSH2 0x1EC0 JUMPI PUSH1 0x0 DUP5 ISZERO PUSH2 0x1EAE JUMPI DUP3 DUP8 ADD MLOAD SWAP1 POP JUMPDEST PUSH2 0x1EB8 DUP6 DUP3 PUSH2 0x1E3A JUMP JUMPDEST DUP7 SSTORE POP PUSH2 0x1F20 JUMP JUMPDEST PUSH1 0x1F NOT DUP5 AND PUSH2 0x1ECE DUP7 PUSH2 0x1CB4 JUMP JUMPDEST PUSH1 0x0 JUMPDEST DUP3 DUP2 LT ISZERO PUSH2 0x1EF6 JUMPI DUP5 DUP10 ADD MLOAD DUP3 SSTORE PUSH1 0x1 DUP3 ADD SWAP2 POP PUSH1 0x20 DUP6 ADD SWAP5 POP PUSH1 0x20 DUP2 ADD SWAP1 POP PUSH2 0x1ED1 JUMP JUMPDEST DUP7 DUP4 LT ISZERO PUSH2 0x1F13 JUMPI DUP5 DUP10 ADD MLOAD PUSH2 0x1F0F PUSH1 0x1F DUP10 AND DUP3 PUSH2 0x1E1C JUMP JUMPDEST DUP4 SSTORE POP JUMPDEST PUSH1 0x1 PUSH1 0x2 DUP9 MUL ADD DUP9 SSTORE POP POP POP JUMPDEST POP POP POP POP POP POP JUMP JUMPDEST PUSH1 0x0 DUP2 SWAP1 POP SWAP2 SWAP1 POP JUMP JUMPDEST PUSH2 0x1F43 PUSH2 0x1F3E DUP3 PUSH2 0x17A6 JUMP JUMPDEST PUSH2 0x1F28 JUMP JUMPDEST DUP3 MSTORE POP POP JUMP JUMPDEST PUSH1 0x0 PUSH2 0x1F55 DUP3 DUP6 PUSH2 0x1F32 JUMP JUMPDEST PUSH1 0x20 DUP3 ADD SWAP2 POP PUSH2 0x1F65 DUP3 DUP5 PUSH2 0x1F32 JUMP JUMPDEST PUSH1 0x20 DUP3 ADD SWAP2 POP DUP2 SWAP1 POP SWAP4 SWAP3 POP POP POP JUMP JUMPDEST PUSH32 0x4E487B7100000000000000000000000000000000000000000000000000000000 PUSH1 0x0 MSTORE PUSH1 0x12 PUSH1 0x4 MSTORE PUSH1 0x24 PUSH1 0x0 REVERT JUMPDEST PUSH1 0x0 PUSH2 0x1FAF DUP3 PUSH2 0x17A6 JUMP JUMPDEST SWAP2 POP PUSH2 0x1FBA DUP4 PUSH2 0x17A6 JUMP JUMPDEST SWAP3 POP DUP3 PUSH2 0x1FCA JUMPI PUSH2 0x1FC9 PUSH2 0x1F75 JUMP JUMPDEST JUMPDEST DUP3 DUP3 MOD SWAP1 POP SWAP3 SWAP2 POP POP JUMP JUMPDEST PUSH32 0x416C726561647920696E697469616C697A656400000000000000000000000000 PUSH1 0x0 DUP3 ADD MSTORE POP JUMP JUMPDEST PUSH1 0x0 PUSH2 0x200B PUSH1 0x13 DUP4 PUSH2 0x1BFD JUMP JUMPDEST SWAP2 POP PUSH2 0x2016 DUP3 PUSH2 0x1FD5 JUMP JUMPDEST PUSH1 0x20 DUP3 ADD SWAP1 POP SWAP2 SWAP1 POP JUMP JUMPDEST PUSH1 0x0 PUSH1 0x20 DUP3 ADD SWAP1 POP DUP2 DUP2 SUB PUSH1 0x0 DUP4 ADD MSTORE PUSH2 0x203A DUP2 PUSH2 0x1FFE JUMP JUMPDEST SWAP1 POP SWAP2 SWAP1 POP JUMP JUMPDEST PUSH1 0x0 DUP2 SWAP1 POP PUSH1 0x20 DUP3 ADD SWAP1 POP SWAP2 SWAP1 POP JUMP JUMPDEST PUSH1 0x0 DUP2 SWAP1 POP SWAP2 SWAP1 POP JUMP JUMPDEST PUSH1 0x0 PUSH2 0x2067 DUP3 MLOAD PUSH2 0x2051 JUMP JUMPDEST DUP1 SWAP2 POP POP SWAP2 SWAP1 POP JUMP JUMPDEST PUSH1 0x0 PUSH2 0x207B DUP3 PUSH2 0x1C7A JUMP JUMPDEST DUP3 PUSH2 0x2085 DUP5 PUSH2 0x2041 JUMP JUMPDEST SWAP1 POP PUSH2 0x2090 DUP2 PUSH2 0x205B JUMP JUMPDEST SWAP3 POP PUSH1 0x20 DUP3 LT ISZERO PUSH2 0x20D0 JUMPI PUSH2 0x20CB PUSH32 0xFFFFFFFFFFFFFFFFFFFFFFFFFFFFFFFFFFFFFFFFFFFFFFFFFFFFFFFFFFFFFFFF DUP4 PUSH1 0x20 SUB PUSH1 0x8 MUL PUSH2 0x1CD9 JUMP JUMPDEST DUP4 AND SWAP3 POP JUMPDEST POP POP SWAP2 SWAP1 POP JUMP JUMPDEST PUSH32 0x496E76616C696420616464726573730000000000000000000000000000000000 PUSH1 0x0 DUP3 ADD MSTORE POP JUMP JUMPDEST PUSH1 0x0 PUSH2 0x210D PUSH1 0xF DUP4 PUSH2 0x1BFD JUMP JUMPDEST SWAP2 POP PUSH2 0x2118 DUP3 PUSH2 0x20D7 JUMP JUMPDEST PUSH1 0x20 DUP3 ADD SWAP1 POP SWAP2 SWAP1 POP JUMP JUMPDEST PUSH1 0x0 PUSH1 0x20 DUP3 ADD SWAP1 POP DUP2 DUP2 SUB PUSH1 0x0 DUP4 ADD MSTORE PUSH2 0x213C DUP2 PUSH2 0x2100 JUMP JUMPDEST SWAP1 POP SWAP2 SWAP1 POP JUMP JUMPDEST PUSH32 0x416D6F756E74206D7573742062652067726561746572207468616E2030000000 PUSH1 0x0 DUP3 ADD MSTORE POP JUMP JUMPDEST PUSH1 0x0 PUSH2 0x2179 PUSH1 0x1D DUP4 PUSH2 0x1BFD JUMP JUMPDEST SWAP2 POP PUSH2 0x2184 DUP3 PUSH2 0x2143 JUMP JUMPDEST PUSH1 0x20 DUP3 ADD SWAP1 POP SWAP2 SWAP1 POP JUMP JUMPDEST PUSH1 0x0 PUSH1 0x20 DUP3 ADD SWAP1 POP DUP2 DUP2 SUB PUSH1 0x0 DUP4 ADD MSTORE PUSH2 0x21A8 DUP2 PUSH2 0x216C JUMP JUMPDEST SWAP1 POP SWAP2 SWAP1 POP JUMP JUMPDEST PUSH32 0x4D7573742073656E642045544800000000000000000000000000000000000000 PUSH1 0x0 DUP3 ADD MSTORE POP JUMP JUMPDEST PUSH1 0x0 PUSH2 0x21E5 PUSH1 0xD DUP4 PUSH2 0x1BFD JUMP JUMPDEST SWAP2 POP PUSH2 0x21F0 DUP3 PUSH2 0x21AF JUMP JUMPDEST PUSH1 0x20 DUP3 ADD SWAP1 POP SWAP2 SWAP1 POP JUMP JUMPDEST PUSH1 0x0 PUSH1 0x20 DUP3 ADD SWAP1 POP DUP2 DUP2 SUB PUSH1 0x0 DUP4 ADD MSTORE PUSH2 0x2214 DUP2 PUSH2 0x21D8 JUMP JUMPDEST SWAP1 POP SWAP2 SWAP1 POP JUMP JUMPDEST PUSH32 0x4E487B7100000000000000000000000000000000000000000000000000000000 PUSH1 0x0 MSTORE PUSH1 0x32 PUSH1 0x4 MSTORE PUSH1 0x24 PUSH1 0x0 REVERT JUMPDEST PUSH32 0x496E616374697669747920706572696F64206D69736D61746368000000000000 PUSH1 0x0 DUP3 ADD MSTORE POP JUMP JUMPDEST PUSH1 0x0 PUSH2 0x2280 PUSH1 0x1A DUP4 PUSH2 0x1BFD JUMP JUMPDEST SWAP2 POP PUSH2 0x228B DUP3 PUSH2 0x224A JUMP JUMPDEST PUSH1 0x20 DUP3 ADD SWAP1 POP SWAP2 SWAP1 POP JUMP JUMPDEST PUSH1 0x0 PUSH1 0x20 DUP3 ADD SWAP1 POP DUP2 DUP2 SUB PUSH1 0x0 DUP4 ADD MSTORE PUSH2 0x22AF DUP2 PUSH2 0x2273 JUMP JUMPDEST SWAP1 POP SWAP2 SWAP1 POP JUMP JUMPDEST DUP3 DUP2 DUP4 CALLDATACOPY POP POP POP JUMP JUMPDEST PUSH2 0x22CB PUSH1 0x40 DUP4 DUP4 PUSH2 0x22B6 JUMP JUMPDEST POP POP JUMP JUMPDEST PUSH1 0x0 PUSH1 0x2 SWAP1 POP SWAP2 SWAP1 POP JUMP JUMPDEST PUSH1 0x0 DUP2 SWAP1 POP SWAP3 SWAP2 POP POP JUMP JUMPDEST PUSH1 0x0 DUP2 SWAP1 POP SWAP2 SWAP1 POP JUMP JUMPDEST PUSH2 0x22FB PUSH1 0x40 DUP4 DUP4 PUSH2 0x22B6 JUMP JUMPDEST POP POP JUMP JUMPDEST PUSH1 0x0 PUSH2 0x230B DUP4 DUP4 PUSH2 0x22EF JUMP JUMPDEST PUSH1 0x40 DUP4 ADD SWAP1 POP SWAP3 SWAP2 POP POP JUMP JUMPDEST PUSH1 0x0 DUP3 SWAP1 POP SWAP3 SWAP2 POP POP JUMP JUMPDEST PUSH1 0x0 PUSH1 0x40 DUP3 ADD SWAP1 POP SWAP2 SWAP1 POP JUMP JUMPDEST PUSH2 0x2338 DUP2 PUSH2 0x22CF JUMP JUMPDEST PUSH2 0x2342 DUP2 DUP5 PUSH2 0x22DA JUMP JUMPDEST SWAP3 POP PUSH2 0x234D DUP3 PUSH2 0x22E5 JUMP JUMPDEST DUP1 PUSH1 0x0 JUMPDEST DUP4 DUP2 LT ISZERO PUSH2 0x2386 JUMPI PUSH2 0x2363 DUP3 DUP5 PUSH2 0x2317 JUMP JUMPDEST PUSH2 0x236D DUP8 DUP3 PUSH2 0x22FF JUMP JUMPDEST SWAP7 POP PUSH2 0x2378 DUP4 PUSH2 0x2322 JUMP JUMPDEST SWAP3 POP POP PUSH1 0x1 DUP2 ADD SWAP1 POP PUSH2 0x2351 JUMP JUMPDEST POP POP POP POP POP POP JUMP JUMPDEST PUSH2 0x239A PUSH1 0x60 DUP4 DUP4 PUSH2 0x22B6 JUMP JUMPDEST POP POP JUMP JUMPDEST PUSH1 0x0 PUSH2 0x160 DUP3 ADD SWAP1 POP PUSH2 0x23B4 PUSH1 0x0 DUP4 ADD DUP8 PUSH2 0x22BF JUMP JUMPDEST PUSH2 0x23C1 PUSH1 0x40 DUP4 ADD DUP7 PUSH2 0x232F JUMP JUMPDEST PUSH2 0x23CE PUSH1 0xC0 DUP4 ADD DUP6 PUSH2 0x22BF JUMP JUMPDEST PUSH2 0x23DC PUSH2 0x100 DUP4 ADD DUP5 PUSH2 0x238E JUMP JUMPDEST SWAP6 SWAP5 POP POP POP POP POP JUMP JUMPDEST PUSH2 0x23EE DUP2 PUSH2 0x187E JUMP JUMPDEST DUP2 EQ PUSH2 0x23F9 JUMPI PUSH1 0x0 DUP1 REVERT JUMPDEST POP JUMP JUMPDEST PUSH1 0x0 DUP2 MLOAD SWAP1 POP PUSH2 0x240B DUP2 PUSH2 0x23E5 JUMP JUMPDEST SWAP3 SWAP2 POP POP JUMP JUMPDEST PUSH1 0x0 PUSH1 0x20 DUP3 DUP5 SUB SLT ISZERO PUSH2 0x2427 JUMPI PUSH2 0x2426 PUSH2 0x1716 JUMP JUMPDEST JUMPDEST PUSH1 0x0 PUSH2 0x2435 DUP5 DUP3 DUP6 ADD PUSH2 0x23FC JUMP JUMPDEST SWAP2 POP POP SWAP3 SWAP2 POP POP JUMP JUMPDEST PUSH32 0x496E76616C6964205A4B2070726F6F6600000000000000000000000000000000 PUSH1 0x0 DUP3 ADD MSTORE POP JUMP JUMPDEST PUSH1 0x0 PUSH2 0x2474 PUSH1 0x10 DUP4 PUSH2 0x1BFD JUMP JUMPDEST SWAP2 POP PUSH2 0x247F DUP3 PUSH2 0x243E JUMP JUMPDEST PUSH1 0x20 DUP3 ADD SWAP1 POP SWAP2 SWAP1 POP JUMP JUMPDEST PUSH1 0x0 PUSH1 0x20 DUP3 ADD SWAP1 POP DUP2 DUP2 SUB PUSH1 0x0 DUP4 ADD MSTORE PUSH2 0x24A3 DUP2 PUSH2 0x2467 JUMP JUMPDEST SWAP1 POP SWAP2 SWAP1 POP JUMP JUMPDEST PUSH32 0x4675747572652074696D657374616D7000000000000000000000000000000000 PUSH1 0x0 DUP3 ADD MSTORE POP JUMP JUMPDEST PUSH1 0x0 PUSH2 0x24E0 PUSH1 0x10 DUP4 PUSH2 0x1BFD JUMP JUMPDEST SWAP2 POP PUSH2 0x24EB DUP3 PUSH2 0x24AA JUMP JUMPDEST PUSH1 0x20 DUP3 ADD SWAP1 POP SWAP2 SWAP1 POP JUMP JUMPDEST PUSH1 0x0 PUSH1 0x20 DUP3 ADD SWAP1 POP DUP2 DUP2 SUB PUSH1 0x0 DUP4 ADD MSTORE PUSH2 0x250F DUP2 PUSH2 0x24D3 JUMP JUMPDEST SWAP1 POP SWAP2 SWAP1 POP JUMP JUMPDEST PUSH1 0x0 PUSH2 0x2521 DUP3 PUSH2 0x1920 JUMP JUMPDEST SWAP2 POP PUSH2 0x252C DUP4 PUSH2 0x1920 JUMP JUMPDEST SWAP3 POP DUP3 DUP3 ADD SWAP1 POP PUSH4 0xFFFFFFFF DUP2 GT ISZERO PUSH2 0x2548 JUMPI PUSH2 0x2547 PUSH2 0x1AF4 JUMP JUMPDEST JUMPDEST SWAP3 SWAP2 POP POP JUMP JUMPDEST PUSH32 0x496E616374697669747920706572696F64206E6F74206D657400000000000000 PUSH1 0x0 DUP3 ADD MSTORE POP JUMP JUMPDEST PUSH1 0x0 PUSH2 0x2584 PUSH1 0x19 DUP4 PUSH2 0x1BFD JUMP JUMPDEST SWAP2 POP PUSH2 0x258F DUP3 PUSH2 0x254E JUMP JUMPDEST PUSH1 0x20 DUP3 ADD SWAP1 POP SWAP2 SWAP1 POP JUMP JUMPDEST PUSH1 0x0 PUSH1 0x20 DUP3 ADD SWAP1 POP DUP2 DUP2 SUB PUSH1 0x0 DUP4 ADD MSTORE PUSH2 0x25B3 DUP2 PUSH2 0x2577 JUMP JUMPDEST SWAP1 POP SWAP2 SWAP1 POP JUMP JUMPDEST PUSH32 0x4F776E6572206973207374696C6C206163746976650000000000000000000000 PUSH1 0x0 DUP3 ADD MSTORE POP JUMP JUMPDEST PUSH1 0x0 PUSH2 0x25F0 PUSH1 0x15 DUP4 PUSH2 0x1BFD JUMP JUMPDEST SWAP2 POP PUSH2 0x25FB DUP3 PUSH2 0x25BA JUMP JUMPDEST PUSH1 0x20 DUP3 ADD SWAP1 POP SWAP2 SWAP1 POP JUMP JUMPDEST PUSH1 0x0 PUSH1 0x20 DUP3 ADD SWAP1 POP DUP2 DUP2 SUB PUSH1 0x0 DUP4 ADD MSTORE PUSH2 0x261F DUP2 PUSH2 0x25E3 JUMP JUMPDEST SWAP1 POP SWAP2 SWAP1 POP JUMP JUMPDEST PUSH2 0x262F DUP2 PUSH2 0x2051 JUMP JUMPDEST DUP3 MSTORE POP POP JUMP JUMPDEST PUSH1 0x0 DUP3 DUP3 MSTORE PUSH1 0x20 DUP3 ADD SWAP1 POP SWAP3 SWAP2 POP POP JUMP JUMPDEST PUSH1 0x0 JUMPDEST DUP4 DUP2 LT ISZERO PUSH2 0x2664 JUMPI DUP1 DUP3 ADD MLOAD DUP2 DUP5 ADD MSTORE PUSH1 0x20 DUP2 ADD SWAP1 POP PUSH2 0x2649 JUMP JUMPDEST PUSH1 0x0 DUP5 DUP5 ADD MSTORE POP POP POP POP JUMP JUMPDEST PUSH1 0x0 PUSH1 0x1F NOT PUSH1 0x1F DUP4 ADD AND SWAP1 POP SWAP2 SWAP1 POP JUMP JUMPDEST PUSH1 0x0 PUSH2 0x268C DUP3 PUSH2 0x1C7A JUMP JUMPDEST PUSH2 0x2696 DUP2 DUP6 PUSH2 0x2635 JUMP JUMPDEST SWAP4 POP PUSH2 0x26A6 DUP2 DUP6 PUSH1 0x20 DUP7 ADD PUSH2 0x2646 JUMP JUMPDEST PUSH2 0x26AF DUP2 PUSH2 0x2670 JUMP JUMPDEST DUP5 ADD SWAP2 POP POP SWAP3 SWAP2 POP POP JUMP JUMPDEST PUSH1 0x0 PUSH1 0x80 DUP3 ADD SWAP1 POP PUSH2 0x26CF PUSH1 0x0 DUP4 ADD DUP8 PUSH2 0x2626 JUMP JUMPDEST PUSH2 0x26DC PUSH1 0x20 DUP4 ADD DUP7 PUSH2 0x2626 JUMP JUMPDEST DUP2 DUP2 SUB PUSH1 0x40 DUP4 ADD MSTORE PUSH2 0x26EE DUP2 DUP6 PUSH2 0x2681 JUMP JUMPDEST SWAP1 POP DUP2 DUP2 SUB PUSH1 0x60 DUP4 ADD MSTORE PUSH2 0x2702 DUP2 DUP5 PUSH2 0x2681 JUMP JUMPDEST SWAP1 POP SWAP6 SWAP5 POP POP POP POP POP JUMP JUMPDEST PUSH1 0x0 DUP2 SWAP1 POP SWAP3 SWAP2 POP POP JUMP JUMPDEST PUSH1 0x0 PUSH2 0x2723 DUP3 PUSH2 0x1C7A JUMP JUMPDEST PUSH2 0x272D DUP2 DUP6 PUSH2 0x270D JUMP JUMPDEST SWAP4 POP PUSH2 0x273D DUP2 DUP6 PUSH1 0x20 DUP7 ADD PUSH2 0x2646 JUMP JUMPDEST DUP1 DUP5 ADD SWAP2 POP POP SWAP3 SWAP2 POP POP JUMP JUMPDEST PUSH1 0x0 PUSH2 0x2755 DUP3 DUP5 PUSH2 0x2718 JUMP JUMPDEST SWAP2 POP DUP2 SWAP1 POP SWAP3 SWAP2 POP POP JUMP JUMPDEST PUSH32 0x646563727970743A206661696C65640000000000000000000000000000000000 PUSH1 0x0 DUP3 ADD MSTORE POP JUMP JUMPDEST PUSH1 0x0 PUSH2 0x2796 PUSH1 0xF DUP4 PUSH2 0x1BFD JUMP JUMPDEST SWAP2 POP PUSH2 0x27A1 DUP3 PUSH2 0x2760 JUMP JUMPDEST PUSH1 0x20 DUP3 ADD SWAP1 POP SWAP2 SWAP1 POP JUMP JUMPDEST PUSH1 0x0 PUSH1 0x20 DUP3 ADD SWAP1 POP DUP2 DUP2 SUB PUSH1 0x0 DUP4 ADD MSTORE PUSH2 0x27C5 DUP2 PUSH2 0x2789 JUMP JUMPDEST SWAP1 POP SWAP2 SWAP1 POP JUMP JUMPDEST PUSH32 0x656E63727970743A206661696C65640000000000000000000000000000000000 PUSH1 0x0 DUP3 ADD MSTORE POP JUMP JUMPDEST PUSH1 0x0 PUSH2 0x2802 PUSH1 0xF DUP4 PUSH2 0x1BFD JUMP JUMPDEST SWAP2 POP PUSH2 0x280D DUP3 PUSH2 0x27CC JUMP JUMPDEST PUSH1 0x20 DUP3 ADD SWAP1 POP SWAP2 SWAP1 POP JUMP JUMPDEST PUSH1 0x0 PUSH1 0x20 DUP3 ADD SWAP1 POP DUP2 DUP2 SUB PUSH1 0x0 DUP4 ADD MSTORE PUSH2 0x2831 DUP2 PUSH2 0x27F5 JUMP JUMPDEST SWAP1 POP SWAP2 SWAP1 POP JUMP JUMPDEST PUSH1 0x0 PUSH1 0x40 DUP3 ADD SWAP1 POP PUSH2 0x284D PUSH1 0x0 DUP4 ADD DUP6 PUSH2 0x17B0 JUMP JUMPDEST DUP2 DUP2 SUB PUSH1 0x20 DUP4 ADD MSTORE PUSH2 0x285F DUP2 DUP5 PUSH2 0x2681 JUMP JUMPDEST SWAP1 POP SWAP4 SWAP3 POP POP POP JUMP JUMPDEST PUSH32 0x72616E646F6D42797465733A206661696C656400000000000000000000000000 PUSH1 0x0 DUP3 ADD MSTORE POP JUMP JUMPDEST PUSH1 0x0 PUSH2 0x289E PUSH1 0x13 DUP4 PUSH2 0x1BFD JUMP JUMPDEST SWAP2 POP PUSH2 0x28A9 DUP3 PUSH2 0x2868 JUMP JUMPDEST PUSH1 0x20 DUP3 ADD SWAP1 POP SWAP2 SWAP1 POP JUMP JUMPDEST PUSH1 0x0 PUSH1 0x20 DUP3 ADD SWAP1 POP DUP2 DUP2 SUB PUSH1 0x0 DUP4 ADD MSTORE PUSH2 0x28CD DUP2 PUSH2 0x2891 JUMP JUMPDEST SWAP1 POP SWAP2 SWAP1 POP JUMP JUMPDEST PUSH32 0x4E6F2066756E647320617661696C61626C650000000000000000000000000000 PUSH1 0x0 DUP3 ADD MSTORE POP JUMP JUMPDEST PUSH1 0x0 PUSH2 0x290A PUSH1 0x12 DUP4 PUSH2 0x1BFD JUMP JUMPDEST SWAP2 POP PUSH2 0x2915 DUP3 PUSH2 0x28D4 JUMP JUMPDEST PUSH1 0x20 DUP3 ADD SWAP1 POP SWAP2 SWAP1 POP JUMP JUMPDEST PUSH1 0x0 PUSH1 0x20 DUP3 ADD SWAP1 POP DUP2 DUP2 SUB PUSH1 0x0 DUP4 ADD MSTORE PUSH2 0x2939 DUP2 PUSH2 0x28FD JUMP JUMPDEST SWAP1 POP SWAP2 SWAP1 POP JUMP JUMPDEST PUSH1 0x0 PUSH2 0x294B DUP3 PUSH2 0x17A6 JUMP JUMPDEST SWAP2 POP PUSH2 0x2956 DUP4 PUSH2 0x17A6 JUMP JUMPDEST SWAP3 POP DUP3 DUP3 SUB SWAP1 POP DUP2 DUP2 GT ISZERO PUSH2 0x296E JUMPI PUSH2 0x296D PUSH2 0x1AF4 JUMP JUMPDEST JUMPDEST SWAP3 SWAP2 POP POP JUMP JUMPDEST PUSH1 0x0 PUSH2 0x297F DUP3 PUSH2 0x17A6 JUMP JUMPDEST SWAP2 POP PUSH32 0xFFFFFFFFFFFFFFFFFFFFFFFFFFFFFFFFFFFFFFFFFFFFFFFFFFFFFFFFFFFFFFFF DUP3 SUB PUSH2 0x29B1 JUMPI PUSH2 0x29B0 PUSH2 0x1AF4 JUMP JUMPDEST JUMPDEST PUSH1 0x1 DUP3 ADD SWAP1 POP SWAP2 SWAP1 POP JUMP INVALID LOG2 PUSH5 0x6970667358 0x22 SLT KECCAK256 SUB PUSH7 0x616C2163AEDEC8 0x4F DUP16 SLOAD 0xAD MSIZE 0xED 0xD7 DUP10 0xE0 0xB9 0xD0 SLT DUP7 SLOAD 0xAA 0xBD OR SHR 0xCD 0xE9 0x2B SIGNEXTEND PUSH22 0x64736F6C634300081400330000000000000000000000 "},"methodIdentifiers":{"addBeneficiary(address,uint256)":"96074e70","beneficiaries(address)":"01567739","beneficiaryList(uint256)":"9e761bbb","computePoseidonHash(uint256,uint256)":"52b7bc4c","depositFunds()":"e2c41dbc","getLastActive()":"fa492ca9","getOwnerAddress()":"0c4f65bd","heartbeat()":"3defb962","inactivityPeriod()":"d362bd2b","initialize(uint32)":"8d8965bd","owner()":"8da5cb5b","triggerSwitch()":"f312186a","triggerWithProof(uint256[2],uint256[2][2],uint256[2],uint256[3])":"f169c0f5","verifier()":"2b7ac3f3","verifyInactivity()":"3626157c"}}}}}