{"contracts/yaar.sol":{"PrivateSmartContract":{"abi":[{"inputs":[{"internalType":"address","name":"_verifierAddress","type":"address"}],"stateMutability":"nonpayable","type":"constructor"},{"anonymous":false,"inputs":[{"indexed":true,"internalType":"address","name":"beneficiary","type":"address"},{"indexed":false,"internalType":"uint256","name":"amount","type":"uint256"}],"name":"BeneficiaryAdded","type":"event"},{"anonymous":false,"inputs":[{"indexed":true,"internalType":"address","name":"owner","type":"address"},{"indexed":false,"internalType":"uint32","name":"inactivityPeriod","type":"uint32"}],"name":"ContractDeployed","type":"event"},{"anonymous":false,"inputs":[{"indexed":true,"internalType":"address","name":"sender","type":"address"},{"indexed":false,"internalType":"uint256","name":"amount","type":"uint256"}],"name":"FundsDeposited","type":"event"},{"anonymous":false,"inputs":[{"indexed":true,"internalType":"address","name":"beneficiary","type":"address"},{"indexed":false,"internalType":"uint256","name":"amount","type":"uint256"}],"name":"FundsReleased","type":"event"},{"anonymous":false,"inputs":[{"indexed":false,"internalType":"uint256","name":"hashValue","type":"uint256"}],"name":"HashComputed","type":"event"},{"anonymous":false,"inputs":[{"indexed":true,"internalType":"address","name":"owner","type":"address"}],"name":"HeartbeatReceived","type":"event"},{"anonymous":false,"inputs":[{"indexed":false,"internalType":"bool","name":"valid","type":"bool"}],"name":"InactivityVerified","type":"event"},{"anonymous":false,"inputs":[{"indexed":false,"internalType":"bool","name":"valid","type":"bool"}],"name":"ProofVerified","type":"event"},{"inputs":[{"internalType":"address","name":"_beneficiary","type":"address"},{"internalType":"uint256","name":"_amount","type":"uint256"}],"name":"addBeneficiary","outputs":[],"stateMutability":"nonpayable","type":"function"},{"inputs":[{"internalType":"uint256","name":"","type":"uint256"}],"name":"beneficiaryList","outputs":[{"internalType":"address","name":"","type":"address"}],"stateMutability":"view","type":"function"},{"inputs":[{"internalType":"uint256","name":"lastActive","type":"uint256"},{"internalType":"uint256","name":"ownerAsUint","type":"uint256"}],"name":"computePoseidonHash","outputs":[{"internalType":"uint256","name":"","type":"uint256"}],"stateMutability":"pure","type":"function"},{"inputs":[],"name":"depositFunds","outputs":[],"stateMutability":"payable","type":"function"},{"inputs":[{"internalType":"address","name":"_beneficiary","type":"address"}],"name":"getBeneficiaryAmount","outputs":[{"internalType":"uint256","name":"","type":"uint256"}],"stateMutability":"view","type":"function"},{"inputs":[],"name":"getLastActive","outputs":[{"internalType":"uint32","name":"","type":"uint32"}],"stateMutability":"view","type":"function"},{"inputs":[],"name":"getOwnerAddress","outputs":[{"internalType":"address","name":"","type":"address"}],"stateMutability":"view","type":"function"},{"inputs":[],"name":"heartbeat","outputs":[],"stateMutability":"nonpayable","type":"function"},{"inputs":[{"internalType":"uint256[2]","name":"a","type":"uint256[2]"},{"internalType":"uint256[2][2]","name":"b","type":"uint256[2][2]"},{"internalType":"uint256[2]","name":"c","type":"uint256[2]"},{"internalType":"uint256[2]","name":"input","type":"uint256[2]"}],"name":"heartbeatWithProof","outputs":[],"stateMutability":"nonpayable","type":"function"},{"inputs":[],"name":"inactivityPeriod","outputs":[{"internalType":"uint32","name":"","type":"uint32"}],"stateMutability":"view","type":"function"},{"inputs":[{"internalType":"uint32","name":"_inactivityPeriod","type":"uint32"}],"name":"initialize","outputs":[],"stateMutability":"nonpayable","type":"function"},{"inputs":[],"name":"owner","outputs":[{"internalType":"address","name":"","type":"address"}],"stateMutability":"view","type":"function"},{"inputs":[{"internalType":"address","name":"_groth16VerifierAddress","type":"address"}],"name":"setGroth16Verifier","outputs":[],"stateMutability":"nonpayable","type":"function"},{"inputs":[],"name":"triggerSwitch","outputs":[],"stateMutability":"nonpayable","type":"function"},{"inputs":[{"internalType":"uint256[2]","name":"a","type":"uint256[2]"},{"internalType":"uint256[2][2]","name":"b","type":"uint256[2][2]"},{"internalType":"uint256[2]","name":"c","type":"uint256[2]"},{"internalType":"uint256[3]","name":"input","type":"uint256[3]"}],"name":"triggerWithProof","outputs":[],"stateMutability":"nonpayable","type":"function"},{"inputs":[],"name":"verifier","outputs":[{"internalType":"contract Verifier","name":"","type":"address"}],"stateMutability":"view","type":"function"},{"inputs":[],"name":"verifier2","outputs":[{"internalType":"contract Groth16Verifier","name":"","type":"address"}],"stateMutability":"view","type":"function"},{"inputs":[],"name":"verifyInactivity","outputs":[{"internalType":"bool","name":"","type":"bool"}],"stateMutability":"view","type":"function"}],"evm":{"bytecode":{"linkReferences":{},"object":"60806040523480156200001157600080fd5b50604051620038f3380380620038f38339818101604052810190620000379190620000e8565b806000806101000a81548173ffffffffffffffffffffffffffffffffffffffff021916908373ffffffffffffffffffffffffffffffffffffffff160217905550506200011a565b600080fd5b600073ffffffffffffffffffffffffffffffffffffffff82169050919050565b6000620000b08262000083565b9050919050565b620000c281620000a3565b8114620000ce57600080fd5b50565b600081519050620000e281620000b7565b92915050565b6000602082840312156200010157620001006200007e565b5b60006200011184828501620000d1565b91505092915050565b6137c9806200012a6000396000f3fe6080604052600436106101095760003560e01c80638da5cb5b11610095578063d362bd2b11610064578063d362bd2b14610357578063e2c41dbc14610382578063f169c0f51461038c578063f312186a146103b5578063fa492ca9146103cc57610109565b80638da5cb5b146102895780639054fddb146102b457806396074e70146102f15780639e761bbb1461031a57610109565b80633b6f865e116100dc5780633b6f865e146101b85780633defb962146101e1578063522d0d70146101f857806352b7bc4c146102235780638d8965bd1461026057610109565b80630c4f65bd1461010e5780632b7ac3f3146101395780633626157c14610164578063399f6e241461018f575b600080fd5b34801561011a57600080fd5b506101236103f7565b60405161013091906120c1565b60405180910390f35b34801561014557600080fd5b5061014e610421565b60405161015b919061213b565b60405180910390f35b34801561017057600080fd5b50610179610445565b6040516101869190612171565b60405180910390f35b34801561019b57600080fd5b506101b660048036038101906101b191906121bd565b61057c565b005b3480156101c457600080fd5b506101df60048036038101906101da9190612233565b610650565b005b3480156101ed57600080fd5b506101f6610aef565b005b34801561020457600080fd5b5061020d610c65565b60405161021a91906122bd565b60405180910390f35b34801561022f57600080fd5b5061024a6004803603810190610245919061230e565b610c8b565b604051610257919061235d565b60405180910390f35b34801561026c57600080fd5b50610287600480360381019061028291906123b4565b610cec565b005b34801561029557600080fd5b5061029e610f49565b6040516102ab91906120c1565b60405180910390f35b3480156102c057600080fd5b506102db60048036038101906102d691906121bd565b610f6f565b6040516102e8919061235d565b60405180910390f35b3480156102fd57600080fd5b50610318600480360381019061031391906123e1565b6111bb565b005b34801561032657600080fd5b50610341600480360381019061033c9190612421565b6114ca565b60405161034e91906120c1565b60405180910390f35b34801561036357600080fd5b5061036c611509565b604051610379919061245d565b60405180910390f35b61038a61151f565b005b34801561039857600080fd5b506103b360048036038101906103ae919061249a565b611642565b005b3480156103c157600080fd5b506103ca611a02565b005b3480156103d857600080fd5b506103e1611a8b565b6040516103ee919061245d565b60405180910390f35b6000600260009054906101000a900473ffffffffffffffffffffffffffffffffffffffff16905090565b60008054906101000a900473ffffffffffffffffffffffffffffffffffffffff1681565b6000804290506000600260159054906101000a900463ffffffff168261046b9190612532565b9050600061054a6004546005546003805461048590612599565b80601f01602080910402602001604051908101604052809291908181526020018280546104b190612599565b80156104fe5780601f106104d3576101008083540402835291602001916104fe565b820191906000526020600020905b8154815290600101906020018083116104e157829003601f168201915b5050505050600260009054906101000a900473ffffffffffffffffffffffffffffffffffffffff1660405160200161053691906120c1565b604051602081830303815290604052611b85565b905060008180602001905181019061056291906125df565b90508263ffffffff168163ffffffff161094505050505090565b600260009054906101000a900473ffffffffffffffffffffffffffffffffffffffff1673ffffffffffffffffffffffffffffffffffffffff163373ffffffffffffffffffffffffffffffffffffffff161461060c576040517f08c379a000000000000000000000000000000000000000000000000000000000815260040161060390612669565b60405180910390fd5b80600160006101000a81548173ffffffffffffffffffffffffffffffffffffffff021916908373ffffffffffffffffffffffffffffffffffffffff16021790555050565b600260009054906101000a900473ffffffffffffffffffffffffffffffffffffffff1673ffffffffffffffffffffffffffffffffffffffff163373ffffffffffffffffffffffffffffffffffffffff16146106e0576040517f08c379a00000000000000000000000000000000000000000000000000000000081526004016106d790612669565b60405180910390fd5b6000816001600281106106f6576106f5612689565b5b6020020135905060008060009054906101000a900473ffffffffffffffffffffffffffffffffffffffff1673ffffffffffffffffffffffffffffffffffffffff1663f5c9d69e60405180604001604052808960006002811061075b5761075a612689565b5b602002013581526020018960016002811061077957610778612689565b5b6020020135815250604051806040016040528060405180604001604052808b6000600281106107ab576107aa612689565b5b604002016000600281106107c2576107c1612689565b5b602002013581526020018b6000600281106107e0576107df612689565b5b604002016001600281106107f7576107f6612689565b5b6020020135815250815260200160405180604001604052808b60016002811061082357610822612689565b5b6040020160006002811061083a57610839612689565b5b602002013581526020018b60016002811061085857610857612689565b5b6040020160016002811061086f5761086e612689565b5b602002013581525081525060405180604001604052808960006002811061089957610898612689565b5b60200201358152602001896001600281106108b7576108b6612689565b5b6020020135815250876040518563ffffffff1660e01b81526004016108df949392919061287a565b602060405180830381865afa1580156108fc573d6000803e3d6000fd5b505050506040513d601f19601f8201168201806040525081019061092091906128ed565b905080610962576040517f08c379a000000000000000000000000000000000000000000000000000000000815260040161095990612966565b60405180910390fd5b7ff4d358772b552280f9395158c37bc77ddcbcdeaf62b20aa01276fb89d7ea192360016040516109929190612171565b60405180910390a161012c426109a89190612986565b82101580156109c4575061012c426109c091906129ba565b8211155b610a03576040517f08c379a00000000000000000000000000000000000000000000000000000000081526004016109fa90612a3a565b60405180910390fd5b610a7360045460055442604051602001610a1d919061245d565b604051602081830303815290604052600260009054906101000a900473ffffffffffffffffffffffffffffffffffffffff16604051602001610a5f91906120c1565b604051602081830303815290604052611c7a565b60039081610a819190612c36565b50600260009054906101000a900473ffffffffffffffffffffffffffffffffffffffff1673ffffffffffffffffffffffffffffffffffffffff167f59db9904863f5c0703e74a4df99bfbad4374b3edb69328a2f7bc4df34851109760405160405180910390a2505050505050565b600260009054906101000a900473ffffffffffffffffffffffffffffffffffffffff1673ffffffffffffffffffffffffffffffffffffffff163373ffffffffffffffffffffffffffffffffffffffff1614610b7f576040517f08c379a0000000000000000000000000000000000000000000000000000000008152600401610b7690612669565b60405180910390fd5b610bef60045460055442604051602001610b99919061245d565b604051602081830303815290604052600260009054906101000a900473ffffffffffffffffffffffffffffffffffffffff16604051602001610bdb91906120c1565b604051602081830303815290604052611c7a565b60039081610bfd9190612c36565b50600260009054906101000a900473ffffffffffffffffffffffffffffffffffffffff1673ffffffffffffffffffffffffffffffffffffffff167f59db9904863f5c0703e74a4df99bfbad4374b3edb69328a2f7bc4df34851109760405160405180910390a2565b600160009054906101000a900473ffffffffffffffffffffffffffffffffffffffff1681565b60007f30644e72e131a029b85045b68181585d2833e84879b9709143e1f593f00000018383604051602001610cc1929190612d29565b6040516020818303038152906040528051906020012060001c610ce49190612d84565b905092915050565b600260149054906101000a900460ff1615610d3c576040517f08c379a0000000000000000000000000000000000000000000000000000000008152600401610d3390612e01565b60405180910390fd5b33600260006101000a81548173ffffffffffffffffffffffffffffffffffffffff021916908373ffffffffffffffffffffffffffffffffffffffff16021790555080600260156101000a81548163ffffffff021916908363ffffffff160217905550610dde60206040518060400160405280600d81526020017f656e6372797074696f6e4b657900000000000000000000000000000000000000815250611d6f565b610de790612e50565b600481905550610e2d60206040518060400160405280600581526020017f6e6f6e6365000000000000000000000000000000000000000000000000000000815250611d6f565b610e3690612e50565b600581905550610eac60045460055442604051602001610e56919061245d565b604051602081830303815290604052600260009054906101000a900473ffffffffffffffffffffffffffffffffffffffff16604051602001610e9891906120c1565b604051602081830303815290604052611c7a565b60039081610eba9190612c36565b506001600260146101000a81548160ff021916908315150217905550600260009054906101000a900473ffffffffffffffffffffffffffffffffffffffff1673ffffffffffffffffffffffffffffffffffffffff167f620dca0c9d04f7cea9d7f31e571d74acccd54c21dc8ff8855ec1d5a21733c26b82604051610f3e919061245d565b60405180910390a250565b600260009054906101000a900473ffffffffffffffffffffffffffffffffffffffff1681565b6000600260009054906101000a900473ffffffffffffffffffffffffffffffffffffffff1673ffffffffffffffffffffffffffffffffffffffff163373ffffffffffffffffffffffffffffffffffffffff161480610ff857508173ffffffffffffffffffffffffffffffffffffffff163373ffffffffffffffffffffffffffffffffffffffff16145b611037576040517f08c379a000000000000000000000000000000000000000000000000000000000815260040161102e90612f03565b60405180910390fd5b6000600660008473ffffffffffffffffffffffffffffffffffffffff1673ffffffffffffffffffffffffffffffffffffffff168152602001908152602001600020805461108390612599565b80601f01602080910402602001604051908101604052809291908181526020018280546110af90612599565b80156110fc5780601f106110d1576101008083540402835291602001916110fc565b820191906000526020600020905b8154815290600101906020018083116110df57829003601f168201915b505050505090506000815111611147576040517f08c379a000000000000000000000000000000000000000000000000000000000815260040161113e90612f6f565b60405180910390fd5b600061119c60045460055484600260009054906101000a900473ffffffffffffffffffffffffffffffffffffffff1688604051602001611188929190612f8f565b604051602081830303815290604052611b85565b9050808060200190518101906111b29190612fcd565b92505050919050565b600260009054906101000a900473ffffffffffffffffffffffffffffffffffffffff1673ffffffffffffffffffffffffffffffffffffffff163373ffffffffffffffffffffffffffffffffffffffff161461124b576040517f08c379a000000000000000000000000000000000000000000000000000000000815260040161124290612669565b60405180910390fd5b600073ffffffffffffffffffffffffffffffffffffffff168273ffffffffffffffffffffffffffffffffffffffff16036112ba576040517f08c379a00000000000000000000000000000000000000000000000000000000081526004016112b190613046565b60405180910390fd5b600081116112fd576040517f08c379a00000000000000000000000000000000000000000000000000000000081526004016112f4906130b2565b60405180910390fd5b6000600660008473ffffffffffffffffffffffffffffffffffffffff1673ffffffffffffffffffffffffffffffffffffffff168152602001908152602001600020805461134990612599565b9050036113b4576007829080600181540180825580915050600190039060005260206000200160009091909190916101000a81548173ffffffffffffffffffffffffffffffffffffffff021916908373ffffffffffffffffffffffffffffffffffffffff1602179055505b6000611428600454600554846040516020016113d0919061235d565b604051602081830303815290604052600260009054906101000a900473ffffffffffffffffffffffffffffffffffffffff1687604051602001611414929190612f8f565b604051602081830303815290604052611c7a565b905080600660008573ffffffffffffffffffffffffffffffffffffffff1673ffffffffffffffffffffffffffffffffffffffff16815260200190815260200160002090816114769190612c36565b508273ffffffffffffffffffffffffffffffffffffffff167fe6b83177f11971ba30369bb38b914ffba97d5969a3c857b286fa8fdbb150b3ba836040516114bd919061235d565b60405180910390a2505050565b600781815481106114da57600080fd5b906000526020600020016000915054906101000a900473ffffffffffffffffffffffffffffffffffffffff1681565b600260159054906101000a900463ffffffff1681565b600260009054906101000a900473ffffffffffffffffffffffffffffffffffffffff1673ffffffffffffffffffffffffffffffffffffffff163373ffffffffffffffffffffffffffffffffffffffff16146115af576040517f08c379a00000000000000000000000000000000000000000000000000000000081526004016115a690612669565b60405180910390fd5b600034116115f2576040517f08c379a00000000000000000000000000000000000000000000000000000000081526004016115e99061311e565b60405180910390fd5b3373ffffffffffffffffffffffffffffffffffffffff167f543ba50a5eec5e6178218e364b1d0f396157b3c8fa278522c2cb7fd99407d47434604051611638919061235d565b60405180910390a2565b600061171f6004546005546003805461165a90612599565b80601f016020809104026020016040519081016040528092919081815260200182805461168690612599565b80156116d35780601f106116a8576101008083540402835291602001916116d3565b820191906000526020600020905b8154815290600101906020018083116116b657829003601f168201915b5050505050600260009054906101000a900473ffffffffffffffffffffffffffffffffffffffff1660405160200161170b91906120c1565b604051602081830303815290604052611b85565b905060008180602001905181019061173791906125df565b90507fb62fa8c43c0f241f4a7b7bf2293ce4714ae0fc84f9584334751599bd528c2a138360006003811061176e5761176d612689565b5b6020020135604051611780919061235d565b60405180910390a1600260159054906101000a900463ffffffff1663ffffffff16836001600381106117b5576117b4612689565b5b6020020135146117fa576040517f08c379a00000000000000000000000000000000000000000000000000000000081526004016117f19061318a565b60405180910390fd5b6000600160009054906101000a900473ffffffffffffffffffffffffffffffffffffffff1673ffffffffffffffffffffffffffffffffffffffff166311479fea888888886040518563ffffffff1660e01b815260040161185d949392919061326e565b602060405180830381865afa15801561187a573d6000803e3d6000fd5b505050506040513d601f19601f8201168201806040525081019061189e91906128ed565b9050806118e0576040517f08c379a00000000000000000000000000000000000000000000000000000000081526004016118d790612966565b60405180910390fd5b7ff4d358772b552280f9395158c37bc77ddcbcdeaf62b20aa01276fb89d7ea192360016040516119109190612171565b60405180910390a1428460026003811061192d5761192c612689565b5b60200201351115611973576040517f08c379a000000000000000000000000000000000000000000000000000000000815260040161196a90613301565b60405180910390fd5b600260159054906101000a900463ffffffff16826119919190613321565b63ffffffff16846002600381106119ab576119aa612689565b5b602002013510156119f1576040517f08c379a00000000000000000000000000000000000000000000000000000000081526004016119e8906133a5565b60405180910390fd5b6119f9611e5e565b50505050505050565b611a0a610445565b611a49576040517f08c379a0000000000000000000000000000000000000000000000000000000008152600401611a4090613411565b60405180910390fd5b7f76729d52b3ec041633e327fe49b91b757319a9cb241b0f6ce433ff396ee4dee66001604051611a799190612171565b60405180910390a1611a89611e5e565b565b600080611b6960045460055460038054611aa490612599565b80601f0160208091040260200160405190810160405280929190818152602001828054611ad090612599565b8015611b1d5780601f10611af257610100808354040283529160200191611b1d565b820191906000526020600020905b815481529060010190602001808311611b0057829003601f168201915b5050505050600260009054906101000a900473ffffffffffffffffffffffffffffffffffffffff16604051602001611b5591906120c1565b604051602081830303815290604052611b85565b905080806020019051810190611b7f91906125df565b91505090565b606060008073010000000000000000000000000000000000000473ffffffffffffffffffffffffffffffffffffffff1687878787604051602001611bcc94939291906134c5565b604051602081830303815290604052604051611be89190613554565b600060405180830381855afa9150503d8060008114611c23576040519150601f19603f3d011682016040523d82523d6000602084013e611c28565b606091505b509150915081611c6d576040517f08c379a0000000000000000000000000000000000000000000000000000000008152600401611c64906135b7565b60405180910390fd5b8092505050949350505050565b606060008073010000000000000000000000000000000000000373ffffffffffffffffffffffffffffffffffffffff1687878787604051602001611cc194939291906134c5565b604051602081830303815290604052604051611cdd9190613554565b600060405180830381855afa9150503d8060008114611d18576040519150601f19603f3d011682016040523d82523d6000602084013e611d1d565b606091505b509150915081611d62576040517f08c379a0000000000000000000000000000000000000000000000000000000008152600401611d5990613623565b60405180910390fd5b8092505050949350505050565b606060008073010000000000000000000000000000000000000173ffffffffffffffffffffffffffffffffffffffff168585604051602001611db2929190613643565b604051602081830303815290604052604051611dce9190613554565b600060405180830381855afa9150503d8060008114611e09576040519150601f19603f3d011682016040523d82523d6000602084013e611e0e565b606091505b509150915081611e53576040517f08c379a0000000000000000000000000000000000000000000000000000000008152600401611e4a906136bf565b60405180910390fd5b809250505092915050565b600047905060008111611ea6576040517f08c379a0000000000000000000000000000000000000000000000000000000008152600401611e9d9061372b565b60405180910390fd5b60005b60078054905081101561201f57600060078281548110611ecc57611ecb612689565b5b9060005260206000200160009054906101000a900473ffffffffffffffffffffffffffffffffffffffff1690506000611f0482610f6f565b9050600081118015611f165750808410155b1561200a578173ffffffffffffffffffffffffffffffffffffffff166108fc829081150290604051600060405180830381858888f19350505050158015611f61573d6000803e3d6000fd5b508173ffffffffffffffffffffffffffffffffffffffff167f221c08a06b07a64803b3787861a3f276212fcccb51c2e6234077a9b8cb13047a82604051611fa8919061235d565b60405180910390a28084611fbc9190612986565b9350600660008373ffffffffffffffffffffffffffffffffffffffff1673ffffffffffffffffffffffffffffffffffffffff16815260200190815260200160002060006120099190612023565b5b505080806120179061374b565b915050611ea9565b5050565b50805461202f90612599565b6000825580601f106120415750612060565b601f01602090049060005260206000209081019061205f9190612063565b5b50565b5b8082111561207c576000816000905550600101612064565b5090565b600073ffffffffffffffffffffffffffffffffffffffff82169050919050565b60006120ab82612080565b9050919050565b6120bb816120a0565b82525050565b60006020820190506120d660008301846120b2565b92915050565b6000819050919050565b60006121016120fc6120f784612080565b6120dc565b612080565b9050919050565b6000612113826120e6565b9050919050565b600061212582612108565b9050919050565b6121358161211a565b82525050565b6000602082019050612150600083018461212c565b92915050565b60008115159050919050565b61216b81612156565b82525050565b60006020820190506121866000830184612162565b92915050565b600080fd5b61219a816120a0565b81146121a557600080fd5b50565b6000813590506121b781612191565b92915050565b6000602082840312156121d3576121d261218c565b5b60006121e1848285016121a8565b91505092915050565b600080fd5b60008190508260206002028201111561220b5761220a6121ea565b5b92915050565b60008190508260406002028201111561222d5761222c6121ea565b5b92915050565b600080600080610140858703121561224e5761224d61218c565b5b600061225c878288016121ef565b945050604061226d87828801612211565b93505060c061227e878288016121ef565b925050610100612290878288016121ef565b91505092959194509250565b60006122a782612108565b9050919050565b6122b78161229c565b82525050565b60006020820190506122d260008301846122ae565b92915050565b6000819050919050565b6122eb816122d8565b81146122f657600080fd5b50565b600081359050612308816122e2565b92915050565b600080604083850312156123255761232461218c565b5b6000612333858286016122f9565b9250506020612344858286016122f9565b9150509250929050565b612357816122d8565b82525050565b6000602082019050612372600083018461234e565b92915050565b600063ffffffff82169050919050565b61239181612378565b811461239c57600080fd5b50565b6000813590506123ae81612388565b92915050565b6000602082840312156123ca576123c961218c565b5b60006123d88482850161239f565b91505092915050565b600080604083850312156123f8576123f761218c565b5b6000612406858286016121a8565b9250506020612417858286016122f9565b9150509250929050565b6000602082840312156124375761243661218c565b5b6000612445848285016122f9565b91505092915050565b61245781612378565b82525050565b6000602082019050612472600083018461244e565b92915050565b600081905082602060030282011115612494576124936121ea565b5b92915050565b60008060008061016085870312156124b5576124b461218c565b5b60006124c3878288016121ef565b94505060406124d487828801612211565b93505060c06124e5878288016121ef565b9250506101006124f787828801612478565b91505092959194509250565b7f4e487b7100000000000000000000000000000000000000000000000000000000600052601160045260246000fd5b600061253d82612378565b915061254883612378565b9250828203905063ffffffff81111561256457612563612503565b5b92915050565b7f4e487b7100000000000000000000000000000000000000000000000000000000600052602260045260246000fd5b600060028204905060018216806125b157607f821691505b6020821081036125c4576125c361256a565b5b50919050565b6000815190506125d981612388565b92915050565b6000602082840312156125f5576125f461218c565b5b6000612603848285016125ca565b91505092915050565b600082825260208201905092915050565b7f4e6f7420746865206f776e657200000000000000000000000000000000000000600082015250565b6000612653600d8361260c565b915061265e8261261d565b602082019050919050565b6000602082019050818103600083015261268281612646565b9050919050565b7f4e487b7100000000000000000000000000000000000000000000000000000000600052603260045260246000fd5b600060029050919050565b600081905092915050565b6000819050919050565b6126e1816122d8565b82525050565b60006126f383836126d8565b60208301905092915050565b6000602082019050919050565b612715816126b8565b61271f81846126c3565b925061272a826126ce565b8060005b8381101561275b57815161274287826126e7565b965061274d836126ff565b92505060018101905061272e565b505050505050565b600060029050919050565b600081905092915050565b6000819050919050565b600081905092915050565b612797816126b8565b6127a18184612783565b92506127ac826126ce565b8060005b838110156127dd5781516127c487826126e7565b96506127cf836126ff565b9250506001810190506127b0565b505050505050565b60006127f1838361278e565b60408301905092915050565b6000602082019050919050565b61281381612763565b61281d818461276e565b925061282882612779565b8060005b8381101561285957815161284087826127e5565b965061284b836127fd565b92505060018101905061282c565b505050505050565b82818337505050565b61287660408383612861565b5050565b600061014082019050612890600083018761270c565b61289d604083018661280a565b6128aa60c083018561270c565b6128b861010083018461286a565b95945050505050565b6128ca81612156565b81146128d557600080fd5b50565b6000815190506128e7816128c1565b92915050565b6000602082840312156129035761290261218c565b5b6000612911848285016128d8565b91505092915050565b7f496e76616c6964205a4b2070726f6f6600000000000000000000000000000000600082015250565b600061295060108361260c565b915061295b8261291a565b602082019050919050565b6000602082019050818103600083015261297f81612943565b9050919050565b6000612991826122d8565b915061299c836122d8565b92508282039050818111156129b4576129b3612503565b5b92915050565b60006129c5826122d8565b91506129d0836122d8565b92508282019050808211156129e8576129e7612503565b5b92915050565b7f54696d657374616d70206f7574206f662076616c69642072616e676500000000600082015250565b6000612a24601c8361260c565b9150612a2f826129ee565b602082019050919050565b60006020820190508181036000830152612a5381612a17565b9050919050565b600081519050919050565b7f4e487b7100000000000000000000000000000000000000000000000000000000600052604160045260246000fd5b60008190508160005260206000209050919050565b60006020601f8301049050919050565b600082821b905092915050565b600060088302612af67fffffffffffffffffffffffffffffffffffffffffffffffffffffffffffffffff82612ab9565b612b008683612ab9565b95508019841693508086168417925050509392505050565b6000612b33612b2e612b29846122d8565b6120dc565b6122d8565b9050919050565b6000819050919050565b612b4d83612b18565b612b61612b5982612b3a565b848454612ac6565b825550505050565b600090565b612b76612b69565b612b81818484612b44565b505050565b5b81811015612ba557612b9a600082612b6e565b600181019050612b87565b5050565b601f821115612bea57612bbb81612a94565b612bc484612aa9565b81016020851015612bd3578190505b612be7612bdf85612aa9565b830182612b86565b50505b505050565b600082821c905092915050565b6000612c0d60001984600802612bef565b1980831691505092915050565b6000612c268383612bfc565b9150826002028217905092915050565b612c3f82612a5a565b67ffffffffffffffff811115612c5857612c57612a65565b5b612c628254612599565b612c6d828285612ba9565b600060209050601f831160018114612ca05760008415612c8e578287015190505b612c988582612c1a565b865550612d00565b601f198416612cae86612a94565b60005b82811015612cd657848901518255600182019150602085019450602081019050612cb1565b86831015612cf35784890151612cef601f891682612bfc565b8355505b6001600288020188555050505b505050505050565b6000819050919050565b612d23612d1e826122d8565b612d08565b82525050565b6000612d358285612d12565b602082019150612d458284612d12565b6020820191508190509392505050565b7f4e487b7100000000000000000000000000000000000000000000000000000000600052601260045260246000fd5b6000612d8f826122d8565b9150612d9a836122d8565b925082612daa57612da9612d55565b5b828206905092915050565b7f416c726561647920696e697469616c697a656400000000000000000000000000600082015250565b6000612deb60138361260c565b9150612df682612db5565b602082019050919050565b60006020820190508181036000830152612e1a81612dde565b9050919050565b6000819050602082019050919050565b6000819050919050565b6000612e478251612e31565b80915050919050565b6000612e5b82612a5a565b82612e6584612e21565b9050612e7081612e3b565b92506020821015612eb057612eab7fffffffffffffffffffffffffffffffffffffffffffffffffffffffffffffffff83602003600802612ab9565b831692505b5050919050565b7f4e6f7420617574686f72697a6564000000000000000000000000000000000000600082015250565b6000612eed600e8361260c565b9150612ef882612eb7565b602082019050919050565b60006020820190508181036000830152612f1c81612ee0565b9050919050565b7f4e6f20656e74727920666f722074686973206164647265737300000000000000600082015250565b6000612f5960198361260c565b9150612f6482612f23565b602082019050919050565b60006020820190508181036000830152612f8881612f4c565b9050919050565b6000604082019050612fa460008301856120b2565b612fb160208301846120b2565b9392505050565b600081519050612fc7816122e2565b92915050565b600060208284031215612fe357612fe261218c565b5b6000612ff184828501612fb8565b91505092915050565b7f496e76616c696420616464726573730000000000000000000000000000000000600082015250565b6000613030600f8361260c565b915061303b82612ffa565b602082019050919050565b6000602082019050818103600083015261305f81613023565b9050919050565b7f416d6f756e74206d7573742062652067726561746572207468616e2030000000600082015250565b600061309c601d8361260c565b91506130a782613066565b602082019050919050565b600060208201905081810360008301526130cb8161308f565b9050919050565b7f4d7573742073656e6420524f5345000000000000000000000000000000000000600082015250565b6000613108600e8361260c565b9150613113826130d2565b602082019050919050565b60006020820190508181036000830152613137816130fb565b9050919050565b7f496e616374697669747920706572696f64206d69736d61746368000000000000600082015250565b6000613174601a8361260c565b915061317f8261313e565b602082019050919050565b600060208201905081810360008301526131a381613167565b9050919050565b600060029050919050565b6000819050919050565b6131cb60408383612861565b5050565b60006131db83836131bf565b60408301905092915050565b600082905092915050565b6000604082019050919050565b613208816131aa565b613212818461276e565b925061321d826131b5565b8060005b838110156132565761323382846131e7565b61323d87826131cf565b9650613248836131f2565b925050600181019050613221565b505050505050565b61326a60608383612861565b5050565b600061016082019050613284600083018761286a565b61329160408301866131ff565b61329e60c083018561286a565b6132ac61010083018461325e565b95945050505050565b7f4675747572652074696d657374616d7000000000000000000000000000000000600082015250565b60006132eb60108361260c565b91506132f6826132b5565b602082019050919050565b6000602082019050818103600083015261331a816132de565b9050919050565b600061332c82612378565b915061333783612378565b9250828201905063ffffffff81111561335357613352612503565b5b92915050565b7f496e616374697669747920706572696f64206e6f74206d657400000000000000600082015250565b600061338f60198361260c565b915061339a82613359565b602082019050919050565b600060208201905081810360008301526133be81613382565b9050919050565b7f4f776e6572206973207374696c6c206163746976650000000000000000000000600082015250565b60006133fb60158361260c565b9150613406826133c5565b602082019050919050565b6000602082019050818103600083015261342a816133ee565b9050919050565b61343a81612e31565b82525050565b600082825260208201905092915050565b60005b8381101561346f578082015181840152602081019050613454565b60008484015250505050565b6000601f19601f8301169050919050565b600061349782612a5a565b6134a18185613440565b93506134b1818560208601613451565b6134ba8161347b565b840191505092915050565b60006080820190506134da6000830187613431565b6134e76020830186613431565b81810360408301526134f9818561348c565b9050818103606083015261350d818461348c565b905095945050505050565b600081905092915050565b600061352e82612a5a565b6135388185613518565b9350613548818560208601613451565b80840191505092915050565b60006135608284613523565b915081905092915050565b7f646563727970743a206661696c65640000000000000000000000000000000000600082015250565b60006135a1600f8361260c565b91506135ac8261356b565b602082019050919050565b600060208201905081810360008301526135d081613594565b9050919050565b7f656e63727970743a206661696c65640000000000000000000000000000000000600082015250565b600061360d600f8361260c565b9150613618826135d7565b602082019050919050565b6000602082019050818103600083015261363c81613600565b9050919050565b6000604082019050613658600083018561234e565b818103602083015261366a818461348c565b90509392505050565b7f72616e646f6d42797465733a206661696c656400000000000000000000000000600082015250565b60006136a960138361260c565b91506136b482613673565b602082019050919050565b600060208201905081810360008301526136d88161369c565b9050919050565b7f4e6f2066756e647320617661696c61626c650000000000000000000000000000600082015250565b600061371560128361260c565b9150613720826136df565b602082019050919050565b6000602082019050818103600083015261374481613708565b9050919050565b6000613756826122d8565b91507fffffffffffffffffffffffffffffffffffffffffffffffffffffffffffffffff820361378857613787612503565b5b60018201905091905056fea2646970667358221220927fd7a9b0c163d4a0070cd9057688edd71192c5718119bf871453b30114297c64736f6c63430008140033","opcodes":"PUSH1 0x80 PUSH1 0x40 MSTORE CALLVALUE DUP1 ISZERO PUSH3 0x11 JUMPI PUSH1 0x0 DUP1 REVERT JUMPDEST POP PUSH1 0x40 MLOAD PUSH3 0x38F3 CODESIZE SUB DUP1 PUSH3 0x38F3 DUP4 CODECOPY DUP2 DUP2 ADD PUSH1 0x40 MSTORE DUP2 ADD SWAP1 PUSH3 0x37 SWAP2 SWAP1 PUSH3 0xE8 JUMP JUMPDEST DUP1 PUSH1 0x0 DUP1 PUSH2 0x100 EXP DUP2 SLOAD DUP2 PUSH20 0xFFFFFFFFFFFFFFFFFFFFFFFFFFFFFFFFFFFFFFFF MUL NOT AND SWAP1 DUP4 PUSH20 0xFFFFFFFFFFFFFFFFFFFFFFFFFFFFFFFFFFFFFFFF AND MUL OR SWAP1 SSTORE POP POP PUSH3 0x11A JUMP JUMPDEST PUSH1 0x0 DUP1 REVERT JUMPDEST PUSH1 0x0 PUSH20 0xFFFFFFFFFFFFFFFFFFFFFFFFFFFFFFFFFFFFFFFF DUP3 AND SWAP1 POP SWAP2 SWAP1 POP JUMP JUMPDEST PUSH1 0x0 PUSH3 0xB0 DUP3 PUSH3 0x83 JUMP JUMPDEST SWAP1 POP SWAP2 SWAP1 POP JUMP JUMPDEST PUSH3 0xC2 DUP2 PUSH3 0xA3 JUMP JUMPDEST DUP2 EQ PUSH3 0xCE JUMPI PUSH1 0x0 DUP1 REVERT JUMPDEST POP JUMP JUMPDEST PUSH1 0x0 DUP2 MLOAD SWAP1 POP PUSH3 0xE2 DUP2 PUSH3 0xB7 JUMP JUMPDEST SWAP3 SWAP2 POP POP JUMP JUMPDEST PUSH1 0x0 PUSH1 0x20 DUP3 DUP5 SUB SLT ISZERO PUSH3 0x101 JUMPI PUSH3 0x100 PUSH3 0x7E JUMP JUMPDEST JUMPDEST PUSH1 0x0 PUSH3 0x111 DUP5 DUP3 DUP6 ADD PUSH3 0xD1 JUMP JUMPDEST SWAP2 POP POP SWAP3 SWAP2 POP POP JUMP JUMPDEST PUSH2 0x37C9 DUP1 PUSH3 0x12A PUSH1 0x0 CODECOPY PUSH1 0x0 RETURN INVALID PUSH1 0x80 PUSH1 0x40 MSTORE PUSH1 0x4 CALLDATASIZE LT PUSH2 0x109 JUMPI PUSH1 0x0 CALLDATALOAD PUSH1 0xE0 SHR DUP1 PUSH4 0x8DA5CB5B GT PUSH2 0x95 JUMPI DUP1 PUSH4 0xD362BD2B GT PUSH2 0x64 JUMPI DUP1 PUSH4 0xD362BD2B EQ PUSH2 0x357 JUMPI DUP1 PUSH4 0xE2C41DBC EQ PUSH2 0x382 JUMPI DUP1 PUSH4 0xF169C0F5 EQ PUSH2 0x38C JUMPI DUP1 PUSH4 0xF312186A EQ PUSH2 0x3B5 JUMPI DUP1 PUSH4 0xFA492CA9 EQ PUSH2 0x3CC JUMPI PUSH2 0x109 JUMP JUMPDEST DUP1 PUSH4 0x8DA5CB5B EQ PUSH2 0x289 JUMPI DUP1 PUSH4 0x9054FDDB EQ PUSH2 0x2B4 JUMPI DUP1 PUSH4 0x96074E70 EQ PUSH2 0x2F1 JUMPI DUP1 PUSH4 0x9E761BBB EQ PUSH2 0x31A JUMPI PUSH2 0x109 JUMP JUMPDEST DUP1 PUSH4 0x3B6F865E GT PUSH2 0xDC JUMPI DUP1 PUSH4 0x3B6F865E EQ PUSH2 0x1B8 JUMPI DUP1 PUSH4 0x3DEFB962 EQ PUSH2 0x1E1 JUMPI DUP1 PUSH4 0x522D0D70 EQ PUSH2 0x1F8 JUMPI DUP1 PUSH4 0x52B7BC4C EQ PUSH2 0x223 JUMPI DUP1 PUSH4 0x8D8965BD EQ PUSH2 0x260 JUMPI PUSH2 0x109 JUMP JUMPDEST DUP1 PUSH4 0xC4F65BD EQ PUSH2 0x10E JUMPI DUP1 PUSH4 0x2B7AC3F3 EQ PUSH2 0x139 JUMPI DUP1 PUSH4 0x3626157C EQ PUSH2 0x164 JUMPI DUP1 PUSH4 0x399F6E24 EQ PUSH2 0x18F JUMPI JUMPDEST PUSH1 0x0 DUP1 REVERT JUMPDEST CALLVALUE DUP1 ISZERO PUSH2 0x11A JUMPI PUSH1 0x0 DUP1 REVERT JUMPDEST POP PUSH2 0x123 PUSH2 0x3F7 JUMP JUMPDEST PUSH1 0x40 MLOAD PUSH2 0x130 SWAP2 SWAP1 PUSH2 0x20C1 JUMP JUMPDEST PUSH1 0x40 MLOAD DUP1 SWAP2 SUB SWAP1 RETURN JUMPDEST CALLVALUE DUP1 ISZERO PUSH2 0x145 JUMPI PUSH1 0x0 DUP1 REVERT JUMPDEST POP PUSH2 0x14E PUSH2 0x421 JUMP JUMPDEST PUSH1 0x40 MLOAD PUSH2 0x15B SWAP2 SWAP1 PUSH2 0x213B JUMP JUMPDEST PUSH1 0x40 MLOAD DUP1 SWAP2 SUB SWAP1 RETURN JUMPDEST CALLVALUE DUP1 ISZERO PUSH2 0x170 JUMPI PUSH1 0x0 DUP1 REVERT JUMPDEST POP PUSH2 0x179 PUSH2 0x445 JUMP JUMPDEST PUSH1 0x40 MLOAD PUSH2 0x186 SWAP2 SWAP1 PUSH2 0x2171 JUMP JUMPDEST PUSH1 0x40 MLOAD DUP1 SWAP2 SUB SWAP1 RETURN JUMPDEST CALLVALUE DUP1 ISZERO PUSH2 0x19B JUMPI PUSH1 0x0 DUP1 REVERT JUMPDEST POP PUSH2 0x1B6 PUSH1 0x4 DUP1 CALLDATASIZE SUB DUP2 ADD SWAP1 PUSH2 0x1B1 SWAP2 SWAP1 PUSH2 0x21BD JUMP JUMPDEST PUSH2 0x57C JUMP JUMPDEST STOP JUMPDEST CALLVALUE DUP1 ISZERO PUSH2 0x1C4 JUMPI PUSH1 0x0 DUP1 REVERT JUMPDEST POP PUSH2 0x1DF PUSH1 0x4 DUP1 CALLDATASIZE SUB DUP2 ADD SWAP1 PUSH2 0x1DA SWAP2 SWAP1 PUSH2 0x2233 JUMP JUMPDEST PUSH2 0x650 JUMP JUMPDEST STOP JUMPDEST CALLVALUE DUP1 ISZERO PUSH2 0x1ED JUMPI PUSH1 0x0 DUP1 REVERT JUMPDEST POP PUSH2 0x1F6 PUSH2 0xAEF JUMP JUMPDEST STOP JUMPDEST CALLVALUE DUP1 ISZERO PUSH2 0x204 JUMPI PUSH1 0x0 DUP1 REVERT JUMPDEST POP PUSH2 0x20D PUSH2 0xC65 JUMP JUMPDEST PUSH1 0x40 MLOAD PUSH2 0x21A SWAP2 SWAP1 PUSH2 0x22BD JUMP JUMPDEST PUSH1 0x40 MLOAD DUP1 SWAP2 SUB SWAP1 RETURN JUMPDEST CALLVALUE DUP1 ISZERO PUSH2 0x22F JUMPI PUSH1 0x0 DUP1 REVERT JUMPDEST POP PUSH2 0x24A PUSH1 0x4 DUP1 CALLDATASIZE SUB DUP2 ADD SWAP1 PUSH2 0x245 SWAP2 SWAP1 PUSH2 0x230E JUMP JUMPDEST PUSH2 0xC8B JUMP JUMPDEST PUSH1 0x40 MLOAD PUSH2 0x257 SWAP2 SWAP1 PUSH2 0x235D JUMP JUMPDEST PUSH1 0x40 MLOAD DUP1 SWAP2 SUB SWAP1 RETURN JUMPDEST CALLVALUE DUP1 ISZERO PUSH2 0x26C JUMPI PUSH1 0x0 DUP1 REVERT JUMPDEST POP PUSH2 0x287 PUSH1 0x4 DUP1 CALLDATASIZE SUB DUP2 ADD SWAP1 PUSH2 0x282 SWAP2 SWAP1 PUSH2 0x23B4 JUMP JUMPDEST PUSH2 0xCEC JUMP JUMPDEST STOP JUMPDEST CALLVALUE DUP1 ISZERO PUSH2 0x295 JUMPI PUSH1 0x0 DUP1 REVERT JUMPDEST POP PUSH2 0x29E PUSH2 0xF49 JUMP JUMPDEST PUSH1 0x40 MLOAD PUSH2 0x2AB SWAP2 SWAP1 PUSH2 0x20C1 JUMP JUMPDEST PUSH1 0x40 MLOAD DUP1 SWAP2 SUB SWAP1 RETURN JUMPDEST CALLVALUE DUP1 ISZERO PUSH2 0x2C0 JUMPI PUSH1 0x0 DUP1 REVERT JUMPDEST POP PUSH2 0x2DB PUSH1 0x4 DUP1 CALLDATASIZE SUB DUP2 ADD SWAP1 PUSH2 0x2D6 SWAP2 SWAP1 PUSH2 0x21BD JUMP JUMPDEST PUSH2 0xF6F JUMP JUMPDEST PUSH1 0x40 MLOAD PUSH2 0x2E8 SWAP2 SWAP1 PUSH2 0x235D JUMP JUMPDEST PUSH1 0x40 MLOAD DUP1 SWAP2 SUB SWAP1 RETURN JUMPDEST CALLVALUE DUP1 ISZERO PUSH2 0x2FD JUMPI PUSH1 0x0 DUP1 REVERT JUMPDEST POP PUSH2 0x318 PUSH1 0x4 DUP1 CALLDATASIZE SUB DUP2 ADD SWAP1 PUSH2 0x313 SWAP2 SWAP1 PUSH2 0x23E1 JUMP JUMPDEST PUSH2 0x11BB JUMP JUMPDEST STOP JUMPDEST CALLVALUE DUP1 ISZERO PUSH2 0x326 JUMPI PUSH1 0x0 DUP1 REVERT JUMPDEST POP PUSH2 0x341 PUSH1 0x4 DUP1 CALLDATASIZE SUB DUP2 ADD SWAP1 PUSH2 0x33C SWAP2 SWAP1 PUSH2 0x2421 JUMP JUMPDEST PUSH2 0x14CA JUMP JUMPDEST PUSH1 0x40 MLOAD PUSH2 0x34E SWAP2 SWAP1 PUSH2 0x20C1 JUMP JUMPDEST PUSH1 0x40 MLOAD DUP1 SWAP2 SUB SWAP1 RETURN JUMPDEST CALLVALUE DUP1 ISZERO PUSH2 0x363 JUMPI PUSH1 0x0 DUP1 REVERT JUMPDEST POP PUSH2 0x36C PUSH2 0x1509 JUMP JUMPDEST PUSH1 0x40 MLOAD PUSH2 0x379 SWAP2 SWAP1 PUSH2 0x245D JUMP JUMPDEST PUSH1 0x40 MLOAD DUP1 SWAP2 SUB SWAP1 RETURN JUMPDEST PUSH2 0x38A PUSH2 0x151F JUMP JUMPDEST STOP JUMPDEST CALLVALUE DUP1 ISZERO PUSH2 0x398 JUMPI PUSH1 0x0 DUP1 REVERT JUMPDEST POP PUSH2 0x3B3 PUSH1 0x4 DUP1 CALLDATASIZE SUB DUP2 ADD SWAP1 PUSH2 0x3AE SWAP2 SWAP1 PUSH2 0x249A JUMP JUMPDEST PUSH2 0x1642 JUMP JUMPDEST STOP JUMPDEST CALLVALUE DUP1 ISZERO PUSH2 0x3C1 JUMPI PUSH1 0x0 DUP1 REVERT JUMPDEST POP PUSH2 0x3CA PUSH2 0x1A02 JUMP JUMPDEST STOP JUMPDEST CALLVALUE DUP1 ISZERO PUSH2 0x3D8 JUMPI PUSH1 0x0 DUP1 REVERT JUMPDEST POP PUSH2 0x3E1 PUSH2 0x1A8B JUMP JUMPDEST PUSH1 0x40 MLOAD PUSH2 0x3EE SWAP2 SWAP1 PUSH2 0x245D JUMP JUMPDEST PUSH1 0x40 MLOAD DUP1 SWAP2 SUB SWAP1 RETURN JUMPDEST PUSH1 0x0 PUSH1 0x2 PUSH1 0x0 SWAP1 SLOAD SWAP1 PUSH2 0x100 EXP SWAP1 DIV PUSH20 0xFFFFFFFFFFFFFFFFFFFFFFFFFFFFFFFFFFFFFFFF AND SWAP1 POP SWAP1 JUMP JUMPDEST PUSH1 0x0 DUP1 SLOAD SWAP1 PUSH2 0x100 EXP SWAP1 DIV PUSH20 0xFFFFFFFFFFFFFFFFFFFFFFFFFFFFFFFFFFFFFFFF AND DUP2 JUMP JUMPDEST PUSH1 0x0 DUP1 TIMESTAMP SWAP1 POP PUSH1 0x0 PUSH1 0x2 PUSH1 0x15 SWAP1 SLOAD SWAP1 PUSH2 0x100 EXP SWAP1 DIV PUSH4 0xFFFFFFFF AND DUP3 PUSH2 0x46B SWAP2 SWAP1 PUSH2 0x2532 JUMP JUMPDEST SWAP1 POP PUSH1 0x0 PUSH2 0x54A PUSH1 0x4 SLOAD PUSH1 0x5 SLOAD PUSH1 0x3 DUP1 SLOAD PUSH2 0x485 SWAP1 PUSH2 0x2599 JUMP JUMPDEST DUP1 PUSH1 0x1F ADD PUSH1 0x20 DUP1 SWAP2 DIV MUL PUSH1 0x20 ADD PUSH1 0x40 MLOAD SWAP1 DUP2 ADD PUSH1 0x40 MSTORE DUP1 SWAP3 SWAP2 SWAP1 DUP2 DUP2 MSTORE PUSH1 0x20 ADD DUP3 DUP1 SLOAD PUSH2 0x4B1 SWAP1 PUSH2 0x2599 JUMP JUMPDEST DUP1 ISZERO PUSH2 0x4FE JUMPI DUP1 PUSH1 0x1F LT PUSH2 0x4D3 JUMPI PUSH2 0x100 DUP1 DUP4 SLOAD DIV MUL DUP4 MSTORE SWAP2 PUSH1 0x20 ADD SWAP2 PUSH2 0x4FE JUMP JUMPDEST DUP3 ADD SWAP2 SWAP1 PUSH1 0x0 MSTORE PUSH1 0x20 PUSH1 0x0 KECCAK256 SWAP1 JUMPDEST DUP2 SLOAD DUP2 MSTORE SWAP1 PUSH1 0x1 ADD SWAP1 PUSH1 0x20 ADD DUP1 DUP4 GT PUSH2 0x4E1 JUMPI DUP3 SWAP1 SUB PUSH1 0x1F AND DUP3 ADD SWAP2 JUMPDEST POP POP POP POP POP PUSH1 0x2 PUSH1 0x0 SWAP1 SLOAD SWAP1 PUSH2 0x100 EXP SWAP1 DIV PUSH20 0xFFFFFFFFFFFFFFFFFFFFFFFFFFFFFFFFFFFFFFFF AND PUSH1 0x40 MLOAD PUSH1 0x20 ADD PUSH2 0x536 SWAP2 SWAP1 PUSH2 0x20C1 JUMP JUMPDEST PUSH1 0x40 MLOAD PUSH1 0x20 DUP2 DUP4 SUB SUB DUP2 MSTORE SWAP1 PUSH1 0x40 MSTORE PUSH2 0x1B85 JUMP JUMPDEST SWAP1 POP PUSH1 0x0 DUP2 DUP1 PUSH1 0x20 ADD SWAP1 MLOAD DUP2 ADD SWAP1 PUSH2 0x562 SWAP2 SWAP1 PUSH2 0x25DF JUMP JUMPDEST SWAP1 POP DUP3 PUSH4 0xFFFFFFFF AND DUP2 PUSH4 0xFFFFFFFF AND LT SWAP5 POP POP POP POP POP SWAP1 JUMP JUMPDEST PUSH1 0x2 PUSH1 0x0 SWAP1 SLOAD SWAP1 PUSH2 0x100 EXP SWAP1 DIV PUSH20 0xFFFFFFFFFFFFFFFFFFFFFFFFFFFFFFFFFFFFFFFF AND PUSH20 0xFFFFFFFFFFFFFFFFFFFFFFFFFFFFFFFFFFFFFFFF AND CALLER PUSH20 0xFFFFFFFFFFFFFFFFFFFFFFFFFFFFFFFFFFFFFFFF AND EQ PUSH2 0x60C JUMPI PUSH1 0x40 MLOAD PUSH32 0x8C379A000000000000000000000000000000000000000000000000000000000 DUP2 MSTORE PUSH1 0x4 ADD PUSH2 0x603 SWAP1 PUSH2 0x2669 JUMP JUMPDEST PUSH1 0x40 MLOAD DUP1 SWAP2 SUB SWAP1 REVERT JUMPDEST DUP1 PUSH1 0x1 PUSH1 0x0 PUSH2 0x100 EXP DUP2 SLOAD DUP2 PUSH20 0xFFFFFFFFFFFFFFFFFFFFFFFFFFFFFFFFFFFFFFFF MUL NOT AND SWAP1 DUP4 PUSH20 0xFFFFFFFFFFFFFFFFFFFFFFFFFFFFFFFFFFFFFFFF AND MUL OR SWAP1 SSTORE POP POP JUMP JUMPDEST PUSH1 0x2 PUSH1 0x0 SWAP1 SLOAD SWAP1 PUSH2 0x100 EXP SWAP1 DIV PUSH20 0xFFFFFFFFFFFFFFFFFFFFFFFFFFFFFFFFFFFFFFFF AND PUSH20 0xFFFFFFFFFFFFFFFFFFFFFFFFFFFFFFFFFFFFFFFF AND CALLER PUSH20 0xFFFFFFFFFFFFFFFFFFFFFFFFFFFFFFFFFFFFFFFF AND EQ PUSH2 0x6E0 JUMPI PUSH1 0x40 MLOAD PUSH32 0x8C379A000000000000000000000000000000000000000000000000000000000 DUP2 MSTORE PUSH1 0x4 ADD PUSH2 0x6D7 SWAP1 PUSH2 0x2669 JUMP JUMPDEST PUSH1 0x40 MLOAD DUP1 SWAP2 SUB SWAP1 REVERT JUMPDEST PUSH1 0x0 DUP2 PUSH1 0x1 PUSH1 0x2 DUP2 LT PUSH2 0x6F6 JUMPI PUSH2 0x6F5 PUSH2 0x2689 JUMP JUMPDEST JUMPDEST PUSH1 0x20 MUL ADD CALLDATALOAD SWAP1 POP PUSH1 0x0 DUP1 PUSH1 0x0 SWAP1 SLOAD SWAP1 PUSH2 0x100 EXP SWAP1 DIV PUSH20 0xFFFFFFFFFFFFFFFFFFFFFFFFFFFFFFFFFFFFFFFF AND PUSH20 0xFFFFFFFFFFFFFFFFFFFFFFFFFFFFFFFFFFFFFFFF AND PUSH4 0xF5C9D69E PUSH1 0x40 MLOAD DUP1 PUSH1 0x40 ADD PUSH1 0x40 MSTORE DUP1 DUP10 PUSH1 0x0 PUSH1 0x2 DUP2 LT PUSH2 0x75B JUMPI PUSH2 0x75A PUSH2 0x2689 JUMP JUMPDEST JUMPDEST PUSH1 0x20 MUL ADD CALLDATALOAD DUP2 MSTORE PUSH1 0x20 ADD DUP10 PUSH1 0x1 PUSH1 0x2 DUP2 LT PUSH2 0x779 JUMPI PUSH2 0x778 PUSH2 0x2689 JUMP JUMPDEST JUMPDEST PUSH1 0x20 MUL ADD CALLDATALOAD DUP2 MSTORE POP PUSH1 0x40 MLOAD DUP1 PUSH1 0x40 ADD PUSH1 0x40 MSTORE DUP1 PUSH1 0x40 MLOAD DUP1 PUSH1 0x40 ADD PUSH1 0x40 MSTORE DUP1 DUP12 PUSH1 0x0 PUSH1 0x2 DUP2 LT PUSH2 0x7AB JUMPI PUSH2 0x7AA PUSH2 0x2689 JUMP JUMPDEST JUMPDEST PUSH1 0x40 MUL ADD PUSH1 0x0 PUSH1 0x2 DUP2 LT PUSH2 0x7C2 JUMPI PUSH2 0x7C1 PUSH2 0x2689 JUMP JUMPDEST JUMPDEST PUSH1 0x20 MUL ADD CALLDATALOAD DUP2 MSTORE PUSH1 0x20 ADD DUP12 PUSH1 0x0 PUSH1 0x2 DUP2 LT PUSH2 0x7E0 JUMPI PUSH2 0x7DF PUSH2 0x2689 JUMP JUMPDEST JUMPDEST PUSH1 0x40 MUL ADD PUSH1 0x1 PUSH1 0x2 DUP2 LT PUSH2 0x7F7 JUMPI PUSH2 0x7F6 PUSH2 0x2689 JUMP JUMPDEST JUMPDEST PUSH1 0x20 MUL ADD CALLDATALOAD DUP2 MSTORE POP DUP2 MSTORE PUSH1 0x20 ADD PUSH1 0x40 MLOAD DUP1 PUSH1 0x40 ADD PUSH1 0x40 MSTORE DUP1 DUP12 PUSH1 0x1 PUSH1 0x2 DUP2 LT PUSH2 0x823 JUMPI PUSH2 0x822 PUSH2 0x2689 JUMP JUMPDEST JUMPDEST PUSH1 0x40 MUL ADD PUSH1 0x0 PUSH1 0x2 DUP2 LT PUSH2 0x83A JUMPI PUSH2 0x839 PUSH2 0x2689 JUMP JUMPDEST JUMPDEST PUSH1 0x20 MUL ADD CALLDATALOAD DUP2 MSTORE PUSH1 0x20 ADD DUP12 PUSH1 0x1 PUSH1 0x2 DUP2 LT PUSH2 0x858 JUMPI PUSH2 0x857 PUSH2 0x2689 JUMP JUMPDEST JUMPDEST PUSH1 0x40 MUL ADD PUSH1 0x1 PUSH1 0x2 DUP2 LT PUSH2 0x86F JUMPI PUSH2 0x86E PUSH2 0x2689 JUMP JUMPDEST JUMPDEST PUSH1 0x20 MUL ADD CALLDATALOAD DUP2 MSTORE POP DUP2 MSTORE POP PUSH1 0x40 MLOAD DUP1 PUSH1 0x40 ADD PUSH1 0x40 MSTORE DUP1 DUP10 PUSH1 0x0 PUSH1 0x2 DUP2 LT PUSH2 0x899 JUMPI PUSH2 0x898 PUSH2 0x2689 JUMP JUMPDEST JUMPDEST PUSH1 0x20 MUL ADD CALLDATALOAD DUP2 MSTORE PUSH1 0x20 ADD DUP10 PUSH1 0x1 PUSH1 0x2 DUP2 LT PUSH2 0x8B7 JUMPI PUSH2 0x8B6 PUSH2 0x2689 JUMP JUMPDEST JUMPDEST PUSH1 0x20 MUL ADD CALLDATALOAD DUP2 MSTORE POP DUP8 PUSH1 0x40 MLOAD DUP6 PUSH4 0xFFFFFFFF AND PUSH1 0xE0 SHL DUP2 MSTORE PUSH1 0x4 ADD PUSH2 0x8DF SWAP5 SWAP4 SWAP3 SWAP2 SWAP1 PUSH2 0x287A JUMP JUMPDEST PUSH1 0x20 PUSH1 0x40 MLOAD DUP1 DUP4 SUB DUP2 DUP7 GAS STATICCALL ISZERO DUP1 ISZERO PUSH2 0x8FC JUMPI RETURNDATASIZE PUSH1 0x0 DUP1 RETURNDATACOPY RETURNDATASIZE PUSH1 0x0 REVERT JUMPDEST POP POP POP POP PUSH1 0x40 MLOAD RETURNDATASIZE PUSH1 0x1F NOT PUSH1 0x1F DUP3 ADD AND DUP3 ADD DUP1 PUSH1 0x40 MSTORE POP DUP2 ADD SWAP1 PUSH2 0x920 SWAP2 SWAP1 PUSH2 0x28ED JUMP JUMPDEST SWAP1 POP DUP1 PUSH2 0x962 JUMPI PUSH1 0x40 MLOAD PUSH32 0x8C379A000000000000000000000000000000000000000000000000000000000 DUP2 MSTORE PUSH1 0x4 ADD PUSH2 0x959 SWAP1 PUSH2 0x2966 JUMP JUMPDEST PUSH1 0x40 MLOAD DUP1 SWAP2 SUB SWAP1 REVERT JUMPDEST PUSH32 0xF4D358772B552280F9395158C37BC77DDCBCDEAF62B20AA01276FB89D7EA1923 PUSH1 0x1 PUSH1 0x40 MLOAD PUSH2 0x992 SWAP2 SWAP1 PUSH2 0x2171 JUMP JUMPDEST PUSH1 0x40 MLOAD DUP1 SWAP2 SUB SWAP1 LOG1 PUSH2 0x12C TIMESTAMP PUSH2 0x9A8 SWAP2 SWAP1 PUSH2 0x2986 JUMP JUMPDEST DUP3 LT ISZERO DUP1 ISZERO PUSH2 0x9C4 JUMPI POP PUSH2 0x12C TIMESTAMP PUSH2 0x9C0 SWAP2 SWAP1 PUSH2 0x29BA JUMP JUMPDEST DUP3 GT ISZERO JUMPDEST PUSH2 0xA03 JUMPI PUSH1 0x40 MLOAD PUSH32 0x8C379A000000000000000000000000000000000000000000000000000000000 DUP2 MSTORE PUSH1 0x4 ADD PUSH2 0x9FA SWAP1 PUSH2 0x2A3A JUMP JUMPDEST PUSH1 0x40 MLOAD DUP1 SWAP2 SUB SWAP1 REVERT JUMPDEST PUSH2 0xA73 PUSH1 0x4 SLOAD PUSH1 0x5 SLOAD TIMESTAMP PUSH1 0x40 MLOAD PUSH1 0x20 ADD PUSH2 0xA1D SWAP2 SWAP1 PUSH2 0x245D JUMP JUMPDEST PUSH1 0x40 MLOAD PUSH1 0x20 DUP2 DUP4 SUB SUB DUP2 MSTORE SWAP1 PUSH1 0x40 MSTORE PUSH1 0x2 PUSH1 0x0 SWAP1 SLOAD SWAP1 PUSH2 0x100 EXP SWAP1 DIV PUSH20 0xFFFFFFFFFFFFFFFFFFFFFFFFFFFFFFFFFFFFFFFF AND PUSH1 0x40 MLOAD PUSH1 0x20 ADD PUSH2 0xA5F SWAP2 SWAP1 PUSH2 0x20C1 JUMP JUMPDEST PUSH1 0x40 MLOAD PUSH1 0x20 DUP2 DUP4 SUB SUB DUP2 MSTORE SWAP1 PUSH1 0x40 MSTORE PUSH2 0x1C7A JUMP JUMPDEST PUSH1 0x3 SWAP1 DUP2 PUSH2 0xA81 SWAP2 SWAP1 PUSH2 0x2C36 JUMP JUMPDEST POP PUSH1 0x2 PUSH1 0x0 SWAP1 SLOAD SWAP1 PUSH2 0x100 EXP SWAP1 DIV PUSH20 0xFFFFFFFFFFFFFFFFFFFFFFFFFFFFFFFFFFFFFFFF AND PUSH20 0xFFFFFFFFFFFFFFFFFFFFFFFFFFFFFFFFFFFFFFFF AND PUSH32 0x59DB9904863F5C0703E74A4DF99BFBAD4374B3EDB69328A2F7BC4DF348511097 PUSH1 0x40 MLOAD PUSH1 0x40 MLOAD DUP1 SWAP2 SUB SWAP1 LOG2 POP POP POP POP POP POP JUMP JUMPDEST PUSH1 0x2 PUSH1 0x0 SWAP1 SLOAD SWAP1 PUSH2 0x100 EXP SWAP1 DIV PUSH20 0xFFFFFFFFFFFFFFFFFFFFFFFFFFFFFFFFFFFFFFFF AND PUSH20 0xFFFFFFFFFFFFFFFFFFFFFFFFFFFFFFFFFFFFFFFF AND CALLER PUSH20 0xFFFFFFFFFFFFFFFFFFFFFFFFFFFFFFFFFFFFFFFF AND EQ PUSH2 0xB7F JUMPI PUSH1 0x40 MLOAD PUSH32 0x8C379A000000000000000000000000000000000000000000000000000000000 DUP2 MSTORE PUSH1 0x4 ADD PUSH2 0xB76 SWAP1 PUSH2 0x2669 JUMP JUMPDEST PUSH1 0x40 MLOAD DUP1 SWAP2 SUB SWAP1 REVERT JUMPDEST PUSH2 0xBEF PUSH1 0x4 SLOAD PUSH1 0x5 SLOAD TIMESTAMP PUSH1 0x40 MLOAD PUSH1 0x20 ADD PUSH2 0xB99 SWAP2 SWAP1 PUSH2 0x245D JUMP JUMPDEST PUSH1 0x40 MLOAD PUSH1 0x20 DUP2 DUP4 SUB SUB DUP2 MSTORE SWAP1 PUSH1 0x40 MSTORE PUSH1 0x2 PUSH1 0x0 SWAP1 SLOAD SWAP1 PUSH2 0x100 EXP SWAP1 DIV PUSH20 0xFFFFFFFFFFFFFFFFFFFFFFFFFFFFFFFFFFFFFFFF AND PUSH1 0x40 MLOAD PUSH1 0x20 ADD PUSH2 0xBDB SWAP2 SWAP1 PUSH2 0x20C1 JUMP JUMPDEST PUSH1 0x40 MLOAD PUSH1 0x20 DUP2 DUP4 SUB SUB DUP2 MSTORE SWAP1 PUSH1 0x40 MSTORE PUSH2 0x1C7A JUMP JUMPDEST PUSH1 0x3 SWAP1 DUP2 PUSH2 0xBFD SWAP2 SWAP1 PUSH2 0x2C36 JUMP JUMPDEST POP PUSH1 0x2 PUSH1 0x0 SWAP1 SLOAD SWAP1 PUSH2 0x100 EXP SWAP1 DIV PUSH20 0xFFFFFFFFFFFFFFFFFFFFFFFFFFFFFFFFFFFFFFFF AND PUSH20 0xFFFFFFFFFFFFFFFFFFFFFFFFFFFFFFFFFFFFFFFF AND PUSH32 0x59DB9904863F5C0703E74A4DF99BFBAD4374B3EDB69328A2F7BC4DF348511097 PUSH1 0x40 MLOAD PUSH1 0x40 MLOAD DUP1 SWAP2 SUB SWAP1 LOG2 JUMP JUMPDEST PUSH1 0x1 PUSH1 0x0 SWAP1 SLOAD SWAP1 PUSH2 0x100 EXP SWAP1 DIV PUSH20 0xFFFFFFFFFFFFFFFFFFFFFFFFFFFFFFFFFFFFFFFF AND DUP2 JUMP JUMPDEST PUSH1 0x0 PUSH32 0x30644E72E131A029B85045B68181585D2833E84879B9709143E1F593F0000001 DUP4 DUP4 PUSH1 0x40 MLOAD PUSH1 0x20 ADD PUSH2 0xCC1 SWAP3 SWAP2 SWAP1 PUSH2 0x2D29 JUMP JUMPDEST PUSH1 0x40 MLOAD PUSH1 0x20 DUP2 DUP4 SUB SUB DUP2 MSTORE SWAP1 PUSH1 0x40 MSTORE DUP1 MLOAD SWAP1 PUSH1 0x20 ADD KECCAK256 PUSH1 0x0 SHR PUSH2 0xCE4 SWAP2 SWAP1 PUSH2 0x2D84 JUMP JUMPDEST SWAP1 POP SWAP3 SWAP2 POP POP JUMP JUMPDEST PUSH1 0x2 PUSH1 0x14 SWAP1 SLOAD SWAP1 PUSH2 0x100 EXP SWAP1 DIV PUSH1 0xFF AND ISZERO PUSH2 0xD3C JUMPI PUSH1 0x40 MLOAD PUSH32 0x8C379A000000000000000000000000000000000000000000000000000000000 DUP2 MSTORE PUSH1 0x4 ADD PUSH2 0xD33 SWAP1 PUSH2 0x2E01 JUMP JUMPDEST PUSH1 0x40 MLOAD DUP1 SWAP2 SUB SWAP1 REVERT JUMPDEST CALLER PUSH1 0x2 PUSH1 0x0 PUSH2 0x100 EXP DUP2 SLOAD DUP2 PUSH20 0xFFFFFFFFFFFFFFFFFFFFFFFFFFFFFFFFFFFFFFFF MUL NOT AND SWAP1 DUP4 PUSH20 0xFFFFFFFFFFFFFFFFFFFFFFFFFFFFFFFFFFFFFFFF AND MUL OR SWAP1 SSTORE POP DUP1 PUSH1 0x2 PUSH1 0x15 PUSH2 0x100 EXP DUP2 SLOAD DUP2 PUSH4 0xFFFFFFFF MUL NOT AND SWAP1 DUP4 PUSH4 0xFFFFFFFF AND MUL OR SWAP1 SSTORE POP PUSH2 0xDDE PUSH1 0x20 PUSH1 0x40 MLOAD DUP1 PUSH1 0x40 ADD PUSH1 0x40 MSTORE DUP1 PUSH1 0xD DUP2 MSTORE PUSH1 0x20 ADD PUSH32 0x656E6372797074696F6E4B657900000000000000000000000000000000000000 DUP2 MSTORE POP PUSH2 0x1D6F JUMP JUMPDEST PUSH2 0xDE7 SWAP1 PUSH2 0x2E50 JUMP JUMPDEST PUSH1 0x4 DUP2 SWAP1 SSTORE POP PUSH2 0xE2D PUSH1 0x20 PUSH1 0x40 MLOAD DUP1 PUSH1 0x40 ADD PUSH1 0x40 MSTORE DUP1 PUSH1 0x5 DUP2 MSTORE PUSH1 0x20 ADD PUSH32 0x6E6F6E6365000000000000000000000000000000000000000000000000000000 DUP2 MSTORE POP PUSH2 0x1D6F JUMP JUMPDEST PUSH2 0xE36 SWAP1 PUSH2 0x2E50 JUMP JUMPDEST PUSH1 0x5 DUP2 SWAP1 SSTORE POP PUSH2 0xEAC PUSH1 0x4 SLOAD PUSH1 0x5 SLOAD TIMESTAMP PUSH1 0x40 MLOAD PUSH1 0x20 ADD PUSH2 0xE56 SWAP2 SWAP1 PUSH2 0x245D JUMP JUMPDEST PUSH1 0x40 MLOAD PUSH1 0x20 DUP2 DUP4 SUB SUB DUP2 MSTORE SWAP1 PUSH1 0x40 MSTORE PUSH1 0x2 PUSH1 0x0 SWAP1 SLOAD SWAP1 PUSH2 0x100 EXP SWAP1 DIV PUSH20 0xFFFFFFFFFFFFFFFFFFFFFFFFFFFFFFFFFFFFFFFF AND PUSH1 0x40 MLOAD PUSH1 0x20 ADD PUSH2 0xE98 SWAP2 SWAP1 PUSH2 0x20C1 JUMP JUMPDEST PUSH1 0x40 MLOAD PUSH1 0x20 DUP2 DUP4 SUB SUB DUP2 MSTORE SWAP1 PUSH1 0x40 MSTORE PUSH2 0x1C7A JUMP JUMPDEST PUSH1 0x3 SWAP1 DUP2 PUSH2 0xEBA SWAP2 SWAP1 PUSH2 0x2C36 JUMP JUMPDEST POP PUSH1 0x1 PUSH1 0x2 PUSH1 0x14 PUSH2 0x100 EXP DUP2 SLOAD DUP2 PUSH1 0xFF MUL NOT AND SWAP1 DUP4 ISZERO ISZERO MUL OR SWAP1 SSTORE POP PUSH1 0x2 PUSH1 0x0 SWAP1 SLOAD SWAP1 PUSH2 0x100 EXP SWAP1 DIV PUSH20 0xFFFFFFFFFFFFFFFFFFFFFFFFFFFFFFFFFFFFFFFF AND PUSH20 0xFFFFFFFFFFFFFFFFFFFFFFFFFFFFFFFFFFFFFFFF AND PUSH32 0x620DCA0C9D04F7CEA9D7F31E571D74ACCCD54C21DC8FF8855EC1D5A21733C26B DUP3 PUSH1 0x40 MLOAD PUSH2 0xF3E SWAP2 SWAP1 PUSH2 0x245D JUMP JUMPDEST PUSH1 0x40 MLOAD DUP1 SWAP2 SUB SWAP1 LOG2 POP JUMP JUMPDEST PUSH1 0x2 PUSH1 0x0 SWAP1 SLOAD SWAP1 PUSH2 0x100 EXP SWAP1 DIV PUSH20 0xFFFFFFFFFFFFFFFFFFFFFFFFFFFFFFFFFFFFFFFF AND DUP2 JUMP JUMPDEST PUSH1 0x0 PUSH1 0x2 PUSH1 0x0 SWAP1 SLOAD SWAP1 PUSH2 0x100 EXP SWAP1 DIV PUSH20 0xFFFFFFFFFFFFFFFFFFFFFFFFFFFFFFFFFFFFFFFF AND PUSH20 0xFFFFFFFFFFFFFFFFFFFFFFFFFFFFFFFFFFFFFFFF AND CALLER PUSH20 0xFFFFFFFFFFFFFFFFFFFFFFFFFFFFFFFFFFFFFFFF AND EQ DUP1 PUSH2 0xFF8 JUMPI POP DUP2 PUSH20 0xFFFFFFFFFFFFFFFFFFFFFFFFFFFFFFFFFFFFFFFF AND CALLER PUSH20 0xFFFFFFFFFFFFFFFFFFFFFFFFFFFFFFFFFFFFFFFF AND EQ JUMPDEST PUSH2 0x1037 JUMPI PUSH1 0x40 MLOAD PUSH32 0x8C379A000000000000000000000000000000000000000000000000000000000 DUP2 MSTORE PUSH1 0x4 ADD PUSH2 0x102E SWAP1 PUSH2 0x2F03 JUMP JUMPDEST PUSH1 0x40 MLOAD DUP1 SWAP2 SUB SWAP1 REVERT JUMPDEST PUSH1 0x0 PUSH1 0x6 PUSH1 0x0 DUP5 PUSH20 0xFFFFFFFFFFFFFFFFFFFFFFFFFFFFFFFFFFFFFFFF AND PUSH20 0xFFFFFFFFFFFFFFFFFFFFFFFFFFFFFFFFFFFFFFFF AND DUP2 MSTORE PUSH1 0x20 ADD SWAP1 DUP2 MSTORE PUSH1 0x20 ADD PUSH1 0x0 KECCAK256 DUP1 SLOAD PUSH2 0x1083 SWAP1 PUSH2 0x2599 JUMP JUMPDEST DUP1 PUSH1 0x1F ADD PUSH1 0x20 DUP1 SWAP2 DIV MUL PUSH1 0x20 ADD PUSH1 0x40 MLOAD SWAP1 DUP2 ADD PUSH1 0x40 MSTORE DUP1 SWAP3 SWAP2 SWAP1 DUP2 DUP2 MSTORE PUSH1 0x20 ADD DUP3 DUP1 SLOAD PUSH2 0x10AF SWAP1 PUSH2 0x2599 JUMP JUMPDEST DUP1 ISZERO PUSH2 0x10FC JUMPI DUP1 PUSH1 0x1F LT PUSH2 0x10D1 JUMPI PUSH2 0x100 DUP1 DUP4 SLOAD DIV MUL DUP4 MSTORE SWAP2 PUSH1 0x20 ADD SWAP2 PUSH2 0x10FC JUMP JUMPDEST DUP3 ADD SWAP2 SWAP1 PUSH1 0x0 MSTORE PUSH1 0x20 PUSH1 0x0 KECCAK256 SWAP1 JUMPDEST DUP2 SLOAD DUP2 MSTORE SWAP1 PUSH1 0x1 ADD SWAP1 PUSH1 0x20 ADD DUP1 DUP4 GT PUSH2 0x10DF JUMPI DUP3 SWAP1 SUB PUSH1 0x1F AND DUP3 ADD SWAP2 JUMPDEST POP POP POP POP POP SWAP1 POP PUSH1 0x0 DUP2 MLOAD GT PUSH2 0x1147 JUMPI PUSH1 0x40 MLOAD PUSH32 0x8C379A000000000000000000000000000000000000000000000000000000000 DUP2 MSTORE PUSH1 0x4 ADD PUSH2 0x113E SWAP1 PUSH2 0x2F6F JUMP JUMPDEST PUSH1 0x40 MLOAD DUP1 SWAP2 SUB SWAP1 REVERT JUMPDEST PUSH1 0x0 PUSH2 0x119C PUSH1 0x4 SLOAD PUSH1 0x5 SLOAD DUP5 PUSH1 0x2 PUSH1 0x0 SWAP1 SLOAD SWAP1 PUSH2 0x100 EXP SWAP1 DIV PUSH20 0xFFFFFFFFFFFFFFFFFFFFFFFFFFFFFFFFFFFFFFFF AND DUP9 PUSH1 0x40 MLOAD PUSH1 0x20 ADD PUSH2 0x1188 SWAP3 SWAP2 SWAP1 PUSH2 0x2F8F JUMP JUMPDEST PUSH1 0x40 MLOAD PUSH1 0x20 DUP2 DUP4 SUB SUB DUP2 MSTORE SWAP1 PUSH1 0x40 MSTORE PUSH2 0x1B85 JUMP JUMPDEST SWAP1 POP DUP1 DUP1 PUSH1 0x20 ADD SWAP1 MLOAD DUP2 ADD SWAP1 PUSH2 0x11B2 SWAP2 SWAP1 PUSH2 0x2FCD JUMP JUMPDEST SWAP3 POP POP POP SWAP2 SWAP1 POP JUMP JUMPDEST PUSH1 0x2 PUSH1 0x0 SWAP1 SLOAD SWAP1 PUSH2 0x100 EXP SWAP1 DIV PUSH20 0xFFFFFFFFFFFFFFFFFFFFFFFFFFFFFFFFFFFFFFFF AND PUSH20 0xFFFFFFFFFFFFFFFFFFFFFFFFFFFFFFFFFFFFFFFF AND CALLER PUSH20 0xFFFFFFFFFFFFFFFFFFFFFFFFFFFFFFFFFFFFFFFF AND EQ PUSH2 0x124B JUMPI PUSH1 0x40 MLOAD PUSH32 0x8C379A000000000000000000000000000000000000000000000000000000000 DUP2 MSTORE PUSH1 0x4 ADD PUSH2 0x1242 SWAP1 PUSH2 0x2669 JUMP JUMPDEST PUSH1 0x40 MLOAD DUP1 SWAP2 SUB SWAP1 REVERT JUMPDEST PUSH1 0x0 PUSH20 0xFFFFFFFFFFFFFFFFFFFFFFFFFFFFFFFFFFFFFFFF AND DUP3 PUSH20 0xFFFFFFFFFFFFFFFFFFFFFFFFFFFFFFFFFFFFFFFF AND SUB PUSH2 0x12BA JUMPI PUSH1 0x40 MLOAD PUSH32 0x8C379A000000000000000000000000000000000000000000000000000000000 DUP2 MSTORE PUSH1 0x4 ADD PUSH2 0x12B1 SWAP1 PUSH2 0x3046 JUMP JUMPDEST PUSH1 0x40 MLOAD DUP1 SWAP2 SUB SWAP1 REVERT JUMPDEST PUSH1 0x0 DUP2 GT PUSH2 0x12FD JUMPI PUSH1 0x40 MLOAD PUSH32 0x8C379A000000000000000000000000000000000000000000000000000000000 DUP2 MSTORE PUSH1 0x4 ADD PUSH2 0x12F4 SWAP1 PUSH2 0x30B2 JUMP JUMPDEST PUSH1 0x40 MLOAD DUP1 SWAP2 SUB SWAP1 REVERT JUMPDEST PUSH1 0x0 PUSH1 0x6 PUSH1 0x0 DUP5 PUSH20 0xFFFFFFFFFFFFFFFFFFFFFFFFFFFFFFFFFFFFFFFF AND PUSH20 0xFFFFFFFFFFFFFFFFFFFFFFFFFFFFFFFFFFFFFFFF AND DUP2 MSTORE PUSH1 0x20 ADD SWAP1 DUP2 MSTORE PUSH1 0x20 ADD PUSH1 0x0 KECCAK256 DUP1 SLOAD PUSH2 0x1349 SWAP1 PUSH2 0x2599 JUMP JUMPDEST SWAP1 POP SUB PUSH2 0x13B4 JUMPI PUSH1 0x7 DUP3 SWAP1 DUP1 PUSH1 0x1 DUP2 SLOAD ADD DUP1 DUP3 SSTORE DUP1 SWAP2 POP POP PUSH1 0x1 SWAP1 SUB SWAP1 PUSH1 0x0 MSTORE PUSH1 0x20 PUSH1 0x0 KECCAK256 ADD PUSH1 0x0 SWAP1 SWAP2 SWAP1 SWAP2 SWAP1 SWAP2 PUSH2 0x100 EXP DUP2 SLOAD DUP2 PUSH20 0xFFFFFFFFFFFFFFFFFFFFFFFFFFFFFFFFFFFFFFFF MUL NOT AND SWAP1 DUP4 PUSH20 0xFFFFFFFFFFFFFFFFFFFFFFFFFFFFFFFFFFFFFFFF AND MUL OR SWAP1 SSTORE POP JUMPDEST PUSH1 0x0 PUSH2 0x1428 PUSH1 0x4 SLOAD PUSH1 0x5 SLOAD DUP5 PUSH1 0x40 MLOAD PUSH1 0x20 ADD PUSH2 0x13D0 SWAP2 SWAP1 PUSH2 0x235D JUMP JUMPDEST PUSH1 0x40 MLOAD PUSH1 0x20 DUP2 DUP4 SUB SUB DUP2 MSTORE SWAP1 PUSH1 0x40 MSTORE PUSH1 0x2 PUSH1 0x0 SWAP1 SLOAD SWAP1 PUSH2 0x100 EXP SWAP1 DIV PUSH20 0xFFFFFFFFFFFFFFFFFFFFFFFFFFFFFFFFFFFFFFFF AND DUP8 PUSH1 0x40 MLOAD PUSH1 0x20 ADD PUSH2 0x1414 SWAP3 SWAP2 SWAP1 PUSH2 0x2F8F JUMP JUMPDEST PUSH1 0x40 MLOAD PUSH1 0x20 DUP2 DUP4 SUB SUB DUP2 MSTORE SWAP1 PUSH1 0x40 MSTORE PUSH2 0x1C7A JUMP JUMPDEST SWAP1 POP DUP1 PUSH1 0x6 PUSH1 0x0 DUP6 PUSH20 0xFFFFFFFFFFFFFFFFFFFFFFFFFFFFFFFFFFFFFFFF AND PUSH20 0xFFFFFFFFFFFFFFFFFFFFFFFFFFFFFFFFFFFFFFFF AND DUP2 MSTORE PUSH1 0x20 ADD SWAP1 DUP2 MSTORE PUSH1 0x20 ADD PUSH1 0x0 KECCAK256 SWAP1 DUP2 PUSH2 0x1476 SWAP2 SWAP1 PUSH2 0x2C36 JUMP JUMPDEST POP DUP3 PUSH20 0xFFFFFFFFFFFFFFFFFFFFFFFFFFFFFFFFFFFFFFFF AND PUSH32 0xE6B83177F11971BA30369BB38B914FFBA97D5969A3C857B286FA8FDBB150B3BA DUP4 PUSH1 0x40 MLOAD PUSH2 0x14BD SWAP2 SWAP1 PUSH2 0x235D JUMP JUMPDEST PUSH1 0x40 MLOAD DUP1 SWAP2 SUB SWAP1 LOG2 POP POP POP JUMP JUMPDEST PUSH1 0x7 DUP2 DUP2 SLOAD DUP2 LT PUSH2 0x14DA JUMPI PUSH1 0x0 DUP1 REVERT JUMPDEST SWAP1 PUSH1 0x0 MSTORE PUSH1 0x20 PUSH1 0x0 KECCAK256 ADD PUSH1 0x0 SWAP2 POP SLOAD SWAP1 PUSH2 0x100 EXP SWAP1 DIV PUSH20 0xFFFFFFFFFFFFFFFFFFFFFFFFFFFFFFFFFFFFFFFF AND DUP2 JUMP JUMPDEST PUSH1 0x2 PUSH1 0x15 SWAP1 SLOAD SWAP1 PUSH2 0x100 EXP SWAP1 DIV PUSH4 0xFFFFFFFF AND DUP2 JUMP JUMPDEST PUSH1 0x2 PUSH1 0x0 SWAP1 SLOAD SWAP1 PUSH2 0x100 EXP SWAP1 DIV PUSH20 0xFFFFFFFFFFFFFFFFFFFFFFFFFFFFFFFFFFFFFFFF AND PUSH20 0xFFFFFFFFFFFFFFFFFFFFFFFFFFFFFFFFFFFFFFFF AND CALLER PUSH20 0xFFFFFFFFFFFFFFFFFFFFFFFFFFFFFFFFFFFFFFFF AND EQ PUSH2 0x15AF JUMPI PUSH1 0x40 MLOAD PUSH32 0x8C379A000000000000000000000000000000000000000000000000000000000 DUP2 MSTORE PUSH1 0x4 ADD PUSH2 0x15A6 SWAP1 PUSH2 0x2669 JUMP JUMPDEST PUSH1 0x40 MLOAD DUP1 SWAP2 SUB SWAP1 REVERT JUMPDEST PUSH1 0x0 CALLVALUE GT PUSH2 0x15F2 JUMPI PUSH1 0x40 MLOAD PUSH32 0x8C379A000000000000000000000000000000000000000000000000000000000 DUP2 MSTORE PUSH1 0x4 ADD PUSH2 0x15E9 SWAP1 PUSH2 0x311E JUMP JUMPDEST PUSH1 0x40 MLOAD DUP1 SWAP2 SUB SWAP1 REVERT JUMPDEST CALLER PUSH20 0xFFFFFFFFFFFFFFFFFFFFFFFFFFFFFFFFFFFFFFFF AND PUSH32 0x543BA50A5EEC5E6178218E364B1D0F396157B3C8FA278522C2CB7FD99407D474 CALLVALUE PUSH1 0x40 MLOAD PUSH2 0x1638 SWAP2 SWAP1 PUSH2 0x235D JUMP JUMPDEST PUSH1 0x40 MLOAD DUP1 SWAP2 SUB SWAP1 LOG2 JUMP JUMPDEST PUSH1 0x0 PUSH2 0x171F PUSH1 0x4 SLOAD PUSH1 0x5 SLOAD PUSH1 0x3 DUP1 SLOAD PUSH2 0x165A SWAP1 PUSH2 0x2599 JUMP JUMPDEST DUP1 PUSH1 0x1F ADD PUSH1 0x20 DUP1 SWAP2 DIV MUL PUSH1 0x20 ADD PUSH1 0x40 MLOAD SWAP1 DUP2 ADD PUSH1 0x40 MSTORE DUP1 SWAP3 SWAP2 SWAP1 DUP2 DUP2 MSTORE PUSH1 0x20 ADD DUP3 DUP1 SLOAD PUSH2 0x1686 SWAP1 PUSH2 0x2599 JUMP JUMPDEST DUP1 ISZERO PUSH2 0x16D3 JUMPI DUP1 PUSH1 0x1F LT PUSH2 0x16A8 JUMPI PUSH2 0x100 DUP1 DUP4 SLOAD DIV MUL DUP4 MSTORE SWAP2 PUSH1 0x20 ADD SWAP2 PUSH2 0x16D3 JUMP JUMPDEST DUP3 ADD SWAP2 SWAP1 PUSH1 0x0 MSTORE PUSH1 0x20 PUSH1 0x0 KECCAK256 SWAP1 JUMPDEST DUP2 SLOAD DUP2 MSTORE SWAP1 PUSH1 0x1 ADD SWAP1 PUSH1 0x20 ADD DUP1 DUP4 GT PUSH2 0x16B6 JUMPI DUP3 SWAP1 SUB PUSH1 0x1F AND DUP3 ADD SWAP2 JUMPDEST POP POP POP POP POP PUSH1 0x2 PUSH1 0x0 SWAP1 SLOAD SWAP1 PUSH2 0x100 EXP SWAP1 DIV PUSH20 0xFFFFFFFFFFFFFFFFFFFFFFFFFFFFFFFFFFFFFFFF AND PUSH1 0x40 MLOAD PUSH1 0x20 ADD PUSH2 0x170B SWAP2 SWAP1 PUSH2 0x20C1 JUMP JUMPDEST PUSH1 0x40 MLOAD PUSH1 0x20 DUP2 DUP4 SUB SUB DUP2 MSTORE SWAP1 PUSH1 0x40 MSTORE PUSH2 0x1B85 JUMP JUMPDEST SWAP1 POP PUSH1 0x0 DUP2 DUP1 PUSH1 0x20 ADD SWAP1 MLOAD DUP2 ADD SWAP1 PUSH2 0x1737 SWAP2 SWAP1 PUSH2 0x25DF JUMP JUMPDEST SWAP1 POP PUSH32 0xB62FA8C43C0F241F4A7B7BF2293CE4714AE0FC84F9584334751599BD528C2A13 DUP4 PUSH1 0x0 PUSH1 0x3 DUP2 LT PUSH2 0x176E JUMPI PUSH2 0x176D PUSH2 0x2689 JUMP JUMPDEST JUMPDEST PUSH1 0x20 MUL ADD CALLDATALOAD PUSH1 0x40 MLOAD PUSH2 0x1780 SWAP2 SWAP1 PUSH2 0x235D JUMP JUMPDEST PUSH1 0x40 MLOAD DUP1 SWAP2 SUB SWAP1 LOG1 PUSH1 0x2 PUSH1 0x15 SWAP1 SLOAD SWAP1 PUSH2 0x100 EXP SWAP1 DIV PUSH4 0xFFFFFFFF AND PUSH4 0xFFFFFFFF AND DUP4 PUSH1 0x1 PUSH1 0x3 DUP2 LT PUSH2 0x17B5 JUMPI PUSH2 0x17B4 PUSH2 0x2689 JUMP JUMPDEST JUMPDEST PUSH1 0x20 MUL ADD CALLDATALOAD EQ PUSH2 0x17FA JUMPI PUSH1 0x40 MLOAD PUSH32 0x8C379A000000000000000000000000000000000000000000000000000000000 DUP2 MSTORE PUSH1 0x4 ADD PUSH2 0x17F1 SWAP1 PUSH2 0x318A JUMP JUMPDEST PUSH1 0x40 MLOAD DUP1 SWAP2 SUB SWAP1 REVERT JUMPDEST PUSH1 0x0 PUSH1 0x1 PUSH1 0x0 SWAP1 SLOAD SWAP1 PUSH2 0x100 EXP SWAP1 DIV PUSH20 0xFFFFFFFFFFFFFFFFFFFFFFFFFFFFFFFFFFFFFFFF AND PUSH20 0xFFFFFFFFFFFFFFFFFFFFFFFFFFFFFFFFFFFFFFFF AND PUSH4 0x11479FEA DUP9 DUP9 DUP9 DUP9 PUSH1 0x40 MLOAD DUP6 PUSH4 0xFFFFFFFF AND PUSH1 0xE0 SHL DUP2 MSTORE PUSH1 0x4 ADD PUSH2 0x185D SWAP5 SWAP4 SWAP3 SWAP2 SWAP1 PUSH2 0x326E JUMP JUMPDEST PUSH1 0x20 PUSH1 0x40 MLOAD DUP1 DUP4 SUB DUP2 DUP7 GAS STATICCALL ISZERO DUP1 ISZERO PUSH2 0x187A JUMPI RETURNDATASIZE PUSH1 0x0 DUP1 RETURNDATACOPY RETURNDATASIZE PUSH1 0x0 REVERT JUMPDEST POP POP POP POP PUSH1 0x40 MLOAD RETURNDATASIZE PUSH1 0x1F NOT PUSH1 0x1F DUP3 ADD AND DUP3 ADD DUP1 PUSH1 0x40 MSTORE POP DUP2 ADD SWAP1 PUSH2 0x189E SWAP2 SWAP1 PUSH2 0x28ED JUMP JUMPDEST SWAP1 POP DUP1 PUSH2 0x18E0 JUMPI PUSH1 0x40 MLOAD PUSH32 0x8C379A000000000000000000000000000000000000000000000000000000000 DUP2 MSTORE PUSH1 0x4 ADD PUSH2 0x18D7 SWAP1 PUSH2 0x2966 JUMP JUMPDEST PUSH1 0x40 MLOAD DUP1 SWAP2 SUB SWAP1 REVERT JUMPDEST PUSH32 0xF4D358772B552280F9395158C37BC77DDCBCDEAF62B20AA01276FB89D7EA1923 PUSH1 0x1 PUSH1 0x40 MLOAD PUSH2 0x1910 SWAP2 SWAP1 PUSH2 0x2171 JUMP JUMPDEST PUSH1 0x40 MLOAD DUP1 SWAP2 SUB SWAP1 LOG1 TIMESTAMP DUP5 PUSH1 0x2 PUSH1 0x3 DUP2 LT PUSH2 0x192D JUMPI PUSH2 0x192C PUSH2 0x2689 JUMP JUMPDEST JUMPDEST PUSH1 0x20 MUL ADD CALLDATALOAD GT ISZERO PUSH2 0x1973 JUMPI PUSH1 0x40 MLOAD PUSH32 0x8C379A000000000000000000000000000000000000000000000000000000000 DUP2 MSTORE PUSH1 0x4 ADD PUSH2 0x196A SWAP1 PUSH2 0x3301 JUMP JUMPDEST PUSH1 0x40 MLOAD DUP1 SWAP2 SUB SWAP1 REVERT JUMPDEST PUSH1 0x2 PUSH1 0x15 SWAP1 SLOAD SWAP1 PUSH2 0x100 EXP SWAP1 DIV PUSH4 0xFFFFFFFF AND DUP3 PUSH2 0x1991 SWAP2 SWAP1 PUSH2 0x3321 JUMP JUMPDEST PUSH4 0xFFFFFFFF AND DUP5 PUSH1 0x2 PUSH1 0x3 DUP2 LT PUSH2 0x19AB JUMPI PUSH2 0x19AA PUSH2 0x2689 JUMP JUMPDEST JUMPDEST PUSH1 0x20 MUL ADD CALLDATALOAD LT ISZERO PUSH2 0x19F1 JUMPI PUSH1 0x40 MLOAD PUSH32 0x8C379A000000000000000000000000000000000000000000000000000000000 DUP2 MSTORE PUSH1 0x4 ADD PUSH2 0x19E8 SWAP1 PUSH2 0x33A5 JUMP JUMPDEST PUSH1 0x40 MLOAD DUP1 SWAP2 SUB SWAP1 REVERT JUMPDEST PUSH2 0x19F9 PUSH2 0x1E5E JUMP JUMPDEST POP POP POP POP POP POP POP JUMP JUMPDEST PUSH2 0x1A0A PUSH2 0x445 JUMP JUMPDEST PUSH2 0x1A49 JUMPI PUSH1 0x40 MLOAD PUSH32 0x8C379A000000000000000000000000000000000000000000000000000000000 DUP2 MSTORE PUSH1 0x4 ADD PUSH2 0x1A40 SWAP1 PUSH2 0x3411 JUMP JUMPDEST PUSH1 0x40 MLOAD DUP1 SWAP2 SUB SWAP1 REVERT JUMPDEST PUSH32 0x76729D52B3EC041633E327FE49B91B757319A9CB241B0F6CE433FF396EE4DEE6 PUSH1 0x1 PUSH1 0x40 MLOAD PUSH2 0x1A79 SWAP2 SWAP1 PUSH2 0x2171 JUMP JUMPDEST PUSH1 0x40 MLOAD DUP1 SWAP2 SUB SWAP1 LOG1 PUSH2 0x1A89 PUSH2 0x1E5E JUMP JUMPDEST JUMP JUMPDEST PUSH1 0x0 DUP1 PUSH2 0x1B69 PUSH1 0x4 SLOAD PUSH1 0x5 SLOAD PUSH1 0x3 DUP1 SLOAD PUSH2 0x1AA4 SWAP1 PUSH2 0x2599 JUMP JUMPDEST DUP1 PUSH1 0x1F ADD PUSH1 0x20 DUP1 SWAP2 DIV MUL PUSH1 0x20 ADD PUSH1 0x40 MLOAD SWAP1 DUP2 ADD PUSH1 0x40 MSTORE DUP1 SWAP3 SWAP2 SWAP1 DUP2 DUP2 MSTORE PUSH1 0x20 ADD DUP3 DUP1 SLOAD PUSH2 0x1AD0 SWAP1 PUSH2 0x2599 JUMP JUMPDEST DUP1 ISZERO PUSH2 0x1B1D JUMPI DUP1 PUSH1 0x1F LT PUSH2 0x1AF2 JUMPI PUSH2 0x100 DUP1 DUP4 SLOAD DIV MUL DUP4 MSTORE SWAP2 PUSH1 0x20 ADD SWAP2 PUSH2 0x1B1D JUMP JUMPDEST DUP3 ADD SWAP2 SWAP1 PUSH1 0x0 MSTORE PUSH1 0x20 PUSH1 0x0 KECCAK256 SWAP1 JUMPDEST DUP2 SLOAD DUP2 MSTORE SWAP1 PUSH1 0x1 ADD SWAP1 PUSH1 0x20 ADD DUP1 DUP4 GT PUSH2 0x1B00 JUMPI DUP3 SWAP1 SUB PUSH1 0x1F AND DUP3 ADD SWAP2 JUMPDEST POP POP POP POP POP PUSH1 0x2 PUSH1 0x0 SWAP1 SLOAD SWAP1 PUSH2 0x100 EXP SWAP1 DIV PUSH20 0xFFFFFFFFFFFFFFFFFFFFFFFFFFFFFFFFFFFFFFFF AND PUSH1 0x40 MLOAD PUSH1 0x20 ADD PUSH2 0x1B55 SWAP2 SWAP1 PUSH2 0x20C1 JUMP JUMPDEST PUSH1 0x40 MLOAD PUSH1 0x20 DUP2 DUP4 SUB SUB DUP2 MSTORE SWAP1 PUSH1 0x40 MSTORE PUSH2 0x1B85 JUMP JUMPDEST SWAP1 POP DUP1 DUP1 PUSH1 0x20 ADD SWAP1 MLOAD DUP2 ADD SWAP1 PUSH2 0x1B7F SWAP2 SWAP1 PUSH2 0x25DF JUMP JUMPDEST SWAP2 POP POP SWAP1 JUMP JUMPDEST PUSH1 0x60 PUSH1 0x0 DUP1 PUSH20 0x100000000000000000000000000000000000004 PUSH20 0xFFFFFFFFFFFFFFFFFFFFFFFFFFFFFFFFFFFFFFFF AND DUP8 DUP8 DUP8 DUP8 PUSH1 0x40 MLOAD PUSH1 0x20 ADD PUSH2 0x1BCC SWAP5 SWAP4 SWAP3 SWAP2 SWAP1 PUSH2 0x34C5 JUMP JUMPDEST PUSH1 0x40 MLOAD PUSH1 0x20 DUP2 DUP4 SUB SUB DUP2 MSTORE SWAP1 PUSH1 0x40 MSTORE PUSH1 0x40 MLOAD PUSH2 0x1BE8 SWAP2 SWAP1 PUSH2 0x3554 JUMP JUMPDEST PUSH1 0x0 PUSH1 0x40 MLOAD DUP1 DUP4 SUB DUP2 DUP6 GAS STATICCALL SWAP2 POP POP RETURNDATASIZE DUP1 PUSH1 0x0 DUP2 EQ PUSH2 0x1C23 JUMPI PUSH1 0x40 MLOAD SWAP2 POP PUSH1 0x1F NOT PUSH1 0x3F RETURNDATASIZE ADD AND DUP3 ADD PUSH1 0x40 MSTORE RETURNDATASIZE DUP3 MSTORE RETURNDATASIZE PUSH1 0x0 PUSH1 0x20 DUP5 ADD RETURNDATACOPY PUSH2 0x1C28 JUMP JUMPDEST PUSH1 0x60 SWAP2 POP JUMPDEST POP SWAP2 POP SWAP2 POP DUP2 PUSH2 0x1C6D JUMPI PUSH1 0x40 MLOAD PUSH32 0x8C379A000000000000000000000000000000000000000000000000000000000 DUP2 MSTORE PUSH1 0x4 ADD PUSH2 0x1C64 SWAP1 PUSH2 0x35B7 JUMP JUMPDEST PUSH1 0x40 MLOAD DUP1 SWAP2 SUB SWAP1 REVERT JUMPDEST DUP1 SWAP3 POP POP POP SWAP5 SWAP4 POP POP POP POP JUMP JUMPDEST PUSH1 0x60 PUSH1 0x0 DUP1 PUSH20 0x100000000000000000000000000000000000003 PUSH20 0xFFFFFFFFFFFFFFFFFFFFFFFFFFFFFFFFFFFFFFFF AND DUP8 DUP8 DUP8 DUP8 PUSH1 0x40 MLOAD PUSH1 0x20 ADD PUSH2 0x1CC1 SWAP5 SWAP4 SWAP3 SWAP2 SWAP1 PUSH2 0x34C5 JUMP JUMPDEST PUSH1 0x40 MLOAD PUSH1 0x20 DUP2 DUP4 SUB SUB DUP2 MSTORE SWAP1 PUSH1 0x40 MSTORE PUSH1 0x40 MLOAD PUSH2 0x1CDD SWAP2 SWAP1 PUSH2 0x3554 JUMP JUMPDEST PUSH1 0x0 PUSH1 0x40 MLOAD DUP1 DUP4 SUB DUP2 DUP6 GAS STATICCALL SWAP2 POP POP RETURNDATASIZE DUP1 PUSH1 0x0 DUP2 EQ PUSH2 0x1D18 JUMPI PUSH1 0x40 MLOAD SWAP2 POP PUSH1 0x1F NOT PUSH1 0x3F RETURNDATASIZE ADD AND DUP3 ADD PUSH1 0x40 MSTORE RETURNDATASIZE DUP3 MSTORE RETURNDATASIZE PUSH1 0x0 PUSH1 0x20 DUP5 ADD RETURNDATACOPY PUSH2 0x1D1D JUMP JUMPDEST PUSH1 0x60 SWAP2 POP JUMPDEST POP SWAP2 POP SWAP2 POP DUP2 PUSH2 0x1D62 JUMPI PUSH1 0x40 MLOAD PUSH32 0x8C379A000000000000000000000000000000000000000000000000000000000 DUP2 MSTORE PUSH1 0x4 ADD PUSH2 0x1D59 SWAP1 PUSH2 0x3623 JUMP JUMPDEST PUSH1 0x40 MLOAD DUP1 SWAP2 SUB SWAP1 REVERT JUMPDEST DUP1 SWAP3 POP POP POP SWAP5 SWAP4 POP POP POP POP JUMP JUMPDEST PUSH1 0x60 PUSH1 0x0 DUP1 PUSH20 0x100000000000000000000000000000000000001 PUSH20 0xFFFFFFFFFFFFFFFFFFFFFFFFFFFFFFFFFFFFFFFF AND DUP6 DUP6 PUSH1 0x40 MLOAD PUSH1 0x20 ADD PUSH2 0x1DB2 SWAP3 SWAP2 SWAP1 PUSH2 0x3643 JUMP JUMPDEST PUSH1 0x40 MLOAD PUSH1 0x20 DUP2 DUP4 SUB SUB DUP2 MSTORE SWAP1 PUSH1 0x40 MSTORE PUSH1 0x40 MLOAD PUSH2 0x1DCE SWAP2 SWAP1 PUSH2 0x3554 JUMP JUMPDEST PUSH1 0x0 PUSH1 0x40 MLOAD DUP1 DUP4 SUB DUP2 DUP6 GAS STATICCALL SWAP2 POP POP RETURNDATASIZE DUP1 PUSH1 0x0 DUP2 EQ PUSH2 0x1E09 JUMPI PUSH1 0x40 MLOAD SWAP2 POP PUSH1 0x1F NOT PUSH1 0x3F RETURNDATASIZE ADD AND DUP3 ADD PUSH1 0x40 MSTORE RETURNDATASIZE DUP3 MSTORE RETURNDATASIZE PUSH1 0x0 PUSH1 0x20 DUP5 ADD RETURNDATACOPY PUSH2 0x1E0E JUMP JUMPDEST PUSH1 0x60 SWAP2 POP JUMPDEST POP SWAP2 POP SWAP2 POP DUP2 PUSH2 0x1E53 JUMPI PUSH1 0x40 MLOAD PUSH32 0x8C379A000000000000000000000000000000000000000000000000000000000 DUP2 MSTORE PUSH1 0x4 ADD PUSH2 0x1E4A SWAP1 PUSH2 0x36BF JUMP JUMPDEST PUSH1 0x40 MLOAD DUP1 SWAP2 SUB SWAP1 REVERT JUMPDEST DUP1 SWAP3 POP POP POP SWAP3 SWAP2 POP POP JUMP JUMPDEST PUSH1 0x0 SELFBALANCE SWAP1 POP PUSH1 0x0 DUP2 GT PUSH2 0x1EA6 JUMPI PUSH1 0x40 MLOAD PUSH32 0x8C379A000000000000000000000000000000000000000000000000000000000 DUP2 MSTORE PUSH1 0x4 ADD PUSH2 0x1E9D SWAP1 PUSH2 0x372B JUMP JUMPDEST PUSH1 0x40 MLOAD DUP1 SWAP2 SUB SWAP1 REVERT JUMPDEST PUSH1 0x0 JUMPDEST PUSH1 0x7 DUP1 SLOAD SWAP1 POP DUP2 LT ISZERO PUSH2 0x201F JUMPI PUSH1 0x0 PUSH1 0x7 DUP3 DUP2 SLOAD DUP2 LT PUSH2 0x1ECC JUMPI PUSH2 0x1ECB PUSH2 0x2689 JUMP JUMPDEST JUMPDEST SWAP1 PUSH1 0x0 MSTORE PUSH1 0x20 PUSH1 0x0 KECCAK256 ADD PUSH1 0x0 SWAP1 SLOAD SWAP1 PUSH2 0x100 EXP SWAP1 DIV PUSH20 0xFFFFFFFFFFFFFFFFFFFFFFFFFFFFFFFFFFFFFFFF AND SWAP1 POP PUSH1 0x0 PUSH2 0x1F04 DUP3 PUSH2 0xF6F JUMP JUMPDEST SWAP1 POP PUSH1 0x0 DUP2 GT DUP1 ISZERO PUSH2 0x1F16 JUMPI POP DUP1 DUP5 LT ISZERO JUMPDEST ISZERO PUSH2 0x200A JUMPI DUP2 PUSH20 0xFFFFFFFFFFFFFFFFFFFFFFFFFFFFFFFFFFFFFFFF AND PUSH2 0x8FC DUP3 SWAP1 DUP2 ISZERO MUL SWAP1 PUSH1 0x40 MLOAD PUSH1 0x0 PUSH1 0x40 MLOAD DUP1 DUP4 SUB DUP2 DUP6 DUP9 DUP9 CALL SWAP4 POP POP POP POP ISZERO DUP1 ISZERO PUSH2 0x1F61 JUMPI RETURNDATASIZE PUSH1 0x0 DUP1 RETURNDATACOPY RETURNDATASIZE PUSH1 0x0 REVERT JUMPDEST POP DUP2 PUSH20 0xFFFFFFFFFFFFFFFFFFFFFFFFFFFFFFFFFFFFFFFF AND PUSH32 0x221C08A06B07A64803B3787861A3F276212FCCCB51C2E6234077A9B8CB13047A DUP3 PUSH1 0x40 MLOAD PUSH2 0x1FA8 SWAP2 SWAP1 PUSH2 0x235D JUMP JUMPDEST PUSH1 0x40 MLOAD DUP1 SWAP2 SUB SWAP1 LOG2 DUP1 DUP5 PUSH2 0x1FBC SWAP2 SWAP1 PUSH2 0x2986 JUMP JUMPDEST SWAP4 POP PUSH1 0x6 PUSH1 0x0 DUP4 PUSH20 0xFFFFFFFFFFFFFFFFFFFFFFFFFFFFFFFFFFFFFFFF AND PUSH20 0xFFFFFFFFFFFFFFFFFFFFFFFFFFFFFFFFFFFFFFFF AND DUP2 MSTORE PUSH1 0x20 ADD SWAP1 DUP2 MSTORE PUSH1 0x20 ADD PUSH1 0x0 KECCAK256 PUSH1 0x0 PUSH2 0x2009 SWAP2 SWAP1 PUSH2 0x2023 JUMP JUMPDEST JUMPDEST POP POP DUP1 DUP1 PUSH2 0x2017 SWAP1 PUSH2 0x374B JUMP JUMPDEST SWAP2 POP POP PUSH2 0x1EA9 JUMP JUMPDEST POP POP JUMP JUMPDEST POP DUP1 SLOAD PUSH2 0x202F SWAP1 PUSH2 0x2599 JUMP JUMPDEST PUSH1 0x0 DUP3 SSTORE DUP1 PUSH1 0x1F LT PUSH2 0x2041 JUMPI POP PUSH2 0x2060 JUMP JUMPDEST PUSH1 0x1F ADD PUSH1 0x20 SWAP1 DIV SWAP1 PUSH1 0x0 MSTORE PUSH1 0x20 PUSH1 0x0 KECCAK256 SWAP1 DUP2 ADD SWAP1 PUSH2 0x205F SWAP2 SWAP1 PUSH2 0x2063 JUMP JUMPDEST JUMPDEST POP JUMP JUMPDEST JUMPDEST DUP1 DUP3 GT ISZERO PUSH2 0x207C JUMPI PUSH1 0x0 DUP2 PUSH1 0x0 SWAP1 SSTORE POP PUSH1 0x1 ADD PUSH2 0x2064 JUMP JUMPDEST POP SWAP1 JUMP JUMPDEST PUSH1 0x0 PUSH20 0xFFFFFFFFFFFFFFFFFFFFFFFFFFFFFFFFFFFFFFFF DUP3 AND SWAP1 POP SWAP2 SWAP1 POP JUMP JUMPDEST PUSH1 0x0 PUSH2 0x20AB DUP3 PUSH2 0x2080 JUMP JUMPDEST SWAP1 POP SWAP2 SWAP1 POP JUMP JUMPDEST PUSH2 0x20BB DUP2 PUSH2 0x20A0 JUMP JUMPDEST DUP3 MSTORE POP POP JUMP JUMPDEST PUSH1 0x0 PUSH1 0x20 DUP3 ADD SWAP1 POP PUSH2 0x20D6 PUSH1 0x0 DUP4 ADD DUP5 PUSH2 0x20B2 JUMP JUMPDEST SWAP3 SWAP2 POP POP JUMP JUMPDEST PUSH1 0x0 DUP2 SWAP1 POP SWAP2 SWAP1 POP JUMP JUMPDEST PUSH1 0x0 PUSH2 0x2101 PUSH2 0x20FC PUSH2 0x20F7 DUP5 PUSH2 0x2080 JUMP JUMPDEST PUSH2 0x20DC JUMP JUMPDEST PUSH2 0x2080 JUMP JUMPDEST SWAP1 POP SWAP2 SWAP1 POP JUMP JUMPDEST PUSH1 0x0 PUSH2 0x2113 DUP3 PUSH2 0x20E6 JUMP JUMPDEST SWAP1 POP SWAP2 SWAP1 POP JUMP JUMPDEST PUSH1 0x0 PUSH2 0x2125 DUP3 PUSH2 0x2108 JUMP JUMPDEST SWAP1 POP SWAP2 SWAP1 POP JUMP JUMPDEST PUSH2 0x2135 DUP2 PUSH2 0x211A JUMP JUMPDEST DUP3 MSTORE POP POP JUMP JUMPDEST PUSH1 0x0 PUSH1 0x20 DUP3 ADD SWAP1 POP PUSH2 0x2150 PUSH1 0x0 DUP4 ADD DUP5 PUSH2 0x212C JUMP JUMPDEST SWAP3 SWAP2 POP POP JUMP JUMPDEST PUSH1 0x0 DUP2 ISZERO ISZERO SWAP1 POP SWAP2 SWAP1 POP JUMP JUMPDEST PUSH2 0x216B DUP2 PUSH2 0x2156 JUMP JUMPDEST DUP3 MSTORE POP POP JUMP JUMPDEST PUSH1 0x0 PUSH1 0x20 DUP3 ADD SWAP1 POP PUSH2 0x2186 PUSH1 0x0 DUP4 ADD DUP5 PUSH2 0x2162 JUMP JUMPDEST SWAP3 SWAP2 POP POP JUMP JUMPDEST PUSH1 0x0 DUP1 REVERT JUMPDEST PUSH2 0x219A DUP2 PUSH2 0x20A0 JUMP JUMPDEST DUP2 EQ PUSH2 0x21A5 JUMPI PUSH1 0x0 DUP1 REVERT JUMPDEST POP JUMP JUMPDEST PUSH1 0x0 DUP2 CALLDATALOAD SWAP1 POP PUSH2 0x21B7 DUP2 PUSH2 0x2191 JUMP JUMPDEST SWAP3 SWAP2 POP POP JUMP JUMPDEST PUSH1 0x0 PUSH1 0x20 DUP3 DUP5 SUB SLT ISZERO PUSH2 0x21D3 JUMPI PUSH2 0x21D2 PUSH2 0x218C JUMP JUMPDEST JUMPDEST PUSH1 0x0 PUSH2 0x21E1 DUP5 DUP3 DUP6 ADD PUSH2 0x21A8 JUMP JUMPDEST SWAP2 POP POP SWAP3 SWAP2 POP POP JUMP JUMPDEST PUSH1 0x0 DUP1 REVERT JUMPDEST PUSH1 0x0 DUP2 SWAP1 POP DUP3 PUSH1 0x20 PUSH1 0x2 MUL DUP3 ADD GT ISZERO PUSH2 0x220B JUMPI PUSH2 0x220A PUSH2 0x21EA JUMP JUMPDEST JUMPDEST SWAP3 SWAP2 POP POP JUMP JUMPDEST PUSH1 0x0 DUP2 SWAP1 POP DUP3 PUSH1 0x40 PUSH1 0x2 MUL DUP3 ADD GT ISZERO PUSH2 0x222D JUMPI PUSH2 0x222C PUSH2 0x21EA JUMP JUMPDEST JUMPDEST SWAP3 SWAP2 POP POP JUMP JUMPDEST PUSH1 0x0 DUP1 PUSH1 0x0 DUP1 PUSH2 0x140 DUP6 DUP8 SUB SLT ISZERO PUSH2 0x224E JUMPI PUSH2 0x224D PUSH2 0x218C JUMP JUMPDEST JUMPDEST PUSH1 0x0 PUSH2 0x225C DUP8 DUP3 DUP9 ADD PUSH2 0x21EF JUMP JUMPDEST SWAP5 POP POP PUSH1 0x40 PUSH2 0x226D DUP8 DUP3 DUP9 ADD PUSH2 0x2211 JUMP JUMPDEST SWAP4 POP POP PUSH1 0xC0 PUSH2 0x227E DUP8 DUP3 DUP9 ADD PUSH2 0x21EF JUMP JUMPDEST SWAP3 POP POP PUSH2 0x100 PUSH2 0x2290 DUP8 DUP3 DUP9 ADD PUSH2 0x21EF JUMP JUMPDEST SWAP2 POP POP SWAP3 SWAP6 SWAP2 SWAP5 POP SWAP3 POP JUMP JUMPDEST PUSH1 0x0 PUSH2 0x22A7 DUP3 PUSH2 0x2108 JUMP JUMPDEST SWAP1 POP SWAP2 SWAP1 POP JUMP JUMPDEST PUSH2 0x22B7 DUP2 PUSH2 0x229C JUMP JUMPDEST DUP3 MSTORE POP POP JUMP JUMPDEST PUSH1 0x0 PUSH1 0x20 DUP3 ADD SWAP1 POP PUSH2 0x22D2 PUSH1 0x0 DUP4 ADD DUP5 PUSH2 0x22AE JUMP JUMPDEST SWAP3 SWAP2 POP POP JUMP JUMPDEST PUSH1 0x0 DUP2 SWAP1 POP SWAP2 SWAP1 POP JUMP JUMPDEST PUSH2 0x22EB DUP2 PUSH2 0x22D8 JUMP JUMPDEST DUP2 EQ PUSH2 0x22F6 JUMPI PUSH1 0x0 DUP1 REVERT JUMPDEST POP JUMP JUMPDEST PUSH1 0x0 DUP2 CALLDATALOAD SWAP1 POP PUSH2 0x2308 DUP2 PUSH2 0x22E2 JUMP JUMPDEST SWAP3 SWAP2 POP POP JUMP JUMPDEST PUSH1 0x0 DUP1 PUSH1 0x40 DUP4 DUP6 SUB SLT ISZERO PUSH2 0x2325 JUMPI PUSH2 0x2324 PUSH2 0x218C JUMP JUMPDEST JUMPDEST PUSH1 0x0 PUSH2 0x2333 DUP6 DUP3 DUP7 ADD PUSH2 0x22F9 JUMP JUMPDEST SWAP3 POP POP PUSH1 0x20 PUSH2 0x2344 DUP6 DUP3 DUP7 ADD PUSH2 0x22F9 JUMP JUMPDEST SWAP2 POP POP SWAP3 POP SWAP3 SWAP1 POP JUMP JUMPDEST PUSH2 0x2357 DUP2 PUSH2 0x22D8 JUMP JUMPDEST DUP3 MSTORE POP POP JUMP JUMPDEST PUSH1 0x0 PUSH1 0x20 DUP3 ADD SWAP1 POP PUSH2 0x2372 PUSH1 0x0 DUP4 ADD DUP5 PUSH2 0x234E JUMP JUMPDEST SWAP3 SWAP2 POP POP JUMP JUMPDEST PUSH1 0x0 PUSH4 0xFFFFFFFF DUP3 AND SWAP1 POP SWAP2 SWAP1 POP JUMP JUMPDEST PUSH2 0x2391 DUP2 PUSH2 0x2378 JUMP JUMPDEST DUP2 EQ PUSH2 0x239C JUMPI PUSH1 0x0 DUP1 REVERT JUMPDEST POP JUMP JUMPDEST PUSH1 0x0 DUP2 CALLDATALOAD SWAP1 POP PUSH2 0x23AE DUP2 PUSH2 0x2388 JUMP JUMPDEST SWAP3 SWAP2 POP POP JUMP JUMPDEST PUSH1 0x0 PUSH1 0x20 DUP3 DUP5 SUB SLT ISZERO PUSH2 0x23CA JUMPI PUSH2 0x23C9 PUSH2 0x218C JUMP JUMPDEST JUMPDEST PUSH1 0x0 PUSH2 0x23D8 DUP5 DUP3 DUP6 ADD PUSH2 0x239F JUMP JUMPDEST SWAP2 POP POP SWAP3 SWAP2 POP POP JUMP JUMPDEST PUSH1 0x0 DUP1 PUSH1 0x40 DUP4 DUP6 SUB SLT ISZERO PUSH2 0x23F8 JUMPI PUSH2 0x23F7 PUSH2 0x218C JUMP JUMPDEST JUMPDEST PUSH1 0x0 PUSH2 0x2406 DUP6 DUP3 DUP7 ADD PUSH2 0x21A8 JUMP JUMPDEST SWAP3 POP POP PUSH1 0x20 PUSH2 0x2417 DUP6 DUP3 DUP7 ADD PUSH2 0x22F9 JUMP JUMPDEST SWAP2 POP POP SWAP3 POP SWAP3 SWAP1 POP JUMP JUMPDEST PUSH1 0x0 PUSH1 0x20 DUP3 DUP5 SUB SLT ISZERO PUSH2 0x2437 JUMPI PUSH2 0x2436 PUSH2 0x218C JUMP JUMPDEST JUMPDEST PUSH1 0x0 PUSH2 0x2445 DUP5 DUP3 DUP6 ADD PUSH2 0x22F9 JUMP JUMPDEST SWAP2 POP POP SWAP3 SWAP2 POP POP JUMP JUMPDEST PUSH2 0x2457 DUP2 PUSH2 0x2378 JUMP JUMPDEST DUP3 MSTORE POP POP JUMP JUMPDEST PUSH1 0x0 PUSH1 0x20 DUP3 ADD SWAP1 POP PUSH2 0x2472 PUSH1 0x0 DUP4 ADD DUP5 PUSH2 0x244E JUMP JUMPDEST SWAP3 SWAP2 POP POP JUMP JUMPDEST PUSH1 0x0 DUP2 SWAP1 POP DUP3 PUSH1 0x20 PUSH1 0x3 MUL DUP3 ADD GT ISZERO PUSH2 0x2494 JUMPI PUSH2 0x2493 PUSH2 0x21EA JUMP JUMPDEST JUMPDEST SWAP3 SWAP2 POP POP JUMP JUMPDEST PUSH1 0x0 DUP1 PUSH1 0x0 DUP1 PUSH2 0x160 DUP6 DUP8 SUB SLT ISZERO PUSH2 0x24B5 JUMPI PUSH2 0x24B4 PUSH2 0x218C JUMP JUMPDEST JUMPDEST PUSH1 0x0 PUSH2 0x24C3 DUP8 DUP3 DUP9 ADD PUSH2 0x21EF JUMP JUMPDEST SWAP5 POP POP PUSH1 0x40 PUSH2 0x24D4 DUP8 DUP3 DUP9 ADD PUSH2 0x2211 JUMP JUMPDEST SWAP4 POP POP PUSH1 0xC0 PUSH2 0x24E5 DUP8 DUP3 DUP9 ADD PUSH2 0x21EF JUMP JUMPDEST SWAP3 POP POP PUSH2 0x100 PUSH2 0x24F7 DUP8 DUP3 DUP9 ADD PUSH2 0x2478 JUMP JUMPDEST SWAP2 POP POP SWAP3 SWAP6 SWAP2 SWAP5 POP SWAP3 POP JUMP JUMPDEST PUSH32 0x4E487B7100000000000000000000000000000000000000000000000000000000 PUSH1 0x0 MSTORE PUSH1 0x11 PUSH1 0x4 MSTORE PUSH1 0x24 PUSH1 0x0 REVERT JUMPDEST PUSH1 0x0 PUSH2 0x253D DUP3 PUSH2 0x2378 JUMP JUMPDEST SWAP2 POP PUSH2 0x2548 DUP4 PUSH2 0x2378 JUMP JUMPDEST SWAP3 POP DUP3 DUP3 SUB SWAP1 POP PUSH4 0xFFFFFFFF DUP2 GT ISZERO PUSH2 0x2564 JUMPI PUSH2 0x2563 PUSH2 0x2503 JUMP JUMPDEST JUMPDEST SWAP3 SWAP2 POP POP JUMP JUMPDEST PUSH32 0x4E487B7100000000000000000000000000000000000000000000000000000000 PUSH1 0x0 MSTORE PUSH1 0x22 PUSH1 0x4 MSTORE PUSH1 0x24 PUSH1 0x0 REVERT JUMPDEST PUSH1 0x0 PUSH1 0x2 DUP3 DIV SWAP1 POP PUSH1 0x1 DUP3 AND DUP1 PUSH2 0x25B1 JUMPI PUSH1 0x7F DUP3 AND SWAP2 POP JUMPDEST PUSH1 0x20 DUP3 LT DUP2 SUB PUSH2 0x25C4 JUMPI PUSH2 0x25C3 PUSH2 0x256A JUMP JUMPDEST JUMPDEST POP SWAP2 SWAP1 POP JUMP JUMPDEST PUSH1 0x0 DUP2 MLOAD SWAP1 POP PUSH2 0x25D9 DUP2 PUSH2 0x2388 JUMP JUMPDEST SWAP3 SWAP2 POP POP JUMP JUMPDEST PUSH1 0x0 PUSH1 0x20 DUP3 DUP5 SUB SLT ISZERO PUSH2 0x25F5 JUMPI PUSH2 0x25F4 PUSH2 0x218C JUMP JUMPDEST JUMPDEST PUSH1 0x0 PUSH2 0x2603 DUP5 DUP3 DUP6 ADD PUSH2 0x25CA JUMP JUMPDEST SWAP2 POP POP SWAP3 SWAP2 POP POP JUMP JUMPDEST PUSH1 0x0 DUP3 DUP3 MSTORE PUSH1 0x20 DUP3 ADD SWAP1 POP SWAP3 SWAP2 POP POP JUMP JUMPDEST PUSH32 0x4E6F7420746865206F776E657200000000000000000000000000000000000000 PUSH1 0x0 DUP3 ADD MSTORE POP JUMP JUMPDEST PUSH1 0x0 PUSH2 0x2653 PUSH1 0xD DUP4 PUSH2 0x260C JUMP JUMPDEST SWAP2 POP PUSH2 0x265E DUP3 PUSH2 0x261D JUMP JUMPDEST PUSH1 0x20 DUP3 ADD SWAP1 POP SWAP2 SWAP1 POP JUMP JUMPDEST PUSH1 0x0 PUSH1 0x20 DUP3 ADD SWAP1 POP DUP2 DUP2 SUB PUSH1 0x0 DUP4 ADD MSTORE PUSH2 0x2682 DUP2 PUSH2 0x2646 JUMP JUMPDEST SWAP1 POP SWAP2 SWAP1 POP JUMP JUMPDEST PUSH32 0x4E487B7100000000000000000000000000000000000000000000000000000000 PUSH1 0x0 MSTORE PUSH1 0x32 PUSH1 0x4 MSTORE PUSH1 0x24 PUSH1 0x0 REVERT JUMPDEST PUSH1 0x0 PUSH1 0x2 SWAP1 POP SWAP2 SWAP1 POP JUMP JUMPDEST PUSH1 0x0 DUP2 SWAP1 POP SWAP3 SWAP2 POP POP JUMP JUMPDEST PUSH1 0x0 DUP2 SWAP1 POP SWAP2 SWAP1 POP JUMP JUMPDEST PUSH2 0x26E1 DUP2 PUSH2 0x22D8 JUMP JUMPDEST DUP3 MSTORE POP POP JUMP JUMPDEST PUSH1 0x0 PUSH2 0x26F3 DUP4 DUP4 PUSH2 0x26D8 JUMP JUMPDEST PUSH1 0x20 DUP4 ADD SWAP1 POP SWAP3 SWAP2 POP POP JUMP JUMPDEST PUSH1 0x0 PUSH1 0x20 DUP3 ADD SWAP1 POP SWAP2 SWAP1 POP JUMP JUMPDEST PUSH2 0x2715 DUP2 PUSH2 0x26B8 JUMP JUMPDEST PUSH2 0x271F DUP2 DUP5 PUSH2 0x26C3 JUMP JUMPDEST SWAP3 POP PUSH2 0x272A DUP3 PUSH2 0x26CE JUMP JUMPDEST DUP1 PUSH1 0x0 JUMPDEST DUP4 DUP2 LT ISZERO PUSH2 0x275B JUMPI DUP2 MLOAD PUSH2 0x2742 DUP8 DUP3 PUSH2 0x26E7 JUMP JUMPDEST SWAP7 POP PUSH2 0x274D DUP4 PUSH2 0x26FF JUMP JUMPDEST SWAP3 POP POP PUSH1 0x1 DUP2 ADD SWAP1 POP PUSH2 0x272E JUMP JUMPDEST POP POP POP POP POP POP JUMP JUMPDEST PUSH1 0x0 PUSH1 0x2 SWAP1 POP SWAP2 SWAP1 POP JUMP JUMPDEST PUSH1 0x0 DUP2 SWAP1 POP SWAP3 SWAP2 POP POP JUMP JUMPDEST PUSH1 0x0 DUP2 SWAP1 POP SWAP2 SWAP1 POP JUMP JUMPDEST PUSH1 0x0 DUP2 SWAP1 POP SWAP3 SWAP2 POP POP JUMP JUMPDEST PUSH2 0x2797 DUP2 PUSH2 0x26B8 JUMP JUMPDEST PUSH2 0x27A1 DUP2 DUP5 PUSH2 0x2783 JUMP JUMPDEST SWAP3 POP PUSH2 0x27AC DUP3 PUSH2 0x26CE JUMP JUMPDEST DUP1 PUSH1 0x0 JUMPDEST DUP4 DUP2 LT ISZERO PUSH2 0x27DD JUMPI DUP2 MLOAD PUSH2 0x27C4 DUP8 DUP3 PUSH2 0x26E7 JUMP JUMPDEST SWAP7 POP PUSH2 0x27CF DUP4 PUSH2 0x26FF JUMP JUMPDEST SWAP3 POP POP PUSH1 0x1 DUP2 ADD SWAP1 POP PUSH2 0x27B0 JUMP JUMPDEST POP POP POP POP POP POP JUMP JUMPDEST PUSH1 0x0 PUSH2 0x27F1 DUP4 DUP4 PUSH2 0x278E JUMP JUMPDEST PUSH1 0x40 DUP4 ADD SWAP1 POP SWAP3 SWAP2 POP POP JUMP JUMPDEST PUSH1 0x0 PUSH1 0x20 DUP3 ADD SWAP1 POP SWAP2 SWAP1 POP JUMP JUMPDEST PUSH2 0x2813 DUP2 PUSH2 0x2763 JUMP JUMPDEST PUSH2 0x281D DUP2 DUP5 PUSH2 0x276E JUMP JUMPDEST SWAP3 POP PUSH2 0x2828 DUP3 PUSH2 0x2779 JUMP JUMPDEST DUP1 PUSH1 0x0 JUMPDEST DUP4 DUP2 LT ISZERO PUSH2 0x2859 JUMPI DUP2 MLOAD PUSH2 0x2840 DUP8 DUP3 PUSH2 0x27E5 JUMP JUMPDEST SWAP7 POP PUSH2 0x284B DUP4 PUSH2 0x27FD JUMP JUMPDEST SWAP3 POP POP PUSH1 0x1 DUP2 ADD SWAP1 POP PUSH2 0x282C JUMP JUMPDEST POP POP POP POP POP POP JUMP JUMPDEST DUP3 DUP2 DUP4 CALLDATACOPY POP POP POP JUMP JUMPDEST PUSH2 0x2876 PUSH1 0x40 DUP4 DUP4 PUSH2 0x2861 JUMP JUMPDEST POP POP JUMP JUMPDEST PUSH1 0x0 PUSH2 0x140 DUP3 ADD SWAP1 POP PUSH2 0x2890 PUSH1 0x0 DUP4 ADD DUP8 PUSH2 0x270C JUMP JUMPDEST PUSH2 0x289D PUSH1 0x40 DUP4 ADD DUP7 PUSH2 0x280A JUMP JUMPDEST PUSH2 0x28AA PUSH1 0xC0 DUP4 ADD DUP6 PUSH2 0x270C JUMP JUMPDEST PUSH2 0x28B8 PUSH2 0x100 DUP4 ADD DUP5 PUSH2 0x286A JUMP JUMPDEST SWAP6 SWAP5 POP POP POP POP POP JUMP JUMPDEST PUSH2 0x28CA DUP2 PUSH2 0x2156 JUMP JUMPDEST DUP2 EQ PUSH2 0x28D5 JUMPI PUSH1 0x0 DUP1 REVERT JUMPDEST POP JUMP JUMPDEST PUSH1 0x0 DUP2 MLOAD SWAP1 POP PUSH2 0x28E7 DUP2 PUSH2 0x28C1 JUMP JUMPDEST SWAP3 SWAP2 POP POP JUMP JUMPDEST PUSH1 0x0 PUSH1 0x20 DUP3 DUP5 SUB SLT ISZERO PUSH2 0x2903 JUMPI PUSH2 0x2902 PUSH2 0x218C JUMP JUMPDEST JUMPDEST PUSH1 0x0 PUSH2 0x2911 DUP5 DUP3 DUP6 ADD PUSH2 0x28D8 JUMP JUMPDEST SWAP2 POP POP SWAP3 SWAP2 POP POP JUMP JUMPDEST PUSH32 0x496E76616C6964205A4B2070726F6F6600000000000000000000000000000000 PUSH1 0x0 DUP3 ADD MSTORE POP JUMP JUMPDEST PUSH1 0x0 PUSH2 0x2950 PUSH1 0x10 DUP4 PUSH2 0x260C JUMP JUMPDEST SWAP2 POP PUSH2 0x295B DUP3 PUSH2 0x291A JUMP JUMPDEST PUSH1 0x20 DUP3 ADD SWAP1 POP SWAP2 SWAP1 POP JUMP JUMPDEST PUSH1 0x0 PUSH1 0x20 DUP3 ADD SWAP1 POP DUP2 DUP2 SUB PUSH1 0x0 DUP4 ADD MSTORE PUSH2 0x297F DUP2 PUSH2 0x2943 JUMP JUMPDEST SWAP1 POP SWAP2 SWAP1 POP JUMP JUMPDEST PUSH1 0x0 PUSH2 0x2991 DUP3 PUSH2 0x22D8 JUMP JUMPDEST SWAP2 POP PUSH2 0x299C DUP4 PUSH2 0x22D8 JUMP JUMPDEST SWAP3 POP DUP3 DUP3 SUB SWAP1 POP DUP2 DUP2 GT ISZERO PUSH2 0x29B4 JUMPI PUSH2 0x29B3 PUSH2 0x2503 JUMP JUMPDEST JUMPDEST SWAP3 SWAP2 POP POP JUMP JUMPDEST PUSH1 0x0 PUSH2 0x29C5 DUP3 PUSH2 0x22D8 JUMP JUMPDEST SWAP2 POP PUSH2 0x29D0 DUP4 PUSH2 0x22D8 JUMP JUMPDEST SWAP3 POP DUP3 DUP3 ADD SWAP1 POP DUP1 DUP3 GT ISZERO PUSH2 0x29E8 JUMPI PUSH2 0x29E7 PUSH2 0x2503 JUMP JUMPDEST JUMPDEST SWAP3 SWAP2 POP POP JUMP JUMPDEST PUSH32 0x54696D657374616D70206F7574206F662076616C69642072616E676500000000 PUSH1 0x0 DUP3 ADD MSTORE POP JUMP JUMPDEST PUSH1 0x0 PUSH2 0x2A24 PUSH1 0x1C DUP4 PUSH2 0x260C JUMP JUMPDEST SWAP2 POP PUSH2 0x2A2F DUP3 PUSH2 0x29EE JUMP JUMPDEST PUSH1 0x20 DUP3 ADD SWAP1 POP SWAP2 SWAP1 POP JUMP JUMPDEST PUSH1 0x0 PUSH1 0x20 DUP3 ADD SWAP1 POP DUP2 DUP2 SUB PUSH1 0x0 DUP4 ADD MSTORE PUSH2 0x2A53 DUP2 PUSH2 0x2A17 JUMP JUMPDEST SWAP1 POP SWAP2 SWAP1 POP JUMP JUMPDEST PUSH1 0x0 DUP2 MLOAD SWAP1 POP SWAP2 SWAP1 POP JUMP JUMPDEST PUSH32 0x4E487B7100000000000000000000000000000000000000000000000000000000 PUSH1 0x0 MSTORE PUSH1 0x41 PUSH1 0x4 MSTORE PUSH1 0x24 PUSH1 0x0 REVERT JUMPDEST PUSH1 0x0 DUP2 SWAP1 POP DUP2 PUSH1 0x0 MSTORE PUSH1 0x20 PUSH1 0x0 KECCAK256 SWAP1 POP SWAP2 SWAP1 POP JUMP JUMPDEST PUSH1 0x0 PUSH1 0x20 PUSH1 0x1F DUP4 ADD DIV SWAP1 POP SWAP2 SWAP1 POP JUMP JUMPDEST PUSH1 0x0 DUP3 DUP3 SHL SWAP1 POP SWAP3 SWAP2 POP POP JUMP JUMPDEST PUSH1 0x0 PUSH1 0x8 DUP4 MUL PUSH2 0x2AF6 PUSH32 0xFFFFFFFFFFFFFFFFFFFFFFFFFFFFFFFFFFFFFFFFFFFFFFFFFFFFFFFFFFFFFFFF DUP3 PUSH2 0x2AB9 JUMP JUMPDEST PUSH2 0x2B00 DUP7 DUP4 PUSH2 0x2AB9 JUMP JUMPDEST SWAP6 POP DUP1 NOT DUP5 AND SWAP4 POP DUP1 DUP7 AND DUP5 OR SWAP3 POP POP POP SWAP4 SWAP3 POP POP POP JUMP JUMPDEST PUSH1 0x0 PUSH2 0x2B33 PUSH2 0x2B2E PUSH2 0x2B29 DUP5 PUSH2 0x22D8 JUMP JUMPDEST PUSH2 0x20DC JUMP JUMPDEST PUSH2 0x22D8 JUMP JUMPDEST SWAP1 POP SWAP2 SWAP1 POP JUMP JUMPDEST PUSH1 0x0 DUP2 SWAP1 POP SWAP2 SWAP1 POP JUMP JUMPDEST PUSH2 0x2B4D DUP4 PUSH2 0x2B18 JUMP JUMPDEST PUSH2 0x2B61 PUSH2 0x2B59 DUP3 PUSH2 0x2B3A JUMP JUMPDEST DUP5 DUP5 SLOAD PUSH2 0x2AC6 JUMP JUMPDEST DUP3 SSTORE POP POP POP POP JUMP JUMPDEST PUSH1 0x0 SWAP1 JUMP JUMPDEST PUSH2 0x2B76 PUSH2 0x2B69 JUMP JUMPDEST PUSH2 0x2B81 DUP2 DUP5 DUP5 PUSH2 0x2B44 JUMP JUMPDEST POP POP POP JUMP JUMPDEST JUMPDEST DUP2 DUP2 LT ISZERO PUSH2 0x2BA5 JUMPI PUSH2 0x2B9A PUSH1 0x0 DUP3 PUSH2 0x2B6E JUMP JUMPDEST PUSH1 0x1 DUP2 ADD SWAP1 POP PUSH2 0x2B87 JUMP JUMPDEST POP POP JUMP JUMPDEST PUSH1 0x1F DUP3 GT ISZERO PUSH2 0x2BEA JUMPI PUSH2 0x2BBB DUP2 PUSH2 0x2A94 JUMP JUMPDEST PUSH2 0x2BC4 DUP5 PUSH2 0x2AA9 JUMP JUMPDEST DUP2 ADD PUSH1 0x20 DUP6 LT ISZERO PUSH2 0x2BD3 JUMPI DUP2 SWAP1 POP JUMPDEST PUSH2 0x2BE7 PUSH2 0x2BDF DUP6 PUSH2 0x2AA9 JUMP JUMPDEST DUP4 ADD DUP3 PUSH2 0x2B86 JUMP JUMPDEST POP POP JUMPDEST POP POP POP JUMP JUMPDEST PUSH1 0x0 DUP3 DUP3 SHR SWAP1 POP SWAP3 SWAP2 POP POP JUMP JUMPDEST PUSH1 0x0 PUSH2 0x2C0D PUSH1 0x0 NOT DUP5 PUSH1 0x8 MUL PUSH2 0x2BEF JUMP JUMPDEST NOT DUP1 DUP4 AND SWAP2 POP POP SWAP3 SWAP2 POP POP JUMP JUMPDEST PUSH1 0x0 PUSH2 0x2C26 DUP4 DUP4 PUSH2 0x2BFC JUMP JUMPDEST SWAP2 POP DUP3 PUSH1 0x2 MUL DUP3 OR SWAP1 POP SWAP3 SWAP2 POP POP JUMP JUMPDEST PUSH2 0x2C3F DUP3 PUSH2 0x2A5A JUMP JUMPDEST PUSH8 0xFFFFFFFFFFFFFFFF DUP2 GT ISZERO PUSH2 0x2C58 JUMPI PUSH2 0x2C57 PUSH2 0x2A65 JUMP JUMPDEST JUMPDEST PUSH2 0x2C62 DUP3 SLOAD PUSH2 0x2599 JUMP JUMPDEST PUSH2 0x2C6D DUP3 DUP3 DUP6 PUSH2 0x2BA9 JUMP JUMPDEST PUSH1 0x0 PUSH1 0x20 SWAP1 POP PUSH1 0x1F DUP4 GT PUSH1 0x1 DUP2 EQ PUSH2 0x2CA0 JUMPI PUSH1 0x0 DUP5 ISZERO PUSH2 0x2C8E JUMPI DUP3 DUP8 ADD MLOAD SWAP1 POP JUMPDEST PUSH2 0x2C98 DUP6 DUP3 PUSH2 0x2C1A JUMP JUMPDEST DUP7 SSTORE POP PUSH2 0x2D00 JUMP JUMPDEST PUSH1 0x1F NOT DUP5 AND PUSH2 0x2CAE DUP7 PUSH2 0x2A94 JUMP JUMPDEST PUSH1 0x0 JUMPDEST DUP3 DUP2 LT ISZERO PUSH2 0x2CD6 JUMPI DUP5 DUP10 ADD MLOAD DUP3 SSTORE PUSH1 0x1 DUP3 ADD SWAP2 POP PUSH1 0x20 DUP6 ADD SWAP5 POP PUSH1 0x20 DUP2 ADD SWAP1 POP PUSH2 0x2CB1 JUMP JUMPDEST DUP7 DUP4 LT ISZERO PUSH2 0x2CF3 JUMPI DUP5 DUP10 ADD MLOAD PUSH2 0x2CEF PUSH1 0x1F DUP10 AND DUP3 PUSH2 0x2BFC JUMP JUMPDEST DUP4 SSTORE POP JUMPDEST PUSH1 0x1 PUSH1 0x2 DUP9 MUL ADD DUP9 SSTORE POP POP POP JUMPDEST POP POP POP POP POP POP JUMP JUMPDEST PUSH1 0x0 DUP2 SWAP1 POP SWAP2 SWAP1 POP JUMP JUMPDEST PUSH2 0x2D23 PUSH2 0x2D1E DUP3 PUSH2 0x22D8 JUMP JUMPDEST PUSH2 0x2D08 JUMP JUMPDEST DUP3 MSTORE POP POP JUMP JUMPDEST PUSH1 0x0 PUSH2 0x2D35 DUP3 DUP6 PUSH2 0x2D12 JUMP JUMPDEST PUSH1 0x20 DUP3 ADD SWAP2 POP PUSH2 0x2D45 DUP3 DUP5 PUSH2 0x2D12 JUMP JUMPDEST PUSH1 0x20 DUP3 ADD SWAP2 POP DUP2 SWAP1 POP SWAP4 SWAP3 POP POP POP JUMP JUMPDEST PUSH32 0x4E487B7100000000000000000000000000000000000000000000000000000000 PUSH1 0x0 MSTORE PUSH1 0x12 PUSH1 0x4 MSTORE PUSH1 0x24 PUSH1 0x0 REVERT JUMPDEST PUSH1 0x0 PUSH2 0x2D8F DUP3 PUSH2 0x22D8 JUMP JUMPDEST SWAP2 POP PUSH2 0x2D9A DUP4 PUSH2 0x22D8 JUMP JUMPDEST SWAP3 POP DUP3 PUSH2 0x2DAA JUMPI PUSH2 0x2DA9 PUSH2 0x2D55 JUMP JUMPDEST JUMPDEST DUP3 DUP3 MOD SWAP1 POP SWAP3 SWAP2 POP POP JUMP JUMPDEST PUSH32 0x416C726561647920696E697469616C697A656400000000000000000000000000 PUSH1 0x0 DUP3 ADD MSTORE POP JUMP JUMPDEST PUSH1 0x0 PUSH2 0x2DEB PUSH1 0x13 DUP4 PUSH2 0x260C JUMP JUMPDEST SWAP2 POP PUSH2 0x2DF6 DUP3 PUSH2 0x2DB5 JUMP JUMPDEST PUSH1 0x20 DUP3 ADD SWAP1 POP SWAP2 SWAP1 POP JUMP JUMPDEST PUSH1 0x0 PUSH1 0x20 DUP3 ADD SWAP1 POP DUP2 DUP2 SUB PUSH1 0x0 DUP4 ADD MSTORE PUSH2 0x2E1A DUP2 PUSH2 0x2DDE JUMP JUMPDEST SWAP1 POP SWAP2 SWAP1 POP JUMP JUMPDEST PUSH1 0x0 DUP2 SWAP1 POP PUSH1 0x20 DUP3 ADD SWAP1 POP SWAP2 SWAP1 POP JUMP JUMPDEST PUSH1 0x0 DUP2 SWAP1 POP SWAP2 SWAP1 POP JUMP JUMPDEST PUSH1 0x0 PUSH2 0x2E47 DUP3 MLOAD PUSH2 0x2E31 JUMP JUMPDEST DUP1 SWAP2 POP POP SWAP2 SWAP1 POP JUMP JUMPDEST PUSH1 0x0 PUSH2 0x2E5B DUP3 PUSH2 0x2A5A JUMP JUMPDEST DUP3 PUSH2 0x2E65 DUP5 PUSH2 0x2E21 JUMP JUMPDEST SWAP1 POP PUSH2 0x2E70 DUP2 PUSH2 0x2E3B JUMP JUMPDEST SWAP3 POP PUSH1 0x20 DUP3 LT ISZERO PUSH2 0x2EB0 JUMPI PUSH2 0x2EAB PUSH32 0xFFFFFFFFFFFFFFFFFFFFFFFFFFFFFFFFFFFFFFFFFFFFFFFFFFFFFFFFFFFFFFFF DUP4 PUSH1 0x20 SUB PUSH1 0x8 MUL PUSH2 0x2AB9 JUMP JUMPDEST DUP4 AND SWAP3 POP JUMPDEST POP POP SWAP2 SWAP1 POP JUMP JUMPDEST PUSH32 0x4E6F7420617574686F72697A6564000000000000000000000000000000000000 PUSH1 0x0 DUP3 ADD MSTORE POP JUMP JUMPDEST PUSH1 0x0 PUSH2 0x2EED PUSH1 0xE DUP4 PUSH2 0x260C JUMP JUMPDEST SWAP2 POP PUSH2 0x2EF8 DUP3 PUSH2 0x2EB7 JUMP JUMPDEST PUSH1 0x20 DUP3 ADD SWAP1 POP SWAP2 SWAP1 POP JUMP JUMPDEST PUSH1 0x0 PUSH1 0x20 DUP3 ADD SWAP1 POP DUP2 DUP2 SUB PUSH1 0x0 DUP4 ADD MSTORE PUSH2 0x2F1C DUP2 PUSH2 0x2EE0 JUMP JUMPDEST SWAP1 POP SWAP2 SWAP1 POP JUMP JUMPDEST PUSH32 0x4E6F20656E74727920666F722074686973206164647265737300000000000000 PUSH1 0x0 DUP3 ADD MSTORE POP JUMP JUMPDEST PUSH1 0x0 PUSH2 0x2F59 PUSH1 0x19 DUP4 PUSH2 0x260C JUMP JUMPDEST SWAP2 POP PUSH2 0x2F64 DUP3 PUSH2 0x2F23 JUMP JUMPDEST PUSH1 0x20 DUP3 ADD SWAP1 POP SWAP2 SWAP1 POP JUMP JUMPDEST PUSH1 0x0 PUSH1 0x20 DUP3 ADD SWAP1 POP DUP2 DUP2 SUB PUSH1 0x0 DUP4 ADD MSTORE PUSH2 0x2F88 DUP2 PUSH2 0x2F4C JUMP JUMPDEST SWAP1 POP SWAP2 SWAP1 POP JUMP JUMPDEST PUSH1 0x0 PUSH1 0x40 DUP3 ADD SWAP1 POP PUSH2 0x2FA4 PUSH1 0x0 DUP4 ADD DUP6 PUSH2 0x20B2 JUMP JUMPDEST PUSH2 0x2FB1 PUSH1 0x20 DUP4 ADD DUP5 PUSH2 0x20B2 JUMP JUMPDEST SWAP4 SWAP3 POP POP POP JUMP JUMPDEST PUSH1 0x0 DUP2 MLOAD SWAP1 POP PUSH2 0x2FC7 DUP2 PUSH2 0x22E2 JUMP JUMPDEST SWAP3 SWAP2 POP POP JUMP JUMPDEST PUSH1 0x0 PUSH1 0x20 DUP3 DUP5 SUB SLT ISZERO PUSH2 0x2FE3 JUMPI PUSH2 0x2FE2 PUSH2 0x218C JUMP JUMPDEST JUMPDEST PUSH1 0x0 PUSH2 0x2FF1 DUP5 DUP3 DUP6 ADD PUSH2 0x2FB8 JUMP JUMPDEST SWAP2 POP POP SWAP3 SWAP2 POP POP JUMP JUMPDEST PUSH32 0x496E76616C696420616464726573730000000000000000000000000000000000 PUSH1 0x0 DUP3 ADD MSTORE POP JUMP JUMPDEST PUSH1 0x0 PUSH2 0x3030 PUSH1 0xF DUP4 PUSH2 0x260C JUMP JUMPDEST SWAP2 POP PUSH2 0x303B DUP3 PUSH2 0x2FFA JUMP JUMPDEST PUSH1 0x20 DUP3 ADD SWAP1 POP SWAP2 SWAP1 POP JUMP JUMPDEST PUSH1 0x0 PUSH1 0x20 DUP3 ADD SWAP1 POP DUP2 DUP2 SUB PUSH1 0x0 DUP4 ADD MSTORE PUSH2 0x305F DUP2 PUSH2 0x3023 JUMP JUMPDEST SWAP1 POP SWAP2 SWAP1 POP JUMP JUMPDEST PUSH32 0x416D6F756E74206D7573742062652067726561746572207468616E2030000000 PUSH1 0x0 DUP3 ADD MSTORE POP JUMP JUMPDEST PUSH1 0x0 PUSH2 0x309C PUSH1 0x1D DUP4 PUSH2 0x260C JUMP JUMPDEST SWAP2 POP PUSH2 0x30A7 DUP3 PUSH2 0x3066 JUMP JUMPDEST PUSH1 0x20 DUP3 ADD SWAP1 POP SWAP2 SWAP1 POP JUMP JUMPDEST PUSH1 0x0 PUSH1 0x20 DUP3 ADD SWAP1 POP DUP2 DUP2 SUB PUSH1 0x0 DUP4 ADD MSTORE PUSH2 0x30CB DUP2 PUSH2 0x308F JUMP JUMPDEST SWAP1 POP SWAP2 SWAP1 POP JUMP JUMPDEST PUSH32 0x4D7573742073656E6420524F5345000000000000000000000000000000000000 PUSH1 0x0 DUP3 ADD MSTORE POP JUMP JUMPDEST PUSH1 0x0 PUSH2 0x3108 PUSH1 0xE DUP4 PUSH2 0x260C JUMP JUMPDEST SWAP2 POP PUSH2 0x3113 DUP3 PUSH2 0x30D2 JUMP JUMPDEST PUSH1 0x20 DUP3 ADD SWAP1 POP SWAP2 SWAP1 POP JUMP JUMPDEST PUSH1 0x0 PUSH1 0x20 DUP3 ADD SWAP1 POP DUP2 DUP2 SUB PUSH1 0x0 DUP4 ADD MSTORE PUSH2 0x3137 DUP2 PUSH2 0x30FB JUMP JUMPDEST SWAP1 POP SWAP2 SWAP1 POP JUMP JUMPDEST PUSH32 0x496E616374697669747920706572696F64206D69736D61746368000000000000 PUSH1 0x0 DUP3 ADD MSTORE POP JUMP JUMPDEST PUSH1 0x0 PUSH2 0x3174 PUSH1 0x1A DUP4 PUSH2 0x260C JUMP JUMPDEST SWAP2 POP PUSH2 0x317F DUP3 PUSH2 0x313E JUMP JUMPDEST PUSH1 0x20 DUP3 ADD SWAP1 POP SWAP2 SWAP1 POP JUMP JUMPDEST PUSH1 0x0 PUSH1 0x20 DUP3 ADD SWAP1 POP DUP2 DUP2 SUB PUSH1 0x0 DUP4 ADD MSTORE PUSH2 0x31A3 DUP2 PUSH2 0x3167 JUMP JUMPDEST SWAP1 POP SWAP2 SWAP1 POP JUMP JUMPDEST PUSH1 0x0 PUSH1 0x2 SWAP1 POP SWAP2 SWAP1 POP JUMP JUMPDEST PUSH1 0x0 DUP2 SWAP1 POP SWAP2 SWAP1 POP JUMP JUMPDEST PUSH2 0x31CB PUSH1 0x40 DUP4 DUP4 PUSH2 0x2861 JUMP JUMPDEST POP POP JUMP JUMPDEST PUSH1 0x0 PUSH2 0x31DB DUP4 DUP4 PUSH2 0x31BF JUMP JUMPDEST PUSH1 0x40 DUP4 ADD SWAP1 POP SWAP3 SWAP2 POP POP JUMP JUMPDEST PUSH1 0x0 DUP3 SWAP1 POP SWAP3 SWAP2 POP POP JUMP JUMPDEST PUSH1 0x0 PUSH1 0x40 DUP3 ADD SWAP1 POP SWAP2 SWAP1 POP JUMP JUMPDEST PUSH2 0x3208 DUP2 PUSH2 0x31AA JUMP JUMPDEST PUSH2 0x3212 DUP2 DUP5 PUSH2 0x276E JUMP JUMPDEST SWAP3 POP PUSH2 0x321D DUP3 PUSH2 0x31B5 JUMP JUMPDEST DUP1 PUSH1 0x0 JUMPDEST DUP4 DUP2 LT ISZERO PUSH2 0x3256 JUMPI PUSH2 0x3233 DUP3 DUP5 PUSH2 0x31E7 JUMP JUMPDEST PUSH2 0x323D DUP8 DUP3 PUSH2 0x31CF JUMP JUMPDEST SWAP7 POP PUSH2 0x3248 DUP4 PUSH2 0x31F2 JUMP JUMPDEST SWAP3 POP POP PUSH1 0x1 DUP2 ADD SWAP1 POP PUSH2 0x3221 JUMP JUMPDEST POP POP POP POP POP POP JUMP JUMPDEST PUSH2 0x326A PUSH1 0x60 DUP4 DUP4 PUSH2 0x2861 JUMP JUMPDEST POP POP JUMP JUMPDEST PUSH1 0x0 PUSH2 0x160 DUP3 ADD SWAP1 POP PUSH2 0x3284 PUSH1 0x0 DUP4 ADD DUP8 PUSH2 0x286A JUMP JUMPDEST PUSH2 0x3291 PUSH1 0x40 DUP4 ADD DUP7 PUSH2 0x31FF JUMP JUMPDEST PUSH2 0x329E PUSH1 0xC0 DUP4 ADD DUP6 PUSH2 0x286A JUMP JUMPDEST PUSH2 0x32AC PUSH2 0x100 DUP4 ADD DUP5 PUSH2 0x325E JUMP JUMPDEST SWAP6 SWAP5 POP POP POP POP POP JUMP JUMPDEST PUSH32 0x4675747572652074696D657374616D7000000000000000000000000000000000 PUSH1 0x0 DUP3 ADD MSTORE POP JUMP JUMPDEST PUSH1 0x0 PUSH2 0x32EB PUSH1 0x10 DUP4 PUSH2 0x260C JUMP JUMPDEST SWAP2 POP PUSH2 0x32F6 DUP3 PUSH2 0x32B5 JUMP JUMPDEST PUSH1 0x20 DUP3 ADD SWAP1 POP SWAP2 SWAP1 POP JUMP JUMPDEST PUSH1 0x0 PUSH1 0x20 DUP3 ADD SWAP1 POP DUP2 DUP2 SUB PUSH1 0x0 DUP4 ADD MSTORE PUSH2 0x331A DUP2 PUSH2 0x32DE JUMP JUMPDEST SWAP1 POP SWAP2 SWAP1 POP JUMP JUMPDEST PUSH1 0x0 PUSH2 0x332C DUP3 PUSH2 0x2378 JUMP JUMPDEST SWAP2 POP PUSH2 0x3337 DUP4 PUSH2 0x2378 JUMP JUMPDEST SWAP3 POP DUP3 DUP3 ADD SWAP1 POP PUSH4 0xFFFFFFFF DUP2 GT ISZERO PUSH2 0x3353 JUMPI PUSH2 0x3352 PUSH2 0x2503 JUMP JUMPDEST JUMPDEST SWAP3 SWAP2 POP POP JUMP JUMPDEST PUSH32 0x496E616374697669747920706572696F64206E6F74206D657400000000000000 PUSH1 0x0 DUP3 ADD MSTORE POP JUMP JUMPDEST PUSH1 0x0 PUSH2 0x338F PUSH1 0x19 DUP4 PUSH2 0x260C JUMP JUMPDEST SWAP2 POP PUSH2 0x339A DUP3 PUSH2 0x3359 JUMP JUMPDEST PUSH1 0x20 DUP3 ADD SWAP1 POP SWAP2 SWAP1 POP JUMP JUMPDEST PUSH1 0x0 PUSH1 0x20 DUP3 ADD SWAP1 POP DUP2 DUP2 SUB PUSH1 0x0 DUP4 ADD MSTORE PUSH2 0x33BE DUP2 PUSH2 0x3382 JUMP JUMPDEST SWAP1 POP SWAP2 SWAP1 POP JUMP JUMPDEST PUSH32 0x4F776E6572206973207374696C6C206163746976650000000000000000000000 PUSH1 0x0 DUP3 ADD MSTORE POP JUMP JUMPDEST PUSH1 0x0 PUSH2 0x33FB PUSH1 0x15 DUP4 PUSH2 0x260C JUMP JUMPDEST SWAP2 POP PUSH2 0x3406 DUP3 PUSH2 0x33C5 JUMP JUMPDEST PUSH1 0x20 DUP3 ADD SWAP1 POP SWAP2 SWAP1 POP JUMP JUMPDEST PUSH1 0x0 PUSH1 0x20 DUP3 ADD SWAP1 POP DUP2 DUP2 SUB PUSH1 0x0 DUP4 ADD MSTORE PUSH2 0x342A DUP2 PUSH2 0x33EE JUMP JUMPDEST SWAP1 POP SWAP2 SWAP1 POP JUMP JUMPDEST PUSH2 0x343A DUP2 PUSH2 0x2E31 JUMP JUMPDEST DUP3 MSTORE POP POP JUMP JUMPDEST PUSH1 0x0 DUP3 DUP3 MSTORE PUSH1 0x20 DUP3 ADD SWAP1 POP SWAP3 SWAP2 POP POP JUMP JUMPDEST PUSH1 0x0 JUMPDEST DUP4 DUP2 LT ISZERO PUSH2 0x346F JUMPI DUP1 DUP3 ADD MLOAD DUP2 DUP5 ADD MSTORE PUSH1 0x20 DUP2 ADD SWAP1 POP PUSH2 0x3454 JUMP JUMPDEST PUSH1 0x0 DUP5 DUP5 ADD MSTORE POP POP POP POP JUMP JUMPDEST PUSH1 0x0 PUSH1 0x1F NOT PUSH1 0x1F DUP4 ADD AND SWAP1 POP SWAP2 SWAP1 POP JUMP JUMPDEST PUSH1 0x0 PUSH2 0x3497 DUP3 PUSH2 0x2A5A JUMP JUMPDEST PUSH2 0x34A1 DUP2 DUP6 PUSH2 0x3440 JUMP JUMPDEST SWAP4 POP PUSH2 0x34B1 DUP2 DUP6 PUSH1 0x20 DUP7 ADD PUSH2 0x3451 JUMP JUMPDEST PUSH2 0x34BA DUP2 PUSH2 0x347B JUMP JUMPDEST DUP5 ADD SWAP2 POP POP SWAP3 SWAP2 POP POP JUMP JUMPDEST PUSH1 0x0 PUSH1 0x80 DUP3 ADD SWAP1 POP PUSH2 0x34DA PUSH1 0x0 DUP4 ADD DUP8 PUSH2 0x3431 JUMP JUMPDEST PUSH2 0x34E7 PUSH1 0x20 DUP4 ADD DUP7 PUSH2 0x3431 JUMP JUMPDEST DUP2 DUP2 SUB PUSH1 0x40 DUP4 ADD MSTORE PUSH2 0x34F9 DUP2 DUP6 PUSH2 0x348C JUMP JUMPDEST SWAP1 POP DUP2 DUP2 SUB PUSH1 0x60 DUP4 ADD MSTORE PUSH2 0x350D DUP2 DUP5 PUSH2 0x348C JUMP JUMPDEST SWAP1 POP SWAP6 SWAP5 POP POP POP POP POP JUMP JUMPDEST PUSH1 0x0 DUP2 SWAP1 POP SWAP3 SWAP2 POP POP JUMP JUMPDEST PUSH1 0x0 PUSH2 0x352E DUP3 PUSH2 0x2A5A JUMP JUMPDEST PUSH2 0x3538 DUP2 DUP6 PUSH2 0x3518 JUMP JUMPDEST SWAP4 POP PUSH2 0x3548 DUP2 DUP6 PUSH1 0x20 DUP7 ADD PUSH2 0x3451 JUMP JUMPDEST DUP1 DUP5 ADD SWAP2 POP POP SWAP3 SWAP2 POP POP JUMP JUMPDEST PUSH1 0x0 PUSH2 0x3560 DUP3 DUP5 PUSH2 0x3523 JUMP JUMPDEST SWAP2 POP DUP2 SWAP1 POP SWAP3 SWAP2 POP POP JUMP JUMPDEST PUSH32 0x646563727970743A206661696C65640000000000000000000000000000000000 PUSH1 0x0 DUP3 ADD MSTORE POP JUMP JUMPDEST PUSH1 0x0 PUSH2 0x35A1 PUSH1 0xF DUP4 PUSH2 0x260C JUMP JUMPDEST SWAP2 POP PUSH2 0x35AC DUP3 PUSH2 0x356B JUMP JUMPDEST PUSH1 0x20 DUP3 ADD SWAP1 POP SWAP2 SWAP1 POP JUMP JUMPDEST PUSH1 0x0 PUSH1 0x20 DUP3 ADD SWAP1 POP DUP2 DUP2 SUB PUSH1 0x0 DUP4 ADD MSTORE PUSH2 0x35D0 DUP2 PUSH2 0x3594 JUMP JUMPDEST SWAP1 POP SWAP2 SWAP1 POP JUMP JUMPDEST PUSH32 0x656E63727970743A206661696C65640000000000000000000000000000000000 PUSH1 0x0 DUP3 ADD MSTORE POP JUMP JUMPDEST PUSH1 0x0 PUSH2 0x360D PUSH1 0xF DUP4 PUSH2 0x260C JUMP JUMPDEST SWAP2 POP PUSH2 0x3618 DUP3 PUSH2 0x35D7 JUMP JUMPDEST PUSH1 0x20 DUP3 ADD SWAP1 POP SWAP2 SWAP1 POP JUMP JUMPDEST PUSH1 0x0 PUSH1 0x20 DUP3 ADD SWAP1 POP DUP2 DUP2 SUB PUSH1 0x0 DUP4 ADD MSTORE PUSH2 0x363C DUP2 PUSH2 0x3600 JUMP JUMPDEST SWAP1 POP SWAP2 SWAP1 POP JUMP JUMPDEST PUSH1 0x0 PUSH1 0x40 DUP3 ADD SWAP1 POP PUSH2 0x3658 PUSH1 0x0 DUP4 ADD DUP6 PUSH2 0x234E JUMP JUMPDEST DUP2 DUP2 SUB PUSH1 0x20 DUP4 ADD MSTORE PUSH2 0x366A DUP2 DUP5 PUSH2 0x348C JUMP JUMPDEST SWAP1 POP SWAP4 SWAP3 POP POP POP JUMP JUMPDEST PUSH32 0x72616E646F6D42797465733A206661696C656400000000000000000000000000 PUSH1 0x0 DUP3 ADD MSTORE POP JUMP JUMPDEST PUSH1 0x0 PUSH2 0x36A9 PUSH1 0x13 DUP4 PUSH2 0x260C JUMP JUMPDEST SWAP2 POP PUSH2 0x36B4 DUP3 PUSH2 0x3673 JUMP JUMPDEST PUSH1 0x20 DUP3 ADD SWAP1 POP SWAP2 SWAP1 POP JUMP JUMPDEST PUSH1 0x0 PUSH1 0x20 DUP3 ADD SWAP1 POP DUP2 DUP2 SUB PUSH1 0x0 DUP4 ADD MSTORE PUSH2 0x36D8 DUP2 PUSH2 0x369C JUMP JUMPDEST SWAP1 POP SWAP2 SWAP1 POP JUMP JUMPDEST PUSH32 0x4E6F2066756E647320617661696C61626C650000000000000000000000000000 PUSH1 0x0 DUP3 ADD MSTORE POP JUMP JUMPDEST PUSH1 0x0 PUSH2 0x3715 PUSH1 0x12 DUP4 PUSH2 0x260C JUMP JUMPDEST SWAP2 POP PUSH2 0x3720 DUP3 PUSH2 0x36DF JUMP JUMPDEST PUSH1 0x20 DUP3 ADD SWAP1 POP SWAP2 SWAP1 POP JUMP JUMPDEST PUSH1 0x0 PUSH1 0x20 DUP3 ADD SWAP1 POP DUP2 DUP2 SUB PUSH1 0x0 DUP4 ADD MSTORE PUSH2 0x3744 DUP2 PUSH2 0x3708 JUMP JUMPDEST SWAP1 POP SWAP2 SWAP1 POP JUMP JUMPDEST PUSH1 0x0 PUSH2 0x3756 DUP3 PUSH2 0x22D8 JUMP JUMPDEST SWAP2 POP PUSH32 0xFFFFFFFFFFFFFFFFFFFFFFFFFFFFFFFFFFFFFFFFFFFFFFFFFFFFFFFFFFFFFFFF DUP3 SUB PUSH2 0x3788 JUMPI PUSH2 0x3787 PUSH2 0x2503 JUMP JUMPDEST JUMPDEST PUSH1 0x1 DUP3 ADD SWAP1 POP SWAP2 SWAP1 POP JUMP INVALID LOG2 PUSH5 0x6970667358 0x22 SLT KECCAK256 SWAP3 PUSH32 0xD7A9B0C163D4A0070CD9057688EDD71192C5718119BF871453B30114297C6473 PUSH16 0x6C634300081400330000000000000000 "},"methodIdentifiers":{"addBeneficiary(address,uint256)":"96074e70","beneficiaryList(uint256)":"9e761bbb","computePoseidonHash(uint256,uint256)":"52b7bc4c","depositFunds()":"e2c41dbc","getBeneficiaryAmount(address)":"9054fddb","getLastActive()":"fa492ca9","getOwnerAddress()":"0c4f65bd","heartbeat()":"3defb962","heartbeatWithProof(uint256[2],uint256[2][2],uint256[2],uint256[2])":"3b6f865e","inactivityPeriod()":"d362bd2b","initialize(uint32)":"8d8965bd","owner()":"8da5cb5b","setGroth16Verifier(address)":"399f6e24","triggerSwitch()":"f312186a","triggerWithProof(uint256[2],uint256[2][2],uint256[2],uint256[3])":"f169c0f5","verifier()":"2b7ac3f3","verifier2()":"522d0d70","verifyInactivity()":"3626157c"}}}}}