{"contracts/oasiszk.sol":{"SmartContract2":{"abi":[{"inputs":[],"stateMutability":"nonpayable","type":"constructor"},{"anonymous":false,"inputs":[{"indexed":true,"internalType":"address","name":"beneficiary","type":"address"},{"indexed":false,"internalType":"uint256","name":"amount","type":"uint256"}],"name":"BeneficiaryAdded","type":"event"},{"anonymous":false,"inputs":[{"indexed":true,"internalType":"address","name":"owner","type":"address"},{"indexed":false,"internalType":"uint32","name":"inactivityPeriod","type":"uint32"}],"name":"ContractDeployed","type":"event"},{"anonymous":false,"inputs":[{"indexed":true,"internalType":"address","name":"sender","type":"address"},{"indexed":false,"internalType":"uint256","name":"amount","type":"uint256"}],"name":"FundsDeposited","type":"event"},{"anonymous":false,"inputs":[{"indexed":true,"internalType":"address","name":"beneficiary","type":"address"},{"indexed":false,"internalType":"uint256","name":"amount","type":"uint256"}],"name":"FundsReleased","type":"event"},{"anonymous":false,"inputs":[{"indexed":true,"internalType":"address","name":"owner","type":"address"}],"name":"HeartbeatReceived","type":"event"},{"anonymous":false,"inputs":[{"indexed":false,"internalType":"bool","name":"valid","type":"bool"}],"name":"InactivityVerified","type":"event"},{"anonymous":false,"inputs":[{"indexed":false,"internalType":"bool","name":"valid","type":"bool"}],"name":"ProofVerified","type":"event"},{"inputs":[{"internalType":"address","name":"_beneficiary","type":"address"},{"internalType":"uint256","name":"_amount","type":"uint256"}],"name":"addBeneficiary","outputs":[],"stateMutability":"nonpayable","type":"function"},{"inputs":[{"internalType":"address","name":"","type":"address"}],"name":"beneficiaries","outputs":[{"internalType":"uint256","name":"","type":"uint256"}],"stateMutability":"view","type":"function"},{"inputs":[{"internalType":"uint256","name":"","type":"uint256"}],"name":"beneficiaryList","outputs":[{"internalType":"address","name":"","type":"address"}],"stateMutability":"view","type":"function"},{"inputs":[],"name":"depositFunds","outputs":[],"stateMutability":"payable","type":"function"},{"inputs":[],"name":"heartbeat","outputs":[],"stateMutability":"nonpayable","type":"function"},{"inputs":[],"name":"inactivityPeriod","outputs":[{"internalType":"uint32","name":"","type":"uint32"}],"stateMutability":"view","type":"function"},{"inputs":[{"internalType":"uint32","name":"_inactivityPeriod","type":"uint32"}],"name":"initialize","outputs":[],"stateMutability":"nonpayable","type":"function"},{"inputs":[],"name":"owner","outputs":[{"internalType":"address","name":"","type":"address"}],"stateMutability":"view","type":"function"},{"inputs":[],"name":"triggerSwitch","outputs":[],"stateMutability":"nonpayable","type":"function"},{"inputs":[{"internalType":"uint256[2]","name":"a","type":"uint256[2]"},{"internalType":"uint256[2][2]","name":"b","type":"uint256[2][2]"},{"internalType":"uint256[2]","name":"c","type":"uint256[2]"},{"internalType":"uint256[3]","name":"input","type":"uint256[3]"}],"name":"triggerWithProof","outputs":[],"stateMutability":"nonpayable","type":"function"},{"inputs":[],"name":"verifyInactivity","outputs":[{"internalType":"bool","name":"","type":"bool"}],"stateMutability":"view","type":"function"},{"inputs":[{"internalType":"uint256[2]","name":"_pA","type":"uint256[2]"},{"internalType":"uint256[2][2]","name":"_pB","type":"uint256[2][2]"},{"internalType":"uint256[2]","name":"_pC","type":"uint256[2]"},{"internalType":"uint256[]","name":"_pubSignals","type":"uint256[]"}],"name":"verifyProof","outputs":[{"internalType":"bool","name":"","type":"bool"}],"stateMutability":"view","type":"function"}],"evm":{"bytecode":{"linkReferences":{},"object":"608060405234801561001057600080fd5b5061287c806100206000396000f3fe6080604052600436106100a75760003560e01c80639e761bbb116100645780639e761bbb146101a8578063c32e370e146101e5578063d362bd2b14610222578063e2c41dbc1461024d578063f169c0f514610257578063f312186a14610280576100a7565b806301567739146100ac5780633626157c146100e95780633defb962146101145780638d8965bd1461012b5780638da5cb5b1461015457806396074e701461017f575b600080fd5b3480156100b857600080fd5b506100d360048036038101906100ce9190611705565b610297565b6040516100e0919061174b565b60405180910390f35b3480156100f557600080fd5b506100fe6102af565b60405161010b9190611781565b60405180910390f35b34801561012057600080fd5b506101296103e3565b005b34801561013757600080fd5b50610152600480360381019061014d91906117d8565b610553565b005b34801561016057600080fd5b506101696107ab565b6040516101769190611814565b60405180910390f35b34801561018b57600080fd5b506101a660048036038101906101a1919061185b565b6107cf565b005b3480156101b457600080fd5b506101cf60048036038101906101ca919061189b565b610a50565b6040516101dc9190611814565b60405180910390f35b3480156101f157600080fd5b5061020c60048036038101906102079190611971565b610a8f565b6040516102199190611781565b60405180910390f35b34801561022e57600080fd5b50610237610def565b6040516102449190611a0a565b60405180910390f35b610255610e05565b005b34801561026357600080fd5b5061027e60048036038101906102799190611a47565b610f26565b005b34801561028c57600080fd5b50610295611198565b005b60046020528060005260406000206000915090505481565b60008042905060008060159054906101000a900463ffffffff16826102d49190611adf565b905060006103b1600254600354600180546102ee90611b46565b80601f016020809104026020016040519081016040528092919081815260200182805461031a90611b46565b80156103675780601f1061033c57610100808354040283529160200191610367565b820191906000526020600020905b81548152906001019060200180831161034a57829003601f168201915b505050505060008054906101000a900473ffffffffffffffffffffffffffffffffffffffff1660405160200161039d9190611814565b604051602081830303815290604052611221565b90506000818060200190518101906103c99190611b8c565b90508263ffffffff168163ffffffff161094505050505090565b60008054906101000a900473ffffffffffffffffffffffffffffffffffffffff1673ffffffffffffffffffffffffffffffffffffffff163373ffffffffffffffffffffffffffffffffffffffff1614610471576040517f08c379a000000000000000000000000000000000000000000000000000000000815260040161046890611c16565b60405180910390fd5b6104df6002546003544260405160200161048b9190611a0a565b60405160208183030381529060405260008054906101000a900473ffffffffffffffffffffffffffffffffffffffff166040516020016104cb9190611814565b604051602081830303815290604052611316565b600190816104ed9190611e1c565b5060008054906101000a900473ffffffffffffffffffffffffffffffffffffffff1673ffffffffffffffffffffffffffffffffffffffff167f59db9904863f5c0703e74a4df99bfbad4374b3edb69328a2f7bc4df34851109760405160405180910390a2565b600060149054906101000a900460ff16156105a3576040517f08c379a000000000000000000000000000000000000000000000000000000000815260040161059a90611f3a565b60405180910390fd5b336000806101000a81548173ffffffffffffffffffffffffffffffffffffffff021916908373ffffffffffffffffffffffffffffffffffffffff16021790555080600060156101000a81548163ffffffff021916908363ffffffff16021790555061064460206040518060400160405280600d81526020017f656e6372797074696f6e4b65790000000000000000000000000000000000000081525061140b565b61064d90611f89565b60028190555061069360206040518060400160405280600581526020017f6e6f6e636500000000000000000000000000000000000000000000000000000081525061140b565b61069c90611f89565b600381905550610710600254600354426040516020016106bc9190611a0a565b60405160208183030381529060405260008054906101000a900473ffffffffffffffffffffffffffffffffffffffff166040516020016106fc9190611814565b604051602081830303815290604052611316565b6001908161071e9190611e1c565b506001600060146101000a81548160ff02191690831515021790555060008054906101000a900473ffffffffffffffffffffffffffffffffffffffff1673ffffffffffffffffffffffffffffffffffffffff167f620dca0c9d04f7cea9d7f31e571d74acccd54c21dc8ff8855ec1d5a21733c26b826040516107a09190611a0a565b60405180910390a250565b60008054906101000a900473ffffffffffffffffffffffffffffffffffffffff1681565b60008054906101000a900473ffffffffffffffffffffffffffffffffffffffff1673ffffffffffffffffffffffffffffffffffffffff163373ffffffffffffffffffffffffffffffffffffffff161461085d576040517f08c379a000000000000000000000000000000000000000000000000000000000815260040161085490611c16565b60405180910390fd5b600073ffffffffffffffffffffffffffffffffffffffff168273ffffffffffffffffffffffffffffffffffffffff16036108cc576040517f08c379a00000000000000000000000000000000000000000000000000000000081526004016108c39061203c565b60405180910390fd5b6000811161090f576040517f08c379a0000000000000000000000000000000000000000000000000000000008152600401610906906120a8565b60405180910390fd5b6000600460008473ffffffffffffffffffffffffffffffffffffffff1673ffffffffffffffffffffffffffffffffffffffff16815260200190815260200160002054036109ba576005829080600181540180825580915050600190039060005260206000200160009091909190916101000a81548173ffffffffffffffffffffffffffffffffffffffff021916908373ffffffffffffffffffffffffffffffffffffffff1602179055505b80600460008473ffffffffffffffffffffffffffffffffffffffff1673ffffffffffffffffffffffffffffffffffffffff168152602001908152602001600020819055508173ffffffffffffffffffffffffffffffffffffffff167fe6b83177f11971ba30369bb38b914ffba97d5969a3c857b286fa8fdbb150b3ba82604051610a44919061174b565b60405180910390a25050565b60058181548110610a6057600080fd5b906000526020600020016000915054906101000a900473ffffffffffffffffffffffffffffffffffffffff1681565b6000610dcd565b600060808601600087017f2c5b613649baa55e810fdd3d481d8fa0eb9b8fcaa753ab609fa8cb96c0f8fbd181527f1440b2ef7dc36879d0ae9a50c5ab69f6ddee0f884321953e5a1facac5a33198a6020820152833582527f30644e72e131a029b85045b68181585d97816a916871ca8d3c208c16d87cfd4760208501357f30644e72e131a029b85045b68181585d97816a916871ca8d3c208c16d87cfd4703066020830152843560408301526020850135606083015260408501356080830152606085013560a08301527f17f27440e7e6e1703aed2ff6e463671ce6662bbab291e035d2ca6be753c7f4f060c08301527f024ecdbca05acde8f92396924aae36cea80fd508636b7b58738fc94ffde4c4d860e08301527f2eef9b42ac8deb97378e3212f52b57b478c96a7cac8f5625ce501ba50aad5dd76101008301527f27436c42aac7e971581b83119dadfbbb77d1f3d3d62520a9df7f64c4f8d05d3d6101208301527f190324fc8c888c4222bce962aa18dbb5e15fcbab039f2594374490fd565994576101408301527f2e2a2ddc39cffb9c9f9f5d420a61c20b585938d5b9df71315dd3e26f90fef23e610160830152600088015161018083015260206000018801516101a08301527f198e9393920d483a7260bfb731fb5d25f1aa493335a9e71297e485b7aef312c26101c08301527f1800deef121f1e76426a00665e5c4479674322d4f75edadd46debd5cd992f6ed6101e08301527f090689d0585ff075ec9e99ad690c3395bc4b313370b38ef355acdadcd122975b6102008301527f12c85ea5db8c6deb4aab71808dcb408fe3d1e7690c43d37b4ce6cc0166fa7daa610220830152853561024083015260208601356102608301527f198e9393920d483a7260bfb731fb5d25f1aa493335a9e71297e485b7aef312c26102808301527f1800deef121f1e76426a00665e5c4479674322d4f75edadd46debd5cd992f6ed6102a08301527f090689d0585ff075ec9e99ad690c3395bc4b313370b38ef355acdadcd122975b6102c08301527f12c85ea5db8c6deb4aab71808dcb408fe3d1e7690c43d37b4ce6cc0166fa7daa6102e08301526020826103008460086107d05a03fa82518116935050505095945050505050565b6040516103808101604052610de5818587898b610a96565b8060005260206000f35b600060159054906101000a900463ffffffff1681565b60008054906101000a900473ffffffffffffffffffffffffffffffffffffffff1673ffffffffffffffffffffffffffffffffffffffff163373ffffffffffffffffffffffffffffffffffffffff1614610e93576040517f08c379a0000000000000000000000000000000000000000000000000000000008152600401610e8a90611c16565b60405180910390fd5b60003411610ed6576040517f08c379a0000000000000000000000000000000000000000000000000000000008152600401610ecd90612114565b60405180910390fd5b3373ffffffffffffffffffffffffffffffffffffffff167f543ba50a5eec5e6178218e364b1d0f396157b3c8fa278522c2cb7fd99407d47434604051610f1c919061174b565b60405180910390a2565b6000600367ffffffffffffffff811115610f4357610f42611c41565b5b604051908082528060200260200182016040528015610f715781602001602082028036833780820191505090505b50905081600060038110610f8857610f87612134565b5b602002013581600081518110610fa157610fa0612134565b5b60200260200101818152505081600160038110610fc157610fc0612134565b5b602002013581600181518110610fda57610fd9612134565b5b60200260200101818152505081600260038110610ffa57610ff9612134565b5b60200201358160028151811061101357611012612134565b5b6020026020010181815250503073ffffffffffffffffffffffffffffffffffffffff1663c32e370e868686856040518563ffffffff1660e01b815260040161105e94939291906122f9565b602060405180830381865afa15801561107b573d6000803e3d6000fd5b505050506040513d601f19601f8201168201806040525081019061109f9190612373565b6110de576040517f08c379a00000000000000000000000000000000000000000000000000000000081526004016110d5906123ec565b60405180910390fd5b7ff4d358772b552280f9395158c37bc77ddcbcdeaf62b20aa01276fb89d7ea1923600160405161110e9190611781565b60405180910390a1600060159054906101000a900463ffffffff1663ffffffff168260026003811061114357611142612134565b5b60200201351015611189576040517f08c379a000000000000000000000000000000000000000000000000000000000815260040161118090612458565b60405180910390fd5b6111916114fa565b5050505050565b6111a06102af565b6111df576040517f08c379a00000000000000000000000000000000000000000000000000000000081526004016111d6906124c4565b60405180910390fd5b7f76729d52b3ec041633e327fe49b91b757319a9cb241b0f6ce433ff396ee4dee6600160405161120f9190611781565b60405180910390a161121f6114fa565b565b606060008073010000000000000000000000000000000000000473ffffffffffffffffffffffffffffffffffffffff16878787876040516020016112689493929190612578565b6040516020818303038152906040526040516112849190612607565b600060405180830381855afa9150503d80600081146112bf576040519150601f19603f3d011682016040523d82523d6000602084013e6112c4565b606091505b509150915081611309576040517f08c379a00000000000000000000000000000000000000000000000000000000081526004016113009061266a565b60405180910390fd5b8092505050949350505050565b606060008073010000000000000000000000000000000000000373ffffffffffffffffffffffffffffffffffffffff168787878760405160200161135d9493929190612578565b6040516020818303038152906040526040516113799190612607565b600060405180830381855afa9150503d80600081146113b4576040519150601f19603f3d011682016040523d82523d6000602084013e6113b9565b606091505b5091509150816113fe576040517f08c379a00000000000000000000000000000000000000000000000000000000081526004016113f5906126d6565b60405180910390fd5b8092505050949350505050565b606060008073010000000000000000000000000000000000000173ffffffffffffffffffffffffffffffffffffffff16858560405160200161144e9291906126f6565b60405160208183030381529060405260405161146a9190612607565b600060405180830381855afa9150503d80600081146114a5576040519150601f19603f3d011682016040523d82523d6000602084013e6114aa565b606091505b5091509150816114ef576040517f08c379a00000000000000000000000000000000000000000000000000000000081526004016114e690612772565b60405180910390fd5b809250505092915050565b600047905060008111611542576040517f08c379a0000000000000000000000000000000000000000000000000000000008152600401611539906127de565b60405180910390fd5b60005b6005805490508110156116995760006005828154811061156857611567612134565b5b9060005260206000200160009054906101000a900473ffffffffffffffffffffffffffffffffffffffff1690506000600460008373ffffffffffffffffffffffffffffffffffffffff1673ffffffffffffffffffffffffffffffffffffffff1681526020019081526020016000205490506000811180156115e95750808410155b15611684578173ffffffffffffffffffffffffffffffffffffffff166108fc829081150290604051600060405180830381858888f19350505050158015611634573d6000803e3d6000fd5b508173ffffffffffffffffffffffffffffffffffffffff167f221c08a06b07a64803b3787861a3f276212fcccb51c2e6234077a9b8cb13047a8260405161167b919061174b565b60405180910390a25b50508080611691906127fe565b915050611545565b5050565b600080fd5b600080fd5b600073ffffffffffffffffffffffffffffffffffffffff82169050919050565b60006116d2826116a7565b9050919050565b6116e2816116c7565b81146116ed57600080fd5b50565b6000813590506116ff816116d9565b92915050565b60006020828403121561171b5761171a61169d565b5b6000611729848285016116f0565b91505092915050565b6000819050919050565b61174581611732565b82525050565b6000602082019050611760600083018461173c565b92915050565b60008115159050919050565b61177b81611766565b82525050565b60006020820190506117966000830184611772565b92915050565b600063ffffffff82169050919050565b6117b58161179c565b81146117c057600080fd5b50565b6000813590506117d2816117ac565b92915050565b6000602082840312156117ee576117ed61169d565b5b60006117fc848285016117c3565b91505092915050565b61180e816116c7565b82525050565b60006020820190506118296000830184611805565b92915050565b61183881611732565b811461184357600080fd5b50565b6000813590506118558161182f565b92915050565b600080604083850312156118725761187161169d565b5b6000611880858286016116f0565b925050602061189185828601611846565b9150509250929050565b6000602082840312156118b1576118b061169d565b5b60006118bf84828501611846565b91505092915050565b600080fd5b6000819050826020600202820111156118e9576118e86118c8565b5b92915050565b60008190508260406002028201111561190b5761190a6118c8565b5b92915050565b600080fd5b600080fd5b60008083601f84011261193157611930611911565b5b8235905067ffffffffffffffff81111561194e5761194d611916565b5b60208301915083602082028301111561196a576119696118c8565b5b9250929050565b6000806000806000610120868803121561198e5761198d61169d565b5b600061199c888289016118cd565b95505060406119ad888289016118ef565b94505060c06119be888289016118cd565b93505061010086013567ffffffffffffffff8111156119e0576119df6116a2565b5b6119ec8882890161191b565b92509250509295509295909350565b611a048161179c565b82525050565b6000602082019050611a1f60008301846119fb565b92915050565b600081905082602060030282011115611a4157611a406118c8565b5b92915050565b6000806000806101608587031215611a6257611a6161169d565b5b6000611a70878288016118cd565b9450506040611a81878288016118ef565b93505060c0611a92878288016118cd565b925050610100611aa487828801611a25565b91505092959194509250565b7f4e487b7100000000000000000000000000000000000000000000000000000000600052601160045260246000fd5b6000611aea8261179c565b9150611af58361179c565b9250828203905063ffffffff811115611b1157611b10611ab0565b5b92915050565b7f4e487b7100000000000000000000000000000000000000000000000000000000600052602260045260246000fd5b60006002820490506001821680611b5e57607f821691505b602082108103611b7157611b70611b17565b5b50919050565b600081519050611b86816117ac565b92915050565b600060208284031215611ba257611ba161169d565b5b6000611bb084828501611b77565b91505092915050565b600082825260208201905092915050565b7f4e6f7420746865206f776e657200000000000000000000000000000000000000600082015250565b6000611c00600d83611bb9565b9150611c0b82611bca565b602082019050919050565b60006020820190508181036000830152611c2f81611bf3565b9050919050565b600081519050919050565b7f4e487b7100000000000000000000000000000000000000000000000000000000600052604160045260246000fd5b60008190508160005260206000209050919050565b60006020601f8301049050919050565b600082821b905092915050565b600060088302611cd27fffffffffffffffffffffffffffffffffffffffffffffffffffffffffffffffff82611c95565b611cdc8683611c95565b95508019841693508086168417925050509392505050565b6000819050919050565b6000611d19611d14611d0f84611732565b611cf4565b611732565b9050919050565b6000819050919050565b611d3383611cfe565b611d47611d3f82611d20565b848454611ca2565b825550505050565b600090565b611d5c611d4f565b611d67818484611d2a565b505050565b5b81811015611d8b57611d80600082611d54565b600181019050611d6d565b5050565b601f821115611dd057611da181611c70565b611daa84611c85565b81016020851015611db9578190505b611dcd611dc585611c85565b830182611d6c565b50505b505050565b600082821c905092915050565b6000611df360001984600802611dd5565b1980831691505092915050565b6000611e0c8383611de2565b9150826002028217905092915050565b611e2582611c36565b67ffffffffffffffff811115611e3e57611e3d611c41565b5b611e488254611b46565b611e53828285611d8f565b600060209050601f831160018114611e865760008415611e74578287015190505b611e7e8582611e00565b865550611ee6565b601f198416611e9486611c70565b60005b82811015611ebc57848901518255600182019150602085019450602081019050611e97565b86831015611ed95784890151611ed5601f891682611de2565b8355505b6001600288020188555050505b505050505050565b7f416c726561647920696e697469616c697a656400000000000000000000000000600082015250565b6000611f24601383611bb9565b9150611f2f82611eee565b602082019050919050565b60006020820190508181036000830152611f5381611f17565b9050919050565b6000819050602082019050919050565b6000819050919050565b6000611f808251611f6a565b80915050919050565b6000611f9482611c36565b82611f9e84611f5a565b9050611fa981611f74565b92506020821015611fe957611fe47fffffffffffffffffffffffffffffffffffffffffffffffffffffffffffffffff83602003600802611c95565b831692505b5050919050565b7f496e76616c696420616464726573730000000000000000000000000000000000600082015250565b6000612026600f83611bb9565b915061203182611ff0565b602082019050919050565b6000602082019050818103600083015261205581612019565b9050919050565b7f416d6f756e74206d7573742062652067726561746572207468616e2030000000600082015250565b6000612092601d83611bb9565b915061209d8261205c565b602082019050919050565b600060208201905081810360008301526120c181612085565b9050919050565b7f4d7573742073656e642045544800000000000000000000000000000000000000600082015250565b60006120fe600d83611bb9565b9150612109826120c8565b602082019050919050565b6000602082019050818103600083015261212d816120f1565b9050919050565b7f4e487b7100000000000000000000000000000000000000000000000000000000600052603260045260246000fd5b82818337505050565b61217860408383612163565b5050565b600060029050919050565b600081905092915050565b6000819050919050565b6121a860408383612163565b5050565b60006121b8838361219c565b60408301905092915050565b600082905092915050565b6000604082019050919050565b6121e58161217c565b6121ef8184612187565b92506121fa82612192565b8060005b838110156122335761221082846121c4565b61221a87826121ac565b9650612225836121cf565b9250506001810190506121fe565b505050505050565b600081519050919050565b600082825260208201905092915050565b6000819050602082019050919050565b61227081611732565b82525050565b60006122828383612267565b60208301905092915050565b6000602082019050919050565b60006122a68261223b565b6122b08185612246565b93506122bb83612257565b8060005b838110156122ec5781516122d38882612276565b97506122de8361228e565b9250506001810190506122bf565b5085935050505092915050565b60006101208201905061230f600083018761216c565b61231c60408301866121dc565b61232960c083018561216c565b81810361010083015261233c818461229b565b905095945050505050565b61235081611766565b811461235b57600080fd5b50565b60008151905061236d81612347565b92915050565b6000602082840312156123895761238861169d565b5b60006123978482850161235e565b91505092915050565b7f496e76616c69642070726f6f6600000000000000000000000000000000000000600082015250565b60006123d6600d83611bb9565b91506123e1826123a0565b602082019050919050565b60006020820190508181036000830152612405816123c9565b9050919050565b7f496e616374697669747920706572696f64206e6f74206d657400000000000000600082015250565b6000612442601983611bb9565b915061244d8261240c565b602082019050919050565b6000602082019050818103600083015261247181612435565b9050919050565b7f4f776e6572206973207374696c6c206163746976650000000000000000000000600082015250565b60006124ae601583611bb9565b91506124b982612478565b602082019050919050565b600060208201905081810360008301526124dd816124a1565b9050919050565b6124ed81611f6a565b82525050565b600082825260208201905092915050565b60005b83811015612522578082015181840152602081019050612507565b60008484015250505050565b6000601f19601f8301169050919050565b600061254a82611c36565b61255481856124f3565b9350612564818560208601612504565b61256d8161252e565b840191505092915050565b600060808201905061258d60008301876124e4565b61259a60208301866124e4565b81810360408301526125ac818561253f565b905081810360608301526125c0818461253f565b905095945050505050565b600081905092915050565b60006125e182611c36565b6125eb81856125cb565b93506125fb818560208601612504565b80840191505092915050565b600061261382846125d6565b915081905092915050565b7f646563727970743a206661696c65640000000000000000000000000000000000600082015250565b6000612654600f83611bb9565b915061265f8261261e565b602082019050919050565b6000602082019050818103600083015261268381612647565b9050919050565b7f656e63727970743a206661696c65640000000000000000000000000000000000600082015250565b60006126c0600f83611bb9565b91506126cb8261268a565b602082019050919050565b600060208201905081810360008301526126ef816126b3565b9050919050565b600060408201905061270b600083018561173c565b818103602083015261271d818461253f565b90509392505050565b7f72616e646f6d42797465733a206661696c656400000000000000000000000000600082015250565b600061275c601383611bb9565b915061276782612726565b602082019050919050565b6000602082019050818103600083015261278b8161274f565b9050919050565b7f4e6f2066756e647320617661696c61626c650000000000000000000000000000600082015250565b60006127c8601283611bb9565b91506127d382612792565b602082019050919050565b600060208201905081810360008301526127f7816127bb565b9050919050565b600061280982611732565b91507fffffffffffffffffffffffffffffffffffffffffffffffffffffffffffffffff820361283b5761283a611ab0565b5b60018201905091905056fea26469706673582212200b7757889618843bc1421a744681b81137e4c5f8b26ac9b306dbd787e79a049564736f6c63430008140033","opcodes":"PUSH1 0x80 PUSH1 0x40 MSTORE CALLVALUE DUP1 ISZERO PUSH2 0x10 JUMPI PUSH1 0x0 DUP1 REVERT JUMPDEST POP PUSH2 0x287C DUP1 PUSH2 0x20 PUSH1 0x0 CODECOPY PUSH1 0x0 RETURN INVALID PUSH1 0x80 PUSH1 0x40 MSTORE PUSH1 0x4 CALLDATASIZE LT PUSH2 0xA7 JUMPI PUSH1 0x0 CALLDATALOAD PUSH1 0xE0 SHR DUP1 PUSH4 0x9E761BBB GT PUSH2 0x64 JUMPI DUP1 PUSH4 0x9E761BBB EQ PUSH2 0x1A8 JUMPI DUP1 PUSH4 0xC32E370E EQ PUSH2 0x1E5 JUMPI DUP1 PUSH4 0xD362BD2B EQ PUSH2 0x222 JUMPI DUP1 PUSH4 0xE2C41DBC EQ PUSH2 0x24D JUMPI DUP1 PUSH4 0xF169C0F5 EQ PUSH2 0x257 JUMPI DUP1 PUSH4 0xF312186A EQ PUSH2 0x280 JUMPI PUSH2 0xA7 JUMP JUMPDEST DUP1 PUSH4 0x1567739 EQ PUSH2 0xAC JUMPI DUP1 PUSH4 0x3626157C EQ PUSH2 0xE9 JUMPI DUP1 PUSH4 0x3DEFB962 EQ PUSH2 0x114 JUMPI DUP1 PUSH4 0x8D8965BD EQ PUSH2 0x12B JUMPI DUP1 PUSH4 0x8DA5CB5B EQ PUSH2 0x154 JUMPI DUP1 PUSH4 0x96074E70 EQ PUSH2 0x17F JUMPI JUMPDEST PUSH1 0x0 DUP1 REVERT JUMPDEST CALLVALUE DUP1 ISZERO PUSH2 0xB8 JUMPI PUSH1 0x0 DUP1 REVERT JUMPDEST POP PUSH2 0xD3 PUSH1 0x4 DUP1 CALLDATASIZE SUB DUP2 ADD SWAP1 PUSH2 0xCE SWAP2 SWAP1 PUSH2 0x1705 JUMP JUMPDEST PUSH2 0x297 JUMP JUMPDEST PUSH1 0x40 MLOAD PUSH2 0xE0 SWAP2 SWAP1 PUSH2 0x174B JUMP JUMPDEST PUSH1 0x40 MLOAD DUP1 SWAP2 SUB SWAP1 RETURN JUMPDEST CALLVALUE DUP1 ISZERO PUSH2 0xF5 JUMPI PUSH1 0x0 DUP1 REVERT JUMPDEST POP PUSH2 0xFE PUSH2 0x2AF JUMP JUMPDEST PUSH1 0x40 MLOAD PUSH2 0x10B SWAP2 SWAP1 PUSH2 0x1781 JUMP JUMPDEST PUSH1 0x40 MLOAD DUP1 SWAP2 SUB SWAP1 RETURN JUMPDEST CALLVALUE DUP1 ISZERO PUSH2 0x120 JUMPI PUSH1 0x0 DUP1 REVERT JUMPDEST POP PUSH2 0x129 PUSH2 0x3E3 JUMP JUMPDEST STOP JUMPDEST CALLVALUE DUP1 ISZERO PUSH2 0x137 JUMPI PUSH1 0x0 DUP1 REVERT JUMPDEST POP PUSH2 0x152 PUSH1 0x4 DUP1 CALLDATASIZE SUB DUP2 ADD SWAP1 PUSH2 0x14D SWAP2 SWAP1 PUSH2 0x17D8 JUMP JUMPDEST PUSH2 0x553 JUMP JUMPDEST STOP JUMPDEST CALLVALUE DUP1 ISZERO PUSH2 0x160 JUMPI PUSH1 0x0 DUP1 REVERT JUMPDEST POP PUSH2 0x169 PUSH2 0x7AB JUMP JUMPDEST PUSH1 0x40 MLOAD PUSH2 0x176 SWAP2 SWAP1 PUSH2 0x1814 JUMP JUMPDEST PUSH1 0x40 MLOAD DUP1 SWAP2 SUB SWAP1 RETURN JUMPDEST CALLVALUE DUP1 ISZERO PUSH2 0x18B JUMPI PUSH1 0x0 DUP1 REVERT JUMPDEST POP PUSH2 0x1A6 PUSH1 0x4 DUP1 CALLDATASIZE SUB DUP2 ADD SWAP1 PUSH2 0x1A1 SWAP2 SWAP1 PUSH2 0x185B JUMP JUMPDEST PUSH2 0x7CF JUMP JUMPDEST STOP JUMPDEST CALLVALUE DUP1 ISZERO PUSH2 0x1B4 JUMPI PUSH1 0x0 DUP1 REVERT JUMPDEST POP PUSH2 0x1CF PUSH1 0x4 DUP1 CALLDATASIZE SUB DUP2 ADD SWAP1 PUSH2 0x1CA SWAP2 SWAP1 PUSH2 0x189B JUMP JUMPDEST PUSH2 0xA50 JUMP JUMPDEST PUSH1 0x40 MLOAD PUSH2 0x1DC SWAP2 SWAP1 PUSH2 0x1814 JUMP JUMPDEST PUSH1 0x40 MLOAD DUP1 SWAP2 SUB SWAP1 RETURN JUMPDEST CALLVALUE DUP1 ISZERO PUSH2 0x1F1 JUMPI PUSH1 0x0 DUP1 REVERT JUMPDEST POP PUSH2 0x20C PUSH1 0x4 DUP1 CALLDATASIZE SUB DUP2 ADD SWAP1 PUSH2 0x207 SWAP2 SWAP1 PUSH2 0x1971 JUMP JUMPDEST PUSH2 0xA8F JUMP JUMPDEST PUSH1 0x40 MLOAD PUSH2 0x219 SWAP2 SWAP1 PUSH2 0x1781 JUMP JUMPDEST PUSH1 0x40 MLOAD DUP1 SWAP2 SUB SWAP1 RETURN JUMPDEST CALLVALUE DUP1 ISZERO PUSH2 0x22E JUMPI PUSH1 0x0 DUP1 REVERT JUMPDEST POP PUSH2 0x237 PUSH2 0xDEF JUMP JUMPDEST PUSH1 0x40 MLOAD PUSH2 0x244 SWAP2 SWAP1 PUSH2 0x1A0A JUMP JUMPDEST PUSH1 0x40 MLOAD DUP1 SWAP2 SUB SWAP1 RETURN JUMPDEST PUSH2 0x255 PUSH2 0xE05 JUMP JUMPDEST STOP JUMPDEST CALLVALUE DUP1 ISZERO PUSH2 0x263 JUMPI PUSH1 0x0 DUP1 REVERT JUMPDEST POP PUSH2 0x27E PUSH1 0x4 DUP1 CALLDATASIZE SUB DUP2 ADD SWAP1 PUSH2 0x279 SWAP2 SWAP1 PUSH2 0x1A47 JUMP JUMPDEST PUSH2 0xF26 JUMP JUMPDEST STOP JUMPDEST CALLVALUE DUP1 ISZERO PUSH2 0x28C JUMPI PUSH1 0x0 DUP1 REVERT JUMPDEST POP PUSH2 0x295 PUSH2 0x1198 JUMP JUMPDEST STOP JUMPDEST PUSH1 0x4 PUSH1 0x20 MSTORE DUP1 PUSH1 0x0 MSTORE PUSH1 0x40 PUSH1 0x0 KECCAK256 PUSH1 0x0 SWAP2 POP SWAP1 POP SLOAD DUP2 JUMP JUMPDEST PUSH1 0x0 DUP1 TIMESTAMP SWAP1 POP PUSH1 0x0 DUP1 PUSH1 0x15 SWAP1 SLOAD SWAP1 PUSH2 0x100 EXP SWAP1 DIV PUSH4 0xFFFFFFFF AND DUP3 PUSH2 0x2D4 SWAP2 SWAP1 PUSH2 0x1ADF JUMP JUMPDEST SWAP1 POP PUSH1 0x0 PUSH2 0x3B1 PUSH1 0x2 SLOAD PUSH1 0x3 SLOAD PUSH1 0x1 DUP1 SLOAD PUSH2 0x2EE SWAP1 PUSH2 0x1B46 JUMP JUMPDEST DUP1 PUSH1 0x1F ADD PUSH1 0x20 DUP1 SWAP2 DIV MUL PUSH1 0x20 ADD PUSH1 0x40 MLOAD SWAP1 DUP2 ADD PUSH1 0x40 MSTORE DUP1 SWAP3 SWAP2 SWAP1 DUP2 DUP2 MSTORE PUSH1 0x20 ADD DUP3 DUP1 SLOAD PUSH2 0x31A SWAP1 PUSH2 0x1B46 JUMP JUMPDEST DUP1 ISZERO PUSH2 0x367 JUMPI DUP1 PUSH1 0x1F LT PUSH2 0x33C JUMPI PUSH2 0x100 DUP1 DUP4 SLOAD DIV MUL DUP4 MSTORE SWAP2 PUSH1 0x20 ADD SWAP2 PUSH2 0x367 JUMP JUMPDEST DUP3 ADD SWAP2 SWAP1 PUSH1 0x0 MSTORE PUSH1 0x20 PUSH1 0x0 KECCAK256 SWAP1 JUMPDEST DUP2 SLOAD DUP2 MSTORE SWAP1 PUSH1 0x1 ADD SWAP1 PUSH1 0x20 ADD DUP1 DUP4 GT PUSH2 0x34A JUMPI DUP3 SWAP1 SUB PUSH1 0x1F AND DUP3 ADD SWAP2 JUMPDEST POP POP POP POP POP PUSH1 0x0 DUP1 SLOAD SWAP1 PUSH2 0x100 EXP SWAP1 DIV PUSH20 0xFFFFFFFFFFFFFFFFFFFFFFFFFFFFFFFFFFFFFFFF AND PUSH1 0x40 MLOAD PUSH1 0x20 ADD PUSH2 0x39D SWAP2 SWAP1 PUSH2 0x1814 JUMP JUMPDEST PUSH1 0x40 MLOAD PUSH1 0x20 DUP2 DUP4 SUB SUB DUP2 MSTORE SWAP1 PUSH1 0x40 MSTORE PUSH2 0x1221 JUMP JUMPDEST SWAP1 POP PUSH1 0x0 DUP2 DUP1 PUSH1 0x20 ADD SWAP1 MLOAD DUP2 ADD SWAP1 PUSH2 0x3C9 SWAP2 SWAP1 PUSH2 0x1B8C JUMP JUMPDEST SWAP1 POP DUP3 PUSH4 0xFFFFFFFF AND DUP2 PUSH4 0xFFFFFFFF AND LT SWAP5 POP POP POP POP POP SWAP1 JUMP JUMPDEST PUSH1 0x0 DUP1 SLOAD SWAP1 PUSH2 0x100 EXP SWAP1 DIV PUSH20 0xFFFFFFFFFFFFFFFFFFFFFFFFFFFFFFFFFFFFFFFF AND PUSH20 0xFFFFFFFFFFFFFFFFFFFFFFFFFFFFFFFFFFFFFFFF AND CALLER PUSH20 0xFFFFFFFFFFFFFFFFFFFFFFFFFFFFFFFFFFFFFFFF AND EQ PUSH2 0x471 JUMPI PUSH1 0x40 MLOAD PUSH32 0x8C379A000000000000000000000000000000000000000000000000000000000 DUP2 MSTORE PUSH1 0x4 ADD PUSH2 0x468 SWAP1 PUSH2 0x1C16 JUMP JUMPDEST PUSH1 0x40 MLOAD DUP1 SWAP2 SUB SWAP1 REVERT JUMPDEST PUSH2 0x4DF PUSH1 0x2 SLOAD PUSH1 0x3 SLOAD TIMESTAMP PUSH1 0x40 MLOAD PUSH1 0x20 ADD PUSH2 0x48B SWAP2 SWAP1 PUSH2 0x1A0A JUMP JUMPDEST PUSH1 0x40 MLOAD PUSH1 0x20 DUP2 DUP4 SUB SUB DUP2 MSTORE SWAP1 PUSH1 0x40 MSTORE PUSH1 0x0 DUP1 SLOAD SWAP1 PUSH2 0x100 EXP SWAP1 DIV PUSH20 0xFFFFFFFFFFFFFFFFFFFFFFFFFFFFFFFFFFFFFFFF AND PUSH1 0x40 MLOAD PUSH1 0x20 ADD PUSH2 0x4CB SWAP2 SWAP1 PUSH2 0x1814 JUMP JUMPDEST PUSH1 0x40 MLOAD PUSH1 0x20 DUP2 DUP4 SUB SUB DUP2 MSTORE SWAP1 PUSH1 0x40 MSTORE PUSH2 0x1316 JUMP JUMPDEST PUSH1 0x1 SWAP1 DUP2 PUSH2 0x4ED SWAP2 SWAP1 PUSH2 0x1E1C JUMP JUMPDEST POP PUSH1 0x0 DUP1 SLOAD SWAP1 PUSH2 0x100 EXP SWAP1 DIV PUSH20 0xFFFFFFFFFFFFFFFFFFFFFFFFFFFFFFFFFFFFFFFF AND PUSH20 0xFFFFFFFFFFFFFFFFFFFFFFFFFFFFFFFFFFFFFFFF AND PUSH32 0x59DB9904863F5C0703E74A4DF99BFBAD4374B3EDB69328A2F7BC4DF348511097 PUSH1 0x40 MLOAD PUSH1 0x40 MLOAD DUP1 SWAP2 SUB SWAP1 LOG2 JUMP JUMPDEST PUSH1 0x0 PUSH1 0x14 SWAP1 SLOAD SWAP1 PUSH2 0x100 EXP SWAP1 DIV PUSH1 0xFF AND ISZERO PUSH2 0x5A3 JUMPI PUSH1 0x40 MLOAD PUSH32 0x8C379A000000000000000000000000000000000000000000000000000000000 DUP2 MSTORE PUSH1 0x4 ADD PUSH2 0x59A SWAP1 PUSH2 0x1F3A JUMP JUMPDEST PUSH1 0x40 MLOAD DUP1 SWAP2 SUB SWAP1 REVERT JUMPDEST CALLER PUSH1 0x0 DUP1 PUSH2 0x100 EXP DUP2 SLOAD DUP2 PUSH20 0xFFFFFFFFFFFFFFFFFFFFFFFFFFFFFFFFFFFFFFFF MUL NOT AND SWAP1 DUP4 PUSH20 0xFFFFFFFFFFFFFFFFFFFFFFFFFFFFFFFFFFFFFFFF AND MUL OR SWAP1 SSTORE POP DUP1 PUSH1 0x0 PUSH1 0x15 PUSH2 0x100 EXP DUP2 SLOAD DUP2 PUSH4 0xFFFFFFFF MUL NOT AND SWAP1 DUP4 PUSH4 0xFFFFFFFF AND MUL OR SWAP1 SSTORE POP PUSH2 0x644 PUSH1 0x20 PUSH1 0x40 MLOAD DUP1 PUSH1 0x40 ADD PUSH1 0x40 MSTORE DUP1 PUSH1 0xD DUP2 MSTORE PUSH1 0x20 ADD PUSH32 0x656E6372797074696F6E4B657900000000000000000000000000000000000000 DUP2 MSTORE POP PUSH2 0x140B JUMP JUMPDEST PUSH2 0x64D SWAP1 PUSH2 0x1F89 JUMP JUMPDEST PUSH1 0x2 DUP2 SWAP1 SSTORE POP PUSH2 0x693 PUSH1 0x20 PUSH1 0x40 MLOAD DUP1 PUSH1 0x40 ADD PUSH1 0x40 MSTORE DUP1 PUSH1 0x5 DUP2 MSTORE PUSH1 0x20 ADD PUSH32 0x6E6F6E6365000000000000000000000000000000000000000000000000000000 DUP2 MSTORE POP PUSH2 0x140B JUMP JUMPDEST PUSH2 0x69C SWAP1 PUSH2 0x1F89 JUMP JUMPDEST PUSH1 0x3 DUP2 SWAP1 SSTORE POP PUSH2 0x710 PUSH1 0x2 SLOAD PUSH1 0x3 SLOAD TIMESTAMP PUSH1 0x40 MLOAD PUSH1 0x20 ADD PUSH2 0x6BC SWAP2 SWAP1 PUSH2 0x1A0A JUMP JUMPDEST PUSH1 0x40 MLOAD PUSH1 0x20 DUP2 DUP4 SUB SUB DUP2 MSTORE SWAP1 PUSH1 0x40 MSTORE PUSH1 0x0 DUP1 SLOAD SWAP1 PUSH2 0x100 EXP SWAP1 DIV PUSH20 0xFFFFFFFFFFFFFFFFFFFFFFFFFFFFFFFFFFFFFFFF AND PUSH1 0x40 MLOAD PUSH1 0x20 ADD PUSH2 0x6FC SWAP2 SWAP1 PUSH2 0x1814 JUMP JUMPDEST PUSH1 0x40 MLOAD PUSH1 0x20 DUP2 DUP4 SUB SUB DUP2 MSTORE SWAP1 PUSH1 0x40 MSTORE PUSH2 0x1316 JUMP JUMPDEST PUSH1 0x1 SWAP1 DUP2 PUSH2 0x71E SWAP2 SWAP1 PUSH2 0x1E1C JUMP JUMPDEST POP PUSH1 0x1 PUSH1 0x0 PUSH1 0x14 PUSH2 0x100 EXP DUP2 SLOAD DUP2 PUSH1 0xFF MUL NOT AND SWAP1 DUP4 ISZERO ISZERO MUL OR SWAP1 SSTORE POP PUSH1 0x0 DUP1 SLOAD SWAP1 PUSH2 0x100 EXP SWAP1 DIV PUSH20 0xFFFFFFFFFFFFFFFFFFFFFFFFFFFFFFFFFFFFFFFF AND PUSH20 0xFFFFFFFFFFFFFFFFFFFFFFFFFFFFFFFFFFFFFFFF AND PUSH32 0x620DCA0C9D04F7CEA9D7F31E571D74ACCCD54C21DC8FF8855EC1D5A21733C26B DUP3 PUSH1 0x40 MLOAD PUSH2 0x7A0 SWAP2 SWAP1 PUSH2 0x1A0A JUMP JUMPDEST PUSH1 0x40 MLOAD DUP1 SWAP2 SUB SWAP1 LOG2 POP JUMP JUMPDEST PUSH1 0x0 DUP1 SLOAD SWAP1 PUSH2 0x100 EXP SWAP1 DIV PUSH20 0xFFFFFFFFFFFFFFFFFFFFFFFFFFFFFFFFFFFFFFFF AND DUP2 JUMP JUMPDEST PUSH1 0x0 DUP1 SLOAD SWAP1 PUSH2 0x100 EXP SWAP1 DIV PUSH20 0xFFFFFFFFFFFFFFFFFFFFFFFFFFFFFFFFFFFFFFFF AND PUSH20 0xFFFFFFFFFFFFFFFFFFFFFFFFFFFFFFFFFFFFFFFF AND CALLER PUSH20 0xFFFFFFFFFFFFFFFFFFFFFFFFFFFFFFFFFFFFFFFF AND EQ PUSH2 0x85D JUMPI PUSH1 0x40 MLOAD PUSH32 0x8C379A000000000000000000000000000000000000000000000000000000000 DUP2 MSTORE PUSH1 0x4 ADD PUSH2 0x854 SWAP1 PUSH2 0x1C16 JUMP JUMPDEST PUSH1 0x40 MLOAD DUP1 SWAP2 SUB SWAP1 REVERT JUMPDEST PUSH1 0x0 PUSH20 0xFFFFFFFFFFFFFFFFFFFFFFFFFFFFFFFFFFFFFFFF AND DUP3 PUSH20 0xFFFFFFFFFFFFFFFFFFFFFFFFFFFFFFFFFFFFFFFF AND SUB PUSH2 0x8CC JUMPI PUSH1 0x40 MLOAD PUSH32 0x8C379A000000000000000000000000000000000000000000000000000000000 DUP2 MSTORE PUSH1 0x4 ADD PUSH2 0x8C3 SWAP1 PUSH2 0x203C JUMP JUMPDEST PUSH1 0x40 MLOAD DUP1 SWAP2 SUB SWAP1 REVERT JUMPDEST PUSH1 0x0 DUP2 GT PUSH2 0x90F JUMPI PUSH1 0x40 MLOAD PUSH32 0x8C379A000000000000000000000000000000000000000000000000000000000 DUP2 MSTORE PUSH1 0x4 ADD PUSH2 0x906 SWAP1 PUSH2 0x20A8 JUMP JUMPDEST PUSH1 0x40 MLOAD DUP1 SWAP2 SUB SWAP1 REVERT JUMPDEST PUSH1 0x0 PUSH1 0x4 PUSH1 0x0 DUP5 PUSH20 0xFFFFFFFFFFFFFFFFFFFFFFFFFFFFFFFFFFFFFFFF AND PUSH20 0xFFFFFFFFFFFFFFFFFFFFFFFFFFFFFFFFFFFFFFFF AND DUP2 MSTORE PUSH1 0x20 ADD SWAP1 DUP2 MSTORE PUSH1 0x20 ADD PUSH1 0x0 KECCAK256 SLOAD SUB PUSH2 0x9BA JUMPI PUSH1 0x5 DUP3 SWAP1 DUP1 PUSH1 0x1 DUP2 SLOAD ADD DUP1 DUP3 SSTORE DUP1 SWAP2 POP POP PUSH1 0x1 SWAP1 SUB SWAP1 PUSH1 0x0 MSTORE PUSH1 0x20 PUSH1 0x0 KECCAK256 ADD PUSH1 0x0 SWAP1 SWAP2 SWAP1 SWAP2 SWAP1 SWAP2 PUSH2 0x100 EXP DUP2 SLOAD DUP2 PUSH20 0xFFFFFFFFFFFFFFFFFFFFFFFFFFFFFFFFFFFFFFFF MUL NOT AND SWAP1 DUP4 PUSH20 0xFFFFFFFFFFFFFFFFFFFFFFFFFFFFFFFFFFFFFFFF AND MUL OR SWAP1 SSTORE POP JUMPDEST DUP1 PUSH1 0x4 PUSH1 0x0 DUP5 PUSH20 0xFFFFFFFFFFFFFFFFFFFFFFFFFFFFFFFFFFFFFFFF AND PUSH20 0xFFFFFFFFFFFFFFFFFFFFFFFFFFFFFFFFFFFFFFFF AND DUP2 MSTORE PUSH1 0x20 ADD SWAP1 DUP2 MSTORE PUSH1 0x20 ADD PUSH1 0x0 KECCAK256 DUP2 SWAP1 SSTORE POP DUP2 PUSH20 0xFFFFFFFFFFFFFFFFFFFFFFFFFFFFFFFFFFFFFFFF AND PUSH32 0xE6B83177F11971BA30369BB38B914FFBA97D5969A3C857B286FA8FDBB150B3BA DUP3 PUSH1 0x40 MLOAD PUSH2 0xA44 SWAP2 SWAP1 PUSH2 0x174B JUMP JUMPDEST PUSH1 0x40 MLOAD DUP1 SWAP2 SUB SWAP1 LOG2 POP POP JUMP JUMPDEST PUSH1 0x5 DUP2 DUP2 SLOAD DUP2 LT PUSH2 0xA60 JUMPI PUSH1 0x0 DUP1 REVERT JUMPDEST SWAP1 PUSH1 0x0 MSTORE PUSH1 0x20 PUSH1 0x0 KECCAK256 ADD PUSH1 0x0 SWAP2 POP SLOAD SWAP1 PUSH2 0x100 EXP SWAP1 DIV PUSH20 0xFFFFFFFFFFFFFFFFFFFFFFFFFFFFFFFFFFFFFFFF AND DUP2 JUMP JUMPDEST PUSH1 0x0 PUSH2 0xDCD JUMP JUMPDEST PUSH1 0x0 PUSH1 0x80 DUP7 ADD PUSH1 0x0 DUP8 ADD PUSH32 0x2C5B613649BAA55E810FDD3D481D8FA0EB9B8FCAA753AB609FA8CB96C0F8FBD1 DUP2 MSTORE PUSH32 0x1440B2EF7DC36879D0AE9A50C5AB69F6DDEE0F884321953E5A1FACAC5A33198A PUSH1 0x20 DUP3 ADD MSTORE DUP4 CALLDATALOAD DUP3 MSTORE PUSH32 0x30644E72E131A029B85045B68181585D97816A916871CA8D3C208C16D87CFD47 PUSH1 0x20 DUP6 ADD CALLDATALOAD PUSH32 0x30644E72E131A029B85045B68181585D97816A916871CA8D3C208C16D87CFD47 SUB MOD PUSH1 0x20 DUP4 ADD MSTORE DUP5 CALLDATALOAD PUSH1 0x40 DUP4 ADD MSTORE PUSH1 0x20 DUP6 ADD CALLDATALOAD PUSH1 0x60 DUP4 ADD MSTORE PUSH1 0x40 DUP6 ADD CALLDATALOAD PUSH1 0x80 DUP4 ADD MSTORE PUSH1 0x60 DUP6 ADD CALLDATALOAD PUSH1 0xA0 DUP4 ADD MSTORE PUSH32 0x17F27440E7E6E1703AED2FF6E463671CE6662BBAB291E035D2CA6BE753C7F4F0 PUSH1 0xC0 DUP4 ADD MSTORE PUSH32 0x24ECDBCA05ACDE8F92396924AAE36CEA80FD508636B7B58738FC94FFDE4C4D8 PUSH1 0xE0 DUP4 ADD MSTORE PUSH32 0x2EEF9B42AC8DEB97378E3212F52B57B478C96A7CAC8F5625CE501BA50AAD5DD7 PUSH2 0x100 DUP4 ADD MSTORE PUSH32 0x27436C42AAC7E971581B83119DADFBBB77D1F3D3D62520A9DF7F64C4F8D05D3D PUSH2 0x120 DUP4 ADD MSTORE PUSH32 0x190324FC8C888C4222BCE962AA18DBB5E15FCBAB039F2594374490FD56599457 PUSH2 0x140 DUP4 ADD MSTORE PUSH32 0x2E2A2DDC39CFFB9C9F9F5D420A61C20B585938D5B9DF71315DD3E26F90FEF23E PUSH2 0x160 DUP4 ADD MSTORE PUSH1 0x0 DUP9 ADD MLOAD PUSH2 0x180 DUP4 ADD MSTORE PUSH1 0x20 PUSH1 0x0 ADD DUP9 ADD MLOAD PUSH2 0x1A0 DUP4 ADD MSTORE PUSH32 0x198E9393920D483A7260BFB731FB5D25F1AA493335A9E71297E485B7AEF312C2 PUSH2 0x1C0 DUP4 ADD MSTORE PUSH32 0x1800DEEF121F1E76426A00665E5C4479674322D4F75EDADD46DEBD5CD992F6ED PUSH2 0x1E0 DUP4 ADD MSTORE PUSH32 0x90689D0585FF075EC9E99AD690C3395BC4B313370B38EF355ACDADCD122975B PUSH2 0x200 DUP4 ADD MSTORE PUSH32 0x12C85EA5DB8C6DEB4AAB71808DCB408FE3D1E7690C43D37B4CE6CC0166FA7DAA PUSH2 0x220 DUP4 ADD MSTORE DUP6 CALLDATALOAD PUSH2 0x240 DUP4 ADD MSTORE PUSH1 0x20 DUP7 ADD CALLDATALOAD PUSH2 0x260 DUP4 ADD MSTORE PUSH32 0x198E9393920D483A7260BFB731FB5D25F1AA493335A9E71297E485B7AEF312C2 PUSH2 0x280 DUP4 ADD MSTORE PUSH32 0x1800DEEF121F1E76426A00665E5C4479674322D4F75EDADD46DEBD5CD992F6ED PUSH2 0x2A0 DUP4 ADD MSTORE PUSH32 0x90689D0585FF075EC9E99AD690C3395BC4B313370B38EF355ACDADCD122975B PUSH2 0x2C0 DUP4 ADD MSTORE PUSH32 0x12C85EA5DB8C6DEB4AAB71808DCB408FE3D1E7690C43D37B4CE6CC0166FA7DAA PUSH2 0x2E0 DUP4 ADD MSTORE PUSH1 0x20 DUP3 PUSH2 0x300 DUP5 PUSH1 0x8 PUSH2 0x7D0 GAS SUB STATICCALL DUP3 MLOAD DUP2 AND SWAP4 POP POP POP POP SWAP6 SWAP5 POP POP POP POP POP JUMP JUMPDEST PUSH1 0x40 MLOAD PUSH2 0x380 DUP2 ADD PUSH1 0x40 MSTORE PUSH2 0xDE5 DUP2 DUP6 DUP8 DUP10 DUP12 PUSH2 0xA96 JUMP JUMPDEST DUP1 PUSH1 0x0 MSTORE PUSH1 0x20 PUSH1 0x0 RETURN JUMPDEST PUSH1 0x0 PUSH1 0x15 SWAP1 SLOAD SWAP1 PUSH2 0x100 EXP SWAP1 DIV PUSH4 0xFFFFFFFF AND DUP2 JUMP JUMPDEST PUSH1 0x0 DUP1 SLOAD SWAP1 PUSH2 0x100 EXP SWAP1 DIV PUSH20 0xFFFFFFFFFFFFFFFFFFFFFFFFFFFFFFFFFFFFFFFF AND PUSH20 0xFFFFFFFFFFFFFFFFFFFFFFFFFFFFFFFFFFFFFFFF AND CALLER PUSH20 0xFFFFFFFFFFFFFFFFFFFFFFFFFFFFFFFFFFFFFFFF AND EQ PUSH2 0xE93 JUMPI PUSH1 0x40 MLOAD PUSH32 0x8C379A000000000000000000000000000000000000000000000000000000000 DUP2 MSTORE PUSH1 0x4 ADD PUSH2 0xE8A SWAP1 PUSH2 0x1C16 JUMP JUMPDEST PUSH1 0x40 MLOAD DUP1 SWAP2 SUB SWAP1 REVERT JUMPDEST PUSH1 0x0 CALLVALUE GT PUSH2 0xED6 JUMPI PUSH1 0x40 MLOAD PUSH32 0x8C379A000000000000000000000000000000000000000000000000000000000 DUP2 MSTORE PUSH1 0x4 ADD PUSH2 0xECD SWAP1 PUSH2 0x2114 JUMP JUMPDEST PUSH1 0x40 MLOAD DUP1 SWAP2 SUB SWAP1 REVERT JUMPDEST CALLER PUSH20 0xFFFFFFFFFFFFFFFFFFFFFFFFFFFFFFFFFFFFFFFF AND PUSH32 0x543BA50A5EEC5E6178218E364B1D0F396157B3C8FA278522C2CB7FD99407D474 CALLVALUE PUSH1 0x40 MLOAD PUSH2 0xF1C SWAP2 SWAP1 PUSH2 0x174B JUMP JUMPDEST PUSH1 0x40 MLOAD DUP1 SWAP2 SUB SWAP1 LOG2 JUMP JUMPDEST PUSH1 0x0 PUSH1 0x3 PUSH8 0xFFFFFFFFFFFFFFFF DUP2 GT ISZERO PUSH2 0xF43 JUMPI PUSH2 0xF42 PUSH2 0x1C41 JUMP JUMPDEST JUMPDEST PUSH1 0x40 MLOAD SWAP1 DUP1 DUP3 MSTORE DUP1 PUSH1 0x20 MUL PUSH1 0x20 ADD DUP3 ADD PUSH1 0x40 MSTORE DUP1 ISZERO PUSH2 0xF71 JUMPI DUP2 PUSH1 0x20 ADD PUSH1 0x20 DUP3 MUL DUP1 CALLDATASIZE DUP4 CALLDATACOPY DUP1 DUP3 ADD SWAP2 POP POP SWAP1 POP JUMPDEST POP SWAP1 POP DUP2 PUSH1 0x0 PUSH1 0x3 DUP2 LT PUSH2 0xF88 JUMPI PUSH2 0xF87 PUSH2 0x2134 JUMP JUMPDEST JUMPDEST PUSH1 0x20 MUL ADD CALLDATALOAD DUP2 PUSH1 0x0 DUP2 MLOAD DUP2 LT PUSH2 0xFA1 JUMPI PUSH2 0xFA0 PUSH2 0x2134 JUMP JUMPDEST JUMPDEST PUSH1 0x20 MUL PUSH1 0x20 ADD ADD DUP2 DUP2 MSTORE POP POP DUP2 PUSH1 0x1 PUSH1 0x3 DUP2 LT PUSH2 0xFC1 JUMPI PUSH2 0xFC0 PUSH2 0x2134 JUMP JUMPDEST JUMPDEST PUSH1 0x20 MUL ADD CALLDATALOAD DUP2 PUSH1 0x1 DUP2 MLOAD DUP2 LT PUSH2 0xFDA JUMPI PUSH2 0xFD9 PUSH2 0x2134 JUMP JUMPDEST JUMPDEST PUSH1 0x20 MUL PUSH1 0x20 ADD ADD DUP2 DUP2 MSTORE POP POP DUP2 PUSH1 0x2 PUSH1 0x3 DUP2 LT PUSH2 0xFFA JUMPI PUSH2 0xFF9 PUSH2 0x2134 JUMP JUMPDEST JUMPDEST PUSH1 0x20 MUL ADD CALLDATALOAD DUP2 PUSH1 0x2 DUP2 MLOAD DUP2 LT PUSH2 0x1013 JUMPI PUSH2 0x1012 PUSH2 0x2134 JUMP JUMPDEST JUMPDEST PUSH1 0x20 MUL PUSH1 0x20 ADD ADD DUP2 DUP2 MSTORE POP POP ADDRESS PUSH20 0xFFFFFFFFFFFFFFFFFFFFFFFFFFFFFFFFFFFFFFFF AND PUSH4 0xC32E370E DUP7 DUP7 DUP7 DUP6 PUSH1 0x40 MLOAD DUP6 PUSH4 0xFFFFFFFF AND PUSH1 0xE0 SHL DUP2 MSTORE PUSH1 0x4 ADD PUSH2 0x105E SWAP5 SWAP4 SWAP3 SWAP2 SWAP1 PUSH2 0x22F9 JUMP JUMPDEST PUSH1 0x20 PUSH1 0x40 MLOAD DUP1 DUP4 SUB DUP2 DUP7 GAS STATICCALL ISZERO DUP1 ISZERO PUSH2 0x107B JUMPI RETURNDATASIZE PUSH1 0x0 DUP1 RETURNDATACOPY RETURNDATASIZE PUSH1 0x0 REVERT JUMPDEST POP POP POP POP PUSH1 0x40 MLOAD RETURNDATASIZE PUSH1 0x1F NOT PUSH1 0x1F DUP3 ADD AND DUP3 ADD DUP1 PUSH1 0x40 MSTORE POP DUP2 ADD SWAP1 PUSH2 0x109F SWAP2 SWAP1 PUSH2 0x2373 JUMP JUMPDEST PUSH2 0x10DE JUMPI PUSH1 0x40 MLOAD PUSH32 0x8C379A000000000000000000000000000000000000000000000000000000000 DUP2 MSTORE PUSH1 0x4 ADD PUSH2 0x10D5 SWAP1 PUSH2 0x23EC JUMP JUMPDEST PUSH1 0x40 MLOAD DUP1 SWAP2 SUB SWAP1 REVERT JUMPDEST PUSH32 0xF4D358772B552280F9395158C37BC77DDCBCDEAF62B20AA01276FB89D7EA1923 PUSH1 0x1 PUSH1 0x40 MLOAD PUSH2 0x110E SWAP2 SWAP1 PUSH2 0x1781 JUMP JUMPDEST PUSH1 0x40 MLOAD DUP1 SWAP2 SUB SWAP1 LOG1 PUSH1 0x0 PUSH1 0x15 SWAP1 SLOAD SWAP1 PUSH2 0x100 EXP SWAP1 DIV PUSH4 0xFFFFFFFF AND PUSH4 0xFFFFFFFF AND DUP3 PUSH1 0x2 PUSH1 0x3 DUP2 LT PUSH2 0x1143 JUMPI PUSH2 0x1142 PUSH2 0x2134 JUMP JUMPDEST JUMPDEST PUSH1 0x20 MUL ADD CALLDATALOAD LT ISZERO PUSH2 0x1189 JUMPI PUSH1 0x40 MLOAD PUSH32 0x8C379A000000000000000000000000000000000000000000000000000000000 DUP2 MSTORE PUSH1 0x4 ADD PUSH2 0x1180 SWAP1 PUSH2 0x2458 JUMP JUMPDEST PUSH1 0x40 MLOAD DUP1 SWAP2 SUB SWAP1 REVERT JUMPDEST PUSH2 0x1191 PUSH2 0x14FA JUMP JUMPDEST POP POP POP POP POP JUMP JUMPDEST PUSH2 0x11A0 PUSH2 0x2AF JUMP JUMPDEST PUSH2 0x11DF JUMPI PUSH1 0x40 MLOAD PUSH32 0x8C379A000000000000000000000000000000000000000000000000000000000 DUP2 MSTORE PUSH1 0x4 ADD PUSH2 0x11D6 SWAP1 PUSH2 0x24C4 JUMP JUMPDEST PUSH1 0x40 MLOAD DUP1 SWAP2 SUB SWAP1 REVERT JUMPDEST PUSH32 0x76729D52B3EC041633E327FE49B91B757319A9CB241B0F6CE433FF396EE4DEE6 PUSH1 0x1 PUSH1 0x40 MLOAD PUSH2 0x120F SWAP2 SWAP1 PUSH2 0x1781 JUMP JUMPDEST PUSH1 0x40 MLOAD DUP1 SWAP2 SUB SWAP1 LOG1 PUSH2 0x121F PUSH2 0x14FA JUMP JUMPDEST JUMP JUMPDEST PUSH1 0x60 PUSH1 0x0 DUP1 PUSH20 0x100000000000000000000000000000000000004 PUSH20 0xFFFFFFFFFFFFFFFFFFFFFFFFFFFFFFFFFFFFFFFF AND DUP8 DUP8 DUP8 DUP8 PUSH1 0x40 MLOAD PUSH1 0x20 ADD PUSH2 0x1268 SWAP5 SWAP4 SWAP3 SWAP2 SWAP1 PUSH2 0x2578 JUMP JUMPDEST PUSH1 0x40 MLOAD PUSH1 0x20 DUP2 DUP4 SUB SUB DUP2 MSTORE SWAP1 PUSH1 0x40 MSTORE PUSH1 0x40 MLOAD PUSH2 0x1284 SWAP2 SWAP1 PUSH2 0x2607 JUMP JUMPDEST PUSH1 0x0 PUSH1 0x40 MLOAD DUP1 DUP4 SUB DUP2 DUP6 GAS STATICCALL SWAP2 POP POP RETURNDATASIZE DUP1 PUSH1 0x0 DUP2 EQ PUSH2 0x12BF JUMPI PUSH1 0x40 MLOAD SWAP2 POP PUSH1 0x1F NOT PUSH1 0x3F RETURNDATASIZE ADD AND DUP3 ADD PUSH1 0x40 MSTORE RETURNDATASIZE DUP3 MSTORE RETURNDATASIZE PUSH1 0x0 PUSH1 0x20 DUP5 ADD RETURNDATACOPY PUSH2 0x12C4 JUMP JUMPDEST PUSH1 0x60 SWAP2 POP JUMPDEST POP SWAP2 POP SWAP2 POP DUP2 PUSH2 0x1309 JUMPI PUSH1 0x40 MLOAD PUSH32 0x8C379A000000000000000000000000000000000000000000000000000000000 DUP2 MSTORE PUSH1 0x4 ADD PUSH2 0x1300 SWAP1 PUSH2 0x266A JUMP JUMPDEST PUSH1 0x40 MLOAD DUP1 SWAP2 SUB SWAP1 REVERT JUMPDEST DUP1 SWAP3 POP POP POP SWAP5 SWAP4 POP POP POP POP JUMP JUMPDEST PUSH1 0x60 PUSH1 0x0 DUP1 PUSH20 0x100000000000000000000000000000000000003 PUSH20 0xFFFFFFFFFFFFFFFFFFFFFFFFFFFFFFFFFFFFFFFF AND DUP8 DUP8 DUP8 DUP8 PUSH1 0x40 MLOAD PUSH1 0x20 ADD PUSH2 0x135D SWAP5 SWAP4 SWAP3 SWAP2 SWAP1 PUSH2 0x2578 JUMP JUMPDEST PUSH1 0x40 MLOAD PUSH1 0x20 DUP2 DUP4 SUB SUB DUP2 MSTORE SWAP1 PUSH1 0x40 MSTORE PUSH1 0x40 MLOAD PUSH2 0x1379 SWAP2 SWAP1 PUSH2 0x2607 JUMP JUMPDEST PUSH1 0x0 PUSH1 0x40 MLOAD DUP1 DUP4 SUB DUP2 DUP6 GAS STATICCALL SWAP2 POP POP RETURNDATASIZE DUP1 PUSH1 0x0 DUP2 EQ PUSH2 0x13B4 JUMPI PUSH1 0x40 MLOAD SWAP2 POP PUSH1 0x1F NOT PUSH1 0x3F RETURNDATASIZE ADD AND DUP3 ADD PUSH1 0x40 MSTORE RETURNDATASIZE DUP3 MSTORE RETURNDATASIZE PUSH1 0x0 PUSH1 0x20 DUP5 ADD RETURNDATACOPY PUSH2 0x13B9 JUMP JUMPDEST PUSH1 0x60 SWAP2 POP JUMPDEST POP SWAP2 POP SWAP2 POP DUP2 PUSH2 0x13FE JUMPI PUSH1 0x40 MLOAD PUSH32 0x8C379A000000000000000000000000000000000000000000000000000000000 DUP2 MSTORE PUSH1 0x4 ADD PUSH2 0x13F5 SWAP1 PUSH2 0x26D6 JUMP JUMPDEST PUSH1 0x40 MLOAD DUP1 SWAP2 SUB SWAP1 REVERT JUMPDEST DUP1 SWAP3 POP POP POP SWAP5 SWAP4 POP POP POP POP JUMP JUMPDEST PUSH1 0x60 PUSH1 0x0 DUP1 PUSH20 0x100000000000000000000000000000000000001 PUSH20 0xFFFFFFFFFFFFFFFFFFFFFFFFFFFFFFFFFFFFFFFF AND DUP6 DUP6 PUSH1 0x40 MLOAD PUSH1 0x20 ADD PUSH2 0x144E SWAP3 SWAP2 SWAP1 PUSH2 0x26F6 JUMP JUMPDEST PUSH1 0x40 MLOAD PUSH1 0x20 DUP2 DUP4 SUB SUB DUP2 MSTORE SWAP1 PUSH1 0x40 MSTORE PUSH1 0x40 MLOAD PUSH2 0x146A SWAP2 SWAP1 PUSH2 0x2607 JUMP JUMPDEST PUSH1 0x0 PUSH1 0x40 MLOAD DUP1 DUP4 SUB DUP2 DUP6 GAS STATICCALL SWAP2 POP POP RETURNDATASIZE DUP1 PUSH1 0x0 DUP2 EQ PUSH2 0x14A5 JUMPI PUSH1 0x40 MLOAD SWAP2 POP PUSH1 0x1F NOT PUSH1 0x3F RETURNDATASIZE ADD AND DUP3 ADD PUSH1 0x40 MSTORE RETURNDATASIZE DUP3 MSTORE RETURNDATASIZE PUSH1 0x0 PUSH1 0x20 DUP5 ADD RETURNDATACOPY PUSH2 0x14AA JUMP JUMPDEST PUSH1 0x60 SWAP2 POP JUMPDEST POP SWAP2 POP SWAP2 POP DUP2 PUSH2 0x14EF JUMPI PUSH1 0x40 MLOAD PUSH32 0x8C379A000000000000000000000000000000000000000000000000000000000 DUP2 MSTORE PUSH1 0x4 ADD PUSH2 0x14E6 SWAP1 PUSH2 0x2772 JUMP JUMPDEST PUSH1 0x40 MLOAD DUP1 SWAP2 SUB SWAP1 REVERT JUMPDEST DUP1 SWAP3 POP POP POP SWAP3 SWAP2 POP POP JUMP JUMPDEST PUSH1 0x0 SELFBALANCE SWAP1 POP PUSH1 0x0 DUP2 GT PUSH2 0x1542 JUMPI PUSH1 0x40 MLOAD PUSH32 0x8C379A000000000000000000000000000000000000000000000000000000000 DUP2 MSTORE PUSH1 0x4 ADD PUSH2 0x1539 SWAP1 PUSH2 0x27DE JUMP JUMPDEST PUSH1 0x40 MLOAD DUP1 SWAP2 SUB SWAP1 REVERT JUMPDEST PUSH1 0x0 JUMPDEST PUSH1 0x5 DUP1 SLOAD SWAP1 POP DUP2 LT ISZERO PUSH2 0x1699 JUMPI PUSH1 0x0 PUSH1 0x5 DUP3 DUP2 SLOAD DUP2 LT PUSH2 0x1568 JUMPI PUSH2 0x1567 PUSH2 0x2134 JUMP JUMPDEST JUMPDEST SWAP1 PUSH1 0x0 MSTORE PUSH1 0x20 PUSH1 0x0 KECCAK256 ADD PUSH1 0x0 SWAP1 SLOAD SWAP1 PUSH2 0x100 EXP SWAP1 DIV PUSH20 0xFFFFFFFFFFFFFFFFFFFFFFFFFFFFFFFFFFFFFFFF AND SWAP1 POP PUSH1 0x0 PUSH1 0x4 PUSH1 0x0 DUP4 PUSH20 0xFFFFFFFFFFFFFFFFFFFFFFFFFFFFFFFFFFFFFFFF AND PUSH20 0xFFFFFFFFFFFFFFFFFFFFFFFFFFFFFFFFFFFFFFFF AND DUP2 MSTORE PUSH1 0x20 ADD SWAP1 DUP2 MSTORE PUSH1 0x20 ADD PUSH1 0x0 KECCAK256 SLOAD SWAP1 POP PUSH1 0x0 DUP2 GT DUP1 ISZERO PUSH2 0x15E9 JUMPI POP DUP1 DUP5 LT ISZERO JUMPDEST ISZERO PUSH2 0x1684 JUMPI DUP2 PUSH20 0xFFFFFFFFFFFFFFFFFFFFFFFFFFFFFFFFFFFFFFFF AND PUSH2 0x8FC DUP3 SWAP1 DUP2 ISZERO MUL SWAP1 PUSH1 0x40 MLOAD PUSH1 0x0 PUSH1 0x40 MLOAD DUP1 DUP4 SUB DUP2 DUP6 DUP9 DUP9 CALL SWAP4 POP POP POP POP ISZERO DUP1 ISZERO PUSH2 0x1634 JUMPI RETURNDATASIZE PUSH1 0x0 DUP1 RETURNDATACOPY RETURNDATASIZE PUSH1 0x0 REVERT JUMPDEST POP DUP2 PUSH20 0xFFFFFFFFFFFFFFFFFFFFFFFFFFFFFFFFFFFFFFFF AND PUSH32 0x221C08A06B07A64803B3787861A3F276212FCCCB51C2E6234077A9B8CB13047A DUP3 PUSH1 0x40 MLOAD PUSH2 0x167B SWAP2 SWAP1 PUSH2 0x174B JUMP JUMPDEST PUSH1 0x40 MLOAD DUP1 SWAP2 SUB SWAP1 LOG2 JUMPDEST POP POP DUP1 DUP1 PUSH2 0x1691 SWAP1 PUSH2 0x27FE JUMP JUMPDEST SWAP2 POP POP PUSH2 0x1545 JUMP JUMPDEST POP POP JUMP JUMPDEST PUSH1 0x0 DUP1 REVERT JUMPDEST PUSH1 0x0 DUP1 REVERT JUMPDEST PUSH1 0x0 PUSH20 0xFFFFFFFFFFFFFFFFFFFFFFFFFFFFFFFFFFFFFFFF DUP3 AND SWAP1 POP SWAP2 SWAP1 POP JUMP JUMPDEST PUSH1 0x0 PUSH2 0x16D2 DUP3 PUSH2 0x16A7 JUMP JUMPDEST SWAP1 POP SWAP2 SWAP1 POP JUMP JUMPDEST PUSH2 0x16E2 DUP2 PUSH2 0x16C7 JUMP JUMPDEST DUP2 EQ PUSH2 0x16ED JUMPI PUSH1 0x0 DUP1 REVERT JUMPDEST POP JUMP JUMPDEST PUSH1 0x0 DUP2 CALLDATALOAD SWAP1 POP PUSH2 0x16FF DUP2 PUSH2 0x16D9 JUMP JUMPDEST SWAP3 SWAP2 POP POP JUMP JUMPDEST PUSH1 0x0 PUSH1 0x20 DUP3 DUP5 SUB SLT ISZERO PUSH2 0x171B JUMPI PUSH2 0x171A PUSH2 0x169D JUMP JUMPDEST JUMPDEST PUSH1 0x0 PUSH2 0x1729 DUP5 DUP3 DUP6 ADD PUSH2 0x16F0 JUMP JUMPDEST SWAP2 POP POP SWAP3 SWAP2 POP POP JUMP JUMPDEST PUSH1 0x0 DUP2 SWAP1 POP SWAP2 SWAP1 POP JUMP JUMPDEST PUSH2 0x1745 DUP2 PUSH2 0x1732 JUMP JUMPDEST DUP3 MSTORE POP POP JUMP JUMPDEST PUSH1 0x0 PUSH1 0x20 DUP3 ADD SWAP1 POP PUSH2 0x1760 PUSH1 0x0 DUP4 ADD DUP5 PUSH2 0x173C JUMP JUMPDEST SWAP3 SWAP2 POP POP JUMP JUMPDEST PUSH1 0x0 DUP2 ISZERO ISZERO SWAP1 POP SWAP2 SWAP1 POP JUMP JUMPDEST PUSH2 0x177B DUP2 PUSH2 0x1766 JUMP JUMPDEST DUP3 MSTORE POP POP JUMP JUMPDEST PUSH1 0x0 PUSH1 0x20 DUP3 ADD SWAP1 POP PUSH2 0x1796 PUSH1 0x0 DUP4 ADD DUP5 PUSH2 0x1772 JUMP JUMPDEST SWAP3 SWAP2 POP POP JUMP JUMPDEST PUSH1 0x0 PUSH4 0xFFFFFFFF DUP3 AND SWAP1 POP SWAP2 SWAP1 POP JUMP JUMPDEST PUSH2 0x17B5 DUP2 PUSH2 0x179C JUMP JUMPDEST DUP2 EQ PUSH2 0x17C0 JUMPI PUSH1 0x0 DUP1 REVERT JUMPDEST POP JUMP JUMPDEST PUSH1 0x0 DUP2 CALLDATALOAD SWAP1 POP PUSH2 0x17D2 DUP2 PUSH2 0x17AC JUMP JUMPDEST SWAP3 SWAP2 POP POP JUMP JUMPDEST PUSH1 0x0 PUSH1 0x20 DUP3 DUP5 SUB SLT ISZERO PUSH2 0x17EE JUMPI PUSH2 0x17ED PUSH2 0x169D JUMP JUMPDEST JUMPDEST PUSH1 0x0 PUSH2 0x17FC DUP5 DUP3 DUP6 ADD PUSH2 0x17C3 JUMP JUMPDEST SWAP2 POP POP SWAP3 SWAP2 POP POP JUMP JUMPDEST PUSH2 0x180E DUP2 PUSH2 0x16C7 JUMP JUMPDEST DUP3 MSTORE POP POP JUMP JUMPDEST PUSH1 0x0 PUSH1 0x20 DUP3 ADD SWAP1 POP PUSH2 0x1829 PUSH1 0x0 DUP4 ADD DUP5 PUSH2 0x1805 JUMP JUMPDEST SWAP3 SWAP2 POP POP JUMP JUMPDEST PUSH2 0x1838 DUP2 PUSH2 0x1732 JUMP JUMPDEST DUP2 EQ PUSH2 0x1843 JUMPI PUSH1 0x0 DUP1 REVERT JUMPDEST POP JUMP JUMPDEST PUSH1 0x0 DUP2 CALLDATALOAD SWAP1 POP PUSH2 0x1855 DUP2 PUSH2 0x182F JUMP JUMPDEST SWAP3 SWAP2 POP POP JUMP JUMPDEST PUSH1 0x0 DUP1 PUSH1 0x40 DUP4 DUP6 SUB SLT ISZERO PUSH2 0x1872 JUMPI PUSH2 0x1871 PUSH2 0x169D JUMP JUMPDEST JUMPDEST PUSH1 0x0 PUSH2 0x1880 DUP6 DUP3 DUP7 ADD PUSH2 0x16F0 JUMP JUMPDEST SWAP3 POP POP PUSH1 0x20 PUSH2 0x1891 DUP6 DUP3 DUP7 ADD PUSH2 0x1846 JUMP JUMPDEST SWAP2 POP POP SWAP3 POP SWAP3 SWAP1 POP JUMP JUMPDEST PUSH1 0x0 PUSH1 0x20 DUP3 DUP5 SUB SLT ISZERO PUSH2 0x18B1 JUMPI PUSH2 0x18B0 PUSH2 0x169D JUMP JUMPDEST JUMPDEST PUSH1 0x0 PUSH2 0x18BF DUP5 DUP3 DUP6 ADD PUSH2 0x1846 JUMP JUMPDEST SWAP2 POP POP SWAP3 SWAP2 POP POP JUMP JUMPDEST PUSH1 0x0 DUP1 REVERT JUMPDEST PUSH1 0x0 DUP2 SWAP1 POP DUP3 PUSH1 0x20 PUSH1 0x2 MUL DUP3 ADD GT ISZERO PUSH2 0x18E9 JUMPI PUSH2 0x18E8 PUSH2 0x18C8 JUMP JUMPDEST JUMPDEST SWAP3 SWAP2 POP POP JUMP JUMPDEST PUSH1 0x0 DUP2 SWAP1 POP DUP3 PUSH1 0x40 PUSH1 0x2 MUL DUP3 ADD GT ISZERO PUSH2 0x190B JUMPI PUSH2 0x190A PUSH2 0x18C8 JUMP JUMPDEST JUMPDEST SWAP3 SWAP2 POP POP JUMP JUMPDEST PUSH1 0x0 DUP1 REVERT JUMPDEST PUSH1 0x0 DUP1 REVERT JUMPDEST PUSH1 0x0 DUP1 DUP4 PUSH1 0x1F DUP5 ADD SLT PUSH2 0x1931 JUMPI PUSH2 0x1930 PUSH2 0x1911 JUMP JUMPDEST JUMPDEST DUP3 CALLDATALOAD SWAP1 POP PUSH8 0xFFFFFFFFFFFFFFFF DUP2 GT ISZERO PUSH2 0x194E JUMPI PUSH2 0x194D PUSH2 0x1916 JUMP JUMPDEST JUMPDEST PUSH1 0x20 DUP4 ADD SWAP2 POP DUP4 PUSH1 0x20 DUP3 MUL DUP4 ADD GT ISZERO PUSH2 0x196A JUMPI PUSH2 0x1969 PUSH2 0x18C8 JUMP JUMPDEST JUMPDEST SWAP3 POP SWAP3 SWAP1 POP JUMP JUMPDEST PUSH1 0x0 DUP1 PUSH1 0x0 DUP1 PUSH1 0x0 PUSH2 0x120 DUP7 DUP9 SUB SLT ISZERO PUSH2 0x198E JUMPI PUSH2 0x198D PUSH2 0x169D JUMP JUMPDEST JUMPDEST PUSH1 0x0 PUSH2 0x199C DUP9 DUP3 DUP10 ADD PUSH2 0x18CD JUMP JUMPDEST SWAP6 POP POP PUSH1 0x40 PUSH2 0x19AD DUP9 DUP3 DUP10 ADD PUSH2 0x18EF JUMP JUMPDEST SWAP5 POP POP PUSH1 0xC0 PUSH2 0x19BE DUP9 DUP3 DUP10 ADD PUSH2 0x18CD JUMP JUMPDEST SWAP4 POP POP PUSH2 0x100 DUP7 ADD CALLDATALOAD PUSH8 0xFFFFFFFFFFFFFFFF DUP2 GT ISZERO PUSH2 0x19E0 JUMPI PUSH2 0x19DF PUSH2 0x16A2 JUMP JUMPDEST JUMPDEST PUSH2 0x19EC DUP9 DUP3 DUP10 ADD PUSH2 0x191B JUMP JUMPDEST SWAP3 POP SWAP3 POP POP SWAP3 SWAP6 POP SWAP3 SWAP6 SWAP1 SWAP4 POP JUMP JUMPDEST PUSH2 0x1A04 DUP2 PUSH2 0x179C JUMP JUMPDEST DUP3 MSTORE POP POP JUMP JUMPDEST PUSH1 0x0 PUSH1 0x20 DUP3 ADD SWAP1 POP PUSH2 0x1A1F PUSH1 0x0 DUP4 ADD DUP5 PUSH2 0x19FB JUMP JUMPDEST SWAP3 SWAP2 POP POP JUMP JUMPDEST PUSH1 0x0 DUP2 SWAP1 POP DUP3 PUSH1 0x20 PUSH1 0x3 MUL DUP3 ADD GT ISZERO PUSH2 0x1A41 JUMPI PUSH2 0x1A40 PUSH2 0x18C8 JUMP JUMPDEST JUMPDEST SWAP3 SWAP2 POP POP JUMP JUMPDEST PUSH1 0x0 DUP1 PUSH1 0x0 DUP1 PUSH2 0x160 DUP6 DUP8 SUB SLT ISZERO PUSH2 0x1A62 JUMPI PUSH2 0x1A61 PUSH2 0x169D JUMP JUMPDEST JUMPDEST PUSH1 0x0 PUSH2 0x1A70 DUP8 DUP3 DUP9 ADD PUSH2 0x18CD JUMP JUMPDEST SWAP5 POP POP PUSH1 0x40 PUSH2 0x1A81 DUP8 DUP3 DUP9 ADD PUSH2 0x18EF JUMP JUMPDEST SWAP4 POP POP PUSH1 0xC0 PUSH2 0x1A92 DUP8 DUP3 DUP9 ADD PUSH2 0x18CD JUMP JUMPDEST SWAP3 POP POP PUSH2 0x100 PUSH2 0x1AA4 DUP8 DUP3 DUP9 ADD PUSH2 0x1A25 JUMP JUMPDEST SWAP2 POP POP SWAP3 SWAP6 SWAP2 SWAP5 POP SWAP3 POP JUMP JUMPDEST PUSH32 0x4E487B7100000000000000000000000000000000000000000000000000000000 PUSH1 0x0 MSTORE PUSH1 0x11 PUSH1 0x4 MSTORE PUSH1 0x24 PUSH1 0x0 REVERT JUMPDEST PUSH1 0x0 PUSH2 0x1AEA DUP3 PUSH2 0x179C JUMP JUMPDEST SWAP2 POP PUSH2 0x1AF5 DUP4 PUSH2 0x179C JUMP JUMPDEST SWAP3 POP DUP3 DUP3 SUB SWAP1 POP PUSH4 0xFFFFFFFF DUP2 GT ISZERO PUSH2 0x1B11 JUMPI PUSH2 0x1B10 PUSH2 0x1AB0 JUMP JUMPDEST JUMPDEST SWAP3 SWAP2 POP POP JUMP JUMPDEST PUSH32 0x4E487B7100000000000000000000000000000000000000000000000000000000 PUSH1 0x0 MSTORE PUSH1 0x22 PUSH1 0x4 MSTORE PUSH1 0x24 PUSH1 0x0 REVERT JUMPDEST PUSH1 0x0 PUSH1 0x2 DUP3 DIV SWAP1 POP PUSH1 0x1 DUP3 AND DUP1 PUSH2 0x1B5E JUMPI PUSH1 0x7F DUP3 AND SWAP2 POP JUMPDEST PUSH1 0x20 DUP3 LT DUP2 SUB PUSH2 0x1B71 JUMPI PUSH2 0x1B70 PUSH2 0x1B17 JUMP JUMPDEST JUMPDEST POP SWAP2 SWAP1 POP JUMP JUMPDEST PUSH1 0x0 DUP2 MLOAD SWAP1 POP PUSH2 0x1B86 DUP2 PUSH2 0x17AC JUMP JUMPDEST SWAP3 SWAP2 POP POP JUMP JUMPDEST PUSH1 0x0 PUSH1 0x20 DUP3 DUP5 SUB SLT ISZERO PUSH2 0x1BA2 JUMPI PUSH2 0x1BA1 PUSH2 0x169D JUMP JUMPDEST JUMPDEST PUSH1 0x0 PUSH2 0x1BB0 DUP5 DUP3 DUP6 ADD PUSH2 0x1B77 JUMP JUMPDEST SWAP2 POP POP SWAP3 SWAP2 POP POP JUMP JUMPDEST PUSH1 0x0 DUP3 DUP3 MSTORE PUSH1 0x20 DUP3 ADD SWAP1 POP SWAP3 SWAP2 POP POP JUMP JUMPDEST PUSH32 0x4E6F7420746865206F776E657200000000000000000000000000000000000000 PUSH1 0x0 DUP3 ADD MSTORE POP JUMP JUMPDEST PUSH1 0x0 PUSH2 0x1C00 PUSH1 0xD DUP4 PUSH2 0x1BB9 JUMP JUMPDEST SWAP2 POP PUSH2 0x1C0B DUP3 PUSH2 0x1BCA JUMP JUMPDEST PUSH1 0x20 DUP3 ADD SWAP1 POP SWAP2 SWAP1 POP JUMP JUMPDEST PUSH1 0x0 PUSH1 0x20 DUP3 ADD SWAP1 POP DUP2 DUP2 SUB PUSH1 0x0 DUP4 ADD MSTORE PUSH2 0x1C2F DUP2 PUSH2 0x1BF3 JUMP JUMPDEST SWAP1 POP SWAP2 SWAP1 POP JUMP JUMPDEST PUSH1 0x0 DUP2 MLOAD SWAP1 POP SWAP2 SWAP1 POP JUMP JUMPDEST PUSH32 0x4E487B7100000000000000000000000000000000000000000000000000000000 PUSH1 0x0 MSTORE PUSH1 0x41 PUSH1 0x4 MSTORE PUSH1 0x24 PUSH1 0x0 REVERT JUMPDEST PUSH1 0x0 DUP2 SWAP1 POP DUP2 PUSH1 0x0 MSTORE PUSH1 0x20 PUSH1 0x0 KECCAK256 SWAP1 POP SWAP2 SWAP1 POP JUMP JUMPDEST PUSH1 0x0 PUSH1 0x20 PUSH1 0x1F DUP4 ADD DIV SWAP1 POP SWAP2 SWAP1 POP JUMP JUMPDEST PUSH1 0x0 DUP3 DUP3 SHL SWAP1 POP SWAP3 SWAP2 POP POP JUMP JUMPDEST PUSH1 0x0 PUSH1 0x8 DUP4 MUL PUSH2 0x1CD2 PUSH32 0xFFFFFFFFFFFFFFFFFFFFFFFFFFFFFFFFFFFFFFFFFFFFFFFFFFFFFFFFFFFFFFFF DUP3 PUSH2 0x1C95 JUMP JUMPDEST PUSH2 0x1CDC DUP7 DUP4 PUSH2 0x1C95 JUMP JUMPDEST SWAP6 POP DUP1 NOT DUP5 AND SWAP4 POP DUP1 DUP7 AND DUP5 OR SWAP3 POP POP POP SWAP4 SWAP3 POP POP POP JUMP JUMPDEST PUSH1 0x0 DUP2 SWAP1 POP SWAP2 SWAP1 POP JUMP JUMPDEST PUSH1 0x0 PUSH2 0x1D19 PUSH2 0x1D14 PUSH2 0x1D0F DUP5 PUSH2 0x1732 JUMP JUMPDEST PUSH2 0x1CF4 JUMP JUMPDEST PUSH2 0x1732 JUMP JUMPDEST SWAP1 POP SWAP2 SWAP1 POP JUMP JUMPDEST PUSH1 0x0 DUP2 SWAP1 POP SWAP2 SWAP1 POP JUMP JUMPDEST PUSH2 0x1D33 DUP4 PUSH2 0x1CFE JUMP JUMPDEST PUSH2 0x1D47 PUSH2 0x1D3F DUP3 PUSH2 0x1D20 JUMP JUMPDEST DUP5 DUP5 SLOAD PUSH2 0x1CA2 JUMP JUMPDEST DUP3 SSTORE POP POP POP POP JUMP JUMPDEST PUSH1 0x0 SWAP1 JUMP JUMPDEST PUSH2 0x1D5C PUSH2 0x1D4F JUMP JUMPDEST PUSH2 0x1D67 DUP2 DUP5 DUP5 PUSH2 0x1D2A JUMP JUMPDEST POP POP POP JUMP JUMPDEST JUMPDEST DUP2 DUP2 LT ISZERO PUSH2 0x1D8B JUMPI PUSH2 0x1D80 PUSH1 0x0 DUP3 PUSH2 0x1D54 JUMP JUMPDEST PUSH1 0x1 DUP2 ADD SWAP1 POP PUSH2 0x1D6D JUMP JUMPDEST POP POP JUMP JUMPDEST PUSH1 0x1F DUP3 GT ISZERO PUSH2 0x1DD0 JUMPI PUSH2 0x1DA1 DUP2 PUSH2 0x1C70 JUMP JUMPDEST PUSH2 0x1DAA DUP5 PUSH2 0x1C85 JUMP JUMPDEST DUP2 ADD PUSH1 0x20 DUP6 LT ISZERO PUSH2 0x1DB9 JUMPI DUP2 SWAP1 POP JUMPDEST PUSH2 0x1DCD PUSH2 0x1DC5 DUP6 PUSH2 0x1C85 JUMP JUMPDEST DUP4 ADD DUP3 PUSH2 0x1D6C JUMP JUMPDEST POP POP JUMPDEST POP POP POP JUMP JUMPDEST PUSH1 0x0 DUP3 DUP3 SHR SWAP1 POP SWAP3 SWAP2 POP POP JUMP JUMPDEST PUSH1 0x0 PUSH2 0x1DF3 PUSH1 0x0 NOT DUP5 PUSH1 0x8 MUL PUSH2 0x1DD5 JUMP JUMPDEST NOT DUP1 DUP4 AND SWAP2 POP POP SWAP3 SWAP2 POP POP JUMP JUMPDEST PUSH1 0x0 PUSH2 0x1E0C DUP4 DUP4 PUSH2 0x1DE2 JUMP JUMPDEST SWAP2 POP DUP3 PUSH1 0x2 MUL DUP3 OR SWAP1 POP SWAP3 SWAP2 POP POP JUMP JUMPDEST PUSH2 0x1E25 DUP3 PUSH2 0x1C36 JUMP JUMPDEST PUSH8 0xFFFFFFFFFFFFFFFF DUP2 GT ISZERO PUSH2 0x1E3E JUMPI PUSH2 0x1E3D PUSH2 0x1C41 JUMP JUMPDEST JUMPDEST PUSH2 0x1E48 DUP3 SLOAD PUSH2 0x1B46 JUMP JUMPDEST PUSH2 0x1E53 DUP3 DUP3 DUP6 PUSH2 0x1D8F JUMP JUMPDEST PUSH1 0x0 PUSH1 0x20 SWAP1 POP PUSH1 0x1F DUP4 GT PUSH1 0x1 DUP2 EQ PUSH2 0x1E86 JUMPI PUSH1 0x0 DUP5 ISZERO PUSH2 0x1E74 JUMPI DUP3 DUP8 ADD MLOAD SWAP1 POP JUMPDEST PUSH2 0x1E7E DUP6 DUP3 PUSH2 0x1E00 JUMP JUMPDEST DUP7 SSTORE POP PUSH2 0x1EE6 JUMP JUMPDEST PUSH1 0x1F NOT DUP5 AND PUSH2 0x1E94 DUP7 PUSH2 0x1C70 JUMP JUMPDEST PUSH1 0x0 JUMPDEST DUP3 DUP2 LT ISZERO PUSH2 0x1EBC JUMPI DUP5 DUP10 ADD MLOAD DUP3 SSTORE PUSH1 0x1 DUP3 ADD SWAP2 POP PUSH1 0x20 DUP6 ADD SWAP5 POP PUSH1 0x20 DUP2 ADD SWAP1 POP PUSH2 0x1E97 JUMP JUMPDEST DUP7 DUP4 LT ISZERO PUSH2 0x1ED9 JUMPI DUP5 DUP10 ADD MLOAD PUSH2 0x1ED5 PUSH1 0x1F DUP10 AND DUP3 PUSH2 0x1DE2 JUMP JUMPDEST DUP4 SSTORE POP JUMPDEST PUSH1 0x1 PUSH1 0x2 DUP9 MUL ADD DUP9 SSTORE POP POP POP JUMPDEST POP POP POP POP POP POP JUMP JUMPDEST PUSH32 0x416C726561647920696E697469616C697A656400000000000000000000000000 PUSH1 0x0 DUP3 ADD MSTORE POP JUMP JUMPDEST PUSH1 0x0 PUSH2 0x1F24 PUSH1 0x13 DUP4 PUSH2 0x1BB9 JUMP JUMPDEST SWAP2 POP PUSH2 0x1F2F DUP3 PUSH2 0x1EEE JUMP JUMPDEST PUSH1 0x20 DUP3 ADD SWAP1 POP SWAP2 SWAP1 POP JUMP JUMPDEST PUSH1 0x0 PUSH1 0x20 DUP3 ADD SWAP1 POP DUP2 DUP2 SUB PUSH1 0x0 DUP4 ADD MSTORE PUSH2 0x1F53 DUP2 PUSH2 0x1F17 JUMP JUMPDEST SWAP1 POP SWAP2 SWAP1 POP JUMP JUMPDEST PUSH1 0x0 DUP2 SWAP1 POP PUSH1 0x20 DUP3 ADD SWAP1 POP SWAP2 SWAP1 POP JUMP JUMPDEST PUSH1 0x0 DUP2 SWAP1 POP SWAP2 SWAP1 POP JUMP JUMPDEST PUSH1 0x0 PUSH2 0x1F80 DUP3 MLOAD PUSH2 0x1F6A JUMP JUMPDEST DUP1 SWAP2 POP POP SWAP2 SWAP1 POP JUMP JUMPDEST PUSH1 0x0 PUSH2 0x1F94 DUP3 PUSH2 0x1C36 JUMP JUMPDEST DUP3 PUSH2 0x1F9E DUP5 PUSH2 0x1F5A JUMP JUMPDEST SWAP1 POP PUSH2 0x1FA9 DUP2 PUSH2 0x1F74 JUMP JUMPDEST SWAP3 POP PUSH1 0x20 DUP3 LT ISZERO PUSH2 0x1FE9 JUMPI PUSH2 0x1FE4 PUSH32 0xFFFFFFFFFFFFFFFFFFFFFFFFFFFFFFFFFFFFFFFFFFFFFFFFFFFFFFFFFFFFFFFF DUP4 PUSH1 0x20 SUB PUSH1 0x8 MUL PUSH2 0x1C95 JUMP JUMPDEST DUP4 AND SWAP3 POP JUMPDEST POP POP SWAP2 SWAP1 POP JUMP JUMPDEST PUSH32 0x496E76616C696420616464726573730000000000000000000000000000000000 PUSH1 0x0 DUP3 ADD MSTORE POP JUMP JUMPDEST PUSH1 0x0 PUSH2 0x2026 PUSH1 0xF DUP4 PUSH2 0x1BB9 JUMP JUMPDEST SWAP2 POP PUSH2 0x2031 DUP3 PUSH2 0x1FF0 JUMP JUMPDEST PUSH1 0x20 DUP3 ADD SWAP1 POP SWAP2 SWAP1 POP JUMP JUMPDEST PUSH1 0x0 PUSH1 0x20 DUP3 ADD SWAP1 POP DUP2 DUP2 SUB PUSH1 0x0 DUP4 ADD MSTORE PUSH2 0x2055 DUP2 PUSH2 0x2019 JUMP JUMPDEST SWAP1 POP SWAP2 SWAP1 POP JUMP JUMPDEST PUSH32 0x416D6F756E74206D7573742062652067726561746572207468616E2030000000 PUSH1 0x0 DUP3 ADD MSTORE POP JUMP JUMPDEST PUSH1 0x0 PUSH2 0x2092 PUSH1 0x1D DUP4 PUSH2 0x1BB9 JUMP JUMPDEST SWAP2 POP PUSH2 0x209D DUP3 PUSH2 0x205C JUMP JUMPDEST PUSH1 0x20 DUP3 ADD SWAP1 POP SWAP2 SWAP1 POP JUMP JUMPDEST PUSH1 0x0 PUSH1 0x20 DUP3 ADD SWAP1 POP DUP2 DUP2 SUB PUSH1 0x0 DUP4 ADD MSTORE PUSH2 0x20C1 DUP2 PUSH2 0x2085 JUMP JUMPDEST SWAP1 POP SWAP2 SWAP1 POP JUMP JUMPDEST PUSH32 0x4D7573742073656E642045544800000000000000000000000000000000000000 PUSH1 0x0 DUP3 ADD MSTORE POP JUMP JUMPDEST PUSH1 0x0 PUSH2 0x20FE PUSH1 0xD DUP4 PUSH2 0x1BB9 JUMP JUMPDEST SWAP2 POP PUSH2 0x2109 DUP3 PUSH2 0x20C8 JUMP JUMPDEST PUSH1 0x20 DUP3 ADD SWAP1 POP SWAP2 SWAP1 POP JUMP JUMPDEST PUSH1 0x0 PUSH1 0x20 DUP3 ADD SWAP1 POP DUP2 DUP2 SUB PUSH1 0x0 DUP4 ADD MSTORE PUSH2 0x212D DUP2 PUSH2 0x20F1 JUMP JUMPDEST SWAP1 POP SWAP2 SWAP1 POP JUMP JUMPDEST PUSH32 0x4E487B7100000000000000000000000000000000000000000000000000000000 PUSH1 0x0 MSTORE PUSH1 0x32 PUSH1 0x4 MSTORE PUSH1 0x24 PUSH1 0x0 REVERT JUMPDEST DUP3 DUP2 DUP4 CALLDATACOPY POP POP POP JUMP JUMPDEST PUSH2 0x2178 PUSH1 0x40 DUP4 DUP4 PUSH2 0x2163 JUMP JUMPDEST POP POP JUMP JUMPDEST PUSH1 0x0 PUSH1 0x2 SWAP1 POP SWAP2 SWAP1 POP JUMP JUMPDEST PUSH1 0x0 DUP2 SWAP1 POP SWAP3 SWAP2 POP POP JUMP JUMPDEST PUSH1 0x0 DUP2 SWAP1 POP SWAP2 SWAP1 POP JUMP JUMPDEST PUSH2 0x21A8 PUSH1 0x40 DUP4 DUP4 PUSH2 0x2163 JUMP JUMPDEST POP POP JUMP JUMPDEST PUSH1 0x0 PUSH2 0x21B8 DUP4 DUP4 PUSH2 0x219C JUMP JUMPDEST PUSH1 0x40 DUP4 ADD SWAP1 POP SWAP3 SWAP2 POP POP JUMP JUMPDEST PUSH1 0x0 DUP3 SWAP1 POP SWAP3 SWAP2 POP POP JUMP JUMPDEST PUSH1 0x0 PUSH1 0x40 DUP3 ADD SWAP1 POP SWAP2 SWAP1 POP JUMP JUMPDEST PUSH2 0x21E5 DUP2 PUSH2 0x217C JUMP JUMPDEST PUSH2 0x21EF DUP2 DUP5 PUSH2 0x2187 JUMP JUMPDEST SWAP3 POP PUSH2 0x21FA DUP3 PUSH2 0x2192 JUMP JUMPDEST DUP1 PUSH1 0x0 JUMPDEST DUP4 DUP2 LT ISZERO PUSH2 0x2233 JUMPI PUSH2 0x2210 DUP3 DUP5 PUSH2 0x21C4 JUMP JUMPDEST PUSH2 0x221A DUP8 DUP3 PUSH2 0x21AC JUMP JUMPDEST SWAP7 POP PUSH2 0x2225 DUP4 PUSH2 0x21CF JUMP JUMPDEST SWAP3 POP POP PUSH1 0x1 DUP2 ADD SWAP1 POP PUSH2 0x21FE JUMP JUMPDEST POP POP POP POP POP POP JUMP JUMPDEST PUSH1 0x0 DUP2 MLOAD SWAP1 POP SWAP2 SWAP1 POP JUMP JUMPDEST PUSH1 0x0 DUP3 DUP3 MSTORE PUSH1 0x20 DUP3 ADD SWAP1 POP SWAP3 SWAP2 POP POP JUMP JUMPDEST PUSH1 0x0 DUP2 SWAP1 POP PUSH1 0x20 DUP3 ADD SWAP1 POP SWAP2 SWAP1 POP JUMP JUMPDEST PUSH2 0x2270 DUP2 PUSH2 0x1732 JUMP JUMPDEST DUP3 MSTORE POP POP JUMP JUMPDEST PUSH1 0x0 PUSH2 0x2282 DUP4 DUP4 PUSH2 0x2267 JUMP JUMPDEST PUSH1 0x20 DUP4 ADD SWAP1 POP SWAP3 SWAP2 POP POP JUMP JUMPDEST PUSH1 0x0 PUSH1 0x20 DUP3 ADD SWAP1 POP SWAP2 SWAP1 POP JUMP JUMPDEST PUSH1 0x0 PUSH2 0x22A6 DUP3 PUSH2 0x223B JUMP JUMPDEST PUSH2 0x22B0 DUP2 DUP6 PUSH2 0x2246 JUMP JUMPDEST SWAP4 POP PUSH2 0x22BB DUP4 PUSH2 0x2257 JUMP JUMPDEST DUP1 PUSH1 0x0 JUMPDEST DUP4 DUP2 LT ISZERO PUSH2 0x22EC JUMPI DUP2 MLOAD PUSH2 0x22D3 DUP9 DUP3 PUSH2 0x2276 JUMP JUMPDEST SWAP8 POP PUSH2 0x22DE DUP4 PUSH2 0x228E JUMP JUMPDEST SWAP3 POP POP PUSH1 0x1 DUP2 ADD SWAP1 POP PUSH2 0x22BF JUMP JUMPDEST POP DUP6 SWAP4 POP POP POP POP SWAP3 SWAP2 POP POP JUMP JUMPDEST PUSH1 0x0 PUSH2 0x120 DUP3 ADD SWAP1 POP PUSH2 0x230F PUSH1 0x0 DUP4 ADD DUP8 PUSH2 0x216C JUMP JUMPDEST PUSH2 0x231C PUSH1 0x40 DUP4 ADD DUP7 PUSH2 0x21DC JUMP JUMPDEST PUSH2 0x2329 PUSH1 0xC0 DUP4 ADD DUP6 PUSH2 0x216C JUMP JUMPDEST DUP2 DUP2 SUB PUSH2 0x100 DUP4 ADD MSTORE PUSH2 0x233C DUP2 DUP5 PUSH2 0x229B JUMP JUMPDEST SWAP1 POP SWAP6 SWAP5 POP POP POP POP POP JUMP JUMPDEST PUSH2 0x2350 DUP2 PUSH2 0x1766 JUMP JUMPDEST DUP2 EQ PUSH2 0x235B JUMPI PUSH1 0x0 DUP1 REVERT JUMPDEST POP JUMP JUMPDEST PUSH1 0x0 DUP2 MLOAD SWAP1 POP PUSH2 0x236D DUP2 PUSH2 0x2347 JUMP JUMPDEST SWAP3 SWAP2 POP POP JUMP JUMPDEST PUSH1 0x0 PUSH1 0x20 DUP3 DUP5 SUB SLT ISZERO PUSH2 0x2389 JUMPI PUSH2 0x2388 PUSH2 0x169D JUMP JUMPDEST JUMPDEST PUSH1 0x0 PUSH2 0x2397 DUP5 DUP3 DUP6 ADD PUSH2 0x235E JUMP JUMPDEST SWAP2 POP POP SWAP3 SWAP2 POP POP JUMP JUMPDEST PUSH32 0x496E76616C69642070726F6F6600000000000000000000000000000000000000 PUSH1 0x0 DUP3 ADD MSTORE POP JUMP JUMPDEST PUSH1 0x0 PUSH2 0x23D6 PUSH1 0xD DUP4 PUSH2 0x1BB9 JUMP JUMPDEST SWAP2 POP PUSH2 0x23E1 DUP3 PUSH2 0x23A0 JUMP JUMPDEST PUSH1 0x20 DUP3 ADD SWAP1 POP SWAP2 SWAP1 POP JUMP JUMPDEST PUSH1 0x0 PUSH1 0x20 DUP3 ADD SWAP1 POP DUP2 DUP2 SUB PUSH1 0x0 DUP4 ADD MSTORE PUSH2 0x2405 DUP2 PUSH2 0x23C9 JUMP JUMPDEST SWAP1 POP SWAP2 SWAP1 POP JUMP JUMPDEST PUSH32 0x496E616374697669747920706572696F64206E6F74206D657400000000000000 PUSH1 0x0 DUP3 ADD MSTORE POP JUMP JUMPDEST PUSH1 0x0 PUSH2 0x2442 PUSH1 0x19 DUP4 PUSH2 0x1BB9 JUMP JUMPDEST SWAP2 POP PUSH2 0x244D DUP3 PUSH2 0x240C JUMP JUMPDEST PUSH1 0x20 DUP3 ADD SWAP1 POP SWAP2 SWAP1 POP JUMP JUMPDEST PUSH1 0x0 PUSH1 0x20 DUP3 ADD SWAP1 POP DUP2 DUP2 SUB PUSH1 0x0 DUP4 ADD MSTORE PUSH2 0x2471 DUP2 PUSH2 0x2435 JUMP JUMPDEST SWAP1 POP SWAP2 SWAP1 POP JUMP JUMPDEST PUSH32 0x4F776E6572206973207374696C6C206163746976650000000000000000000000 PUSH1 0x0 DUP3 ADD MSTORE POP JUMP JUMPDEST PUSH1 0x0 PUSH2 0x24AE PUSH1 0x15 DUP4 PUSH2 0x1BB9 JUMP JUMPDEST SWAP2 POP PUSH2 0x24B9 DUP3 PUSH2 0x2478 JUMP JUMPDEST PUSH1 0x20 DUP3 ADD SWAP1 POP SWAP2 SWAP1 POP JUMP JUMPDEST PUSH1 0x0 PUSH1 0x20 DUP3 ADD SWAP1 POP DUP2 DUP2 SUB PUSH1 0x0 DUP4 ADD MSTORE PUSH2 0x24DD DUP2 PUSH2 0x24A1 JUMP JUMPDEST SWAP1 POP SWAP2 SWAP1 POP JUMP JUMPDEST PUSH2 0x24ED DUP2 PUSH2 0x1F6A JUMP JUMPDEST DUP3 MSTORE POP POP JUMP JUMPDEST PUSH1 0x0 DUP3 DUP3 MSTORE PUSH1 0x20 DUP3 ADD SWAP1 POP SWAP3 SWAP2 POP POP JUMP JUMPDEST PUSH1 0x0 JUMPDEST DUP4 DUP2 LT ISZERO PUSH2 0x2522 JUMPI DUP1 DUP3 ADD MLOAD DUP2 DUP5 ADD MSTORE PUSH1 0x20 DUP2 ADD SWAP1 POP PUSH2 0x2507 JUMP JUMPDEST PUSH1 0x0 DUP5 DUP5 ADD MSTORE POP POP POP POP JUMP JUMPDEST PUSH1 0x0 PUSH1 0x1F NOT PUSH1 0x1F DUP4 ADD AND SWAP1 POP SWAP2 SWAP1 POP JUMP JUMPDEST PUSH1 0x0 PUSH2 0x254A DUP3 PUSH2 0x1C36 JUMP JUMPDEST PUSH2 0x2554 DUP2 DUP6 PUSH2 0x24F3 JUMP JUMPDEST SWAP4 POP PUSH2 0x2564 DUP2 DUP6 PUSH1 0x20 DUP7 ADD PUSH2 0x2504 JUMP JUMPDEST PUSH2 0x256D DUP2 PUSH2 0x252E JUMP JUMPDEST DUP5 ADD SWAP2 POP POP SWAP3 SWAP2 POP POP JUMP JUMPDEST PUSH1 0x0 PUSH1 0x80 DUP3 ADD SWAP1 POP PUSH2 0x258D PUSH1 0x0 DUP4 ADD DUP8 PUSH2 0x24E4 JUMP JUMPDEST PUSH2 0x259A PUSH1 0x20 DUP4 ADD DUP7 PUSH2 0x24E4 JUMP JUMPDEST DUP2 DUP2 SUB PUSH1 0x40 DUP4 ADD MSTORE PUSH2 0x25AC DUP2 DUP6 PUSH2 0x253F JUMP JUMPDEST SWAP1 POP DUP2 DUP2 SUB PUSH1 0x60 DUP4 ADD MSTORE PUSH2 0x25C0 DUP2 DUP5 PUSH2 0x253F JUMP JUMPDEST SWAP1 POP SWAP6 SWAP5 POP POP POP POP POP JUMP JUMPDEST PUSH1 0x0 DUP2 SWAP1 POP SWAP3 SWAP2 POP POP JUMP JUMPDEST PUSH1 0x0 PUSH2 0x25E1 DUP3 PUSH2 0x1C36 JUMP JUMPDEST PUSH2 0x25EB DUP2 DUP6 PUSH2 0x25CB JUMP JUMPDEST SWAP4 POP PUSH2 0x25FB DUP2 DUP6 PUSH1 0x20 DUP7 ADD PUSH2 0x2504 JUMP JUMPDEST DUP1 DUP5 ADD SWAP2 POP POP SWAP3 SWAP2 POP POP JUMP JUMPDEST PUSH1 0x0 PUSH2 0x2613 DUP3 DUP5 PUSH2 0x25D6 JUMP JUMPDEST SWAP2 POP DUP2 SWAP1 POP SWAP3 SWAP2 POP POP JUMP JUMPDEST PUSH32 0x646563727970743A206661696C65640000000000000000000000000000000000 PUSH1 0x0 DUP3 ADD MSTORE POP JUMP JUMPDEST PUSH1 0x0 PUSH2 0x2654 PUSH1 0xF DUP4 PUSH2 0x1BB9 JUMP JUMPDEST SWAP2 POP PUSH2 0x265F DUP3 PUSH2 0x261E JUMP JUMPDEST PUSH1 0x20 DUP3 ADD SWAP1 POP SWAP2 SWAP1 POP JUMP JUMPDEST PUSH1 0x0 PUSH1 0x20 DUP3 ADD SWAP1 POP DUP2 DUP2 SUB PUSH1 0x0 DUP4 ADD MSTORE PUSH2 0x2683 DUP2 PUSH2 0x2647 JUMP JUMPDEST SWAP1 POP SWAP2 SWAP1 POP JUMP JUMPDEST PUSH32 0x656E63727970743A206661696C65640000000000000000000000000000000000 PUSH1 0x0 DUP3 ADD MSTORE POP JUMP JUMPDEST PUSH1 0x0 PUSH2 0x26C0 PUSH1 0xF DUP4 PUSH2 0x1BB9 JUMP JUMPDEST SWAP2 POP PUSH2 0x26CB DUP3 PUSH2 0x268A JUMP JUMPDEST PUSH1 0x20 DUP3 ADD SWAP1 POP SWAP2 SWAP1 POP JUMP JUMPDEST PUSH1 0x0 PUSH1 0x20 DUP3 ADD SWAP1 POP DUP2 DUP2 SUB PUSH1 0x0 DUP4 ADD MSTORE PUSH2 0x26EF DUP2 PUSH2 0x26B3 JUMP JUMPDEST SWAP1 POP SWAP2 SWAP1 POP JUMP JUMPDEST PUSH1 0x0 PUSH1 0x40 DUP3 ADD SWAP1 POP PUSH2 0x270B PUSH1 0x0 DUP4 ADD DUP6 PUSH2 0x173C JUMP JUMPDEST DUP2 DUP2 SUB PUSH1 0x20 DUP4 ADD MSTORE PUSH2 0x271D DUP2 DUP5 PUSH2 0x253F JUMP JUMPDEST SWAP1 POP SWAP4 SWAP3 POP POP POP JUMP JUMPDEST PUSH32 0x72616E646F6D42797465733A206661696C656400000000000000000000000000 PUSH1 0x0 DUP3 ADD MSTORE POP JUMP JUMPDEST PUSH1 0x0 PUSH2 0x275C PUSH1 0x13 DUP4 PUSH2 0x1BB9 JUMP JUMPDEST SWAP2 POP PUSH2 0x2767 DUP3 PUSH2 0x2726 JUMP JUMPDEST PUSH1 0x20 DUP3 ADD SWAP1 POP SWAP2 SWAP1 POP JUMP JUMPDEST PUSH1 0x0 PUSH1 0x20 DUP3 ADD SWAP1 POP DUP2 DUP2 SUB PUSH1 0x0 DUP4 ADD MSTORE PUSH2 0x278B DUP2 PUSH2 0x274F JUMP JUMPDEST SWAP1 POP SWAP2 SWAP1 POP JUMP JUMPDEST PUSH32 0x4E6F2066756E647320617661696C61626C650000000000000000000000000000 PUSH1 0x0 DUP3 ADD MSTORE POP JUMP JUMPDEST PUSH1 0x0 PUSH2 0x27C8 PUSH1 0x12 DUP4 PUSH2 0x1BB9 JUMP JUMPDEST SWAP2 POP PUSH2 0x27D3 DUP3 PUSH2 0x2792 JUMP JUMPDEST PUSH1 0x20 DUP3 ADD SWAP1 POP SWAP2 SWAP1 POP JUMP JUMPDEST PUSH1 0x0 PUSH1 0x20 DUP3 ADD SWAP1 POP DUP2 DUP2 SUB PUSH1 0x0 DUP4 ADD MSTORE PUSH2 0x27F7 DUP2 PUSH2 0x27BB JUMP JUMPDEST SWAP1 POP SWAP2 SWAP1 POP JUMP JUMPDEST PUSH1 0x0 PUSH2 0x2809 DUP3 PUSH2 0x1732 JUMP JUMPDEST SWAP2 POP PUSH32 0xFFFFFFFFFFFFFFFFFFFFFFFFFFFFFFFFFFFFFFFFFFFFFFFFFFFFFFFFFFFFFFFF DUP3 SUB PUSH2 0x283B JUMPI PUSH2 0x283A PUSH2 0x1AB0 JUMP JUMPDEST JUMPDEST PUSH1 0x1 DUP3 ADD SWAP1 POP SWAP2 SWAP1 POP JUMP INVALID LOG2 PUSH5 0x6970667358 0x22 SLT KECCAK256 SIGNEXTEND PUSH24 0x57889618843BC1421A744681B81137E4C5F8B26AC9B306DB 0xD7 DUP8 0xE7 SWAP11 DIV SWAP6 PUSH5 0x736F6C6343 STOP ADDMOD EQ STOP CALLER "},"methodIdentifiers":{"addBeneficiary(address,uint256)":"96074e70","beneficiaries(address)":"01567739","beneficiaryList(uint256)":"9e761bbb","depositFunds()":"e2c41dbc","heartbeat()":"3defb962","inactivityPeriod()":"d362bd2b","initialize(uint32)":"8d8965bd","owner()":"8da5cb5b","triggerSwitch()":"f312186a","triggerWithProof(uint256[2],uint256[2][2],uint256[2],uint256[3])":"f169c0f5","verifyInactivity()":"3626157c","verifyProof(uint256[2],uint256[2][2],uint256[2],uint256[])":"c32e370e"}}}}}