{"contracts/Groth16Verifier.sol":{"Groth16Verifier":{"abi":[{"inputs":[{"internalType":"uint256[2]","name":"_pA","type":"uint256[2]"},{"internalType":"uint256[2][2]","name":"_pB","type":"uint256[2][2]"},{"internalType":"uint256[2]","name":"_pC","type":"uint256[2]"},{"internalType":"uint256[]","name":"_pubSignals","type":"uint256[]"}],"name":"verifyProof","outputs":[{"internalType":"bool","name":"","type":"bool"}],"stateMutability":"view","type":"function"}],"evm":{"bytecode":{"linkReferences":{},"object":"608060405234801561001057600080fd5b50610569806100206000396000f3fe608060405234801561001057600080fd5b506004361061002b5760003560e01c8063c32e370e14610030575b600080fd5b61004a60048036038101906100459190610473565b610060565b6040516100579190610518565b60405180910390f35b600061039e565b600060808601600087017f2c5b613649baa55e810fdd3d481d8fa0eb9b8fcaa753ab609fa8cb96c0f8fbd181527f1440b2ef7dc36879d0ae9a50c5ab69f6ddee0f884321953e5a1facac5a33198a6020820152833582527f30644e72e131a029b85045b68181585d97816a916871ca8d3c208c16d87cfd4760208501357f30644e72e131a029b85045b68181585d97816a916871ca8d3c208c16d87cfd4703066020830152843560408301526020850135606083015260408501356080830152606085013560a08301527f17f27440e7e6e1703aed2ff6e463671ce6662bbab291e035d2ca6be753c7f4f060c08301527f024ecdbca05acde8f92396924aae36cea80fd508636b7b58738fc94ffde4c4d860e08301527f2eef9b42ac8deb97378e3212f52b57b478c96a7cac8f5625ce501ba50aad5dd76101008301527f27436c42aac7e971581b83119dadfbbb77d1f3d3d62520a9df7f64c4f8d05d3d6101208301527f190324fc8c888c4222bce962aa18dbb5e15fcbab039f2594374490fd565994576101408301527f2e2a2ddc39cffb9c9f9f5d420a61c20b585938d5b9df71315dd3e26f90fef23e610160830152600088015161018083015260206000018801516101a08301527f198e9393920d483a7260bfb731fb5d25f1aa493335a9e71297e485b7aef312c26101c08301527f1800deef121f1e76426a00665e5c4479674322d4f75edadd46debd5cd992f6ed6101e08301527f090689d0585ff075ec9e99ad690c3395bc4b313370b38ef355acdadcd122975b6102008301527f12c85ea5db8c6deb4aab71808dcb408fe3d1e7690c43d37b4ce6cc0166fa7daa610220830152853561024083015260208601356102608301527f198e9393920d483a7260bfb731fb5d25f1aa493335a9e71297e485b7aef312c26102808301527f1800deef121f1e76426a00665e5c4479674322d4f75edadd46debd5cd992f6ed6102a08301527f090689d0585ff075ec9e99ad690c3395bc4b313370b38ef355acdadcd122975b6102c08301527f12c85ea5db8c6deb4aab71808dcb408fe3d1e7690c43d37b4ce6cc0166fa7daa6102e08301526020826103008460086107d05a03fa82518116935050505095945050505050565b60405161038081016040526103b6818587898b610067565b8060005260206000f35b600080fd5b600080fd5b600080fd5b6000819050826020600202820111156103eb576103ea6103ca565b5b92915050565b60008190508260406002028201111561040d5761040c6103ca565b5b92915050565b600080fd5b600080fd5b60008083601f84011261043357610432610413565b5b8235905067ffffffffffffffff8111156104505761044f610418565b5b60208301915083602082028301111561046c5761046b6103ca565b5b9250929050565b600080600080600061012086880312156104905761048f6103c0565b5b600061049e888289016103cf565b95505060406104af888289016103f1565b94505060c06104c0888289016103cf565b93505061010086013567ffffffffffffffff8111156104e2576104e16103c5565b5b6104ee8882890161041d565b92509250509295509295909350565b60008115159050919050565b610512816104fd565b82525050565b600060208201905061052d6000830184610509565b9291505056fea26469706673582212206df9432463e9b57cff26cf6370d9f60ab5798b336ae0e91c9a8f4ed656727e1b64736f6c63430008140033","opcodes":"PUSH1 0x80 PUSH1 0x40 MSTORE CALLVALUE DUP1 ISZERO PUSH2 0x10 JUMPI PUSH1 0x0 DUP1 REVERT JUMPDEST POP PUSH2 0x569 DUP1 PUSH2 0x20 PUSH1 0x0 CODECOPY PUSH1 0x0 RETURN INVALID PUSH1 0x80 PUSH1 0x40 MSTORE CALLVALUE DUP1 ISZERO PUSH2 0x10 JUMPI PUSH1 0x0 DUP1 REVERT JUMPDEST POP PUSH1 0x4 CALLDATASIZE LT PUSH2 0x2B JUMPI PUSH1 0x0 CALLDATALOAD PUSH1 0xE0 SHR DUP1 PUSH4 0xC32E370E EQ PUSH2 0x30 JUMPI JUMPDEST PUSH1 0x0 DUP1 REVERT JUMPDEST PUSH2 0x4A PUSH1 0x4 DUP1 CALLDATASIZE SUB DUP2 ADD SWAP1 PUSH2 0x45 SWAP2 SWAP1 PUSH2 0x473 JUMP JUMPDEST PUSH2 0x60 JUMP JUMPDEST PUSH1 0x40 MLOAD PUSH2 0x57 SWAP2 SWAP1 PUSH2 0x518 JUMP JUMPDEST PUSH1 0x40 MLOAD DUP1 SWAP2 SUB SWAP1 RETURN JUMPDEST PUSH1 0x0 PUSH2 0x39E JUMP JUMPDEST PUSH1 0x0 PUSH1 0x80 DUP7 ADD PUSH1 0x0 DUP8 ADD PUSH32 0x2C5B613649BAA55E810FDD3D481D8FA0EB9B8FCAA753AB609FA8CB96C0F8FBD1 DUP2 MSTORE PUSH32 0x1440B2EF7DC36879D0AE9A50C5AB69F6DDEE0F884321953E5A1FACAC5A33198A PUSH1 0x20 DUP3 ADD MSTORE DUP4 CALLDATALOAD DUP3 MSTORE PUSH32 0x30644E72E131A029B85045B68181585D97816A916871CA8D3C208C16D87CFD47 PUSH1 0x20 DUP6 ADD CALLDATALOAD PUSH32 0x30644E72E131A029B85045B68181585D97816A916871CA8D3C208C16D87CFD47 SUB MOD PUSH1 0x20 DUP4 ADD MSTORE DUP5 CALLDATALOAD PUSH1 0x40 DUP4 ADD MSTORE PUSH1 0x20 DUP6 ADD CALLDATALOAD PUSH1 0x60 DUP4 ADD MSTORE PUSH1 0x40 DUP6 ADD CALLDATALOAD PUSH1 0x80 DUP4 ADD MSTORE PUSH1 0x60 DUP6 ADD CALLDATALOAD PUSH1 0xA0 DUP4 ADD MSTORE PUSH32 0x17F27440E7E6E1703AED2FF6E463671CE6662BBAB291E035D2CA6BE753C7F4F0 PUSH1 0xC0 DUP4 ADD MSTORE PUSH32 0x24ECDBCA05ACDE8F92396924AAE36CEA80FD508636B7B58738FC94FFDE4C4D8 PUSH1 0xE0 DUP4 ADD MSTORE PUSH32 0x2EEF9B42AC8DEB97378E3212F52B57B478C96A7CAC8F5625CE501BA50AAD5DD7 PUSH2 0x100 DUP4 ADD MSTORE PUSH32 0x27436C42AAC7E971581B83119DADFBBB77D1F3D3D62520A9DF7F64C4F8D05D3D PUSH2 0x120 DUP4 ADD MSTORE PUSH32 0x190324FC8C888C4222BCE962AA18DBB5E15FCBAB039F2594374490FD56599457 PUSH2 0x140 DUP4 ADD MSTORE PUSH32 0x2E2A2DDC39CFFB9C9F9F5D420A61C20B585938D5B9DF71315DD3E26F90FEF23E PUSH2 0x160 DUP4 ADD MSTORE PUSH1 0x0 DUP9 ADD MLOAD PUSH2 0x180 DUP4 ADD MSTORE PUSH1 0x20 PUSH1 0x0 ADD DUP9 ADD MLOAD PUSH2 0x1A0 DUP4 ADD MSTORE PUSH32 0x198E9393920D483A7260BFB731FB5D25F1AA493335A9E71297E485B7AEF312C2 PUSH2 0x1C0 DUP4 ADD MSTORE PUSH32 0x1800DEEF121F1E76426A00665E5C4479674322D4F75EDADD46DEBD5CD992F6ED PUSH2 0x1E0 DUP4 ADD MSTORE PUSH32 0x90689D0585FF075EC9E99AD690C3395BC4B313370B38EF355ACDADCD122975B PUSH2 0x200 DUP4 ADD MSTORE PUSH32 0x12C85EA5DB8C6DEB4AAB71808DCB408FE3D1E7690C43D37B4CE6CC0166FA7DAA PUSH2 0x220 DUP4 ADD MSTORE DUP6 CALLDATALOAD PUSH2 0x240 DUP4 ADD MSTORE PUSH1 0x20 DUP7 ADD CALLDATALOAD PUSH2 0x260 DUP4 ADD MSTORE PUSH32 0x198E9393920D483A7260BFB731FB5D25F1AA493335A9E71297E485B7AEF312C2 PUSH2 0x280 DUP4 ADD MSTORE PUSH32 0x1800DEEF121F1E76426A00665E5C4479674322D4F75EDADD46DEBD5CD992F6ED PUSH2 0x2A0 DUP4 ADD MSTORE PUSH32 0x90689D0585FF075EC9E99AD690C3395BC4B313370B38EF355ACDADCD122975B PUSH2 0x2C0 DUP4 ADD MSTORE PUSH32 0x12C85EA5DB8C6DEB4AAB71808DCB408FE3D1E7690C43D37B4CE6CC0166FA7DAA PUSH2 0x2E0 DUP4 ADD MSTORE PUSH1 0x20 DUP3 PUSH2 0x300 DUP5 PUSH1 0x8 PUSH2 0x7D0 GAS SUB STATICCALL DUP3 MLOAD DUP2 AND SWAP4 POP POP POP POP SWAP6 SWAP5 POP POP POP POP POP JUMP JUMPDEST PUSH1 0x40 MLOAD PUSH2 0x380 DUP2 ADD PUSH1 0x40 MSTORE PUSH2 0x3B6 DUP2 DUP6 DUP8 DUP10 DUP12 PUSH2 0x67 JUMP JUMPDEST DUP1 PUSH1 0x0 MSTORE PUSH1 0x20 PUSH1 0x0 RETURN JUMPDEST PUSH1 0x0 DUP1 REVERT JUMPDEST PUSH1 0x0 DUP1 REVERT JUMPDEST PUSH1 0x0 DUP1 REVERT JUMPDEST PUSH1 0x0 DUP2 SWAP1 POP DUP3 PUSH1 0x20 PUSH1 0x2 MUL DUP3 ADD GT ISZERO PUSH2 0x3EB JUMPI PUSH2 0x3EA PUSH2 0x3CA JUMP JUMPDEST JUMPDEST SWAP3 SWAP2 POP POP JUMP JUMPDEST PUSH1 0x0 DUP2 SWAP1 POP DUP3 PUSH1 0x40 PUSH1 0x2 MUL DUP3 ADD GT ISZERO PUSH2 0x40D JUMPI PUSH2 0x40C PUSH2 0x3CA JUMP JUMPDEST JUMPDEST SWAP3 SWAP2 POP POP JUMP JUMPDEST PUSH1 0x0 DUP1 REVERT JUMPDEST PUSH1 0x0 DUP1 REVERT JUMPDEST PUSH1 0x0 DUP1 DUP4 PUSH1 0x1F DUP5 ADD SLT PUSH2 0x433 JUMPI PUSH2 0x432 PUSH2 0x413 JUMP JUMPDEST JUMPDEST DUP3 CALLDATALOAD SWAP1 POP PUSH8 0xFFFFFFFFFFFFFFFF DUP2 GT ISZERO PUSH2 0x450 JUMPI PUSH2 0x44F PUSH2 0x418 JUMP JUMPDEST JUMPDEST PUSH1 0x20 DUP4 ADD SWAP2 POP DUP4 PUSH1 0x20 DUP3 MUL DUP4 ADD GT ISZERO PUSH2 0x46C JUMPI PUSH2 0x46B PUSH2 0x3CA JUMP JUMPDEST JUMPDEST SWAP3 POP SWAP3 SWAP1 POP JUMP JUMPDEST PUSH1 0x0 DUP1 PUSH1 0x0 DUP1 PUSH1 0x0 PUSH2 0x120 DUP7 DUP9 SUB SLT ISZERO PUSH2 0x490 JUMPI PUSH2 0x48F PUSH2 0x3C0 JUMP JUMPDEST JUMPDEST PUSH1 0x0 PUSH2 0x49E DUP9 DUP3 DUP10 ADD PUSH2 0x3CF JUMP JUMPDEST SWAP6 POP POP PUSH1 0x40 PUSH2 0x4AF DUP9 DUP3 DUP10 ADD PUSH2 0x3F1 JUMP JUMPDEST SWAP5 POP POP PUSH1 0xC0 PUSH2 0x4C0 DUP9 DUP3 DUP10 ADD PUSH2 0x3CF JUMP JUMPDEST SWAP4 POP POP PUSH2 0x100 DUP7 ADD CALLDATALOAD PUSH8 0xFFFFFFFFFFFFFFFF DUP2 GT ISZERO PUSH2 0x4E2 JUMPI PUSH2 0x4E1 PUSH2 0x3C5 JUMP JUMPDEST JUMPDEST PUSH2 0x4EE DUP9 DUP3 DUP10 ADD PUSH2 0x41D JUMP JUMPDEST SWAP3 POP SWAP3 POP POP SWAP3 SWAP6 POP SWAP3 SWAP6 SWAP1 SWAP4 POP JUMP JUMPDEST PUSH1 0x0 DUP2 ISZERO ISZERO SWAP1 POP SWAP2 SWAP1 POP JUMP JUMPDEST PUSH2 0x512 DUP2 PUSH2 0x4FD JUMP JUMPDEST DUP3 MSTORE POP POP JUMP JUMPDEST PUSH1 0x0 PUSH1 0x20 DUP3 ADD SWAP1 POP PUSH2 0x52D PUSH1 0x0 DUP4 ADD DUP5 PUSH2 0x509 JUMP JUMPDEST SWAP3 SWAP2 POP POP JUMP INVALID LOG2 PUSH5 0x6970667358 0x22 SLT KECCAK256 PUSH14 0xF9432463E9B57CFF26CF6370D9F6 EXP 0xB5 PUSH26 0x8B336AE0E91C9A8F4ED656727E1B64736F6C6343000814003300 "},"methodIdentifiers":{"verifyProof(uint256[2],uint256[2][2],uint256[2],uint256[])":"c32e370e"}}}}}