{
  "_format": "hh-sol-artifact-1",
  "contractName": "DeadManVault",
  "sourceName": "contracts/DeadManVault.sol",
  "abi": [
    {
      "inputs": [
        {
          "internalType": "address",
          "name": "_beneficiary",
          "type": "address"
        },
        {
          "internalType": "uint256",
          "name": "_timeout",
          "type": "uint256"
        }
      ],
      "stateMutability": "nonpayable",
      "type": "constructor"
    },
    {
      "inputs": [],
      "name": "beneficiary",
      "outputs": [
        {
          "internalType": "address",
          "name": "",
          "type": "address"
        }
      ],
      "stateMutability": "view",
      "type": "function"
    },
    {
      "inputs": [],
      "name": "claim",
      "outputs": [],
      "stateMutability": "nonpayable",
      "type": "function"
    },
    {
      "inputs": [],
      "name": "claimed",
      "outputs": [
        {
          "internalType": "bool",
          "name": "",
          "type": "bool"
        }
      ],
      "stateMutability": "view",
      "type": "function"
    },
    {
      "inputs": [],
      "name": "lastPing",
      "outputs": [
        {
          "internalType": "uint256",
          "name": "",
          "type": "uint256"
        }
      ],
      "stateMutability": "view",
      "type": "function"
    },
    {
      "inputs": [],
      "name": "lastPingTime",
      "outputs": [
        {
          "internalType": "uint256",
          "name": "",
          "type": "uint256"
        }
      ],
      "stateMutability": "view",
      "type": "function"
    },
    {
      "inputs": [],
      "name": "owner",
      "outputs": [
        {
          "internalType": "address",
          "name": "",
          "type": "address"
        }
      ],
      "stateMutability": "view",
      "type": "function"
    },
    {
      "inputs": [],
      "name": "ping",
      "outputs": [],
      "stateMutability": "nonpayable",
      "type": "function"
    },
    {
      "inputs": [],
      "name": "timeout",
      "outputs": [
        {
          "internalType": "uint256",
          "name": "",
          "type": "uint256"
        }
      ],
      "stateMutability": "view",
      "type": "function"
    },
    {
      "inputs": [],
      "name": "trigger",
      "outputs": [],
      "stateMutability": "nonpayable",
      "type": "function"
    },
    {
      "inputs": [],
      "name": "triggered",
      "outputs": [
        {
          "internalType": "bool",
          "name": "",
          "type": "bool"
        }
      ],
      "stateMutability": "view",
      "type": "function"
    },
    {
      "stateMutability": "payable",
      "type": "receive"
    }
  ],
  "bytecode": "0x608060405234801561001057600080fd5b50604051610ac5380380610ac583398181016040528101906100329190610197565b336000806101000a81548173ffffffffffffffffffffffffffffffffffffffff021916908373ffffffffffffffffffffffffffffffffffffffff16021790555081600160006101000a81548173ffffffffffffffffffffffffffffffffffffffff021916908373ffffffffffffffffffffffffffffffffffffffff16021790555080600281905550426003819055506000600460016101000a81548160ff0219169083151502179055506000600460006101000a81548160ff02191690831515021790555050506101d7565b600080fd5b600073ffffffffffffffffffffffffffffffffffffffff82169050919050565b600061012e82610103565b9050919050565b61013e81610123565b811461014957600080fd5b50565b60008151905061015b81610135565b92915050565b6000819050919050565b61017481610161565b811461017f57600080fd5b50565b6000815190506101918161016b565b92915050565b600080604083850312156101ae576101ad6100fe565b5b60006101bc8582860161014c565b92505060206101cd85828601610182565b9150509250929050565b6108df806101e66000396000f3fe6080604052600436106100955760003560e01c806370dea79a1161005957806370dea79a14610150578063741c89071461017b5780637fec8d38146101a65780638da5cb5b146101bd578063e834a834146101e85761009c565b80632760c57e146100a157806335d62d4d146100cc57806338af3eed146100f75780634e71d92d146101225780635c36b186146101395761009c565b3661009c57005b600080fd5b3480156100ad57600080fd5b506100b6610213565b6040516100c3919061056c565b60405180910390f35b3480156100d857600080fd5b506100e161021d565b6040516100ee919061056c565b60405180910390f35b34801561010357600080fd5b5061010c610223565b60405161011991906105c8565b60405180910390f35b34801561012e57600080fd5b50610137610249565b005b34801561014557600080fd5b5061014e6103fe565b005b34801561015c57600080fd5b50610165610495565b604051610172919061056c565b60405180910390f35b34801561018757600080fd5b5061019061049b565b60405161019d91906105fe565b60405180910390f35b3480156101b257600080fd5b506101bb6104ae565b005b3480156101c957600080fd5b506101d261051c565b6040516101df91906105c8565b60405180910390f35b3480156101f457600080fd5b506101fd610540565b60405161020a91906105fe565b60405180910390f35b6000600354905090565b60035481565b600160009054906101000a900473ffffffffffffffffffffffffffffffffffffffff1681565b600160009054906101000a900473ffffffffffffffffffffffffffffffffffffffff1673ffffffffffffffffffffffffffffffffffffffff163373ffffffffffffffffffffffffffffffffffffffff16146102d9576040517f08c379a00000000000000000000000000000000000000000000000000000000081526004016102d090610676565b60405180910390fd5b600460009054906101000a900460ff16610328576040517f08c379a000000000000000000000000000000000000000000000000000000000815260040161031f906106e2565b60405180910390fd5b600460019054906101000a900460ff1615610378576040517f08c379a000000000000000000000000000000000000000000000000000000000815260040161036f9061074e565b60405180910390fd5b6001600460016101000a81548160ff021916908315150217905550600160009054906101000a900473ffffffffffffffffffffffffffffffffffffffff1673ffffffffffffffffffffffffffffffffffffffff166108fc479081150290604051600060405180830381858888f193505050501580156103fb573d6000803e3d6000fd5b50565b60008054906101000a900473ffffffffffffffffffffffffffffffffffffffff1673ffffffffffffffffffffffffffffffffffffffff163373ffffffffffffffffffffffffffffffffffffffff161461048c576040517f08c379a0000000000000000000000000000000000000000000000000000000008152600401610483906107ba565b60405180910390fd5b42600381905550565b60025481565b600460009054906101000a900460ff1681565b6002546003546104be9190610809565b42116104ff576040517f08c379a00000000000000000000000000000000000000000000000000000000081526004016104f690610889565b60405180910390fd5b6001600460006101000a81548160ff021916908315150217905550565b60008054906101000a900473ffffffffffffffffffffffffffffffffffffffff1681565b600460019054906101000a900460ff1681565b6000819050919050565b61056681610553565b82525050565b6000602082019050610581600083018461055d565b92915050565b600073ffffffffffffffffffffffffffffffffffffffff82169050919050565b60006105b282610587565b9050919050565b6105c2816105a7565b82525050565b60006020820190506105dd60008301846105b9565b92915050565b60008115159050919050565b6105f8816105e3565b82525050565b600060208201905061061360008301846105ef565b92915050565b600082825260208201905092915050565b7f4e6f742062656e65666963696172790000000000000000000000000000000000600082015250565b6000610660600f83610619565b915061066b8261062a565b602082019050919050565b6000602082019050818103600083015261068f81610653565b9050919050565b7f4e6f742074726967676572656420796574000000000000000000000000000000600082015250565b60006106cc601183610619565b91506106d782610696565b602082019050919050565b600060208201905081810360008301526106fb816106bf565b9050919050565b7f416c726561647920636c61696d65640000000000000000000000000000000000600082015250565b6000610738600f83610619565b915061074382610702565b602082019050919050565b600060208201905081810360008301526107678161072b565b9050919050565b7f4e6f74206f776e65720000000000000000000000000000000000000000000000600082015250565b60006107a4600983610619565b91506107af8261076e565b602082019050919050565b600060208201905081810360008301526107d381610797565b9050919050565b7f4e487b7100000000000000000000000000000000000000000000000000000000600052601160045260246000fd5b600061081482610553565b915061081f83610553565b9250828201905080821115610837576108366107da565b5b92915050565b7f5374696c6c206163746976650000000000000000000000000000000000000000600082015250565b6000610873600c83610619565b915061087e8261083d565b602082019050919050565b600060208201905081810360008301526108a281610866565b905091905056fea2646970667358221220e18cd799ca1731555330a945b4f8ec00f7d8d27521b66412c057b02b7ff2bea864736f6c634300081c0033",
  "linkReferences": {},
  "deployedLinkReferences": {}
}