{
  "_format": "hh-sol-artifact-1",
  "contractName": "MockVerifier",
  "sourceName": "contracts/MockVerifier.sol",
  "abi": [
    {
      "inputs": [
        {
          "internalType": "bool",
          "name": "_value",
          "type": "bool"
        }
      ],
      "name": "setReturnValue",
      "outputs": [],
      "stateMutability": "nonpayable",
      "type": "function"
    },
    {
      "inputs": [
        {
          "internalType": "uint256[2]",
          "name": "a",
          "type": "uint256[2]"
        },
        {
          "internalType": "uint256[2][2]",
          "name": "b",
          "type": "uint256[2][2]"
        },
        {
          "internalType": "uint256[2]",
          "name": "c",
          "type": "uint256[2]"
        },
        {
          "internalType": "uint256[3]",
          "name": "input",
          "type": "uint256[3]"
        }
      ],
      "name": "verifyProof",
      "outputs": [
        {
          "internalType": "bool",
          "name": "",
          "type": "bool"
        }
      ],
      "stateMutability": "view",
      "type": "function"
    },
    {
      "inputs": [
        {
          "internalType": "uint256[2]",
          "name": "a",
          "type": "uint256[2]"
        },
        {
          "internalType": "uint256[2][2]",
          "name": "b",
          "type": "uint256[2][2]"
        },
        {
          "internalType": "uint256[2]",
          "name": "c",
          "type": "uint256[2]"
        },
        {
          "internalType": "uint256[2]",
          "name": "input",
          "type": "uint256[2]"
        }
      ],
      "name": "verifyProof",
      "outputs": [
        {
          "internalType": "bool",
          "name": "",
          "type": "bool"
        }
      ],
      "stateMutability": "view",
      "type": "function"
    }
  ],
  "bytecode": "0x608060405260016000806101000a81548160ff02191690831515021790555034801561002a57600080fd5b506105998061003a6000396000f3fe608060405234801561001057600080fd5b50600436106100415760003560e01c806311479fea14610046578063d2c6417614610076578063f5c9d69e14610092575b600080fd5b610060600480360381019061005b9190610402565b6100c2565b60405161006d9190610486565b60405180910390f35b610090600480360381019061008b91906104cd565b6100dd565b005b6100ac60048036038101906100a791906104fa565b6100f9565b6040516100b99190610486565b60405180910390f35b60008060009054906101000a900460ff169050949350505050565b806000806101000a81548160ff02191690831515021790555050565b60008060009054906101000a900460ff169050949350505050565b6000604051905090565b600080fd5b600080fd5b6000601f19601f8301169050919050565b7f4e487b7100000000000000000000000000000000000000000000000000000000600052604160045260246000fd5b61017182610128565b810181811067ffffffffffffffff821117156101905761018f610139565b5b80604052505050565b60006101a3610114565b90506101af8282610168565b919050565b600067ffffffffffffffff8211156101cf576101ce610139565b5b602082029050919050565b600080fd5b6000819050919050565b6101f2816101df565b81146101fd57600080fd5b50565b60008135905061020f816101e9565b92915050565b6000610228610223846101b4565b610199565b90508060208402830185811115610242576102416101da565b5b835b8181101561026b57806102578882610200565b845260208401935050602081019050610244565b5050509392505050565b600082601f83011261028a57610289610123565b5b6002610297848285610215565b91505092915050565b600067ffffffffffffffff8211156102bb576102ba610139565b5b602082029050919050565b60006102d96102d4846102a0565b610199565b905080604084028301858111156102f3576102f26101da565b5b835b8181101561031c57806103088882610275565b8452602084019350506040810190506102f5565b5050509392505050565b600082601f83011261033b5761033a610123565b5b60026103488482856102c6565b91505092915050565b600067ffffffffffffffff82111561036c5761036b610139565b5b602082029050919050565b600061038a61038584610351565b610199565b905080602084028301858111156103a4576103a36101da565b5b835b818110156103cd57806103b98882610200565b8452602084019350506020810190506103a6565b5050509392505050565b600082601f8301126103ec576103eb610123565b5b60036103f9848285610377565b91505092915050565b600080600080610160858703121561041d5761041c61011e565b5b600061042b87828801610275565b945050604061043c87828801610326565b93505060c061044d87828801610275565b92505061010061045f878288016103d7565b91505092959194509250565b60008115159050919050565b6104808161046b565b82525050565b600060208201905061049b6000830184610477565b92915050565b6104aa8161046b565b81146104b557600080fd5b50565b6000813590506104c7816104a1565b92915050565b6000602082840312156104e3576104e261011e565b5b60006104f1848285016104b8565b91505092915050565b60008060008061014085870312156105155761051461011e565b5b600061052387828801610275565b945050604061053487828801610326565b93505060c061054587828801610275565b92505061010061055787828801610275565b9150509295919450925056fea264697066735822122025f3db5aafb5c91c84f5b051c7b4a2e4e16b2f3e97863848f8c99174ece332fc64736f6c63430008140033",
  "linkReferences": {},
  "deployedLinkReferences": {}
}