{
  "_format": "hh-sol-artifact-1",
  "contractName": "DeadManVault2",
  "sourceName": "contracts/deadmanvault2.sol",
  "abi": [
    {
      "inputs": [
        {
          "internalType": "uint256",
          "name": "_timeout",
          "type": "uint256"
        }
      ],
      "stateMutability": "nonpayable",
      "type": "constructor"
    },
    {
      "anonymous": false,
      "inputs": [
        {
          "indexed": true,
          "internalType": "address",
          "name": "beneficiary",
          "type": "address"
        }
      ],
      "name": "BeneficiaryAdded",
      "type": "event"
    },
    {
      "anonymous": false,
      "inputs": [
        {
          "indexed": true,
          "internalType": "address",
          "name": "beneficiary",
          "type": "address"
        }
      ],
      "name": "BeneficiaryRemoved",
      "type": "event"
    },
    {
      "anonymous": false,
      "inputs": [
        {
          "indexed": true,
          "internalType": "address",
          "name": "beneficiary",
          "type": "address"
        },
        {
          "indexed": false,
          "internalType": "uint256",
          "name": "amount",
          "type": "uint256"
        }
      ],
      "name": "FundsClaimed",
      "type": "event"
    },
    {
      "anonymous": false,
      "inputs": [
        {
          "indexed": true,
          "internalType": "address",
          "name": "owner",
          "type": "address"
        },
        {
          "indexed": false,
          "internalType": "uint256",
          "name": "timestamp",
          "type": "uint256"
        }
      ],
      "name": "Pinged",
      "type": "event"
    },
    {
      "anonymous": false,
      "inputs": [
        {
          "indexed": false,
          "internalType": "uint256",
          "name": "timestamp",
          "type": "uint256"
        }
      ],
      "name": "Triggered",
      "type": "event"
    },
    {
      "inputs": [
        {
          "internalType": "address",
          "name": "_beneficiary",
          "type": "address"
        }
      ],
      "name": "addBeneficiary",
      "outputs": [],
      "stateMutability": "nonpayable",
      "type": "function"
    },
    {
      "inputs": [
        {
          "internalType": "address",
          "name": "",
          "type": "address"
        }
      ],
      "name": "beneficiaries",
      "outputs": [
        {
          "internalType": "bool",
          "name": "",
          "type": "bool"
        }
      ],
      "stateMutability": "view",
      "type": "function"
    },
    {
      "inputs": [
        {
          "internalType": "uint256",
          "name": "",
          "type": "uint256"
        }
      ],
      "name": "beneficiaryList",
      "outputs": [
        {
          "internalType": "address",
          "name": "",
          "type": "address"
        }
      ],
      "stateMutability": "view",
      "type": "function"
    },
    {
      "inputs": [],
      "name": "claim",
      "outputs": [],
      "stateMutability": "nonpayable",
      "type": "function"
    },
    {
      "inputs": [],
      "name": "claimed",
      "outputs": [
        {
          "internalType": "bool",
          "name": "",
          "type": "bool"
        }
      ],
      "stateMutability": "view",
      "type": "function"
    },
    {
      "inputs": [
        {
          "internalType": "uint256",
          "name": "_index",
          "type": "uint256"
        }
      ],
      "name": "getBeneficiaryAtIndex",
      "outputs": [
        {
          "internalType": "address",
          "name": "",
          "type": "address"
        }
      ],
      "stateMutability": "view",
      "type": "function"
    },
    {
      "inputs": [],
      "name": "getBeneficiaryCount",
      "outputs": [
        {
          "internalType": "uint256",
          "name": "",
          "type": "uint256"
        }
      ],
      "stateMutability": "view",
      "type": "function"
    },
    {
      "inputs": [
        {
          "internalType": "address",
          "name": "_address",
          "type": "address"
        }
      ],
      "name": "isBeneficiary",
      "outputs": [
        {
          "internalType": "bool",
          "name": "",
          "type": "bool"
        }
      ],
      "stateMutability": "view",
      "type": "function"
    },
    {
      "inputs": [],
      "name": "lastPing",
      "outputs": [
        {
          "internalType": "uint256",
          "name": "",
          "type": "uint256"
        }
      ],
      "stateMutability": "view",
      "type": "function"
    },
    {
      "inputs": [],
      "name": "lastPingTime",
      "outputs": [
        {
          "internalType": "uint256",
          "name": "",
          "type": "uint256"
        }
      ],
      "stateMutability": "view",
      "type": "function"
    },
    {
      "inputs": [],
      "name": "owner",
      "outputs": [
        {
          "internalType": "address",
          "name": "",
          "type": "address"
        }
      ],
      "stateMutability": "view",
      "type": "function"
    },
    {
      "inputs": [],
      "name": "ping",
      "outputs": [],
      "stateMutability": "nonpayable",
      "type": "function"
    },
    {
      "inputs": [
        {
          "internalType": "address",
          "name": "_beneficiary",
          "type": "address"
        }
      ],
      "name": "removeBeneficiary",
      "outputs": [],
      "stateMutability": "nonpayable",
      "type": "function"
    },
    {
      "inputs": [],
      "name": "timeout",
      "outputs": [
        {
          "internalType": "uint256",
          "name": "",
          "type": "uint256"
        }
      ],
      "stateMutability": "view",
      "type": "function"
    },
    {
      "inputs": [],
      "name": "trigger",
      "outputs": [],
      "stateMutability": "nonpayable",
      "type": "function"
    },
    {
      "inputs": [],
      "name": "triggered",
      "outputs": [
        {
          "internalType": "bool",
          "name": "",
          "type": "bool"
        }
      ],
      "stateMutability": "view",
      "type": "function"
    },
    {
      "inputs": [
        {
          "internalType": "uint256",
          "name": "_newTimeout",
          "type": "uint256"
        }
      ],
      "name": "updateTimeout",
      "outputs": [],
      "stateMutability": "nonpayable",
      "type": "function"
    },
    {
      "stateMutability": "payable",
      "type": "receive"
    }
  ],
  "bytecode": "0x608060405234801561001057600080fd5b50604051611aa1380380611aa1833981810160405281019061003291906100f7565b336000806101000a81548173ffffffffffffffffffffffffffffffffffffffff021916908373ffffffffffffffffffffffffffffffffffffffff16021790555080600181905550426002819055506000600360016101000a81548160ff0219169083151502179055506000600360006101000a81548160ff02191690831515021790555050610124565b600080fd5b6000819050919050565b6100d4816100c1565b81146100df57600080fd5b50565b6000815190506100f1816100cb565b92915050565b60006020828403121561010d5761010c6100bc565b5b600061011b848285016100e2565b91505092915050565b61196e806101336000396000f3fe6080604052600436106101025760003560e01c806370dea79a116100955780639a6e7fd1116100645780639a6e7fd1146102f65780639d19b226146103215780639e761bbb1461035e578063a330214e1461039b578063e834a834146103c457610109565b806370dea79a1461025e578063741c8907146102895780637fec8d38146102b45780638da5cb5b146102cb57610109565b80634e71d92d116100d15780634e71d92d146101de5780635926651d146101f557806359633a1c1461021e5780635c36b1861461024757610109565b8063015677391461010e5780632760c57e1461014b57806335d62d4d1461017657806341defe0c146101a157610109565b3661010957005b600080fd5b34801561011a57600080fd5b50610135600480360381019061013091906111a8565b6103ef565b60405161014291906111f0565b60405180910390f35b34801561015757600080fd5b5061016061040f565b60405161016d9190611224565b60405180910390f35b34801561018257600080fd5b5061018b610419565b6040516101989190611224565b60405180910390f35b3480156101ad57600080fd5b506101c860048036038101906101c3919061126b565b61041f565b6040516101d591906112a7565b60405180910390f35b3480156101ea57600080fd5b506101f36104ae565b005b34801561020157600080fd5b5061021c600480360381019061021791906111a8565b610707565b005b34801561022a57600080fd5b50610245600480360381019061024091906111a8565b6109e2565b005b34801561025357600080fd5b5061025c610d71565b005b34801561026a57600080fd5b50610273610ec6565b6040516102809190611224565b60405180910390f35b34801561029557600080fd5b5061029e610ecc565b6040516102ab91906111f0565b60405180910390f35b3480156102c057600080fd5b506102c9610edf565b005b3480156102d757600080fd5b506102e0610f84565b6040516102ed91906112a7565b60405180910390f35b34801561030257600080fd5b5061030b610fa8565b6040516103189190611224565b60405180910390f35b34801561032d57600080fd5b50610348600480360381019061034391906111a8565b610fb5565b60405161035591906111f0565b60405180910390f35b34801561036a57600080fd5b506103856004803603810190610380919061126b565b61100b565b60405161039291906112a7565b60405180910390f35b3480156103a757600080fd5b506103c260048036038101906103bd919061126b565b61104a565b005b3480156103d057600080fd5b506103d9611132565b6040516103e691906111f0565b60405180910390f35b60046020528060005260406000206000915054906101000a900460ff1681565b6000600254905090565b60025481565b60006005805490508210610468576040517f08c379a000000000000000000000000000000000000000000000000000000000815260040161045f9061131f565b60405180910390fd5b6005828154811061047c5761047b61133f565b5b9060005260206000200160009054906101000a900473ffffffffffffffffffffffffffffffffffffffff169050919050565b600460003373ffffffffffffffffffffffffffffffffffffffff1673ffffffffffffffffffffffffffffffffffffffff16815260200190815260200160002060009054906101000a900460ff1661053a576040517f08c379a0000000000000000000000000000000000000000000000000000000008152600401610531906113e0565b60405180910390fd5b600360009054906101000a900460ff16610589576040517f08c379a00000000000000000000000000000000000000000000000000000000081526004016105809061144c565b60405180910390fd5b600360019054906101000a900460ff16156105d9576040517f08c379a00000000000000000000000000000000000000000000000000000000081526004016105d0906114b8565b60405180910390fd5b6001600360016101000a81548160ff0219169083151502179055506000600580549050476106079190611536565b905060003373ffffffffffffffffffffffffffffffffffffffff168260405161062f90611598565b60006040518083038185875af1925050503d806000811461066c576040519150601f19603f3d011682016040523d82523d6000602084013e610671565b606091505b50509050806106b5576040517f08c379a00000000000000000000000000000000000000000000000000000000081526004016106ac906115f9565b60405180910390fd5b3373ffffffffffffffffffffffffffffffffffffffff167fa65a8b4f7f65a1063243d7f7e9e4da00ff767599acf21549ef2548a45d1695ae836040516106fb9190611224565b60405180910390a25050565b60008054906101000a900473ffffffffffffffffffffffffffffffffffffffff1673ffffffffffffffffffffffffffffffffffffffff163373ffffffffffffffffffffffffffffffffffffffff1614610795576040517f08c379a000000000000000000000000000000000000000000000000000000000815260040161078c90611665565b60405180910390fd5b600360009054906101000a900460ff16156107e5576040517f08c379a00000000000000000000000000000000000000000000000000000000081526004016107dc906116d1565b60405180910390fd5b600073ffffffffffffffffffffffffffffffffffffffff168173ffffffffffffffffffffffffffffffffffffffff1603610854576040517f08c379a000000000000000000000000000000000000000000000000000000000815260040161084b9061173d565b60405180910390fd5b600460008273ffffffffffffffffffffffffffffffffffffffff1673ffffffffffffffffffffffffffffffffffffffff16815260200190815260200160002060009054906101000a900460ff16156108e1576040517f08c379a00000000000000000000000000000000000000000000000000000000081526004016108d8906117a9565b60405180910390fd5b6001600460008373ffffffffffffffffffffffffffffffffffffffff1673ffffffffffffffffffffffffffffffffffffffff16815260200190815260200160002060006101000a81548160ff0219169083151502179055506005819080600181540180825580915050600190039060005260206000200160009091909190916101000a81548173ffffffffffffffffffffffffffffffffffffffff021916908373ffffffffffffffffffffffffffffffffffffffff1602179055508073ffffffffffffffffffffffffffffffffffffffff167fc3e089fc6227e049d0e41c3d7a383d57efe69c1955c5752f7e5a9b5f1f11302060405160405180910390a250565b60008054906101000a900473ffffffffffffffffffffffffffffffffffffffff1673ffffffffffffffffffffffffffffffffffffffff163373ffffffffffffffffffffffffffffffffffffffff1614610a70576040517f08c379a0000000000000000000000000000000000000000000000000000000008152600401610a6790611665565b60405180910390fd5b600360009054906101000a900460ff1615610ac0576040517f08c379a0000000000000000000000000000000000000000000000000000000008152600401610ab7906116d1565b60405180910390fd5b600460008273ffffffffffffffffffffffffffffffffffffffff1673ffffffffffffffffffffffffffffffffffffffff16815260200190815260200160002060009054906101000a900460ff16610b4c576040517f08c379a0000000000000000000000000000000000000000000000000000000008152600401610b4390611815565b60405180910390fd5b6000600460008373ffffffffffffffffffffffffffffffffffffffff1673ffffffffffffffffffffffffffffffffffffffff16815260200190815260200160002060006101000a81548160ff02191690831515021790555060005b600580549050811015610d2a578173ffffffffffffffffffffffffffffffffffffffff1660058281548110610bdf57610bde61133f565b5b9060005260206000200160009054906101000a900473ffffffffffffffffffffffffffffffffffffffff1673ffffffffffffffffffffffffffffffffffffffff1603610d1d5760056001600580549050610c399190611835565b81548110610c4a57610c4961133f565b5b9060005260206000200160009054906101000a900473ffffffffffffffffffffffffffffffffffffffff1660058281548110610c8957610c8861133f565b5b9060005260206000200160006101000a81548173ffffffffffffffffffffffffffffffffffffffff021916908373ffffffffffffffffffffffffffffffffffffffff1602179055506005805480610ce357610ce2611869565b5b6001900381819060005260206000200160006101000a81549073ffffffffffffffffffffffffffffffffffffffff02191690559055610d2a565b8080600101915050610ba7565b508073ffffffffffffffffffffffffffffffffffffffff167f72977dad29432f655f11c2f0e72ef5124bb9ade7a512fb7a43a9f504df22342860405160405180910390a250565b60008054906101000a900473ffffffffffffffffffffffffffffffffffffffff1673ffffffffffffffffffffffffffffffffffffffff163373ffffffffffffffffffffffffffffffffffffffff1614610dff576040517f08c379a0000000000000000000000000000000000000000000000000000000008152600401610df690611665565b60405180910390fd5b600360009054906101000a900460ff1615610e4f576040517f08c379a0000000000000000000000000000000000000000000000000000000008152600401610e46906116d1565b60405180910390fd5b4260028190555060008054906101000a900473ffffffffffffffffffffffffffffffffffffffff1673ffffffffffffffffffffffffffffffffffffffff167f78a327424158f99dcde9deeb550e97c0f1d53b23ebaec3ac54a53f58504b3c8542604051610ebc9190611224565b60405180910390a2565b60015481565b600360009054906101000a900460ff1681565b600154600254610eef9190611898565b4211610f30576040517f08c379a0000000000000000000000000000000000000000000000000000000008152600401610f2790611918565b60405180910390fd5b6001600360006101000a81548160ff0219169083151502179055507fcdeba0448cafa891383055f46f2fec420e049fab5171b5b30b5458c0320f68fb42604051610f7a9190611224565b60405180910390a1565b60008054906101000a900473ffffffffffffffffffffffffffffffffffffffff1681565b6000600580549050905090565b6000600460008373ffffffffffffffffffffffffffffffffffffffff1673ffffffffffffffffffffffffffffffffffffffff16815260200190815260200160002060009054906101000a900460ff169050919050565b6005818154811061101b57600080fd5b906000526020600020016000915054906101000a900473ffffffffffffffffffffffffffffffffffffffff1681565b60008054906101000a900473ffffffffffffffffffffffffffffffffffffffff1673ffffffffffffffffffffffffffffffffffffffff163373ffffffffffffffffffffffffffffffffffffffff16146110d8576040517f08c379a00000000000000000000000000000000000000000000000000000000081526004016110cf90611665565b60405180910390fd5b600360009054906101000a900460ff1615611128576040517f08c379a000000000000000000000000000000000000000000000000000000000815260040161111f906116d1565b60405180910390fd5b8060018190555050565b600360019054906101000a900460ff1681565b600080fd5b600073ffffffffffffffffffffffffffffffffffffffff82169050919050565b60006111758261114a565b9050919050565b6111858161116a565b811461119057600080fd5b50565b6000813590506111a28161117c565b92915050565b6000602082840312156111be576111bd611145565b5b60006111cc84828501611193565b91505092915050565b60008115159050919050565b6111ea816111d5565b82525050565b600060208201905061120560008301846111e1565b92915050565b6000819050919050565b61121e8161120b565b82525050565b60006020820190506112396000830184611215565b92915050565b6112488161120b565b811461125357600080fd5b50565b6000813590506112658161123f565b92915050565b60006020828403121561128157611280611145565b5b600061128f84828501611256565b91505092915050565b6112a18161116a565b82525050565b60006020820190506112bc6000830184611298565b92915050565b600082825260208201905092915050565b7f496e646578206f7574206f6620626f756e647300000000000000000000000000600082015250565b60006113096013836112c2565b9150611314826112d3565b602082019050919050565b60006020820190508181036000830152611338816112fc565b9050919050565b7f4e487b7100000000000000000000000000000000000000000000000000000000600052603260045260246000fd5b7f4f6e6c7920726567697374657265642062656e6566696369617269657320636160008201527f6e2063616c6c20746869732066756e6374696f6e000000000000000000000000602082015250565b60006113ca6034836112c2565b91506113d58261136e565b604082019050919050565b600060208201905081810360008301526113f9816113bd565b9050919050565b7f4e6f742074726967676572656420796574000000000000000000000000000000600082015250565b60006114366011836112c2565b915061144182611400565b602082019050919050565b6000602082019050818103600083015261146581611429565b9050919050565b7f416c726561647920636c61696d65640000000000000000000000000000000000600082015250565b60006114a2600f836112c2565b91506114ad8261146c565b602082019050919050565b600060208201905081810360008301526114d181611495565b9050919050565b7f4e487b7100000000000000000000000000000000000000000000000000000000600052601260045260246000fd5b7f4e487b7100000000000000000000000000000000000000000000000000000000600052601160045260246000fd5b60006115418261120b565b915061154c8361120b565b92508261155c5761155b6114d8565b5b828204905092915050565b600081905092915050565b50565b6000611582600083611567565b915061158d82611572565b600082019050919050565b60006115a382611575565b9150819050919050565b7f5472616e73666572206661696c65640000000000000000000000000000000000600082015250565b60006115e3600f836112c2565b91506115ee826115ad565b602082019050919050565b60006020820190508181036000830152611612816115d6565b9050919050565b7f4e6f74206f776e65720000000000000000000000000000000000000000000000600082015250565b600061164f6009836112c2565b915061165a82611619565b602082019050919050565b6000602082019050818103600083015261167e81611642565b9050919050565b7f53776974636820616c7265616479207472696767657265640000000000000000600082015250565b60006116bb6018836112c2565b91506116c682611685565b602082019050919050565b600060208201905081810360008301526116ea816116ae565b9050919050565b7f496e76616c696420616464726573730000000000000000000000000000000000600082015250565b6000611727600f836112c2565b9150611732826116f1565b602082019050919050565b600060208201905081810360008301526117568161171a565b9050919050565b7f42656e656669636961727920616c726561647920657869737473000000000000600082015250565b6000611793601a836112c2565b915061179e8261175d565b602082019050919050565b600060208201905081810360008301526117c281611786565b9050919050565b7f42656e656669636961727920646f65736e277420657869737400000000000000600082015250565b60006117ff6019836112c2565b915061180a826117c9565b602082019050919050565b6000602082019050818103600083015261182e816117f2565b9050919050565b60006118408261120b565b915061184b8361120b565b925082820390508181111561186357611862611507565b5b92915050565b7f4e487b7100000000000000000000000000000000000000000000000000000000600052603160045260246000fd5b60006118a38261120b565b91506118ae8361120b565b92508282019050808211156118c6576118c5611507565b5b92915050565b7f5374696c6c206163746976650000000000000000000000000000000000000000600082015250565b6000611902600c836112c2565b915061190d826118cc565b602082019050919050565b60006020820190508181036000830152611931816118f5565b905091905056fea264697066735822122035d320c87ec41af4a1f11c320f3856be89bfdb90868eb8645e30ce98045fd93164736f6c634300081c0033",
  "linkReferences": {},
  "deployedLinkReferences": {}
}